Component: ARM Compiler 5.06 update 7 (build 960) Tool: armlink [4d3601]

==============================================================================

Section Cross References

    startup_stm32l431xx.o(STACK) refers (Special) to heapauxi.o(.text) for __use_two_region_memory
    startup_stm32l431xx.o(HEAP) refers (Special) to heapauxi.o(.text) for __use_two_region_memory
    startup_stm32l431xx.o(RESET) refers (Special) to heapauxi.o(.text) for __use_two_region_memory
    startup_stm32l431xx.o(RESET) refers to startup_stm32l431xx.o(STACK) for __initial_sp
    startup_stm32l431xx.o(RESET) refers to startup_stm32l431xx.o(.text) for Reset_Handler
    startup_stm32l431xx.o(RESET) refers to stm32l4xx_it.o(i.NMI_Handler) for NMI_Handler
    startup_stm32l431xx.o(RESET) refers to stm32l4xx_it.o(i.HardFault_Handler) for HardFault_Handler
    startup_stm32l431xx.o(RESET) refers to stm32l4xx_it.o(i.MemManage_Handler) for MemManage_Handler
    startup_stm32l431xx.o(RESET) refers to stm32l4xx_it.o(i.BusFault_Handler) for BusFault_Handler
    startup_stm32l431xx.o(RESET) refers to stm32l4xx_it.o(i.UsageFault_Handler) for UsageFault_Handler
    startup_stm32l431xx.o(RESET) refers to stm32l4xx_it.o(i.SVC_Handler) for SVC_Handler
    startup_stm32l431xx.o(RESET) refers to stm32l4xx_it.o(i.DebugMon_Handler) for DebugMon_Handler
    startup_stm32l431xx.o(RESET) refers to stm32l4xx_it.o(i.PendSV_Handler) for PendSV_Handler
    startup_stm32l431xx.o(RESET) refers to stm32l4xx_it.o(i.SysTick_Handler) for SysTick_Handler
    startup_stm32l431xx.o(RESET) refers to stm32l4xx_it.o(i.DMA1_Channel3_IRQHandler) for DMA1_Channel3_IRQHandler
    startup_stm32l431xx.o(RESET) refers to stm32l4xx_it.o(i.SPI1_IRQHandler) for SPI1_IRQHandler
    startup_stm32l431xx.o(RESET) refers to stm32l4xx_it.o(i.TIM6_DAC_IRQHandler) for TIM6_DAC_IRQHandler
    startup_stm32l431xx.o(RESET) refers to stm32l4xx_it.o(i.TIM7_IRQHandler) for TIM7_IRQHandler
==============================================================================

Removing Unused input sections from the image.

    Removing st7789.o(.rev16_text), (4 bytes).
    Removing st7789.o(.revsh_text), (4 bytes).
    Removing st7789.o(.rrx_text), (6 bytes).
    Removing st7789.o(i.ST7789_Fill_Color), (66 bytes).
    Removing st7789.o(i.ST7789_TearEffect), (20 bytes).
    Removing st7789.o(i.touchgfxDisplayDriverShouldTransferBlock), (6 bytes).
    Removing st7789.o(i.touchgfxDisplayDriverTransmitActive), (12 bytes).
    Removing st7789.o(i.touchgfxDisplayDriverTransmitBlock), (44 bytes).
    Removing norflash.o(.rev16_text), (4 bytes).
    Removing norflash.o(.revsh_text), (4 bytes).
    Removing norflash.o(.rrx_text), (6 bytes).
    Removing norflash.o(i.NORFLASH_Erase_Chip), (28 bytes).
    Removing norflash.o(i.NORFLASH_Erase_Sector), (32 bytes).
    Removing norflash.o(i.NORFLASH_Qspi_Disable), (28 bytes).
    Removing norflash.o(i.NORFLASH_Read), (30 bytes).
    Removing norflash.o(i.NORFLASH_Wait_Busy), (20 bytes).
    Removing norflash.o(i.NORFLASH_Write), (190 bytes).
    Removing norflash.o(i.NORFLASH_Write_Disable), (40 bytes).
==============================================================================

Image Symbol Table

    Local Symbols

    Symbol Name                              Value     Ov Type        Size  Object(Section)

    ../Core/Src/crc.c                        0x00000000   Number         0  crc.o ABSOLUTE
    ../Core/Src/dma.c                        0x00000000   Number         0  dma.o ABSOLUTE
    ../Core/Src/gpio.c                       0x00000000   Number         0  gpio.o ABSOLUTE
    ../Core/Src/i2c.c                        0x00000000   Number         0  i2c.o ABSOLUTE
    ../Core/Src/main.c                       0x00000000   Number         0  main.o ABSOLUTE
    ../Core/Src/quadspi.c                    0x00000000   Number         0  quadspi.o ABSOLUTE
    ../Core/Src/spi.c                        0x00000000   Number         0  spi.o ABSOLUTE
    ../Core/Src/stm32l4xx_hal_msp.c          0x00000000   Number         0  stm32l4xx_hal_msp.o ABSOLUTE
    ../Core/Src/stm32l4xx_hal_timebase_tim.c 0x00000000   Number         0  stm32l4xx_hal_timebase_tim.o ABSOLUTE
    ../Core/Src/stm32l4xx_it.c               0x00000000   Number         0  stm32l4xx_it.o ABSOLUTE
    ../Core/Src/system_stm32l4xx.c           0x00000000   Number         0  system_stm32l4xx.o ABSOLUTE
    ../Core/Src/tim.c                        0x00000000   Number         0  tim.o ABSOLUTE
    ../Core/Src/usart.c                      0x00000000   Number         0  usart.o ABSOLUTE
    ../Drivers/STM32L4xx_HAL_Driver/Src/stm32l4xx_hal.c 0x00000000   Number         0  stm32l4xx_hal.o ABSOLUTE
    ../Drivers/STM32L4xx_HAL_Driver/Src/stm32l4xx_hal_cortex.c 0x00000000   Number         0  stm32l4xx_hal_cortex.o ABSOLUTE
    ../Drivers/STM32L4xx_HAL_Driver/Src/stm32l4xx_hal_crc.c 0x00000000   Number         0  stm32l4xx_hal_crc.o ABSOLUTE
    ../Drivers/STM32L4xx_HAL_Driver/Src/stm32l4xx_hal_crc_ex.c 0x00000000   Number         0  stm32l4xx_hal_crc_ex.o ABSOLUTE
    ../Drivers/STM32L4xx_HAL_Driver/Src/stm32l4xx_hal_dma.c 0x00000000   Number         0  stm32l4xx_hal_dma.o ABSOLUTE
    ../Drivers/STM32L4xx_HAL_Driver/Src/stm32l4xx_hal_dma_ex.c 0x00000000   Number         0  stm32l4xx_hal_dma_ex.o ABSOLUTE
    ../Drivers/STM32L4xx_HAL_Driver/Src/stm32l4xx_hal_exti.c 0x00000000   Number         0  stm32l4xx_hal_exti.o ABSOLUTE
    ../Drivers/STM32L4xx_HAL_Driver/Src/stm32l4xx_hal_flash.c 0x00000000   Number         0  stm32l4xx_hal_flash.o ABSOLUTE
    ../Drivers/STM32L4xx_HAL_Driver/Src/stm32l4xx_hal_flash_ex.c 0x00000000   Number         0  stm32l4xx_hal_flash_ex.o ABSOLUTE
    ../Drivers/STM32L4xx_HAL_Driver/Src/stm32l4xx_hal_flash_ramfunc.c 0x00000000   Number         0  stm32l4xx_hal_flash_ramfunc.o ABSOLUTE
    ../Drivers/STM32L4xx_HAL_Driver/Src/stm32l4xx_hal_gpio.c 0x00000000   Number         0  stm32l4xx_hal_gpio.o ABSOLUTE
    ../Drivers/STM32L4xx_HAL_Driver/Src/stm32l4xx_hal_i2c.c 0x00000000   Number         0  stm32l4xx_hal_i2c.o ABSOLUTE
    ../Drivers/STM32L4xx_HAL_Driver/Src/stm32l4xx_hal_i2c_ex.c 0x00000000   Number         0  stm32l4xx_hal_i2c_ex.o ABSOLUTE
    ../Drivers/STM32L4xx_HAL_Driver/Src/stm32l4xx_hal_pwr.c 0x00000000   Number         0  stm32l4xx_hal_pwr.o ABSOLUTE
    ../Drivers/STM32L4xx_HAL_Driver/Src/stm32l4xx_hal_pwr_ex.c 0x00000000   Number         0  stm32l4xx_hal_pwr_ex.o ABSOLUTE
    ../Drivers/STM32L4xx_HAL_Driver/Src/stm32l4xx_hal_qspi.c 0x00000000   Number         0  stm32l4xx_hal_qspi.o ABSOLUTE
    ../Drivers/STM32L4xx_HAL_Driver/Src/stm32l4xx_hal_rcc.c 0x00000000   Number         0  stm32l4xx_hal_rcc.o ABSOLUTE
    ../Drivers/STM32L4xx_HAL_Driver/Src/stm32l4xx_hal_rcc_ex.c 0x00000000   Number         0  stm32l4xx_hal_rcc_ex.o ABSOLUTE
    ../Drivers/STM32L4xx_HAL_Driver/Src/stm32l4xx_hal_spi.c 0x00000000   Number         0  stm32l4xx_hal_spi.o ABSOLUTE
    ../Drivers/STM32L4xx_HAL_Driver/Src/stm32l4xx_hal_spi_ex.c 0x00000000   Number         0  stm32l4xx_hal_spi_ex.o ABSOLUTE
    ../Drivers/STM32L4xx_HAL_Driver/Src/stm32l4xx_hal_tim.c 0x00000000   Number         0  stm32l4xx_hal_tim.o ABSOLUTE
    ../Drivers/STM32L4xx_HAL_Driver/Src/stm32l4xx_hal_tim_ex.c 0x00000000   Number         0  stm32l4xx_hal_tim_ex.o ABSOLUTE
    ../Drivers/STM32L4xx_HAL_Driver/Src/stm32l4xx_hal_uart.c 0x00000000   Number         0  stm32l4xx_hal_uart.o ABSOLUTE
    ../Drivers/STM32L4xx_HAL_Driver/Src/stm32l4xx_hal_uart_ex.c 0x00000000   Number         0  stm32l4xx_hal_uart_ex.o ABSOLUTE
    ../clib/angel/boardlib.s                 0x00000000   Number         0  boardshut.o ABSOLUTE
    ../clib/angel/boardlib.s                 0x00000000   Number         0  boardinit1.o ABSOLUTE
    ../clib/angel/boardlib.s                 0x00000000   Number         0  boardinit3.o ABSOLUTE
    ../clib/angel/boardlib.s                 0x00000000   Number         0  boardinit2.o ABSOLUTE
    ../clib/angel/dczerorl2.s                0x00000000   Number         0  __dczerorl2.o ABSOLUTE
    ../clib/angel/handlers.s                 0x00000000   Number         0  __scatter_zi.o ABSOLUTE
    ../clib/angel/kernel.s                   0x00000000   Number         0  __rtentry.o ABSOLUTE
    ../clib/angel/kernel.s                   0x00000000   Number         0  __rtentry4.o ABSOLUTE
    ../clib/angel/kernel.s                   0x00000000   Number         0  rtexit2.o ABSOLUTE
    ../clib/angel/kernel.s                   0x00000000   Number         0  rtexit.o ABSOLUTE
    ../clib/angel/kernel.s                   0x00000000   Number         0  __rtentry2.o ABSOLUTE
    ../clib/angel/rt.s                       0x00000000   Number         0  rt_raise.o ABSOLUTE
    ../clib/angel/rt.s                       0x00000000   Number         0  aeabi_ldiv0.o ABSOLUTE
    ../clib/angel/rt.s                       0x00000000   Number         0  aeabi_ldiv0_sigfpe.o ABSOLUTE
    ../clib/angel/rt.s                       0x00000000   Number         0  rt_div0.o ABSOLUTE
    ../clib/angel/scatter.s                  0x00000000   Number         0  __scatter.o ABSOLUTE
    ../clib/angel/startup.s                  0x00000000   Number         0  __main.o ABSOLUTE
    ../clib/angel/sys.s                      0x00000000   Number         0  indicate_semi.o ABSOLUTE
    ../clib/angel/sys.s                      0x00000000   Number         0  use_no_semi.o ABSOLUTE
    ../clib/angel/sys.s                      0x00000000   Number         0  libspace.o ABSOLUTE
    ../clib/angel/sys.s                      0x00000000   Number         0  sys_stackheap_outer.o ABSOLUTE
    ../clib/angel/sysapp.c                   0x00000000   Number         0  sys_wrch.o ABSOLUTE
    ../clib/angel/sysapp.c                   0x00000000   Number         0  sys_command.o ABSOLUTE
    ../clib/angel/sysapp.c                   0x00000000   Number         0  sys_exit.o ABSOLUTE
    ../clib/armsys.c                         0x00000000   Number         0  _get_argv_nomalloc.o ABSOLUTE
    ../clib/armsys.c                         0x00000000   Number         0  no_argv.o ABSOLUTE
    ../clib/armsys.c                         0x00000000   Number         0  argv_veneer.o ABSOLUTE
    ../clib/armsys.c                         0x00000000   Number         0  argv_veneer.o ABSOLUTE
    ../clib/assert.c                         0x00000000   Number         0  assert_puts.o ABSOLUTE
    ../clib/assert.c                         0x00000000   Number         0  assert.o ABSOLUTE
    ../clib/heapalloc.c                      0x00000000   Number         0  hrguard.o ABSOLUTE
    ../clib/heapaux.c                        0x00000000   Number         0  heapauxi.o ABSOLUTE
    ../clib/libinit.s                        0x00000000   Number         0  libshutdown.o ABSOLUTE
    ../clib/libinit.s                        0x00000000   Number         0  libshutdown2.o ABSOLUTE
    ../clib/libinit.s                        0x00000000   Number         0  libinit2.o ABSOLUTE
    ../clib/libinit.s                        0x00000000   Number         0  libinit.o ABSOLUTE
    ../clib/longlong.s                       0x00000000   Number         0  lludivv7m.o ABSOLUTE
    ../clib/memcpset.s                       0x00000000   Number         0  rt_memcpy_v6.o ABSOLUTE
    ../clib/memcpset.s                       0x00000000   Number         0  rt_memmove_w.o ABSOLUTE
    ../clib/memcpset.s                       0x00000000   Number         0  rt_memclr_w.o ABSOLUTE
    ../clib/memcpset.s                       0x00000000   Number         0  rt_memclr.o ABSOLUTE
    ../clib/memcpset.s                       0x00000000   Number         0  rt_memcpy_w.o ABSOLUTE
    ../clib/memcpset.s                       0x00000000   Number         0  strcmpv7m.o ABSOLUTE
    ../clib/memcpset.s                       0x00000000   Number         0  rt_memmove_v6.o ABSOLUTE
    ../clib/signal.c                         0x00000000   Number         0  defsig_rtmem_formal.o ABSOLUTE
    ../clib/signal.c                         0x00000000   Number         0  defsig_fpe_formal.o ABSOLUTE
    ../clib/signal.c                         0x00000000   Number         0  defsig_rtred_inner.o ABSOLUTE
    ../clib/signal.c                         0x00000000   Number         0  defsig_pvfn_inner.o ABSOLUTE
    ../clib/signal.c                         0x00000000   Number         0  defsig_stak_inner.o ABSOLUTE
    ../clib/signal.c                         0x00000000   Number         0  defsig_rtmem_inner.o ABSOLUTE
    ../clib/signal.c                         0x00000000   Number         0  defsig_fpe_inner.o ABSOLUTE
    ../clib/signal.c                         0x00000000   Number         0  defsig_abrt_formal.o ABSOLUTE
    ../clib/signal.c                         0x00000000   Number         0  defsig_rtmem_outer.o ABSOLUTE
    ../clib/signal.c                         0x00000000   Number         0  defsig_general.o ABSOLUTE
    ../clib/signal.c                         0x00000000   Number         0  defsig_other.o ABSOLUTE
    ../clib/signal.c                         0x00000000   Number         0  defsig_exit.o ABSOLUTE
    ../clib/signal.c                         0x00000000   Number         0  __raise.o ABSOLUTE
    ../clib/signal.c                         0x00000000   Number         0  defsig_abrt_outer.o ABSOLUTE
    ../clib/signal.c                         0x00000000   Number         0  defsig_segv_inner.o ABSOLUTE
    ../clib/signal.c                         0x00000000   Number         0  defsig_cppl_inner.o ABSOLUTE
    ../clib/signal.c                         0x00000000   Number         0  defsig_abrt_inner.o ABSOLUTE
    ../clib/signal.c                         0x00000000   Number         0  defsig_fpe_outer.o ABSOLUTE
    ../clib/signal.s                         0x00000000   Number         0  defsig.o ABSOLUTE
    ../clib/stdlib.c                         0x00000000   Number         0  abort.o ABSOLUTE
    ../clib/stdlib.c                         0x00000000   Number         0  exit.o ABSOLUTE
    ../clib/string.c                         0x00000000   Number         0  strcat.o ABSOLUTE
    ../clib/string.c                         0x00000000   Number         0  strlen.o ABSOLUTE
    ../clib/string.c                         0x00000000   Number         0  strcpy.o ABSOLUTE
    ../clib/string.c                         0x00000000   Number         0  memcmp.o ABSOLUTE
    ../clib/string.c                         0x00000000   Number         0  strchr.o ABSOLUTE
    ../fplib/daddsub.s                       0x00000000   Number         0  daddsub_clz.o ABSOLUTE
    ../fplib/ddiv.s                          0x00000000   Number         0  ddiv.o ABSOLUTE
    ../fplib/dfixu.s                         0x00000000   Number         0  dfixu.o ABSOLUTE
    ../fplib/dflt.s                          0x00000000   Number         0  dflt_clz.o ABSOLUTE
    ../fplib/dmul.s                          0x00000000   Number         0  dmul.o ABSOLUTE
    ../fplib/dnaninf.s                       0x00000000   Number         0  dnaninf.o ABSOLUTE
    ../fplib/dretinf.s                       0x00000000   Number         0  dretinf.o ABSOLUTE
    ../fplib/fpinit.s                        0x00000000   Number         0  fpinit.o ABSOLUTE
    ../fplib/usenofp.s                       0x00000000   Number         0  usenofp.o ABSOLUTE
    ..\Core\Src\crc.c                        0x00000000   Number         0  crc.o ABSOLUTE
    ..\Core\Src\dma.c                        0x00000000   Number         0  dma.o ABSOLUTE
    ..\Core\Src\gpio.c                       0x00000000   Number         0  gpio.o ABSOLUTE
    ..\Core\Src\i2c.c                        0x00000000   Number         0  i2c.o ABSOLUTE
    ..\Core\Src\main.c                       0x00000000   Number         0  main.o ABSOLUTE
    ..\Core\Src\quadspi.c                    0x00000000   Number         0  quadspi.o ABSOLUTE
    ..\Core\Src\spi.c                        0x00000000   Number         0  spi.o ABSOLUTE
    ..\Core\Src\stm32l4xx_hal_msp.c          0x00000000   Number         0  stm32l4xx_hal_msp.o ABSOLUTE
    ..\Core\Src\stm32l4xx_hal_timebase_tim.c 0x00000000   Number         0  stm32l4xx_hal_timebase_tim.o ABSOLUTE
    ..\Core\Src\stm32l4xx_it.c               0x00000000   Number         0  stm32l4xx_it.o ABSOLUTE
    ..\Core\Src\system_stm32l4xx.c           0x00000000   Number         0  system_stm32l4xx.o ABSOLUTE
    ..\Core\Src\tim.c                        0x00000000   Number         0  tim.o ABSOLUTE
    ..\Core\Src\usart.c                      0x00000000   Number         0  usart.o ABSOLUTE
    ..\Drivers\NS2009\ns2009.c               0x00000000   Number         0  ns2009.o ABSOLUTE
    ..\Drivers\Norflash\norflash.c           0x00000000   Number         0  norflash.o ABSOLUTE
    ..\Drivers\Norflash\qspi.c               0x00000000   Number         0  qspi.o ABSOLUTE
    ..\Drivers\ST7789\st7789.c               0x00000000   Number         0  st7789.o ABSOLUTE
    ..\Drivers\STM32L4xx_HAL_Driver\Src\stm32l4xx_hal.c 0x00000000   Number         0  stm32l4xx_hal.o ABSOLUTE
    ..\Drivers\STM32L4xx_HAL_Driver\Src\stm32l4xx_hal_cortex.c 0x00000000   Number         0  stm32l4xx_hal_cortex.o ABSOLUTE
    ..\Drivers\STM32L4xx_HAL_Driver\Src\stm32l4xx_hal_crc.c 0x00000000   Number         0  stm32l4xx_hal_crc.o ABSOLUTE
    ..\Drivers\STM32L4xx_HAL_Driver\Src\stm32l4xx_hal_crc_ex.c 0x00000000   Number         0  stm32l4xx_hal_crc_ex.o ABSOLUTE
    ..\Drivers\STM32L4xx_HAL_Driver\Src\stm32l4xx_hal_dma.c 0x00000000   Number         0  stm32l4xx_hal_dma.o ABSOLUTE
    ..\Drivers\STM32L4xx_HAL_Driver\Src\stm32l4xx_hal_dma_ex.c 0x00000000   Number         0  stm32l4xx_hal_dma_ex.o ABSOLUTE
    ..\Drivers\STM32L4xx_HAL_Driver\Src\stm32l4xx_hal_exti.c 0x00000000   Number         0  stm32l4xx_hal_exti.o ABSOLUTE
    ..\Drivers\STM32L4xx_HAL_Driver\Src\stm32l4xx_hal_flash.c 0x00000000   Number         0  stm32l4xx_hal_flash.o ABSOLUTE
    ..\Drivers\STM32L4xx_HAL_Driver\Src\stm32l4xx_hal_flash_ex.c 0x00000000   Number         0  stm32l4xx_hal_flash_ex.o ABSOLUTE
    ..\Drivers\STM32L4xx_HAL_Driver\Src\stm32l4xx_hal_flash_ramfunc.c 0x00000000   Number         0  stm32l4xx_hal_flash_ramfunc.o ABSOLUTE
    ..\Drivers\STM32L4xx_HAL_Driver\Src\stm32l4xx_hal_gpio.c 0x00000000   Number         0  stm32l4xx_hal_gpio.o ABSOLUTE
    ..\Drivers\STM32L4xx_HAL_Driver\Src\stm32l4xx_hal_i2c.c 0x00000000   Number         0  stm32l4xx_hal_i2c.o ABSOLUTE
    ..\Drivers\STM32L4xx_HAL_Driver\Src\stm32l4xx_hal_i2c_ex.c 0x00000000   Number         0  stm32l4xx_hal_i2c_ex.o ABSOLUTE
    ..\Drivers\STM32L4xx_HAL_Driver\Src\stm32l4xx_hal_pwr.c 0x00000000   Number         0  stm32l4xx_hal_pwr.o ABSOLUTE
    ..\Drivers\STM32L4xx_HAL_Driver\Src\stm32l4xx_hal_pwr_ex.c 0x00000000   Number         0  stm32l4xx_hal_pwr_ex.o ABSOLUTE
    ..\Drivers\STM32L4xx_HAL_Driver\Src\stm32l4xx_hal_qspi.c 0x00000000   Number         0  stm32l4xx_hal_qspi.o ABSOLUTE
    ..\Drivers\STM32L4xx_HAL_Driver\Src\stm32l4xx_hal_rcc.c 0x00000000   Number         0  stm32l4xx_hal_rcc.o ABSOLUTE
    ..\Drivers\STM32L4xx_HAL_Driver\Src\stm32l4xx_hal_rcc_ex.c 0x00000000   Number         0  stm32l4xx_hal_rcc_ex.o ABSOLUTE
    ..\Drivers\STM32L4xx_HAL_Driver\Src\stm32l4xx_hal_spi.c 0x00000000   Number         0  stm32l4xx_hal_spi.o ABSOLUTE
    ..\Drivers\STM32L4xx_HAL_Driver\Src\stm32l4xx_hal_spi_ex.c 0x00000000   Number         0  stm32l4xx_hal_spi_ex.o ABSOLUTE
    ..\Drivers\STM32L4xx_HAL_Driver\Src\stm32l4xx_hal_tim.c 0x00000000   Number         0  stm32l4xx_hal_tim.o ABSOLUTE
    ..\Drivers\STM32L4xx_HAL_Driver\Src\stm32l4xx_hal_tim_ex.c 0x00000000   Number         0  stm32l4xx_hal_tim_ex.o ABSOLUTE
    ..\Drivers\STM32L4xx_HAL_Driver\Src\stm32l4xx_hal_uart.c 0x00000000   Number         0  stm32l4xx_hal_uart.o ABSOLUTE
    ..\Drivers\STM32L4xx_HAL_Driver\Src\stm32l4xx_hal_uart_ex.c 0x00000000   Number         0  stm32l4xx_hal_uart_ex.o ABSOLUTE
    ..\UI\image_a1.c                         0x00000000   Number         0  image_a1.o ABSOLUTE
    ..\UI\image_a2.c                         0x00000000   Number         0  image_a2.o ABSOLUTE
    ..\UI\image_a3.c                         0x00000000   Number         0  image_a3.o ABSOLUTE
    ..\UI\image_a4.c                         0x00000000   Number         0  image_a4.o ABSOLUTE
    ..\UI\image_a5.c                         0x00000000   Number         0  image_a5.o ABSOLUTE
    ..\UI\image_a6.c                         0x00000000   Number         0  image_a6.o ABSOLUTE
    ..\UI\image_a7.c                         0x00000000   Number         0  image_a7.o ABSOLUTE
    ..\UI\simple_demo.c                      0x00000000   Number         0  simple_demo.o ABSOLUTE
    ..\\Drivers\\NS2009\\ns2009.c            0x00000000   Number         0  ns2009.o ABSOLUTE
    ..\\Drivers\\Norflash\\norflash.c        0x00000000   Number         0  norflash.o ABSOLUTE
    ..\\Drivers\\Norflash\\qspi.c            0x00000000   Number         0  qspi.o ABSOLUTE
    ..\\Drivers\\ST7789\\st7789.c            0x00000000   Number         0  st7789.o ABSOLUTE
    ..\\lvgl\\port\\disp.c                   0x00000000   Number         0  disp.o ABSOLUTE
    ..\\lvgl\\port\\indev.c                  0x00000000   Number         0  indev.o ABSOLUTE
    ..\lvgl\Src\core\lv_disp.c               0x00000000   Number         0  lv_disp.o ABSOLUTE
    ..\lvgl\Src\core\lv_event.c              0x00000000   Number         0  lv_event.o ABSOLUTE
    ..\lvgl\Src\core\lv_group.c              0x00000000   Number         0  lv_group.o ABSOLUTE
    ..\lvgl\Src\core\lv_indev.c              0x00000000   Number         0  lv_indev.o ABSOLUTE
    ..\lvgl\Src\core\lv_indev_scroll.c       0x00000000   Number         0  lv_indev_scroll.o ABSOLUTE
    ..\lvgl\Src\core\lv_obj.c                0x00000000   Number         0  lv_obj.o ABSOLUTE
    ..\lvgl\Src\core\lv_obj_class.c          0x00000000   Number         0  lv_obj_class.o ABSOLUTE
    ..\lvgl\Src\core\lv_obj_draw.c           0x00000000   Number         0  lv_obj_draw.o ABSOLUTE
    ..\lvgl\Src\core\lv_obj_pos.c            0x00000000   Number         0  lv_obj_pos.o ABSOLUTE
    ..\lvgl\Src\core\lv_obj_scroll.c         0x00000000   Number         0  lv_obj_scroll.o ABSOLUTE
    ..\lvgl\Src\core\lv_obj_style.c          0x00000000   Number         0  lv_obj_style.o ABSOLUTE
    ..\lvgl\Src\core\lv_obj_style_gen.c      0x00000000   Number         0  lv_obj_style_gen.o ABSOLUTE
    ..\lvgl\Src\core\lv_obj_tree.c           0x00000000   Number         0  lv_obj_tree.o ABSOLUTE
    ..\lvgl\Src\core\lv_refr.c               0x00000000   Number         0  lv_refr.o ABSOLUTE
    ..\lvgl\Src\core\lv_theme.c              0x00000000   Number         0  lv_theme.o ABSOLUTE
    ..\lvgl\Src\draw\lv_draw.c               0x00000000   Number         0  lv_draw.o ABSOLUTE
    ..\lvgl\Src\draw\lv_draw_arc.c           0x00000000   Number         0  lv_draw_arc.o ABSOLUTE
    ..\lvgl\Src\draw\lv_draw_img.c           0x00000000   Number         0  lv_draw_img.o ABSOLUTE
    ..\lvgl\Src\draw\lv_draw_label.c         0x00000000   Number         0  lv_draw_label.o ABSOLUTE
    ..\lvgl\Src\draw\lv_draw_layer.c         0x00000000   Number         0  lv_draw_layer.o ABSOLUTE
    ..\lvgl\Src\draw\lv_draw_line.c          0x00000000   Number         0  lv_draw_line.o ABSOLUTE
    ..\lvgl\Src\draw\lv_draw_mask.c          0x00000000   Number         0  lv_draw_mask.o ABSOLUTE
    ..\lvgl\Src\draw\lv_draw_rect.c          0x00000000   Number         0  lv_draw_rect.o ABSOLUTE
    ..\lvgl\Src\draw\lv_draw_transform.c     0x00000000   Number         0  lv_draw_transform.o ABSOLUTE
    ..\lvgl\Src\draw\lv_draw_triangle.c      0x00000000   Number         0  lv_draw_triangle.o ABSOLUTE
    ..\lvgl\Src\draw\lv_img_buf.c            0x00000000   Number         0  lv_img_buf.o ABSOLUTE
    ..\lvgl\Src\draw\lv_img_cache.c          0x00000000   Number         0  lv_img_cache.o ABSOLUTE
    ..\lvgl\Src\draw\lv_img_decoder.c        0x00000000   Number         0  lv_img_decoder.o ABSOLUTE
    ..\lvgl\Src\draw\sw\lv_draw_sw.c         0x00000000   Number         0  lv_draw_sw.o ABSOLUTE
    ..\lvgl\Src\draw\sw\lv_draw_sw_arc.c     0x00000000   Number         0  lv_draw_sw_arc.o ABSOLUTE
    ..\lvgl\Src\draw\sw\lv_draw_sw_blend.c   0x00000000   Number         0  lv_draw_sw_blend.o ABSOLUTE
    ..\lvgl\Src\draw\sw\lv_draw_sw_dither.c  0x00000000   Number         0  lv_draw_sw_dither.o ABSOLUTE
    ..\lvgl\Src\draw\sw\lv_draw_sw_gradient.c 0x00000000   Number         0  lv_draw_sw_gradient.o ABSOLUTE
    ..\lvgl\Src\draw\sw\lv_draw_sw_img.c     0x00000000   Number         0  lv_draw_sw_img.o ABSOLUTE
    ..\lvgl\Src\draw\sw\lv_draw_sw_layer.c   0x00000000   Number         0  lv_draw_sw_layer.o ABSOLUTE
    ..\lvgl\Src\draw\sw\lv_draw_sw_letter.c  0x00000000   Number         0  lv_draw_sw_letter.o ABSOLUTE
    ..\lvgl\Src\draw\sw\lv_draw_sw_line.c    0x00000000   Number         0  lv_draw_sw_line.o ABSOLUTE
    ..\lvgl\Src\draw\sw\lv_draw_sw_polygon.c 0x00000000   Number         0  lv_draw_sw_polygon.o ABSOLUTE
    ..\lvgl\Src\draw\sw\lv_draw_sw_rect.c    0x00000000   Number         0  lv_draw_sw_rect.o ABSOLUTE
    ..\lvgl\Src\draw\sw\lv_draw_sw_transform.c 0x00000000   Number         0  lv_draw_sw_transform.o ABSOLUTE
    ..\lvgl\Src\font\lv_font.c               0x00000000   Number         0  lv_font.o ABSOLUTE
    ..\lvgl\Src\font\lv_font_dejavu_16_persian_hebrew.c 0x00000000   Number         0  lv_font_dejavu_16_persian_hebrew.o ABSOLUTE
    ..\lvgl\Src\font\lv_font_fmt_txt.c       0x00000000   Number         0  lv_font_fmt_txt.o ABSOLUTE
    ..\lvgl\Src\font\lv_font_loader.c        0x00000000   Number         0  lv_font_loader.o ABSOLUTE
    ..\lvgl\Src\font\lv_font_montserrat_10.c 0x00000000   Number         0  lv_font_montserrat_10.o ABSOLUTE
    ..\lvgl\Src\font\lv_font_montserrat_12.c 0x00000000   Number         0  lv_font_montserrat_12.o ABSOLUTE
    ..\lvgl\Src\font\lv_font_montserrat_12_subpx.c 0x00000000   Number         0  lv_font_montserrat_12_subpx.o ABSOLUTE
    ..\lvgl\Src\font\lv_font_montserrat_14.c 0x00000000   Number         0  lv_font_montserrat_14.o ABSOLUTE
    ..\lvgl\Src\font\lv_font_montserrat_16.c 0x00000000   Number         0  lv_font_montserrat_16.o ABSOLUTE
    ..\lvgl\Src\font\lv_font_montserrat_18.c 0x00000000   Number         0  lv_font_montserrat_18.o ABSOLUTE
    ..\lvgl\Src\font\lv_font_montserrat_20.c 0x00000000   Number         0  lv_font_montserrat_20.o ABSOLUTE
    ..\lvgl\Src\font\lv_font_montserrat_22.c 0x00000000   Number         0  lv_font_montserrat_22.o ABSOLUTE
    ..\lvgl\Src\font\lv_font_montserrat_24.c 0x00000000   Number         0  lv_font_montserrat_24.o ABSOLUTE
    ..\lvgl\Src\font\lv_font_montserrat_26.c 0x00000000   Number         0  lv_font_montserrat_26.o ABSOLUTE
    ..\lvgl\Src\font\lv_font_montserrat_28.c 0x00000000   Number         0  lv_font_montserrat_28.o ABSOLUTE
    ..\lvgl\Src\font\lv_font_montserrat_28_compressed.c 0x00000000   Number         0  lv_font_montserrat_28_compressed.o ABSOLUTE
    ..\lvgl\Src\font\lv_font_montserrat_30.c 0x00000000   Number         0  lv_font_montserrat_30.o ABSOLUTE
    ..\lvgl\Src\font\lv_font_montserrat_32.c 0x00000000   Number         0  lv_font_montserrat_32.o ABSOLUTE
    ..\lvgl\Src\font\lv_font_montserrat_34.c 0x00000000   Number         0  lv_font_montserrat_34.o ABSOLUTE
    ..\lvgl\Src\font\lv_font_montserrat_36.c 0x00000000   Number         0  lv_font_montserrat_36.o ABSOLUTE
    ..\lvgl\Src\font\lv_font_montserrat_38.c 0x00000000   Number         0  lv_font_montserrat_38.o ABSOLUTE
    ..\lvgl\Src\font\lv_font_montserrat_40.c 0x00000000   Number         0  lv_font_montserrat_40.o ABSOLUTE
    ..\lvgl\Src\font\lv_font_montserrat_42.c 0x00000000   Number         0  lv_font_montserrat_42.o ABSOLUTE
    ..\lvgl\Src\font\lv_font_montserrat_44.c 0x00000000   Number         0  lv_font_montserrat_44.o ABSOLUTE
    ..\lvgl\Src\font\lv_font_montserrat_46.c 0x00000000   Number         0  lv_font_montserrat_46.o ABSOLUTE
    ..\lvgl\Src\font\lv_font_montserrat_48.c 0x00000000   Number         0  lv_font_montserrat_48.o ABSOLUTE
    ..\lvgl\Src\font\lv_font_montserrat_8.c  0x00000000   Number         0  lv_font_montserrat_8.o ABSOLUTE
    ..\lvgl\Src\font\lv_font_simsun_16_cjk.c 0x00000000   Number         0  lv_font_simsun_16_cjk.o ABSOLUTE
    ..\lvgl\Src\font\lv_font_unscii_16.c     0x00000000   Number         0  lv_font_unscii_16.o ABSOLUTE
    ..\lvgl\Src\font\lv_font_unscii_8.c      0x00000000   Number         0  lv_font_unscii_8.o ABSOLUTE
    ..\lvgl\Src\hal\lv_hal_disp.c            0x00000000   Number         0  lv_hal_disp.o ABSOLUTE
    ..\lvgl\Src\hal\lv_hal_indev.c           0x00000000   Number         0  lv_hal_indev.o ABSOLUTE
    ..\lvgl\Src\hal\lv_hal_tick.c            0x00000000   Number         0  lv_hal_tick.o ABSOLUTE
    ..\lvgl\Src\layouts\flex\lv_flex.c       0x00000000   Number         0  lv_flex.o ABSOLUTE
    ..\lvgl\Src\layouts\grid\lv_grid.c       0x00000000   Number         0  lv_grid.o ABSOLUTE
    ..\lvgl\Src\libs\bmp\lv_bmp.c            0x00000000   Number         0  lv_bmp.o ABSOLUTE
    ..\lvgl\Src\libs\ffmpeg\lv_ffmpeg.c      0x00000000   Number         0  lv_ffmpeg.o ABSOLUTE
    ..\lvgl\Src\libs\freetype\lv_freetype.c  0x00000000   Number         0  lv_freetype.o ABSOLUTE
    ..\lvgl\Src\libs\fsdrv\lv_fs_cbfs.c      0x00000000   Number         0  lv_fs_cbfs.o ABSOLUTE
    ..\lvgl\Src\libs\fsdrv\lv_fs_fatfs.c     0x00000000   Number         0  lv_fs_fatfs.o ABSOLUTE
    ..\lvgl\Src\libs\fsdrv\lv_fs_posix.c     0x00000000   Number         0  lv_fs_posix.o ABSOLUTE
    ..\lvgl\Src\libs\fsdrv\lv_fs_stdio.c     0x00000000   Number         0  lv_fs_stdio.o ABSOLUTE
    ..\lvgl\Src\libs\fsdrv\lv_fs_win32.c     0x00000000   Number         0  lv_fs_win32.o ABSOLUTE
    ..\lvgl\Src\libs\gif\gifdec.c            0x00000000   Number         0  gifdec.o ABSOLUTE
    ..\lvgl\Src\libs\gif\lv_gif.c            0x00000000   Number         0  lv_gif.o ABSOLUTE
    ..\lvgl\Src\libs\png\lodepng.c           0x00000000   Number         0  lodepng.o ABSOLUTE
    ..\lvgl\Src\libs\png\lv_png.c            0x00000000   Number         0  lv_png.o ABSOLUTE
    ..\lvgl\Src\libs\qrcode\lv_qrcode.c      0x00000000   Number         0  lv_qrcode.o ABSOLUTE
    ..\lvgl\Src\libs\qrcode\qrcodegen.c      0x00000000   Number         0  qrcodegen.o ABSOLUTE
    ..\lvgl\Src\libs\rlottie\lv_rlottie.c    0x00000000   Number         0  lv_rlottie.o ABSOLUTE
    ..\lvgl\Src\libs\sjpg\lv_sjpg.c          0x00000000   Number         0  lv_sjpg.o ABSOLUTE
    ..\lvgl\Src\libs\sjpg\tjpgd.c            0x00000000   Number         0  tjpgd.o ABSOLUTE
    ..\lvgl\Src\libs\tiny_ttf\lv_tiny_ttf.c  0x00000000   Number         0  lv_tiny_ttf.o ABSOLUTE
    ..\lvgl\Src\misc\lv_anim.c               0x00000000   Number         0  lv_anim.o ABSOLUTE
    ..\lvgl\Src\misc\lv_anim_timeline.c      0x00000000   Number         0  lv_anim_timeline.o ABSOLUTE
    ..\lvgl\Src\misc\lv_area.c               0x00000000   Number         0  lv_area.o ABSOLUTE
    ..\lvgl\Src\misc\lv_async.c              0x00000000   Number         0  lv_async.o ABSOLUTE
    ..\lvgl\Src\misc\lv_bidi.c               0x00000000   Number         0  lv_bidi.o ABSOLUTE
    ..\lvgl\Src\misc\lv_color.c              0x00000000   Number         0  lv_color.o ABSOLUTE
    ..\lvgl\Src\misc\lv_fs.c                 0x00000000   Number         0  lv_fs.o ABSOLUTE
    ..\lvgl\Src\misc\lv_gc.c                 0x00000000   Number         0  lv_gc.o ABSOLUTE
    ..\lvgl\Src\misc\lv_ll.c                 0x00000000   Number         0  lv_ll.o ABSOLUTE
    ..\lvgl\Src\misc\lv_log.c                0x00000000   Number         0  lv_log.o ABSOLUTE
    ..\lvgl\Src\misc\lv_lru.c                0x00000000   Number         0  lv_lru.o ABSOLUTE
    ..\lvgl\Src\misc\lv_malloc_builtin.c     0x00000000   Number         0  lv_malloc_builtin.o ABSOLUTE
    ..\lvgl\Src\misc\lv_math.c               0x00000000   Number         0  lv_math.o ABSOLUTE
    ..\lvgl\Src\misc\lv_mem.c                0x00000000   Number         0  lv_mem.o ABSOLUTE
    ..\lvgl\Src\misc\lv_memcpy_builtin.c     0x00000000   Number         0  lv_memcpy_builtin.o ABSOLUTE
    ..\lvgl\Src\misc\lv_printf.c             0x00000000   Number         0  lv_printf.o ABSOLUTE
    ..\lvgl\Src\misc\lv_style.c              0x00000000   Number         0  lv_style.o ABSOLUTE
    ..\lvgl\Src\misc\lv_style_gen.c          0x00000000   Number         0  lv_style_gen.o ABSOLUTE
    ..\lvgl\Src\misc\lv_templ.c              0x00000000   Number         0  lv_templ.o ABSOLUTE
    ..\lvgl\Src\misc\lv_timer.c              0x00000000   Number         0  lv_timer.o ABSOLUTE
    ..\lvgl\Src\misc\lv_tlsf.c               0x00000000   Number         0  lv_tlsf.o ABSOLUTE
    ..\lvgl\Src\misc\lv_txt.c                0x00000000   Number         0  lv_txt.o ABSOLUTE
    ..\lvgl\Src\misc\lv_txt_ap.c             0x00000000   Number         0  lv_txt_ap.o ABSOLUTE
    ..\lvgl\Src\misc\lv_utils.c              0x00000000   Number         0  lv_utils.o ABSOLUTE
    ..\lvgl\Src\others\file_explorer\lv_file_explorer.c 0x00000000   Number         0  lv_file_explorer.o ABSOLUTE
    ..\lvgl\Src\others\fragment\lv_fragment.c 0x00000000   Number         0  lv_fragment.o ABSOLUTE
    ..\lvgl\Src\others\fragment\lv_fragment_manager.c 0x00000000   Number         0  lv_fragment_manager.o ABSOLUTE
    ..\lvgl\Src\others\gridnav\lv_gridnav.c  0x00000000   Number         0  lv_gridnav.o ABSOLUTE
    ..\lvgl\Src\others\ime\lv_ime_pinyin.c   0x00000000   Number         0  lv_ime_pinyin.o ABSOLUTE
    ..\lvgl\Src\others\imgfont\lv_imgfont.c  0x00000000   Number         0  lv_imgfont.o ABSOLUTE
    ..\lvgl\Src\others\monkey\lv_monkey.c    0x00000000   Number         0  lv_monkey.o ABSOLUTE
    ..\lvgl\Src\others\msg\lv_msg.c          0x00000000   Number         0  lv_msg.o ABSOLUTE
    ..\lvgl\Src\others\snapshot\lv_snapshot.c 0x00000000   Number         0  lv_snapshot.o ABSOLUTE
    ..\lvgl\Src\themes\basic\lv_theme_basic.c 0x00000000   Number         0  lv_theme_basic.o ABSOLUTE
    ..\lvgl\Src\themes\default\lv_theme_default.c 0x00000000   Number         0  lv_theme_default.o ABSOLUTE
    ..\lvgl\Src\themes\mono\lv_theme_mono.c  0x00000000   Number         0  lv_theme_mono.o ABSOLUTE
    ..\lvgl\Src\widgets\animimg\lv_animimg.c 0x00000000   Number         0  lv_animimg.o ABSOLUTE
    ..\lvgl\Src\widgets\arc\lv_arc.c         0x00000000   Number         0  lv_arc.o ABSOLUTE
    ..\lvgl\Src\widgets\bar\lv_bar.c         0x00000000   Number         0  lv_bar.o ABSOLUTE
    ..\lvgl\Src\widgets\btn\lv_btn.c         0x00000000   Number         0  lv_btn.o ABSOLUTE
    ..\lvgl\Src\widgets\btnmatrix\lv_btnmatrix.c 0x00000000   Number         0  lv_btnmatrix.o ABSOLUTE
    ..\lvgl\Src\widgets\calendar\lv_calendar.c 0x00000000   Number         0  lv_calendar.o ABSOLUTE
    ..\lvgl\Src\widgets\calendar\lv_calendar_header_arrow.c 0x00000000   Number         0  lv_calendar_header_arrow.o ABSOLUTE
    ..\lvgl\Src\widgets\calendar\lv_calendar_header_dropdown.c 0x00000000   Number         0  lv_calendar_header_dropdown.o ABSOLUTE
    ..\lvgl\Src\widgets\canvas\lv_canvas.c   0x00000000   Number         0  lv_canvas.o ABSOLUTE
    ..\lvgl\Src\widgets\chart\lv_chart.c     0x00000000   Number         0  lv_chart.o ABSOLUTE
    ..\lvgl\Src\widgets\checkbox\lv_checkbox.c 0x00000000   Number         0  lv_checkbox.o ABSOLUTE
    ..\lvgl\Src\widgets\colorwheel\lv_colorwheel.c 0x00000000   Number         0  lv_colorwheel.o ABSOLUTE
    ..\lvgl\Src\widgets\dropdown\lv_dropdown.c 0x00000000   Number         0  lv_dropdown.o ABSOLUTE
    ..\lvgl\Src\widgets\img\lv_img.c         0x00000000   Number         0  lv_img.o ABSOLUTE
    ..\lvgl\Src\widgets\imgbtn\lv_imgbtn.c   0x00000000   Number         0  lv_imgbtn.o ABSOLUTE
    ..\lvgl\Src\widgets\keyboard\lv_keyboard.c 0x00000000   Number         0  lv_keyboard.o ABSOLUTE
    ..\lvgl\Src\widgets\label\lv_label.c     0x00000000   Number         0  lv_label.o ABSOLUTE
    ..\lvgl\Src\widgets\led\lv_led.c         0x00000000   Number         0  lv_led.o ABSOLUTE
    ..\lvgl\Src\widgets\line\lv_line.c       0x00000000   Number         0  lv_line.o ABSOLUTE
    ..\lvgl\Src\widgets\list\lv_list.c       0x00000000   Number         0  lv_list.o ABSOLUTE
    ..\lvgl\Src\widgets\menu\lv_menu.c       0x00000000   Number         0  lv_menu.o ABSOLUTE
    ..\lvgl\Src\widgets\meter\lv_meter.c     0x00000000   Number         0  lv_meter.o ABSOLUTE
    ..\lvgl\Src\widgets\msgbox\lv_msgbox.c   0x00000000   Number         0  lv_msgbox.o ABSOLUTE
    ..\lvgl\Src\widgets\objx_templ\lv_objx_templ.c 0x00000000   Number         0  lv_objx_templ.o ABSOLUTE
    ..\lvgl\Src\widgets\roller\lv_roller.c   0x00000000   Number         0  lv_roller.o ABSOLUTE
    ..\lvgl\Src\widgets\slider\lv_slider.c   0x00000000   Number         0  lv_slider.o ABSOLUTE
    ..\lvgl\Src\widgets\span\lv_span.c       0x00000000   Number         0  lv_span.o ABSOLUTE
    ..\lvgl\Src\widgets\spinbox\lv_spinbox.c 0x00000000   Number         0  lv_spinbox.o ABSOLUTE
    ..\lvgl\Src\widgets\spinner\lv_spinner.c 0x00000000   Number         0  lv_spinner.o ABSOLUTE
    ..\lvgl\Src\widgets\switch\lv_switch.c   0x00000000   Number         0  lv_switch.o ABSOLUTE
    ..\lvgl\Src\widgets\table\lv_table.c     0x00000000   Number         0  lv_table.o ABSOLUTE
    ..\lvgl\Src\widgets\tabview\lv_tabview.c 0x00000000   Number         0  lv_tabview.o ABSOLUTE
    ..\lvgl\Src\widgets\textarea\lv_textarea.c 0x00000000   Number         0  lv_textarea.o ABSOLUTE
    ..\lvgl\Src\widgets\tileview\lv_tileview.c 0x00000000   Number         0  lv_tileview.o ABSOLUTE
    ..\lvgl\Src\widgets\win\lv_win.c         0x00000000   Number         0  lv_win.o ABSOLUTE
    ..\lvgl\demos\benchmark\assets\img_benchmark_cogwheel_alpha16.c 0x00000000   Number         0  img_benchmark_cogwheel_alpha16.o ABSOLUTE
    ..\lvgl\demos\benchmark\assets\img_benchmark_cogwheel_argb.c 0x00000000   Number         0  img_benchmark_cogwheel_argb.o ABSOLUTE
    ..\lvgl\demos\benchmark\assets\img_benchmark_cogwheel_chroma_keyed.c 0x00000000   Number         0  img_benchmark_cogwheel_chroma_keyed.o ABSOLUTE
    ..\lvgl\demos\benchmark\assets\img_benchmark_cogwheel_indexed16.c 0x00000000   Number         0  img_benchmark_cogwheel_indexed16.o ABSOLUTE
    ..\lvgl\demos\benchmark\assets\img_benchmark_cogwheel_rgb.c 0x00000000   Number         0  img_benchmark_cogwheel_rgb.o ABSOLUTE
    ..\lvgl\demos\benchmark\assets\img_benchmark_cogwheel_rgb565a8.c 0x00000000   Number         0  img_benchmark_cogwheel_rgb565a8.o ABSOLUTE
    ..\lvgl\demos\benchmark\assets\lv_font_bechmark_montserrat_12_compr_az.c.c 0x00000000   Number         0  lv_font_bechmark_montserrat_12_compr_az.c.o ABSOLUTE
    ..\lvgl\demos\benchmark\assets\lv_font_bechmark_montserrat_16_compr_az.c.c 0x00000000   Number         0  lv_font_bechmark_montserrat_16_compr_az.c.o ABSOLUTE
    ..\lvgl\demos\benchmark\assets\lv_font_bechmark_montserrat_28_compr_az.c.c 0x00000000   Number         0  lv_font_bechmark_montserrat_28_compr_az.c.o ABSOLUTE
    ..\lvgl\demos\benchmark\lv_demo_benchmark.c 0x00000000   Number         0  lv_demo_benchmark.o ABSOLUTE
    ..\lvgl\demos\stress\lv_demo_stress.c    0x00000000   Number         0  lv_demo_stress.o ABSOLUTE
    ..\lvgl\port\disp.c                      0x00000000   Number         0  disp.o ABSOLUTE
    ..\lvgl\port\indev.c                     0x00000000   Number         0  indev.o ABSOLUTE
    dc.s                                     0x00000000   Number         0  dc.o ABSOLUTE
    startup_stm32l431xx.s                    0x00000000   Number         0  startup_stm32l431xx.o ABSOLUTE
    RESET                                    0x08000000   Section      396  startup_stm32l431xx.o(RESET)
    !!!main                                  0x0800018c   Section        8  __main.o(!!!main)
    !!!scatter                               0x08000194   Section       52  __scatter.o(!!!scatter)
    !!dczerorl2                              0x080001c8   Section       90  __dczerorl2.o(!!dczerorl2)
    !!handler_zi                             0x08000224   Section       28  __scatter_zi.o(!!handler_zi)
    .ARM.Collect$$libinit$$00000000          0x08000240   Section        2  libinit.o(.ARM.Collect$$libinit$$00000000)
    .ARM.Collect$$libinit$$00000001          0x08000242   Section        4  libinit2.o(.ARM.Collect$$libinit$$00000001)
    .ARM.Collect$$libinit$$00000004          0x08000246   Section        0  libinit2.o(.ARM.Collect$$libinit$$00000004)
    .ARM.Collect$$libinit$$0000000A          0x08000246   Section        0  libinit2.o(.ARM.Collect$$libinit$$0000000A)
    .ARM.Collect$$libinit$$0000000C          0x08000246   Section        0  libinit2.o(.ARM.Collect$$libinit$$0000000C)
    .ARM.Collect$$libinit$$0000000E          0x08000246   Section        0  libinit2.o(.ARM.Collect$$libinit$$0000000E)
    .ARM.Collect$$libinit$$00000011          0x08000246   Section        0  libinit2.o(.ARM.Collect$$libinit$$00000011)
    .ARM.Collect$$libinit$$00000013          0x08000246   Section        0  libinit2.o(.ARM.Collect$$libinit$$00000013)
    .ARM.Collect$$libinit$$00000015          0x08000246   Section        0  libinit2.o(.ARM.Collect$$libinit$$00000015)
    .ARM.Collect$$libinit$$00000017          0x08000246   Section        0  libinit2.o(.ARM.Collect$$libinit$$00000017)
    .ARM.Collect$$libinit$$00000019          0x08000246   Section        0  libinit2.o(.ARM.Collect$$libinit$$00000019)
    .ARM.Collect$$libinit$$0000001B          0x08000246   Section        0  libinit2.o(.ARM.Collect$$libinit$$0000001B)
    .ARM.Collect$$libinit$$0000001D          0x08000246   Section        0  libinit2.o(.ARM.Collect$$libinit$$0000001D)
    .ARM.Collect$$libinit$$0000001F          0x08000246   Section        0  libinit2.o(.ARM.Collect$$libinit$$0000001F)
    .ARM.Collect$$libinit$$00000021          0x08000246   Section        0  libinit2.o(.ARM.Collect$$libinit$$00000021)
    .ARM.Collect$$libinit$$00000023          0x08000246   Section        0  libinit2.o(.ARM.Collect$$libinit$$00000023)
    .ARM.Collect$$libinit$$00000025          0x08000246   Section        0  libinit2.o(.ARM.Collect$$libinit$$00000025)
    .ARM.Collect$$libinit$$0000002C          0x08000246   Section        0  libinit2.o(.ARM.Collect$$libinit$$0000002C)
    .ARM.Collect$$libinit$$0000002E          0x08000246   Section        0  libinit2.o(.ARM.Collect$$libinit$$0000002E)
    .ARM.Collect$$libinit$$00000030          0x08000246   Section        0  libinit2.o(.ARM.Collect$$libinit$$00000030)
    .ARM.Collect$$libinit$$00000032          0x08000246   Section        0  libinit2.o(.ARM.Collect$$libinit$$00000032)
    .ARM.Collect$$libinit$$00000033          0x08000246   Section        2  libinit2.o(.ARM.Collect$$libinit$$00000033)
    .ARM.Collect$$libshutdown$$00000000      0x08000248   Section        2  libshutdown.o(.ARM.Collect$$libshutdown$$00000000)
    .ARM.Collect$$libshutdown$$00000002      0x0800024a   Section        0  libshutdown2.o(.ARM.Collect$$libshutdown$$00000002)
    .ARM.Collect$$libshutdown$$00000004      0x0800024a   Section        0  libshutdown2.o(.ARM.Collect$$libshutdown$$00000004)
    .ARM.Collect$$libshutdown$$00000006      0x0800024a   Section        0  libshutdown2.o(.ARM.Collect$$libshutdown$$00000006)
    .ARM.Collect$$libshutdown$$00000009      0x0800024a   Section        0  libshutdown2.o(.ARM.Collect$$libshutdown$$00000009)
    .ARM.Collect$$libshutdown$$0000000C      0x0800024a   Section        0  libshutdown2.o(.ARM.Collect$$libshutdown$$0000000C)
    .ARM.Collect$$libshutdown$$0000000E      0x0800024a   Section        0  libshutdown2.o(.ARM.Collect$$libshutdown$$0000000E)
    .ARM.Collect$$libshutdown$$00000011      0x0800024a   Section        0  libshutdown2.o(.ARM.Collect$$libshutdown$$00000011)
    .ARM.Collect$$libshutdown$$00000012      0x0800024a   Section        2  libshutdown2.o(.ARM.Collect$$libshutdown$$00000012)
    .ARM.Collect$$rtentry$$00000000          0x0800024c   Section        0  __rtentry.o(.ARM.Collect$$rtentry$$00000000)
    .ARM.Collect$$rtentry$$00000002          0x0800024c   Section        0  __rtentry2.o(.ARM.Collect$$rtentry$$00000002)
    .ARM.Collect$$rtentry$$00000004          0x0800024c   Section        6  __rtentry4.o(.ARM.Collect$$rtentry$$00000004)
    .ARM.Collect$$rtentry$$00000009          0x08000252   Section        0  __rtentry2.o(.ARM.Collect$$rtentry$$00000009)
    .ARM.Collect$$rtentry$$0000000A          0x08000252   Section        4  __rtentry2.o(.ARM.Collect$$rtentry$$0000000A)
    .ARM.Collect$$rtentry$$0000000C          0x08000256   Section        0  __rtentry2.o(.ARM.Collect$$rtentry$$0000000C)
    .ARM.Collect$$rtentry$$0000000D          0x08000256   Section        8  __rtentry2.o(.ARM.Collect$$rtentry$$0000000D)
    .ARM.Collect$$rtexit$$00000000           0x0800025e   Section        2  rtexit.o(.ARM.Collect$$rtexit$$00000000)
    .ARM.Collect$$rtexit$$00000002           0x08000260   Section        0  rtexit2.o(.ARM.Collect$$rtexit$$00000002)
    .ARM.Collect$$rtexit$$00000003           0x08000260   Section        4  rtexit2.o(.ARM.Collect$$rtexit$$00000003)
    .ARM.Collect$$rtexit$$00000004           0x08000264   Section        6  rtexit2.o(.ARM.Collect$$rtexit$$00000004)
    .text                                    0x0800026c   Section       64  startup_stm32l431xx.o(.text)
    $v0                                      0x0800026c   Number         0  startup_stm32l431xx.o(.text)
    .text                                    0x080002ac   Section      238  lludivv7m.o(.text)
    .text                                    0x0800039a   Section        0  strcpy.o(.text)
    .text                                    0x080003e2   Section        0  strlen.o(.text)
    .text                                    0x08000420   Section      100  rt_memcpy_w.o(.text)
    .text                                    0x08000484   Section       78  rt_memclr_w.o(.text)
    .text                                    0x080004d4   Section      128  strcmpv7m.o(.text)
    .text                                    0x08000554   Section        0  heapauxi.o(.text)
    .text                                    0x0800055c   Section        0  sys_exit.o(.text)
    .text                                    0x08000568   Section        2  use_no_semi.o(.text)
    .text                                    0x0800056a   Section        0  indicate_semi.o(.text)
    .text                                    0x0800056a   Section       74  sys_stackheap_outer.o(.text)
    .text                                    0x080005b4   Section        0  exit.o(.text)
    .text                                    0x080005c8   Section        8  libspace.o(.text)
    i.BusFault_Handler                       0x080005d0   Section        0  stm32l4xx_it.o(i.BusFault_Handler)
    i.DMA1_Channel3_IRQHandler               0x080005d4   Section        0  stm32l4xx_it.o(i.DMA1_Channel3_IRQHandler)
    i.DMA_SetConfig                          0x080005e4   Section        0  stm32l4xx_hal_dma.o(i.DMA_SetConfig)
    DMA_SetConfig                            0x080005e5   Thumb Code    48  stm32l4xx_hal_dma.o(i.DMA_SetConfig)
    i.DebugMon_Handler                       0x08000614   Section        0  stm32l4xx_it.o(i.DebugMon_Handler)
    i.Error_Handler                          0x08000616   Section        0  main.o(i.Error_Handler)
    i.HAL_CRCEx_Polynomial_Set               0x0800061c   Section        0  stm32l4xx_hal_crc_ex.o(i.HAL_CRCEx_Polynomial_Set)
    i.HAL_CRC_Init                           0x08000684   Section        0  stm32l4xx_hal_crc.o(i.HAL_CRC_Init)
    i.HAL_CRC_MspInit                        0x08000708   Section        0  crc.o(i.HAL_CRC_MspInit)
    i.HAL_DMA_Abort_IT                       0x08000738   Section        0  stm32l4xx_hal_dma.o(i.HAL_DMA_Abort_IT)
    i.HAL_DMA_IRQHandler                     0x08000794   Section        0  stm32l4xx_hal_dma.o(i.HAL_DMA_IRQHandler)
    i.HAL_DMA_Init                           0x08000894   Section        0  stm32l4xx_hal_dma.o(i.HAL_DMA_Init)
    i.HAL_DMA_Start_IT                       0x080009a0   Section        0  stm32l4xx_hal_dma.o(i.HAL_DMA_Start_IT)
    i.HAL_Delay                              0x08000a3c   Section        0  stm32l4xx_hal.o(i.HAL_Delay)
    i.HAL_GPIO_Init                          0x08000a64   Section        0  stm32l4xx_hal_gpio.o(i.HAL_GPIO_Init)
    i.HAL_GPIO_TogglePin                     0x08000c24   Section        0  stm32l4xx_hal_gpio.o(i.HAL_GPIO_TogglePin)
    i.HAL_GPIO_WritePin                      0x08000c38   Section        0  stm32l4xx_hal_gpio.o(i.HAL_GPIO_WritePin)
    i.HAL_GetTick                            0x08000c44   Section        0  stm32l4xx_hal.o(i.HAL_GetTick)
    i.HAL_I2CEx_ConfigAnalogFilter           0x08000c50   Section        0  stm32l4xx_hal_i2c_ex.o(i.HAL_I2CEx_ConfigAnalogFilter)
    i.HAL_I2CEx_ConfigDigitalFilter          0x08000cba   Section        0  stm32l4xx_hal_i2c_ex.o(i.HAL_I2CEx_ConfigDigitalFilter)
    i.HAL_I2C_Init                           0x08000d24   Section        0  stm32l4xx_hal_i2c.o(i.HAL_I2C_Init)
    i.HAL_I2C_Master_Receive                 0x08000de8   Section        0  stm32l4xx_hal_i2c.o(i.HAL_I2C_Master_Receive)
    i.HAL_I2C_Master_Transmit                0x08000f4c   Section        0  stm32l4xx_hal_i2c.o(i.HAL_I2C_Master_Transmit)
    i.HAL_I2C_MspInit                        0x080010ac   Section        0  i2c.o(i.HAL_I2C_MspInit)
    i.HAL_IncTick                            0x08001144   Section        0  stm32l4xx_hal.o(i.HAL_IncTick)
    i.HAL_Init                               0x0800115c   Section        0  stm32l4xx_hal.o(i.HAL_Init)
    i.HAL_InitTick                           0x0800117c   Section        0  stm32l4xx_hal_timebase_tim.o(i.HAL_InitTick)
    i.HAL_MspInit                            0x08001204   Section        0  stm32l4xx_hal_msp.o(i.HAL_MspInit)
    i.HAL_NVIC_EnableIRQ                     0x08001244   Section        0  stm32l4xx_hal_cortex.o(i.HAL_NVIC_EnableIRQ)
    i.HAL_NVIC_SetPriority                   0x0800126c   Section        0  stm32l4xx_hal_cortex.o(i.HAL_NVIC_SetPriority)
    i.HAL_NVIC_SetPriorityGrouping           0x080012f0   Section        0  stm32l4xx_hal_cortex.o(i.HAL_NVIC_SetPriorityGrouping)
    i.HAL_PWREx_ControlVoltageScaling        0x08001318   Section        0  stm32l4xx_hal_pwr_ex.o(i.HAL_PWREx_ControlVoltageScaling)
    i.HAL_PWREx_GetVoltageRange              0x080013a4   Section        0  stm32l4xx_hal_pwr_ex.o(i.HAL_PWREx_GetVoltageRange)
    i.HAL_QSPI_Init                          0x080013b4   Section        0  stm32l4xx_hal_qspi.o(i.HAL_QSPI_Init)
    i.HAL_QSPI_MspInit                       0x08001474   Section        0  quadspi.o(i.HAL_QSPI_MspInit)
    i.HAL_QSPI_SetTimeout                    0x08001528   Section        0  stm32l4xx_hal_qspi.o(i.HAL_QSPI_SetTimeout)
    i.HAL_RCCEx_PeriphCLKConfig              0x0800152c   Section        0  stm32l4xx_hal_rcc_ex.o(i.HAL_RCCEx_PeriphCLKConfig)
    i.HAL_RCC_ClockConfig                    0x080018b4   Section        0  stm32l4xx_hal_rcc.o(i.HAL_RCC_ClockConfig)
    i.HAL_RCC_GetClockConfig                 0x08001a30   Section        0  stm32l4xx_hal_rcc.o(i.HAL_RCC_GetClockConfig)
    i.HAL_RCC_GetHCLKFreq                    0x08001a74   Section        0  stm32l4xx_hal_rcc.o(i.HAL_RCC_GetHCLKFreq)
    i.HAL_RCC_GetPCLK1Freq                   0x08001a80   Section        0  stm32l4xx_hal_rcc.o(i.HAL_RCC_GetPCLK1Freq)
    i.HAL_RCC_GetPCLK2Freq                   0x08001aa4   Section        0  stm32l4xx_hal_rcc.o(i.HAL_RCC_GetPCLK2Freq)
    i.HAL_RCC_GetSysClockFreq                0x08001ac8   Section        0  stm32l4xx_hal_rcc.o(i.HAL_RCC_GetSysClockFreq)
    i.HAL_RCC_OscConfig                      0x08001bb4   Section        0  stm32l4xx_hal_rcc.o(i.HAL_RCC_OscConfig)
    i.HAL_SPI_ErrorCallback                  0x0800231c   Section        0  stm32l4xx_hal_spi.o(i.HAL_SPI_ErrorCallback)
    i.HAL_SPI_IRQHandler                     0x08002320   Section        0  stm32l4xx_hal_spi.o(i.HAL_SPI_IRQHandler)
    i.HAL_SPI_Init                           0x0800247c   Section        0  stm32l4xx_hal_spi.o(i.HAL_SPI_Init)
    i.HAL_SPI_MspInit                        0x0800256c   Section        0  spi.o(i.HAL_SPI_MspInit)
    i.HAL_SPI_Transmit                       0x08002630   Section        0  stm32l4xx_hal_spi.o(i.HAL_SPI_Transmit)
    i.HAL_SPI_Transmit_DMA                   0x08002820   Section        0  stm32l4xx_hal_spi.o(i.HAL_SPI_Transmit_DMA)
    i.HAL_SPI_TxCpltCallback                 0x08002970   Section        0  stm32l4xx_it.o(i.HAL_SPI_TxCpltCallback)
    i.HAL_SPI_TxHalfCpltCallback             0x08002988   Section        0  stm32l4xx_hal_spi.o(i.HAL_SPI_TxHalfCpltCallback)
    i.HAL_TIMEx_Break2Callback               0x0800298a   Section        0  stm32l4xx_hal_tim_ex.o(i.HAL_TIMEx_Break2Callback)
    i.HAL_TIMEx_BreakCallback                0x0800298c   Section        0  stm32l4xx_hal_tim_ex.o(i.HAL_TIMEx_BreakCallback)
    i.HAL_TIMEx_CommutCallback               0x0800298e   Section        0  stm32l4xx_hal_tim_ex.o(i.HAL_TIMEx_CommutCallback)
    i.HAL_TIMEx_MasterConfigSynchronization  0x08002990   Section        0  stm32l4xx_hal_tim_ex.o(i.HAL_TIMEx_MasterConfigSynchronization)
    i.HAL_TIM_Base_Init                      0x08002a18   Section        0  stm32l4xx_hal_tim.o(i.HAL_TIM_Base_Init)
    i.HAL_TIM_Base_MspInit                   0x08002a88   Section        0  tim.o(i.HAL_TIM_Base_MspInit)
    i.HAL_TIM_Base_Start_IT                  0x08002acc   Section        0  stm32l4xx_hal_tim.o(i.HAL_TIM_Base_Start_IT)
    i.HAL_TIM_IC_CaptureCallback             0x08002b44   Section        0  stm32l4xx_hal_tim.o(i.HAL_TIM_IC_CaptureCallback)
    i.HAL_TIM_IRQHandler                     0x08002b46   Section        0  stm32l4xx_hal_tim.o(i.HAL_TIM_IRQHandler)
    i.HAL_TIM_OC_DelayElapsedCallback        0x08002cfe   Section        0  stm32l4xx_hal_tim.o(i.HAL_TIM_OC_DelayElapsedCallback)
    i.HAL_TIM_PWM_PulseFinishedCallback      0x08002d00   Section        0  stm32l4xx_hal_tim.o(i.HAL_TIM_PWM_PulseFinishedCallback)
    i.HAL_TIM_PeriodElapsedCallback          0x08002d04   Section        0  main.o(i.HAL_TIM_PeriodElapsedCallback)
    i.HAL_TIM_TriggerCallback                0x08002d4c   Section        0  stm32l4xx_hal_tim.o(i.HAL_TIM_TriggerCallback)
    i.HAL_UART_Init                          0x08002d4e   Section        0  stm32l4xx_hal_uart.o(i.HAL_UART_Init)
    i.HAL_UART_MspInit                       0x08002dc4   Section        0  usart.o(i.HAL_UART_MspInit)
    i.HardFault_Handler                      0x08002e58   Section        0  stm32l4xx_it.o(i.HardFault_Handler)
    i.I2C_Flush_TXDR                         0x08002e5c   Section        0  stm32l4xx_hal_i2c.o(i.I2C_Flush_TXDR)
    I2C_Flush_TXDR                           0x08002e5d   Thumb Code    40  stm32l4xx_hal_i2c.o(i.I2C_Flush_TXDR)
    i.I2C_IsErrorOccurred                    0x08002e84   Section        0  stm32l4xx_hal_i2c.o(i.I2C_IsErrorOccurred)
    I2C_IsErrorOccurred                      0x08002e85   Thumb Code   322  stm32l4xx_hal_i2c.o(i.I2C_IsErrorOccurred)
    i.I2C_TransferConfig                     0x08002fd2   Section        0  stm32l4xx_hal_i2c.o(i.I2C_TransferConfig)
    I2C_TransferConfig                       0x08002fd3   Thumb Code    56  stm32l4xx_hal_i2c.o(i.I2C_TransferConfig)
    i.I2C_WaitOnFlagUntilTimeout             0x0800300a   Section        0  stm32l4xx_hal_i2c.o(i.I2C_WaitOnFlagUntilTimeout)
    I2C_WaitOnFlagUntilTimeout               0x0800300b   Thumb Code    94  stm32l4xx_hal_i2c.o(i.I2C_WaitOnFlagUntilTimeout)
    i.I2C_WaitOnRXNEFlagUntilTimeout         0x08003068   Section        0  stm32l4xx_hal_i2c.o(i.I2C_WaitOnRXNEFlagUntilTimeout)
    I2C_WaitOnRXNEFlagUntilTimeout           0x08003069   Thumb Code   178  stm32l4xx_hal_i2c.o(i.I2C_WaitOnRXNEFlagUntilTimeout)
    i.I2C_WaitOnSTOPFlagUntilTimeout         0x08003120   Section        0  stm32l4xx_hal_i2c.o(i.I2C_WaitOnSTOPFlagUntilTimeout)
    I2C_WaitOnSTOPFlagUntilTimeout           0x08003121   Thumb Code    86  stm32l4xx_hal_i2c.o(i.I2C_WaitOnSTOPFlagUntilTimeout)
    i.I2C_WaitOnTXISFlagUntilTimeout         0x08003176   Section        0  stm32l4xx_hal_i2c.o(i.I2C_WaitOnTXISFlagUntilTimeout)
    I2C_WaitOnTXISFlagUntilTimeout           0x08003177   Thumb Code    90  stm32l4xx_hal_i2c.o(i.I2C_WaitOnTXISFlagUntilTimeout)
    i.MX_CRC_Init                            0x080031d0   Section        0  crc.o(i.MX_CRC_Init)
    i.MX_DMA_Init                            0x08003204   Section        0  dma.o(i.MX_DMA_Init)
    i.MX_GPIO_Init                           0x08003238   Section        0  gpio.o(i.MX_GPIO_Init)
    i.MX_I2C1_Init                           0x08003340   Section        0  i2c.o(i.MX_I2C1_Init)
    i.MX_QUADSPI_Init                        0x08003398   Section        0  quadspi.o(i.MX_QUADSPI_Init)
    i.MX_SPI1_Init                           0x080033d4   Section        0  spi.o(i.MX_SPI1_Init)
    i.MX_TIM6_Init                           0x08003424   Section        0  tim.o(i.MX_TIM6_Init)
    i.MX_USART1_UART_Init                    0x08003474   Section        0  usart.o(i.MX_USART1_UART_Init)
    i.MemManage_Handler                      0x080034b4   Section        0  stm32l4xx_it.o(i.MemManage_Handler)
    i.NMI_Handler                            0x080034b8   Section        0  stm32l4xx_it.o(i.NMI_Handler)
    i.NORFLASH_Init                          0x080034bc   Section        0  norflash.o(i.NORFLASH_Init)
    i.NORFLASH_Qspi_Enable                   0x08003538   Section        0  norflash.o(i.NORFLASH_Qspi_Enable)
    i.NORFLASH_ReadID                        0x08003574   Section        0  norflash.o(i.NORFLASH_ReadID)
    i.NORFLASH_ReadSR                        0x080035b4   Section        0  norflash.o(i.NORFLASH_ReadSR)
    i.NORFLASH_Write_Enable                  0x08003610   Section        0  norflash.o(i.NORFLASH_Write_Enable)
    i.NORFLASH_Write_SR                      0x08003638   Section        0  norflash.o(i.NORFLASH_Write_SR)
    i.PendSV_Handler                         0x0800368c   Section        0  stm32l4xx_it.o(i.PendSV_Handler)
    i.QSPI_Init                              0x0800368e   Section        0  qspi.o(i.QSPI_Init)
    i.QSPI_Receive                           0x08003690   Section        0  qspi.o(i.QSPI_Receive)
    i.QSPI_Send_CMD                          0x08003730   Section        0  qspi.o(i.QSPI_Send_CMD)
    i.QSPI_Transmit                          0x080037b0   Section        0  qspi.o(i.QSPI_Transmit)
    i.QSPI_WaitFlagStateUntilTimeout         0x08003848   Section        0  stm32l4xx_hal_qspi.o(i.QSPI_WaitFlagStateUntilTimeout)
    QSPI_WaitFlagStateUntilTimeout           0x08003849   Thumb Code    76  stm32l4xx_hal_qspi.o(i.QSPI_WaitFlagStateUntilTimeout)
    i.QSPI_Wait_Flag                         0x08003894   Section        0  qspi.o(i.QSPI_Wait_Flag)
    i.RCCEx_PLLSAI1_Config                   0x080038c8   Section        0  stm32l4xx_hal_rcc_ex.o(i.RCCEx_PLLSAI1_Config)
    RCCEx_PLLSAI1_Config                     0x080038c9   Thumb Code   376  stm32l4xx_hal_rcc_ex.o(i.RCCEx_PLLSAI1_Config)
    i.RCC_SetFlashLatencyFromMSIRange        0x08003a50   Section        0  stm32l4xx_hal_rcc.o(i.RCC_SetFlashLatencyFromMSIRange)
    RCC_SetFlashLatencyFromMSIRange          0x08003a51   Thumb Code   148  stm32l4xx_hal_rcc.o(i.RCC_SetFlashLatencyFromMSIRange)
    i.SPI1_IRQHandler                        0x08003aec   Section        0  stm32l4xx_it.o(i.SPI1_IRQHandler)
    i.SPI_DMAAbortOnError                    0x08003afc   Section        0  stm32l4xx_hal_spi.o(i.SPI_DMAAbortOnError)
    SPI_DMAAbortOnError                      0x08003afd   Thumb Code    22  stm32l4xx_hal_spi.o(i.SPI_DMAAbortOnError)
    i.SPI_DMAError                           0x08003b12   Section        0  stm32l4xx_hal_spi.o(i.SPI_DMAError)
    SPI_DMAError                             0x08003b13   Thumb Code    40  stm32l4xx_hal_spi.o(i.SPI_DMAError)
    i.SPI_DMAHalfTransmitCplt                0x08003b3a   Section        0  stm32l4xx_hal_spi.o(i.SPI_DMAHalfTransmitCplt)
    SPI_DMAHalfTransmitCplt                  0x08003b3b   Thumb Code    14  stm32l4xx_hal_spi.o(i.SPI_DMAHalfTransmitCplt)
    i.SPI_DMATransmitCplt                    0x08003b48   Section        0  stm32l4xx_hal_spi.o(i.SPI_DMATransmitCplt)
    SPI_DMATransmitCplt                      0x08003b49   Thumb Code   126  stm32l4xx_hal_spi.o(i.SPI_DMATransmitCplt)
    i.SPI_EndRxTxTransaction                 0x08003bc6   Section        0  stm32l4xx_hal_spi.o(i.SPI_EndRxTxTransaction)
    SPI_EndRxTxTransaction                   0x08003bc7   Thumb Code   100  stm32l4xx_hal_spi.o(i.SPI_EndRxTxTransaction)
    i.SPI_WaitFifoStateUntilTimeout          0x08003c2c   Section        0  stm32l4xx_hal_spi.o(i.SPI_WaitFifoStateUntilTimeout)
    SPI_WaitFifoStateUntilTimeout            0x08003c2d   Thumb Code   242  stm32l4xx_hal_spi.o(i.SPI_WaitFifoStateUntilTimeout)
    i.SPI_WaitFlagStateUntilTimeout          0x08003d2c   Section        0  stm32l4xx_hal_spi.o(i.SPI_WaitFlagStateUntilTimeout)
    SPI_WaitFlagStateUntilTimeout            0x08003d2d   Thumb Code   210  stm32l4xx_hal_spi.o(i.SPI_WaitFlagStateUntilTimeout)
    i.ST7789_DrawImage                       0x08003e0a   Section        0  st7789.o(i.ST7789_DrawImage)
    i.ST7789_Init                            0x08003e3c   Section        0  st7789.o(i.ST7789_Init)
    i.ST7789_SetAddressWindow                0x08003f74   Section        0  st7789.o(i.ST7789_SetAddressWindow)
    ST7789_SetAddressWindow                  0x08003f75   Thumb Code   146  st7789.o(i.ST7789_SetAddressWindow)
    i.ST7789_SetRotation                     0x08004018   Section        0  st7789.o(i.ST7789_SetRotation)
    i.ST7789_WriteCommand                    0x08004058   Section        0  st7789.o(i.ST7789_WriteCommand)
    ST7789_WriteCommand                      0x08004059   Thumb Code    28  st7789.o(i.ST7789_WriteCommand)
    i.ST7789_WriteData                       0x0800407c   Section        0  st7789.o(i.ST7789_WriteData)
    ST7789_WriteData                         0x0800407d   Thumb Code    60  st7789.o(i.ST7789_WriteData)
    i.ST7789_WriteData_DMA                   0x080040c0   Section        0  st7789.o(i.ST7789_WriteData_DMA)
    ST7789_WriteData_DMA                     0x080040c1   Thumb Code    58  st7789.o(i.ST7789_WriteData_DMA)
    i.ST7789_WriteSmallData                  0x08004104   Section        0  st7789.o(i.ST7789_WriteSmallData)
    ST7789_WriteSmallData                    0x08004105   Thumb Code    28  st7789.o(i.ST7789_WriteSmallData)
    i.SVC_Handler                            0x08004128   Section        0  stm32l4xx_it.o(i.SVC_Handler)
    i.SysTick_Handler                        0x0800412a   Section        0  stm32l4xx_it.o(i.SysTick_Handler)
    i.SystemClock_Config                     0x0800412c   Section        0  main.o(i.SystemClock_Config)
    i.SystemInit                             0x080041a0   Section        0  system_stm32l4xx.o(i.SystemInit)
    i.TIM6_DAC_IRQHandler                    0x080041b4   Section        0  stm32l4xx_it.o(i.TIM6_DAC_IRQHandler)
    i.TIM7_IRQHandler                        0x080041c4   Section        0  stm32l4xx_it.o(i.TIM7_IRQHandler)
    i.TIM_Base_SetConfig                     0x080041d4   Section        0  stm32l4xx_hal_tim.o(i.TIM_Base_SetConfig)
    i.UART_AdvFeatureConfig                  0x08004248   Section        0  stm32l4xx_hal_uart.o(i.UART_AdvFeatureConfig)
    i.UART_CheckIdleState                    0x08004340   Section        0  stm32l4xx_hal_uart.o(i.UART_CheckIdleState)
    i.UART_SetConfig                         0x080043b4   Section        0  stm32l4xx_hal_uart.o(i.UART_SetConfig)
    i.UART_WaitOnFlagUntilTimeout            0x080046aa   Section        0  stm32l4xx_hal_uart.o(i.UART_WaitOnFlagUntilTimeout)
    i.UsageFault_Handler                     0x080047a2   Section        0  stm32l4xx_it.o(i.UsageFault_Handler)
    i.__NVIC_GetPriorityGrouping             0x080047a8   Section        0  stm32l4xx_hal_cortex.o(i.__NVIC_GetPriorityGrouping)
    __NVIC_GetPriorityGrouping               0x080047a9   Thumb Code    10  stm32l4xx_hal_cortex.o(i.__NVIC_GetPriorityGrouping)
    i.__NVIC_SetPriority                     0x080047b8   Section        0  stm32l4xx_hal_cortex.o(i.__NVIC_SetPriority)
    __NVIC_SetPriority                       0x080047b9   Thumb Code    32  stm32l4xx_hal_cortex.o(i.__NVIC_SetPriority)
    i._atoi                                  0x080047e0   Section        0  lv_printf.o(i._atoi)
    _atoi                                    0x080047e1   Thumb Code    42  lv_printf.o(i._atoi)
    i._is_digit                              0x0800480a   Section        0  lv_printf.o(i._is_digit)
    _is_digit                                0x0800480b   Thumb Code    18  lv_printf.o(i._is_digit)
    i._lv_anim_core_init                     0x0800481c   Section        0  lv_anim.o(i._lv_anim_core_init)
    i._lv_area_intersect                     0x08004850   Section        0  lv_area.o(i._lv_area_intersect)
    i._lv_area_is_in                         0x080048d2   Section        0  lv_area.o(i._lv_area_is_in)
    i._lv_area_is_on                         0x0800498e   Section        0  lv_area.o(i._lv_area_is_on)
    i._lv_area_is_out                        0x080049c8   Section        0  lv_area.o(i._lv_area_is_out)
    i._lv_area_is_point_on                   0x08004a7e   Section        0  lv_area.o(i._lv_area_is_point_on)
    i._lv_area_join                          0x08004c16   Section        0  lv_area.o(i._lv_area_join)
    i._lv_disp_refr_timer                    0x08004c7c   Section        0  lv_refr.o(i._lv_disp_refr_timer)
    i._lv_draw_mask_cleanup                  0x0800502c   Section        0  lv_draw_mask.o(i._lv_draw_mask_cleanup)
    i._lv_event_mark_deleted                 0x0800506c   Section        0  lv_event.o(i._lv_event_mark_deleted)
    i._lv_font_clean_up_fmt_txt              0x08005098   Section        0  lv_font_fmt_txt.o(i._lv_font_clean_up_fmt_txt)
    i._lv_fs_init                            0x0800509c   Section        0  lv_fs.o(i._lv_fs_init)
    i._lv_group_init                         0x080050ac   Section        0  lv_group.o(i._lv_group_init)
    i._lv_img_buf_get_transformed_area       0x080050bc   Section        0  lv_img_buf.o(i._lv_img_buf_get_transformed_area)
    i._lv_img_cache_open                     0x080052d0   Section        0  lv_img_cache.o(i._lv_img_cache_open)
    i._lv_img_decoder_init                   0x0800533c   Section        0  lv_img_decoder.o(i._lv_img_decoder_init)
    i._lv_indev_read                         0x0800539c   Section        0  lv_hal_indev.o(i._lv_indev_read)
    i._lv_indev_scroll_handler               0x080053ec   Section        0  lv_indev_scroll.o(i._lv_indev_scroll_handler)
    i._lv_indev_scroll_throw_handler         0x08005530   Section        0  lv_indev_scroll.o(i._lv_indev_scroll_throw_handler)
    i._lv_inv_area                           0x080057c2   Section        0  lv_refr.o(i._lv_inv_area)
    i._lv_ll_clear                           0x080058da   Section        0  lv_ll.o(i._lv_ll_clear)
    i._lv_ll_get_head                        0x0800590a   Section        0  lv_ll.o(i._lv_ll_get_head)
    i._lv_ll_get_len                         0x08005916   Section        0  lv_ll.o(i._lv_ll_get_len)
    i._lv_ll_get_next                        0x0800593a   Section        0  lv_ll.o(i._lv_ll_get_next)
    i._lv_ll_get_prev                        0x08005948   Section        0  lv_ll.o(i._lv_ll_get_prev)
    i._lv_ll_get_tail                        0x08005954   Section        0  lv_ll.o(i._lv_ll_get_tail)
    i._lv_ll_init                            0x08005960   Section        0  lv_ll.o(i._lv_ll_init)
    i._lv_ll_ins_head                        0x08005970   Section        0  lv_ll.o(i._lv_ll_ins_head)
    i._lv_ll_ins_tail                        0x080059b0   Section        0  lv_ll.o(i._lv_ll_ins_tail)
    i._lv_ll_is_empty                        0x080059f0   Section        0  lv_ll.o(i._lv_ll_is_empty)
    i._lv_ll_remove                          0x08005a08   Section        0  lv_ll.o(i._lv_ll_remove)
    i._lv_obj_destruct                       0x08005a98   Section        0  lv_obj_class.o(i._lv_obj_destruct)
    i._lv_obj_get_ext_draw_size              0x08005abe   Section        0  lv_obj_draw.o(i._lv_obj_get_ext_draw_size)
    i._lv_obj_get_layer_type                 0x08005ad0   Section        0  lv_obj_draw.o(i._lv_obj_get_layer_type)
    i._lv_obj_scroll_by_raw                  0x08005ae2   Section        0  lv_obj_scroll.o(i._lv_obj_scroll_by_raw)
    i._lv_obj_style_apply_color_filter       0x08005b3e   Section        0  lv_obj_style.o(i._lv_obj_style_apply_color_filter)
    i._lv_obj_style_create_transition        0x08005b98   Section        0  lv_obj_style.o(i._lv_obj_style_create_transition)
    i._lv_obj_style_init                     0x08005d34   Section        0  lv_obj_style.o(i._lv_obj_style_init)
    i._lv_obj_style_state_compare            0x08005d44   Section        0  lv_obj_style.o(i._lv_obj_style_state_compare)
    i._lv_refr_get_disp_refreshing           0x08006008   Section        0  lv_refr.o(i._lv_refr_get_disp_refreshing)
    i._lv_refr_init                          0x08006014   Section        0  lv_refr.o(i._lv_refr_init)
    i._lv_style_get_prop_group               0x0800602c   Section        0  lv_style.o(i._lv_style_get_prop_group)
    i._lv_style_prop_lookup_flags            0x0800603c   Section        0  lv_style.o(i._lv_style_prop_lookup_flags)
    i._lv_timer_core_init                    0x08006088   Section        0  lv_timer.o(i._lv_timer_core_init)
    i._lv_txt_cut                            0x080060a0   Section        0  lv_txt.o(i._lv_txt_cut)
    i._lv_txt_encoded_letter_next_2          0x080060ec   Section        0  lv_txt.o(i._lv_txt_encoded_letter_next_2)
    i._lv_txt_get_next_line                  0x08006124   Section        0  lv_txt.o(i._lv_txt_get_next_line)
    i._lv_txt_ins                            0x08006258   Section        0  lv_txt.o(i._lv_txt_ins)
    i._lv_txt_is_cmd                         0x080062b8   Section        0  lv_txt.o(i._lv_txt_is_cmd)
    i._lv_txt_set_text_vfmt                  0x08006300   Section        0  lv_txt.o(i._lv_txt_set_text_vfmt)
    i._lv_utils_bsearch                      0x08006350   Section        0  lv_utils.o(i._lv_utils_bsearch)
    i._lv_vsnprintf                          0x080063a4   Section        0  lv_printf.o(i._lv_vsnprintf)
    _lv_vsnprintf                            0x080063a5   Thumb Code  1554  lv_printf.o(i._lv_vsnprintf)
    i._ntoa_format                           0x080069bc   Section        0  lv_printf.o(i._ntoa_format)
    _ntoa_format                             0x080069bd   Thumb Code   282  lv_printf.o(i._ntoa_format)
    i._ntoa_long                             0x08006adc   Section        0  lv_printf.o(i._ntoa_long)
    _ntoa_long                               0x08006add   Thumb Code   124  lv_printf.o(i._ntoa_long)
    i._ntoa_long_long                        0x08006b5e   Section        0  lv_printf.o(i._ntoa_long_long)
    _ntoa_long_long                          0x08006b5f   Thumb Code   184  lv_printf.o(i._ntoa_long_long)
    i._out_buffer                            0x08006c1c   Section        0  lv_printf.o(i._out_buffer)
    _out_buffer                              0x08006c1d   Thumb Code     8  lv_printf.o(i._out_buffer)
    i._out_null                              0x08006c24   Section        0  lv_printf.o(i._out_null)
    _out_null                                0x08006c25   Thumb Code     2  lv_printf.o(i._out_null)
    i._out_rev                               0x08006c26   Section        0  lv_printf.o(i._out_rev)
    _out_rev                                 0x08006c27   Thumb Code   116  lv_printf.o(i._out_rev)
    i.a8_aa                                  0x08006ca0   Section        0  lv_draw_sw_transform.o(i.a8_aa)
    a8_aa                                    0x08006ca1   Thumb Code   452  lv_draw_sw_transform.o(i.a8_aa)
    i.adjust_request_size                    0x08006e6a   Section        0  lv_tlsf.o(i.adjust_request_size)
    adjust_request_size                      0x08006e6b   Thumb Code    48  lv_tlsf.o(i.adjust_request_size)
    i.align_down                             0x08006e9a   Section        0  lv_tlsf.o(i.align_down)
    align_down                               0x08006e9b   Thumb Code    28  lv_tlsf.o(i.align_down)
    i.align_ptr                              0x08006eb6   Section        0  lv_tlsf.o(i.align_ptr)
    align_ptr                                0x08006eb7   Thumb Code    34  lv_tlsf.o(i.align_ptr)
    i.align_up                               0x08006ed8   Section        0  lv_tlsf.o(i.align_up)
    align_up                                 0x08006ed9   Thumb Code    30  lv_tlsf.o(i.align_up)
    i.allocate_btn_areas_and_controls        0x08006ef8   Section        0  lv_btnmatrix.o(i.allocate_btn_areas_and_controls)
    allocate_btn_areas_and_controls          0x08006ef9   Thumb Code   186  lv_btnmatrix.o(i.allocate_btn_areas_and_controls)
    i.allocate_item                          0x08006fb8   Section        0  lv_draw_sw_gradient.o(i.allocate_item)
    allocate_item                            0x08006fb9   Thumb Code   288  lv_draw_sw_gradient.o(i.allocate_item)
    i.angle_to_mode_color_fast               0x080070f4   Section        0  lv_colorwheel.o(i.angle_to_mode_color_fast)
    angle_to_mode_color_fast                 0x080070f5   Thumb Code   424  lv_colorwheel.o(i.angle_to_mode_color_fast)
    i.anim_mark_list_change                  0x080072b0   Section        0  lv_anim.o(i.anim_mark_list_change)
    anim_mark_list_change                    0x080072b1   Thumb Code    36  lv_anim.o(i.anim_mark_list_change)
    i.anim_ready_handler                     0x080072e0   Section        0  lv_anim.o(i.anim_ready_handler)
    anim_ready_handler                       0x080072e1   Thumb Code   168  lv_anim.o(i.anim_ready_handler)
    i.anim_timer                             0x0800738c   Section        0  lv_anim.o(i.anim_timer)
    anim_timer                               0x0800738d   Thumb Code   268  lv_anim.o(i.anim_timer)
    i.apply_theme                            0x080074a4   Section        0  lv_theme.o(i.apply_theme)
    apply_theme                              0x080074a5   Thumb Code    32  lv_theme.o(i.apply_theme)
    i.apply_theme_recursion                  0x080074c4   Section        0  lv_theme.o(i.apply_theme_recursion)
    apply_theme_recursion                    0x080074c5   Thumb Code    50  lv_theme.o(i.apply_theme_recursion)
    i.arc_anim_end_angle                     0x080074f6   Section        0  lv_spinner.o(i.arc_anim_end_angle)
    arc_anim_end_angle                       0x080074f7   Thumb Code    16  lv_spinner.o(i.arc_anim_end_angle)
    i.arc_anim_end_angle_cb                  0x08007506   Section        0  lv_demo_benchmark.o(i.arc_anim_end_angle_cb)
    arc_anim_end_angle_cb                    0x08007507   Thumb Code    16  lv_demo_benchmark.o(i.arc_anim_end_angle_cb)
    i.arc_anim_start_angle                   0x08007516   Section        0  lv_spinner.o(i.arc_anim_start_angle)
    arc_anim_start_angle                     0x08007517   Thumb Code    16  lv_spinner.o(i.arc_anim_start_angle)
    i.arc_create                             0x08007528   Section        0  lv_demo_benchmark.o(i.arc_create)
    arc_create                               0x08007529   Thumb Code   248  lv_demo_benchmark.o(i.arc_create)
    i.arc_thick_cb                           0x08007634   Section        0  lv_demo_benchmark.o(i.arc_thick_cb)
    arc_thick_cb                             0x08007635   Thumb Code    44  lv_demo_benchmark.o(i.arc_thick_cb)
    i.arc_think_cb                           0x08007668   Section        0  lv_demo_benchmark.o(i.arc_think_cb)
    arc_think_cb                             0x08007669   Thumb Code    44  lv_demo_benchmark.o(i.arc_think_cb)
    i.argb_and_rgb_aa                        0x0800769c   Section        0  lv_draw_sw_transform.o(i.argb_and_rgb_aa)
    argb_and_rgb_aa                          0x0800769d   Thumb Code   908  lv_draw_sw_transform.o(i.argb_and_rgb_aa)
    i.argb_no_aa                             0x08007a2e   Section        0  lv_draw_sw_transform.o(i.argb_no_aa)
    argb_no_aa                               0x08007a2f   Thumb Code   138  lv_draw_sw_transform.o(i.argb_no_aa)
    i.auto_hide_characters                   0x08007ac0   Section        0  lv_textarea.o(i.auto_hide_characters)
    auto_hide_characters                     0x08007ac1   Thumb Code    86  lv_textarea.o(i.auto_hide_characters)
    i.benchmark_init                         0x08007b24   Section        0  lv_demo_benchmark.o(i.benchmark_init)
    benchmark_init                           0x08007b25   Thumb Code   314  lv_demo_benchmark.o(i.benchmark_init)
    i.block_absorb                           0x08007c90   Section        0  lv_tlsf.o(i.block_absorb)
    block_absorb                             0x08007c91   Thumb Code    50  lv_tlsf.o(i.block_absorb)
    i.block_can_split                        0x08007cc2   Section        0  lv_tlsf.o(i.block_can_split)
    block_can_split                          0x08007cc3   Thumb Code    28  lv_tlsf.o(i.block_can_split)
    i.block_from_ptr                         0x08007cde   Section        0  lv_tlsf.o(i.block_from_ptr)
    block_from_ptr                           0x08007cdf   Thumb Code     8  lv_tlsf.o(i.block_from_ptr)
    i.block_insert                           0x08007ce6   Section        0  lv_tlsf.o(i.block_insert)
    block_insert                             0x08007ce7   Thumb Code    36  lv_tlsf.o(i.block_insert)
    i.block_is_free                          0x08007d0a   Section        0  lv_tlsf.o(i.block_is_free)
    block_is_free                            0x08007d0b   Thumb Code    10  lv_tlsf.o(i.block_is_free)
    i.block_is_last                          0x08007d14   Section        0  lv_tlsf.o(i.block_is_last)
    block_is_last                            0x08007d15   Thumb Code    20  lv_tlsf.o(i.block_is_last)
    i.block_is_prev_free                     0x08007d28   Section        0  lv_tlsf.o(i.block_is_prev_free)
    block_is_prev_free                       0x08007d29   Thumb Code    10  lv_tlsf.o(i.block_is_prev_free)
    i.block_link_next                        0x08007d32   Section        0  lv_tlsf.o(i.block_link_next)
    block_link_next                          0x08007d33   Thumb Code    18  lv_tlsf.o(i.block_link_next)
    i.block_locate_free                      0x08007d44   Section        0  lv_tlsf.o(i.block_locate_free)
    block_locate_free                        0x08007d45   Thumb Code    84  lv_tlsf.o(i.block_locate_free)
    i.block_mark_as_free                     0x08007d98   Section        0  lv_tlsf.o(i.block_mark_as_free)
    block_mark_as_free                       0x08007d99   Thumb Code    26  lv_tlsf.o(i.block_mark_as_free)
    i.block_mark_as_used                     0x08007db2   Section        0  lv_tlsf.o(i.block_mark_as_used)
    block_mark_as_used                       0x08007db3   Thumb Code    26  lv_tlsf.o(i.block_mark_as_used)
    i.block_merge_next                       0x08007dcc   Section        0  lv_tlsf.o(i.block_merge_next)
    block_merge_next                         0x08007dcd   Thumb Code    78  lv_tlsf.o(i.block_merge_next)
    i.block_merge_prev                       0x08007e1a   Section        0  lv_tlsf.o(i.block_merge_prev)
    block_merge_prev                         0x08007e1b   Thumb Code    80  lv_tlsf.o(i.block_merge_prev)
    i.block_next                             0x08007e6a   Section        0  lv_tlsf.o(i.block_next)
    block_next                               0x08007e6b   Thumb Code    56  lv_tlsf.o(i.block_next)
    i.block_prepare_used                     0x08007ea2   Section        0  lv_tlsf.o(i.block_prepare_used)
    block_prepare_used                       0x08007ea3   Thumb Code    58  lv_tlsf.o(i.block_prepare_used)
    i.block_prev                             0x08007edc   Section        0  lv_tlsf.o(i.block_prev)
    block_prev                               0x08007edd   Thumb Code    28  lv_tlsf.o(i.block_prev)
    i.block_remove                           0x08007ef8   Section        0  lv_tlsf.o(i.block_remove)
    block_remove                             0x08007ef9   Thumb Code    36  lv_tlsf.o(i.block_remove)
    i.block_set_free                         0x08007f1c   Section        0  lv_tlsf.o(i.block_set_free)
    block_set_free                           0x08007f1d   Thumb Code    10  lv_tlsf.o(i.block_set_free)
    i.block_set_prev_free                    0x08007f26   Section        0  lv_tlsf.o(i.block_set_prev_free)
    block_set_prev_free                      0x08007f27   Thumb Code    10  lv_tlsf.o(i.block_set_prev_free)
    i.block_set_prev_used                    0x08007f30   Section        0  lv_tlsf.o(i.block_set_prev_used)
    block_set_prev_used                      0x08007f31   Thumb Code    10  lv_tlsf.o(i.block_set_prev_used)
    i.block_set_size                         0x08007f3a   Section        0  lv_tlsf.o(i.block_set_size)
    block_set_size                           0x08007f3b   Thumb Code    12  lv_tlsf.o(i.block_set_size)
    i.block_set_used                         0x08007f46   Section        0  lv_tlsf.o(i.block_set_used)
    block_set_used                           0x08007f47   Thumb Code    10  lv_tlsf.o(i.block_set_used)
    i.block_size                             0x08007f50   Section        0  lv_tlsf.o(i.block_size)
    block_size                               0x08007f51   Thumb Code    10  lv_tlsf.o(i.block_size)
    i.block_split                            0x08007f5a   Section        0  lv_tlsf.o(i.block_split)
    block_split                              0x08007f5b   Thumb Code   148  lv_tlsf.o(i.block_split)
    i.block_to_ptr                           0x08007fee   Section        0  lv_tlsf.o(i.block_to_ptr)
    block_to_ptr                             0x08007fef   Thumb Code     8  lv_tlsf.o(i.block_to_ptr)
    i.block_trim_free                        0x08007ff6   Section        0  lv_tlsf.o(i.block_trim_free)
    block_trim_free                          0x08007ff7   Thumb Code    76  lv_tlsf.o(i.block_trim_free)
    i.block_trim_used                        0x08008042   Section        0  lv_tlsf.o(i.block_trim_used)
    block_trim_used                          0x08008043   Thumb Code    80  lv_tlsf.o(i.block_trim_used)
    i.border_cb                              0x08008094   Section        0  lv_demo_benchmark.o(i.border_cb)
    border_cb                                0x08008095   Thumb Code    44  lv_demo_benchmark.o(i.border_cb)
    i.border_circle_cb                       0x080080c8   Section        0  lv_demo_benchmark.o(i.border_circle_cb)
    border_circle_cb                         0x080080c9   Thumb Code    54  lv_demo_benchmark.o(i.border_circle_cb)
    i.border_left_cb                         0x08008108   Section        0  lv_demo_benchmark.o(i.border_left_cb)
    border_left_cb                           0x08008109   Thumb Code    60  lv_demo_benchmark.o(i.border_left_cb)
    i.border_left_right_cb                   0x0800814c   Section        0  lv_demo_benchmark.o(i.border_left_right_cb)
    border_left_right_cb                     0x0800814d   Thumb Code    60  lv_demo_benchmark.o(i.border_left_right_cb)
    i.border_rounded_cb                      0x08008190   Section        0  lv_demo_benchmark.o(i.border_rounded_cb)
    border_rounded_cb                        0x08008191   Thumb Code    52  lv_demo_benchmark.o(i.border_rounded_cb)
    i.border_top_bottom_cb                   0x080081cc   Section        0  lv_demo_benchmark.o(i.border_top_bottom_cb)
    border_top_bottom_cb                     0x080081cd   Thumb Code    60  lv_demo_benchmark.o(i.border_top_bottom_cb)
    i.border_top_cb                          0x08008210   Section        0  lv_demo_benchmark.o(i.border_top_cb)
    border_top_cb                            0x08008211   Thumb Code    60  lv_demo_benchmark.o(i.border_top_cb)
    i.border_top_left_cb                     0x08008254   Section        0  lv_demo_benchmark.o(i.border_top_left_cb)
    border_top_left_cb                       0x08008255   Thumb Code    60  lv_demo_benchmark.o(i.border_top_left_cb)
    i.bsp_ns2009_getPos                      0x08008298   Section        0  ns2009.o(i.bsp_ns2009_getPos)
    i.bsp_ns2009_getPress                    0x0800838c   Section        0  ns2009.o(i.bsp_ns2009_getPress)
    i.bsp_ns2009_init                        0x08008396   Section        0  ns2009.o(i.bsp_ns2009_init)
    i.btn_release_handler                    0x08008398   Section        0  lv_dropdown.o(i.btn_release_handler)
    btn_release_handler                      0x08008399   Thumb Code   134  lv_dropdown.o(i.btn_release_handler)
    i.btns_value_changed_event_cb            0x0800841e   Section        0  lv_tabview.o(i.btns_value_changed_event_cb)
    btns_value_changed_event_cb              0x0800841f   Thumb Code    44  lv_tabview.o(i.btns_value_changed_event_cb)
    i.button_get_checked                     0x0800844a   Section        0  lv_btnmatrix.o(i.button_get_checked)
    button_get_checked                       0x0800844b   Thumb Code     8  lv_btnmatrix.o(i.button_get_checked)
    i.button_is_checkable                    0x08008452   Section        0  lv_btnmatrix.o(i.button_is_checkable)
    button_is_checkable                      0x08008453   Thumb Code     8  lv_btnmatrix.o(i.button_is_checkable)
    i.button_is_checked                      0x0800845a   Section        0  lv_btnmatrix.o(i.button_is_checked)
    button_is_checked                        0x0800845b   Thumb Code     8  lv_btnmatrix.o(i.button_is_checked)
    i.button_is_click_trig                   0x08008462   Section        0  lv_btnmatrix.o(i.button_is_click_trig)
    button_is_click_trig                     0x08008463   Thumb Code     8  lv_btnmatrix.o(i.button_is_click_trig)
    i.button_is_hidden                       0x0800846a   Section        0  lv_btnmatrix.o(i.button_is_hidden)
    button_is_hidden                         0x0800846b   Thumb Code     8  lv_btnmatrix.o(i.button_is_hidden)
    i.button_is_inactive                     0x08008472   Section        0  lv_btnmatrix.o(i.button_is_inactive)
    button_is_inactive                       0x08008473   Thumb Code     8  lv_btnmatrix.o(i.button_is_inactive)
    i.button_is_popover                      0x0800847a   Section        0  lv_btnmatrix.o(i.button_is_popover)
    button_is_popover                        0x0800847b   Thumb Code     8  lv_btnmatrix.o(i.button_is_popover)
    i.button_is_recolor                      0x08008482   Section        0  lv_btnmatrix.o(i.button_is_recolor)
    button_is_recolor                        0x08008483   Thumb Code     8  lv_btnmatrix.o(i.button_is_recolor)
    i.button_is_repeat_disabled              0x0800848a   Section        0  lv_btnmatrix.o(i.button_is_repeat_disabled)
    button_is_repeat_disabled                0x0800848b   Thumb Code     8  lv_btnmatrix.o(i.button_is_repeat_disabled)
    i.calc                                   0x08008494   Section        0  lv_grid.o(i.calc)
    calc                                     0x08008495   Thumb Code   290  lv_grid.o(i.calc)
    i.calc_cols                              0x080085c8   Section        0  lv_grid.o(i.calc_cols)
    calc_cols                                0x080085c9   Thumb Code   412  lv_grid.o(i.calc_cols)
    i.calc_content_height                    0x08008774   Section        0  lv_obj_pos.o(i.calc_content_height)
    calc_content_height                      0x08008775   Thumb Code   296  lv_obj_pos.o(i.calc_content_height)
    i.calc_content_width                     0x080088ac   Section        0  lv_obj_pos.o(i.calc_content_width)
    calc_content_width                       0x080088ad   Thumb Code   506  lv_obj_pos.o(i.calc_content_width)
    i.calc_free                              0x08008ab6   Section        0  lv_grid.o(i.calc_free)
    calc_free                                0x08008ab7   Thumb Code    30  lv_grid.o(i.calc_free)
    i.calc_rows                              0x08008ad4   Section        0  lv_grid.o(i.calc_rows)
    calc_rows                                0x08008ad5   Thumb Code   408  lv_grid.o(i.calc_rows)
    i.calc_scene_statistics                  0x08008c7c   Section        0  lv_demo_benchmark.o(i.calc_scene_statistics)
    calc_scene_statistics                    0x08008c7d   Thumb Code   208  lv_demo_benchmark.o(i.calc_scene_statistics)
    i.calculate_layer_type                   0x08008d58   Section        0  lv_obj_style.o(i.calculate_layer_type)
    calculate_layer_type                     0x08008d59   Thumb Code   100  lv_obj_style.o(i.calculate_layer_type)
    i.calculate_x_coordinate                 0x08008dbc   Section        0  lv_label.o(i.calculate_x_coordinate)
    calculate_x_coordinate                   0x08008dbd   Thumb Code   122  lv_label.o(i.calculate_x_coordinate)
    i.call_flush_cb                          0x08008e3c   Section        0  lv_refr.o(i.call_flush_cb)
    call_flush_cb                            0x08008e3d   Thumb Code    80  lv_refr.o(i.call_flush_cb)
    i.char_is_accepted                       0x08008e8c   Section        0  lv_textarea.o(i.char_is_accepted)
    char_is_accepted                         0x08008e8d   Thumb Code    92  lv_textarea.o(i.char_is_accepted)
    i.children_repos                         0x08008ef0   Section        0  lv_flex.o(i.children_repos)
    children_repos                           0x08008ef1   Thumb Code  1360  lv_flex.o(i.children_repos)
    i.circ_calc_aa4                          0x08009446   Section        0  lv_draw_mask.o(i.circ_calc_aa4)
    circ_calc_aa4                            0x08009447   Thumb Code   876  lv_draw_mask.o(i.circ_calc_aa4)
    i.circ_cont                              0x080097b8   Section        0  lv_draw_mask.o(i.circ_cont)
    circ_cont                                0x080097b9   Thumb Code    22  lv_draw_mask.o(i.circ_cont)
    i.circ_init                              0x080097ce   Section        0  lv_draw_mask.o(i.circ_init)
    circ_init                                0x080097cf   Thumb Code    16  lv_draw_mask.o(i.circ_init)
    i.circ_next                              0x080097de   Section        0  lv_draw_mask.o(i.circ_next)
    circ_next                                0x080097df   Thumb Code    60  lv_draw_mask.o(i.circ_next)
    i.color_blend_true_color_additive        0x0800981a   Section        0  lv_draw_sw_blend.o(i.color_blend_true_color_additive)
    color_blend_true_color_additive          0x0800981b   Thumb Code   162  lv_draw_sw_blend.o(i.color_blend_true_color_additive)
    i.color_blend_true_color_multiply        0x080098bc   Section        0  lv_draw_sw_blend.o(i.color_blend_true_color_multiply)
    color_blend_true_color_multiply          0x080098bd   Thumb Code   144  lv_draw_sw_blend.o(i.color_blend_true_color_multiply)
    i.color_blend_true_color_subtractive     0x0800994c   Section        0  lv_draw_sw_blend.o(i.color_blend_true_color_subtractive)
    color_blend_true_color_subtractive       0x0800994d   Thumb Code   162  lv_draw_sw_blend.o(i.color_blend_true_color_subtractive)
    i.compute_key                            0x080099ee   Section        0  lv_draw_sw_gradient.o(i.compute_key)
    compute_key                              0x080099ef   Thumb Code    16  lv_draw_sw_gradient.o(i.compute_key)
    i.cont_scroll_end_event_cb               0x080099fe   Section        0  lv_tabview.o(i.cont_scroll_end_event_cb)
    cont_scroll_end_event_cb                 0x080099ff   Thumb Code   252  lv_tabview.o(i.cont_scroll_end_event_cb)
    i.control_constructor                    0x08009b00   Section        0  lv_tlsf.o(i.control_constructor)
    control_constructor                      0x08009b01   Thumb Code    54  lv_tlsf.o(i.control_constructor)
    i.convert_cb                             0x08009b36   Section        0  lv_draw_sw_img.o(i.convert_cb)
    convert_cb                               0x08009b37   Thumb Code   492  lv_draw_sw_img.o(i.convert_cb)
    i.copy_cell_txt                          0x08009d28   Section        0  lv_table.o(i.copy_cell_txt)
    copy_cell_txt                            0x08009d29   Thumb Code    16  lv_table.o(i.copy_cell_txt)
    i.copy_text_to_label                     0x08009d38   Section        0  lv_label.o(i.copy_text_to_label)
    copy_text_to_label                       0x08009d39   Thumb Code    16  lv_label.o(i.copy_text_to_label)
    i.count_tracks                           0x08009d48   Section        0  lv_grid.o(i.count_tracks)
    count_tracks                             0x08009d49   Thumb Code    22  lv_grid.o(i.count_tracks)
    i.cursor_blink_anim_cb                   0x08009d5e   Section        0  lv_textarea.o(i.cursor_blink_anim_cb)
    cursor_blink_anim_cb                     0x08009d5f   Thumb Code   126  lv_textarea.o(i.cursor_blink_anim_cb)
    i.dark_color_filter_cb                   0x08009ddc   Section        0  lv_theme_default.o(i.dark_color_filter_cb)
    dark_color_filter_cb                     0x08009ddd   Thumb Code    28  lv_theme_default.o(i.dark_color_filter_cb)
    i.decode_and_draw                        0x08009df8   Section        0  lv_draw_img.o(i.decode_and_draw)
    decode_and_draw                          0x08009df9   Thumb Code   592  lv_draw_img.o(i.decode_and_draw)
    i.default_walker                         0x0800a04e   Section        0  lv_tlsf.o(i.default_walker)
    default_walker                           0x0800a04f   Thumb Code     6  lv_tlsf.o(i.default_walker)
    i.double_click_reset                     0x0800a054   Section        0  lv_colorwheel.o(i.double_click_reset)
    double_click_reset                       0x0800a055   Thumb Code   126  lv_colorwheel.o(i.double_click_reset)
    i.draw_arcs                              0x0800a0d4   Section        0  lv_meter.o(i.draw_arcs)
    draw_arcs                                0x0800a0d5   Thumb Code   316  lv_meter.o(i.draw_arcs)
    i.draw_axes                              0x0800a21a   Section        0  lv_chart.o(i.draw_axes)
    draw_axes                                0x0800a21b   Thumb Code    48  lv_chart.o(i.draw_axes)
    i.draw_bg                                0x0800a24a   Section        0  lv_draw_sw_rect.o(i.draw_bg)
    draw_bg                                  0x0800a24b   Thumb Code  1002  lv_draw_sw_rect.o(i.draw_bg)
    i.draw_bg_img                            0x0800a63a   Section        0  lv_draw_sw_rect.o(i.draw_bg_img)
    draw_bg_img                              0x0800a63b   Thumb Code   598  lv_draw_sw_rect.o(i.draw_bg_img)
    i.draw_border                            0x0800a896   Section        0  lv_draw_sw_rect.o(i.draw_border)
    draw_border                              0x0800a897   Thumb Code   310  lv_draw_sw_rect.o(i.draw_border)
    i.draw_border_generic                    0x0800a9d2   Section        0  lv_draw_sw_rect.o(i.draw_border_generic)
    i.draw_border_simple                     0x0800af72   Section        0  lv_draw_sw_rect.o(i.draw_border_simple)
    draw_border_simple                       0x0800af73   Thumb Code   282  lv_draw_sw_rect.o(i.draw_border_simple)
    i.draw_box                               0x0800b092   Section        0  lv_dropdown.o(i.draw_box)
    draw_box                                 0x0800b093   Thumb Code   216  lv_dropdown.o(i.draw_box)
    i.draw_box_label                         0x0800b170   Section        0  lv_dropdown.o(i.draw_box_label)
    draw_box_label                           0x0800b171   Thumb Code   264  lv_dropdown.o(i.draw_box_label)
    i.draw_buf_flush                         0x0800b280   Section        0  lv_refr.o(i.draw_buf_flush)
    draw_buf_flush                           0x0800b281   Thumb Code   346  lv_refr.o(i.draw_buf_flush)
    i.draw_buf_rotate                        0x0800b3e0   Section        0  lv_refr.o(i.draw_buf_rotate)
    draw_buf_rotate                          0x0800b3e1   Thumb Code   554  lv_refr.o(i.draw_buf_rotate)
    i.draw_buf_rotate4                       0x0800b616   Section        0  lv_refr.o(i.draw_buf_rotate4)
    draw_buf_rotate4                         0x0800b617   Thumb Code    26  lv_refr.o(i.draw_buf_rotate4)
    i.draw_buf_rotate_180                    0x0800b630   Section        0  lv_refr.o(i.draw_buf_rotate_180)
    draw_buf_rotate_180                      0x0800b631   Thumb Code   142  lv_refr.o(i.draw_buf_rotate_180)
    i.draw_buf_rotate_90                     0x0800b6c4   Section        0  lv_refr.o(i.draw_buf_rotate_90)
    draw_buf_rotate_90                       0x0800b6c5   Thumb Code    90  lv_refr.o(i.draw_buf_rotate_90)
    i.draw_buf_rotate_90_sqr                 0x0800b71e   Section        0  lv_refr.o(i.draw_buf_rotate_90_sqr)
    draw_buf_rotate_90_sqr                   0x0800b71f   Thumb Code   148  lv_refr.o(i.draw_buf_rotate_90_sqr)
    i.draw_cleanup                           0x0800b7b2   Section        0  lv_draw_img.o(i.draw_cleanup)
    draw_cleanup                             0x0800b7b3   Thumb Code    12  lv_draw_img.o(i.draw_cleanup)
    i.draw_cursor                            0x0800b7c0   Section        0  lv_textarea.o(i.draw_cursor)
    draw_cursor                              0x0800b7c1   Thumb Code   330  lv_textarea.o(i.draw_cursor)
    i.draw_cursors                           0x0800b918   Section        0  lv_chart.o(i.draw_cursors)
    draw_cursors                             0x0800b919   Thumb Code   602  lv_chart.o(i.draw_cursors)
    i.draw_disc_grad                         0x0800bb7e   Section        0  lv_colorwheel.o(i.draw_disc_grad)
    draw_disc_grad                           0x0800bb7f   Thumb Code   472  lv_colorwheel.o(i.draw_disc_grad)
    i.draw_div_lines                         0x0800bd5c   Section        0  lv_chart.o(i.draw_div_lines)
    draw_div_lines                           0x0800bd5d   Thumb Code   714  lv_chart.o(i.draw_div_lines)
    i.draw_img                               0x0800c034   Section        0  lv_img.o(i.draw_img)
    draw_img                                 0x0800c035   Thumb Code  1338  lv_img.o(i.draw_img)
    i.draw_indic                             0x0800c57c   Section        0  lv_bar.o(i.draw_indic)
    draw_indic                               0x0800c57d   Thumb Code  1566  lv_bar.o(i.draw_indic)
    i.draw_knob                              0x0800cba0   Section        0  lv_colorwheel.o(i.draw_knob)
    draw_knob                                0x0800cba1   Thumb Code    98  lv_colorwheel.o(i.draw_knob)
    i.draw_knob                              0x0800cc04   Section        0  lv_slider.o(i.draw_knob)
    draw_knob                                0x0800cc05   Thumb Code   438  lv_slider.o(i.draw_knob)
    i.draw_label                             0x0800cdc6   Section        0  lv_roller.o(i.draw_label)
    draw_label                               0x0800cdc7   Thumb Code   248  lv_roller.o(i.draw_label)
    i.draw_letter_normal                     0x0800cec0   Section        0  lv_draw_sw_letter.o(i.draw_letter_normal)
    draw_letter_normal                       0x0800cec1   Thumb Code   924  lv_draw_sw_letter.o(i.draw_letter_normal)
    i.draw_line_hor                          0x0800d27e   Section        0  lv_draw_sw_line.o(i.draw_line_hor)
    draw_line_hor                            0x0800d27f   Thumb Code   474  lv_draw_sw_line.o(i.draw_line_hor)
    i.draw_line_skew                         0x0800d460   Section        0  lv_draw_sw_line.o(i.draw_line_skew)
    draw_line_skew                           0x0800d461   Thumb Code  1114  lv_draw_sw_line.o(i.draw_line_skew)
    i.draw_line_ver                          0x0800d8c6   Section        0  lv_draw_sw_line.o(i.draw_line_ver)
    draw_line_ver                            0x0800d8c7   Thumb Code   438  lv_draw_sw_line.o(i.draw_line_ver)
    i.draw_list                              0x0800da82   Section        0  lv_dropdown.o(i.draw_list)
    draw_list                                0x0800da83   Thumb Code   188  lv_dropdown.o(i.draw_list)
    i.draw_main                              0x0800db44   Section        0  lv_btnmatrix.o(i.draw_main)
    draw_main                                0x0800db45   Thumb Code  1040  lv_btnmatrix.o(i.draw_main)
    i.draw_main                              0x0800df62   Section        0  lv_dropdown.o(i.draw_main)
    draw_main                                0x0800df63   Thumb Code   754  lv_dropdown.o(i.draw_main)
    i.draw_main                              0x0800e25a   Section        0  lv_label.o(i.draw_main)
    draw_main                                0x0800e25b   Thumb Code   682  lv_label.o(i.draw_main)
    i.draw_main                              0x0800e50a   Section        0  lv_roller.o(i.draw_main)
    draw_main                                0x0800e50b   Thumb Code   472  lv_roller.o(i.draw_main)
    i.draw_main                              0x0800e6e8   Section        0  lv_switch.o(i.draw_main)
    draw_main                                0x0800e6e9   Thumb Code   462  lv_switch.o(i.draw_main)
    i.draw_main                              0x0800e8bc   Section        0  lv_table.o(i.draw_main)
    draw_main                                0x0800e8bd   Thumb Code  1464  lv_table.o(i.draw_main)
    i.draw_needles                           0x0800ee7c   Section        0  lv_meter.o(i.draw_needles)
    draw_needles                             0x0800ee7d   Thumb Code   556  lv_meter.o(i.draw_needles)
    i.draw_outline                           0x0800f0b2   Section        0  lv_draw_sw_rect.o(i.draw_outline)
    draw_outline                             0x0800f0b3   Thumb Code   256  lv_draw_sw_rect.o(i.draw_outline)
    i.draw_part_begin_event_cb               0x0800f1b8   Section        0  lv_calendar.o(i.draw_part_begin_event_cb)
    draw_part_begin_event_cb                 0x0800f1b9   Thumb Code   200  lv_calendar.o(i.draw_part_begin_event_cb)
    i.draw_placeholder                       0x0800f280   Section        0  lv_textarea.o(i.draw_placeholder)
    draw_placeholder                         0x0800f281   Thumb Code   174  lv_textarea.o(i.draw_placeholder)
    i.draw_quarter_0                         0x0800f334   Section        0  lv_draw_sw_arc.o(i.draw_quarter_0)
    draw_quarter_0                           0x0800f335   Thumb Code   584  lv_draw_sw_arc.o(i.draw_quarter_0)
    i.draw_quarter_1                         0x0800f57c   Section        0  lv_draw_sw_arc.o(i.draw_quarter_1)
    draw_quarter_1                           0x0800f57d   Thumb Code   594  lv_draw_sw_arc.o(i.draw_quarter_1)
    i.draw_quarter_2                         0x0800f7ce   Section        0  lv_draw_sw_arc.o(i.draw_quarter_2)
    draw_quarter_2                           0x0800f7cf   Thumb Code   604  lv_draw_sw_arc.o(i.draw_quarter_2)
    i.draw_quarter_3                         0x0800fa2a   Section        0  lv_draw_sw_arc.o(i.draw_quarter_3)
    draw_quarter_3                           0x0800fa2b   Thumb Code   594  lv_draw_sw_arc.o(i.draw_quarter_3)
    i.draw_scrollbar                         0x0800fc7c   Section        0  lv_obj.o(i.draw_scrollbar)
    draw_scrollbar                           0x0800fc7d   Thumb Code   172  lv_obj.o(i.draw_scrollbar)
    i.draw_series_bar                        0x0800fd2c   Section        0  lv_chart.o(i.draw_series_bar)
    draw_series_bar                          0x0800fd2d   Thumb Code   678  lv_chart.o(i.draw_series_bar)
    i.draw_series_line                       0x0800ffe0   Section        0  lv_chart.o(i.draw_series_line)
    draw_series_line                         0x0800ffe1   Thumb Code  1320  lv_chart.o(i.draw_series_line)
    i.draw_series_scatter                    0x08010514   Section        0  lv_chart.o(i.draw_series_scatter)
    draw_series_scatter                      0x08010515   Thumb Code  1142  lv_chart.o(i.draw_series_scatter)
    i.draw_shadow                            0x08010996   Section        0  lv_draw_sw_rect.o(i.draw_shadow)
    draw_shadow                              0x08010997   Thumb Code  3442  lv_draw_sw_rect.o(i.draw_shadow)
    i.draw_ticks_and_labels                  0x08011710   Section        0  lv_meter.o(i.draw_ticks_and_labels)
    draw_ticks_and_labels                    0x08011711   Thumb Code  1252  lv_meter.o(i.draw_ticks_and_labels)
    i.draw_x_ticks                           0x08011bfc   Section        0  lv_chart.o(i.draw_x_ticks)
    draw_x_ticks                             0x08011bfd   Thumb Code   954  lv_chart.o(i.draw_x_ticks)
    i.draw_y_ticks                           0x08011fc8   Section        0  lv_chart.o(i.draw_y_ticks)
    draw_y_ticks                             0x08011fc9   Thumb Code   796  lv_chart.o(i.draw_y_ticks)
    i.dummy_flush_cb                         0x080122f4   Section        0  lv_demo_benchmark.o(i.dummy_flush_cb)
    dummy_flush_cb                           0x080122f5   Thumb Code   422  lv_demo_benchmark.o(i.dummy_flush_cb)
    i.elastic_diff                           0x080124b8   Section        0  lv_indev_scroll.o(i.elastic_diff)
    elastic_diff                             0x080124b9   Thumb Code   472  lv_indev_scroll.o(i.elastic_diff)
    i.event_is_bubbled                       0x08012696   Section        0  lv_event.o(i.event_is_bubbled)
    event_is_bubbled                         0x08012697   Thumb Code   138  lv_event.o(i.event_is_bubbled)
    i.event_send_core                        0x08012720   Section        0  lv_event.o(i.event_send_core)
    event_send_core                          0x08012721   Thumb Code   312  lv_event.o(i.event_send_core)
    i.fall_anim                              0x08012858   Section        0  lv_demo_benchmark.o(i.fall_anim)
    fall_anim                                0x08012859   Thumb Code   162  lv_demo_benchmark.o(i.fall_anim)
    i.fall_anim_y_cb                         0x08012904   Section        0  lv_demo_benchmark.o(i.fall_anim_y_cb)
    fall_anim_y_cb                           0x08012905   Thumb Code    16  lv_demo_benchmark.o(i.fall_anim_y_cb)
    i.fast_hsv2rgb                           0x08012914   Section        0  lv_colorwheel.o(i.fast_hsv2rgb)
    fast_hsv2rgb                             0x08012915   Thumb Code   210  lv_colorwheel.o(i.fast_hsv2rgb)
    i.fill_argb                              0x080129e6   Section        0  lv_draw_sw_blend.o(i.fill_argb)
    fill_argb                                0x080129e7   Thumb Code   322  lv_draw_sw_blend.o(i.fill_argb)
    i.fill_blended                           0x08012b30   Section        0  lv_draw_sw_blend.o(i.fill_blended)
    fill_blended                             0x08012b31   Thumb Code   342  lv_draw_sw_blend.o(i.fill_blended)
    i.fill_normal                            0x08012c9a   Section        0  lv_draw_sw_blend.o(i.fill_normal)
    fill_normal                              0x08012c9b   Thumb Code   856  lv_draw_sw_blend.o(i.fill_normal)
    i.find_item                              0x08012ff8   Section        0  lv_draw_sw_gradient.o(i.find_item)
    find_item                                0x08012ff9   Thumb Code    22  lv_draw_sw_gradient.o(i.find_item)
    i.find_oldest_item_life                  0x0801300e   Section        0  lv_draw_sw_gradient.o(i.find_oldest_item_life)
    find_oldest_item_life                    0x0801300f   Thumb Code    30  lv_draw_sw_gradient.o(i.find_oldest_item_life)
    i.find_scroll_obj                        0x0801302c   Section        0  lv_indev_scroll.o(i.find_scroll_obj)
    find_scroll_obj                          0x0801302d   Thumb Code   540  lv_indev_scroll.o(i.find_scroll_obj)
    i.find_snap_point_x                      0x08013250   Section        0  lv_indev_scroll.o(i.find_snap_point_x)
    find_snap_point_x                        0x08013251   Thumb Code   302  lv_indev_scroll.o(i.find_snap_point_x)
    i.find_snap_point_y                      0x0801338c   Section        0  lv_indev_scroll.o(i.find_snap_point_y)
    find_snap_point_y                        0x0801338d   Thumb Code   302  lv_indev_scroll.o(i.find_snap_point_y)
    i.find_track_end                         0x080134c8   Section        0  lv_flex.o(i.find_track_end)
    find_track_end                           0x080134c9   Thumb Code   662  lv_flex.o(i.find_track_end)
    i.flex_update                            0x08013774   Section        0  lv_flex.o(i.flex_update)
    flex_update                              0x08013775   Thumb Code   972  lv_flex.o(i.flex_update)
    i.flush_cb                               0x08013b58   Section        0  disp.o(i.flush_cb)
    flush_cb                                 0x08013b59   Thumb Code    78  disp.o(i.flush_cb)
    i.focus_next_core                        0x08013bac   Section        0  lv_group.o(i.focus_next_core)
    focus_next_core                          0x08013bad   Thumb Code   298  lv_group.o(i.focus_next_core)
    i.free_item                              0x08013cdc   Section        0  lv_draw_sw_gradient.o(i.free_item)
    free_item                                0x08013cdd   Thumb Code    84  lv_draw_sw_gradient.o(i.free_item)
    i.generate_report                        0x08013d34   Section        0  lv_demo_benchmark.o(i.generate_report)
    generate_report                          0x08013d35   Thumb Code   978  lv_demo_benchmark.o(i.generate_report)
    i.get_angle                              0x0801418e   Section        0  lv_arc.o(i.get_angle)
    get_angle                                0x0801418f   Thumb Code   144  lv_arc.o(i.get_angle)
    i.get_angle                              0x0801421e   Section        0  lv_colorwheel.o(i.get_angle)
    get_angle                                0x0801421f   Thumb Code    78  lv_colorwheel.o(i.get_angle)
    i.get_button_from_point                  0x0801426c   Section        0  lv_btnmatrix.o(i.get_button_from_point)
    get_button_from_point                    0x0801426d   Thumb Code   508  lv_btnmatrix.o(i.get_button_from_point)
    i.get_button_width                       0x0801446e   Section        0  lv_btnmatrix.o(i.get_button_width)
    get_button_width                         0x0801446f   Thumb Code    16  lv_btnmatrix.o(i.get_button_width)
    i.get_cache_item_size                    0x0801447e   Section        0  lv_draw_sw_gradient.o(i.get_cache_item_size)
    get_cache_item_size                      0x0801447f   Thumb Code    22  lv_draw_sw_gradient.o(i.get_cache_item_size)
    i.get_cell_area                          0x08014494   Section        0  lv_table.o(i.get_cell_area)
    get_cell_area                            0x08014495   Thumb Code   248  lv_table.o(i.get_cell_area)
    i.get_cell_txt_len                       0x08014592   Section        0  lv_table.o(i.get_cell_txt_len)
    get_cell_txt_len                         0x08014593   Thumb Code    18  lv_table.o(i.get_cell_txt_len)
    i.get_center                             0x080145a4   Section        0  lv_arc.o(i.get_center)
    get_center                               0x080145a5   Thumb Code   150  lv_arc.o(i.get_center)
    i.get_col_dsc                            0x08014640   Section        0  lv_grid.o(i.get_col_dsc)
    get_col_dsc                              0x08014641   Thumb Code    24  lv_grid.o(i.get_col_dsc)
    i.get_col_pos                            0x0801465c   Section        0  lv_grid.o(i.get_col_pos)
    get_col_pos                              0x0801465d   Thumb Code    26  lv_grid.o(i.get_col_pos)
    i.get_col_span                           0x0801467c   Section        0  lv_grid.o(i.get_col_span)
    get_col_span                             0x0801467d   Thumb Code    26  lv_grid.o(i.get_col_span)
    i.get_day_of_week                        0x0801469c   Section        0  lv_calendar.o(i.get_day_of_week)
    get_day_of_week                          0x0801469d   Thumb Code    76  lv_calendar.o(i.get_day_of_week)
    i.get_glyph_dsc_id                       0x080146e8   Section        0  lv_font_fmt_txt.o(i.get_glyph_dsc_id)
    get_glyph_dsc_id                         0x080146e9   Thumb Code   428  lv_font_fmt_txt.o(i.get_glyph_dsc_id)
    i.get_id_on_point                        0x0801489e   Section        0  lv_dropdown.o(i.get_id_on_point)
    get_id_on_point                          0x0801489f   Thumb Code   106  lv_dropdown.o(i.get_id_on_point)
    i.get_indev                              0x0801490e   Section        0  lv_group.o(i.get_indev)
    get_indev                                0x0801490f   Thumb Code    90  lv_group.o(i.get_indev)
    i.get_index_from_x                       0x08014968   Section        0  lv_chart.o(i.get_index_from_x)
    get_index_from_x                         0x08014969   Thumb Code   128  lv_chart.o(i.get_index_from_x)
    i.get_instance_size                      0x080149e8   Section        0  lv_obj_class.o(i.get_instance_size)
    get_instance_size                        0x080149e9   Thumb Code    34  lv_obj_class.o(i.get_instance_size)
    i.get_kern_value                         0x08014a0c   Section        0  lv_font_fmt_txt.o(i.get_kern_value)
    get_kern_value                           0x08014a0d   Thumb Code   202  lv_font_fmt_txt.o(i.get_kern_value)
    i.get_knob_area                          0x08014ae6   Section        0  lv_arc.o(i.get_knob_area)
    get_knob_area                            0x08014ae7   Thumb Code   212  lv_arc.o(i.get_knob_area)
    i.get_knob_area                          0x08014bc0   Section        0  lv_colorwheel.o(i.get_knob_area)
    get_knob_area                            0x08014bc1   Thumb Code   160  lv_colorwheel.o(i.get_knob_area)
    i.get_label                              0x08014c66   Section        0  lv_dropdown.o(i.get_label)
    get_label                                0x08014c67   Thumb Code    24  lv_dropdown.o(i.get_label)
    i.get_label                              0x08014c7e   Section        0  lv_roller.o(i.get_label)
    get_label                                0x08014c7f   Thumb Code    14  lv_roller.o(i.get_label)
    i.get_label_flags                        0x08014c8c   Section        0  lv_label.o(i.get_label_flags)
    get_label_flags                          0x08014c8d   Thumb Code    34  lv_label.o(i.get_label_flags)
    i.get_local_style                        0x08014cae   Section        0  lv_obj_style.o(i.get_local_style)
    get_local_style                          0x08014caf   Thumb Code   282  lv_obj_style.o(i.get_local_style)
    i.get_max_row                            0x08014dc8   Section        0  lv_refr.o(i.get_max_row)
    get_max_row                              0x08014dc9   Thumb Code   128  lv_refr.o(i.get_max_row)
    i.get_month_length                       0x08014e4c   Section        0  lv_calendar.o(i.get_month_length)
    get_month_length                         0x08014e4d   Thumb Code    66  lv_calendar.o(i.get_month_length)
    i.get_next_item                          0x08014e8e   Section        0  lv_flex.o(i.get_next_item)
    get_next_item                            0x08014e8f   Thumb Code    66  lv_flex.o(i.get_next_item)
    i.get_next_line                          0x08014ed0   Section        0  lv_draw_mask.o(i.get_next_line)
    get_next_line                            0x08014ed1   Thumb Code    44  lv_draw_mask.o(i.get_next_line)
    i.get_pressed_cell                       0x08014efc   Section        0  lv_table.o(i.get_pressed_cell)
    get_pressed_cell                         0x08014efd   Thumb Code   298  lv_table.o(i.get_pressed_cell)
    i.get_prop_core                          0x0801502c   Section        0  lv_obj_style.o(i.get_prop_core)
    get_prop_core                            0x0801502d   Thumb Code   348  lv_obj_style.o(i.get_prop_core)
    i.get_rounded_area                       0x0801518e   Section        0  lv_draw_sw_arc.o(i.get_rounded_area)
    get_rounded_area                         0x0801518f   Thumb Code   168  lv_draw_sw_arc.o(i.get_rounded_area)
    i.get_row_dsc                            0x0801523c   Section        0  lv_grid.o(i.get_row_dsc)
    get_row_dsc                              0x0801523d   Thumb Code    24  lv_grid.o(i.get_row_dsc)
    i.get_row_height                         0x08015258   Section        0  lv_table.o(i.get_row_height)
    get_row_height                           0x08015259   Thumb Code   324  lv_table.o(i.get_row_height)
    i.get_row_pos                            0x080153a4   Section        0  lv_grid.o(i.get_row_pos)
    get_row_pos                              0x080153a5   Thumb Code    26  lv_grid.o(i.get_row_pos)
    i.get_row_span                           0x080153c4   Section        0  lv_grid.o(i.get_row_span)
    get_row_span                             0x080153c5   Thumb Code    26  lv_grid.o(i.get_row_span)
    i.get_sel_area                           0x080153e4   Section        0  lv_roller.o(i.get_sel_area)
    get_sel_area                             0x080153e5   Thumb Code   134  lv_roller.o(i.get_sel_area)
    i.get_selected_label_width               0x08015470   Section        0  lv_roller.o(i.get_selected_label_width)
    get_selected_label_width                 0x08015471   Thumb Code    86  lv_roller.o(i.get_selected_label_width)
    i.get_text_length                        0x080154c6   Section        0  lv_label.o(i.get_text_length)
    get_text_length                          0x080154c7   Thumb Code    18  lv_label.o(i.get_text_length)
    i.get_tick_gsc                           0x080154d8   Section        0  lv_chart.o(i.get_tick_gsc)
    i.get_trans_style                        0x0801550a   Section        0  lv_obj_style.o(i.get_trans_style)
    get_trans_style                          0x0801550b   Thumb Code   216  lv_obj_style.o(i.get_trans_style)
    i.grey_filter_cb                         0x080155e4   Section        0  lv_theme_default.o(i.grey_filter_cb)
    grey_filter_cb                           0x080155e5   Thumb Code    78  lv_theme_default.o(i.grey_filter_cb)
    i.grid_align                             0x08015638   Section        0  lv_grid.o(i.grid_align)
    grid_align                               0x08015639   Thumb Code   350  lv_grid.o(i.grid_align)
    i.grid_update                            0x0801579c   Section        0  lv_grid.o(i.grid_update)
    grid_update                              0x0801579d   Thumb Code   258  lv_grid.o(i.grid_update)
    i.has_popovers_in_top_row                0x080158a4   Section        0  lv_btnmatrix.o(i.has_popovers_in_top_row)
    has_popovers_in_top_row                  0x080158a5   Thumb Code    78  lv_btnmatrix.o(i.has_popovers_in_top_row)
    i.hex_char_to_num                        0x080158f8   Section        0  lv_draw_label.o(i.hex_char_to_num)
    hex_char_to_num                          0x080158f9   Thumb Code    80  lv_draw_label.o(i.hex_char_to_num)
    i.highlight_update                       0x08015948   Section        0  lv_calendar.o(i.highlight_update)
    highlight_update                         0x08015949   Thumb Code   154  lv_calendar.o(i.highlight_update)
    i.img_alpha_cb                           0x080159e4   Section        0  lv_demo_benchmark.o(i.img_alpha_cb)
    img_alpha_cb                             0x080159e5   Thumb Code    46  lv_demo_benchmark.o(i.img_alpha_cb)
    i.img_argb_cb                            0x08015a20   Section        0  lv_demo_benchmark.o(i.img_argb_cb)
    img_argb_cb                              0x08015a21   Thumb Code    46  lv_demo_benchmark.o(i.img_argb_cb)
    i.img_argb_recolor_cb                    0x08015a5c   Section        0  lv_demo_benchmark.o(i.img_argb_recolor_cb)
    img_argb_recolor_cb                      0x08015a5d   Thumb Code    54  lv_demo_benchmark.o(i.img_argb_recolor_cb)
    i.img_argb_rot_aa_cb                     0x08015aa0   Section        0  lv_demo_benchmark.o(i.img_argb_rot_aa_cb)
    img_argb_rot_aa_cb                       0x08015aa1   Thumb Code    46  lv_demo_benchmark.o(i.img_argb_rot_aa_cb)
    i.img_argb_rot_cb                        0x08015adc   Section        0  lv_demo_benchmark.o(i.img_argb_rot_cb)
    img_argb_rot_cb                          0x08015add   Thumb Code    46  lv_demo_benchmark.o(i.img_argb_rot_cb)
    i.img_argb_zoom_aa_cb                    0x08015b18   Section        0  lv_demo_benchmark.o(i.img_argb_zoom_aa_cb)
    img_argb_zoom_aa_cb                      0x08015b19   Thumb Code    46  lv_demo_benchmark.o(i.img_argb_zoom_aa_cb)
    i.img_argb_zoom_cb                       0x08015b54   Section        0  lv_demo_benchmark.o(i.img_argb_zoom_cb)
    img_argb_zoom_cb                         0x08015b55   Thumb Code    46  lv_demo_benchmark.o(i.img_argb_zoom_cb)
    i.img_ckey_cb                            0x08015b90   Section        0  lv_demo_benchmark.o(i.img_ckey_cb)
    img_ckey_cb                              0x08015b91   Thumb Code    46  lv_demo_benchmark.o(i.img_ckey_cb)
    i.img_ckey_recolor_cb                    0x08015bcc   Section        0  lv_demo_benchmark.o(i.img_ckey_recolor_cb)
    img_ckey_recolor_cb                      0x08015bcd   Thumb Code    54  lv_demo_benchmark.o(i.img_ckey_recolor_cb)
    i.img_create                             0x08015c10   Section        0  lv_demo_benchmark.o(i.img_create)
    img_create                               0x08015c11   Thumb Code   244  lv_demo_benchmark.o(i.img_create)
    i.img_index_cb                           0x08015d14   Section        0  lv_demo_benchmark.o(i.img_index_cb)
    img_index_cb                             0x08015d15   Thumb Code    46  lv_demo_benchmark.o(i.img_index_cb)
    i.img_index_recolor_cb                   0x08015d50   Section        0  lv_demo_benchmark.o(i.img_index_recolor_cb)
    img_index_recolor_cb                     0x08015d51   Thumb Code    54  lv_demo_benchmark.o(i.img_index_recolor_cb)
    i.img_rgb_cb                             0x08015d94   Section        0  lv_demo_benchmark.o(i.img_rgb_cb)
    img_rgb_cb                               0x08015d95   Thumb Code    46  lv_demo_benchmark.o(i.img_rgb_cb)
    i.img_rgb_recolor_cb                     0x08015dd0   Section        0  lv_demo_benchmark.o(i.img_rgb_recolor_cb)
    img_rgb_recolor_cb                       0x08015dd1   Thumb Code    54  lv_demo_benchmark.o(i.img_rgb_recolor_cb)
    i.img_rgb_rot_aa_cb                      0x08015e14   Section        0  lv_demo_benchmark.o(i.img_rgb_rot_aa_cb)
    img_rgb_rot_aa_cb                        0x08015e15   Thumb Code    46  lv_demo_benchmark.o(i.img_rgb_rot_aa_cb)
    i.img_rgb_rot_cb                         0x08015e50   Section        0  lv_demo_benchmark.o(i.img_rgb_rot_cb)
    img_rgb_rot_cb                           0x08015e51   Thumb Code    46  lv_demo_benchmark.o(i.img_rgb_rot_cb)
    i.img_rgb_zoom_aa_cb                     0x08015e8c   Section        0  lv_demo_benchmark.o(i.img_rgb_zoom_aa_cb)
    img_rgb_zoom_aa_cb                       0x08015e8d   Thumb Code    46  lv_demo_benchmark.o(i.img_rgb_zoom_aa_cb)
    i.img_rgb_zoom_cb                        0x08015ec8   Section        0  lv_demo_benchmark.o(i.img_rgb_zoom_cb)
    img_rgb_zoom_cb                          0x08015ec9   Thumb Code    46  lv_demo_benchmark.o(i.img_rgb_zoom_cb)
    i.indev_button_proc                      0x08015f04   Section        0  lv_indev.o(i.indev_button_proc)
    indev_button_proc                        0x08015f05   Thumb Code   148  lv_indev.o(i.indev_button_proc)
    i.indev_click_focus                      0x08015f9c   Section        0  lv_indev.o(i.indev_click_focus)
    indev_click_focus                        0x08015f9d   Thumb Code   264  lv_indev.o(i.indev_click_focus)
    i.indev_encoder_proc                     0x080160ac   Section        0  lv_indev.o(i.indev_encoder_proc)
    indev_encoder_proc                       0x080160ad   Thumb Code  1112  lv_indev.o(i.indev_encoder_proc)
    i.indev_gesture                          0x08016504   Section        0  lv_indev.o(i.indev_gesture)
    indev_gesture                            0x08016505   Thumb Code   362  lv_indev.o(i.indev_gesture)
    i.indev_init                             0x08016674   Section        0  indev.o(i.indev_init)
    i.indev_keypad_proc                      0x080166a0   Section        0  lv_indev.o(i.indev_keypad_proc)
    indev_keypad_proc                        0x080166a1   Thumb Code   714  lv_indev.o(i.indev_keypad_proc)
    i.indev_pointer_proc                     0x08016974   Section        0  lv_indev.o(i.indev_pointer_proc)
    indev_pointer_proc                       0x08016975   Thumb Code   260  lv_indev.o(i.indev_pointer_proc)
    i.indev_proc_press                       0x08016a78   Section        0  lv_indev.o(i.indev_proc_press)
    indev_proc_press                         0x08016a79   Thumb Code   698  lv_indev.o(i.indev_proc_press)
    i.indev_proc_release                     0x08016d3c   Section        0  lv_indev.o(i.indev_proc_release)
    indev_proc_release                       0x08016d3d   Thumb Code   210  lv_indev.o(i.indev_proc_release)
    i.indev_proc_reset_query_handler         0x08016e18   Section        0  lv_indev.o(i.indev_proc_reset_query_handler)
    indev_proc_reset_query_handler           0x08016e19   Thumb Code    74  lv_indev.o(i.indev_proc_reset_query_handler)
    i.indev_reset_check                      0x08016e68   Section        0  lv_indev.o(i.indev_reset_check)
    indev_reset_check                        0x08016e69   Thumb Code    24  lv_indev.o(i.indev_reset_check)
    i.inf_normalize                          0x08016e84   Section        0  lv_roller.o(i.inf_normalize)
    inf_normalize                            0x08016e85   Thumb Code   176  lv_roller.o(i.inf_normalize)
    i.init_scroll_limits                     0x08016f3c   Section        0  lv_indev_scroll.o(i.init_scroll_limits)
    init_scroll_limits                       0x08016f3d   Thumb Code   416  lv_indev_scroll.o(i.init_scroll_limits)
    i.insert_free_block                      0x080170e0   Section        0  lv_tlsf.o(i.insert_free_block)
    insert_free_block                        0x080170e1   Thumb Code   152  lv_tlsf.o(i.insert_free_block)
    i.insert_handler                         0x08017178   Section        0  lv_textarea.o(i.insert_handler)
    insert_handler                           0x08017179   Thumb Code    76  lv_textarea.o(i.insert_handler)
    i.inv_arc_area                           0x080171c8   Section        0  lv_arc.o(i.inv_arc_area)
    inv_arc_area                             0x080171c9   Thumb Code   204  lv_arc.o(i.inv_arc_area)
    i.inv_knob_area                          0x0801729a   Section        0  lv_arc.o(i.inv_knob_area)
    inv_knob_area                            0x0801729b   Thumb Code    38  lv_arc.o(i.inv_knob_area)
    i.invalidate_button_area                 0x080172c0   Section        0  lv_btnmatrix.o(i.invalidate_button_area)
    invalidate_button_area                   0x080172c1   Thumb Code   252  lv_btnmatrix.o(i.invalidate_button_area)
    i.invalidate_knob                        0x080173c2   Section        0  lv_colorwheel.o(i.invalidate_knob)
    invalidate_knob                          0x080173c3   Thumb Code    22  lv_colorwheel.o(i.invalidate_knob)
    i.invalidate_point                       0x080173d8   Section        0  lv_chart.o(i.invalidate_point)
    invalidate_point                         0x080173d9   Thumb Code   512  lv_chart.o(i.invalidate_point)
    i.is_cell_empty                          0x080175de   Section        0  lv_table.o(i.is_cell_empty)
    is_cell_empty                            0x080175df   Thumb Code    12  lv_table.o(i.is_cell_empty)
    i.is_leap_year                           0x080175ea   Section        0  lv_calendar.o(i.is_leap_year)
    is_leap_year                             0x080175eb   Thumb Code    42  lv_calendar.o(i.is_leap_year)
    i.is_slider_horizontal                   0x08017614   Section        0  lv_slider.o(i.is_slider_horizontal)
    is_slider_horizontal                     0x08017615   Thumb Code    30  lv_slider.o(i.is_slider_horizontal)
    i.is_valid_but_non_printable_char        0x08017632   Section        0  lv_textarea.o(i.is_valid_but_non_printable_char)
    is_valid_but_non_printable_char          0x08017633   Thumb Code    20  lv_textarea.o(i.is_valid_but_non_printable_char)
    i.item_repos                             0x08017648   Section        0  lv_grid.o(i.item_repos)
    item_repos                               0x08017649   Thumb Code   974  lv_grid.o(i.item_repos)
    i.iterate_cache                          0x08017a2a   Section        0  lv_draw_sw_gradient.o(i.iterate_cache)
    iterate_cache                            0x08017a2b   Thumb Code    64  lv_draw_sw_gradient.o(i.iterate_cache)
    i.kern_pair_16_compare                   0x08017a6a   Section        0  lv_font_fmt_txt.o(i.kern_pair_16_compare)
    kern_pair_16_compare                     0x08017a6b   Thumb Code    32  lv_font_fmt_txt.o(i.kern_pair_16_compare)
    i.kern_pair_8_compare                    0x08017a8a   Section        0  lv_font_fmt_txt.o(i.kern_pair_8_compare)
    kern_pair_8_compare                      0x08017a8b   Thumb Code    32  lv_font_fmt_txt.o(i.kern_pair_8_compare)
    i.kill_oldest_item                       0x08017aaa   Section        0  lv_draw_sw_gradient.o(i.kill_oldest_item)
    kill_oldest_item                         0x08017aab   Thumb Code    34  lv_draw_sw_gradient.o(i.kill_oldest_item)
    i.label_event_cb                         0x08017acc   Section        0  lv_textarea.o(i.label_event_cb)
    label_event_cb                           0x08017acd   Thumb Code    62  lv_textarea.o(i.label_event_cb)
    i.layer_alpha_test                       0x08017b0a   Section        0  lv_refr.o(i.layer_alpha_test)
    layer_alpha_test                         0x08017b0b   Thumb Code   116  lv_refr.o(i.layer_alpha_test)
    i.layer_get_area                         0x08017b7e   Section        0  lv_refr.o(i.layer_get_area)
    layer_get_area                           0x08017b7f   Thumb Code   172  lv_refr.o(i.layer_get_area)
    i.layout_update_core                     0x08017c2c   Section        0  lv_obj_pos.o(i.layout_update_core)
    layout_update_core                       0x08017c2d   Thumb Code   132  lv_obj_pos.o(i.layout_update_core)
    i.line_cb                                0x08017cb8   Section        0  lv_demo_benchmark.o(i.line_cb)
    line_cb                                  0x08017cb9   Thumb Code    44  lv_demo_benchmark.o(i.line_cb)
    i.line_create                            0x08017cec   Section        0  lv_demo_benchmark.o(i.line_create)
    line_create                              0x08017ced   Thumb Code   260  lv_demo_benchmark.o(i.line_create)
    i.line_mask_flat                         0x08017dfc   Section        0  lv_draw_mask.o(i.line_mask_flat)
    line_mask_flat                           0x08017dfd   Thumb Code   482  lv_draw_mask.o(i.line_mask_flat)
    i.line_mask_steep                        0x08017fe4   Section        0  lv_draw_mask.o(i.line_mask_steep)
    line_mask_steep                          0x08017fe5   Thumb Code   676  lv_draw_mask.o(i.line_mask_steep)
    i.list_press_handler                     0x0801828e   Section        0  lv_dropdown.o(i.list_press_handler)
    list_press_handler                       0x0801828f   Thumb Code    74  lv_dropdown.o(i.list_press_handler)
    i.list_release_handler                   0x080182d8   Section        0  lv_dropdown.o(i.list_release_handler)
    list_release_handler                     0x080182d9   Thumb Code   152  lv_dropdown.o(i.list_release_handler)
    i.load_next_scene                        0x08018378   Section        0  lv_demo_benchmark.o(i.load_next_scene)
    load_next_scene                          0x08018379   Thumb Code   170  lv_demo_benchmark.o(i.load_next_scene)
    i.lv_anim_del                            0x08018450   Section        0  lv_anim.o(i.lv_anim_del)
    i.lv_anim_get                            0x080184b0   Section        0  lv_anim.o(i.lv_anim_get)
    i.lv_anim_get_timer                      0x080184e8   Section        0  lv_anim.o(i.lv_anim_get_timer)
    i.lv_anim_init                           0x080184f4   Section        0  lv_anim.o(i.lv_anim_init)
    i.lv_anim_path_ease_in_out               0x0801852c   Section        0  lv_anim.o(i.lv_anim_path_ease_in_out)
    i.lv_anim_path_ease_out                  0x0801856e   Section        0  lv_anim.o(i.lv_anim_path_ease_out)
    i.lv_anim_path_linear                    0x080185b2   Section        0  lv_anim.o(i.lv_anim_path_linear)
    i.lv_anim_path_step                      0x080185de   Section        0  lv_anim.o(i.lv_anim_path_step)
    i.lv_anim_refr_now                       0x080185f0   Section        0  lv_anim.o(i.lv_anim_refr_now)
    i.lv_anim_set_delay                      0x080185fa   Section        0  lv_obj_style.o(i.lv_anim_set_delay)
    lv_anim_set_delay                        0x080185fb   Thumb Code     6  lv_obj_style.o(i.lv_anim_set_delay)
    i.lv_anim_set_exec_cb                    0x08018600   Section        0  lv_obj_scroll.o(i.lv_anim_set_exec_cb)
    lv_anim_set_exec_cb                      0x08018601   Thumb Code     4  lv_obj_scroll.o(i.lv_anim_set_exec_cb)
    i.lv_anim_set_exec_cb                    0x08018604   Section        0  lv_obj_style.o(i.lv_anim_set_exec_cb)
    lv_anim_set_exec_cb                      0x08018605   Thumb Code     4  lv_obj_style.o(i.lv_anim_set_exec_cb)
    i.lv_anim_set_exec_cb                    0x08018608   Section        0  lv_label.o(i.lv_anim_set_exec_cb)
    lv_anim_set_exec_cb                      0x08018609   Thumb Code     4  lv_label.o(i.lv_anim_set_exec_cb)
    i.lv_anim_set_exec_cb                    0x0801860c   Section        0  lv_spinner.o(i.lv_anim_set_exec_cb)
    lv_anim_set_exec_cb                      0x0801860d   Thumb Code     4  lv_spinner.o(i.lv_anim_set_exec_cb)
    i.lv_anim_set_exec_cb                    0x08018610   Section        0  lv_textarea.o(i.lv_anim_set_exec_cb)
    lv_anim_set_exec_cb                      0x08018611   Thumb Code     4  lv_textarea.o(i.lv_anim_set_exec_cb)
    i.lv_anim_set_exec_cb                    0x08018614   Section        0  lv_demo_benchmark.o(i.lv_anim_set_exec_cb)
    lv_anim_set_exec_cb                      0x08018615   Thumb Code     4  lv_demo_benchmark.o(i.lv_anim_set_exec_cb)
    i.lv_anim_set_path_cb                    0x08018618   Section        0  lv_obj_scroll.o(i.lv_anim_set_path_cb)
    lv_anim_set_path_cb                      0x08018619   Thumb Code     4  lv_obj_scroll.o(i.lv_anim_set_path_cb)
    i.lv_anim_set_path_cb                    0x0801861c   Section        0  lv_textarea.o(i.lv_anim_set_path_cb)
    lv_anim_set_path_cb                      0x0801861d   Thumb Code     4  lv_textarea.o(i.lv_anim_set_path_cb)
    i.lv_anim_set_playback_time              0x08018620   Section        0  lv_label.o(i.lv_anim_set_playback_time)
    lv_anim_set_playback_time                0x08018621   Thumb Code     4  lv_label.o(i.lv_anim_set_playback_time)
    i.lv_anim_set_playback_time              0x08018624   Section        0  lv_demo_benchmark.o(i.lv_anim_set_playback_time)
    lv_anim_set_playback_time                0x08018625   Thumb Code     4  lv_demo_benchmark.o(i.lv_anim_set_playback_time)
    i.lv_anim_set_ready_cb                   0x08018628   Section        0  lv_obj_style.o(i.lv_anim_set_ready_cb)
    lv_anim_set_ready_cb                     0x08018629   Thumb Code     4  lv_obj_style.o(i.lv_anim_set_ready_cb)
    i.lv_anim_set_repeat_count               0x0801862c   Section        0  lv_label.o(i.lv_anim_set_repeat_count)
    lv_anim_set_repeat_count                 0x0801862d   Thumb Code     6  lv_label.o(i.lv_anim_set_repeat_count)
    i.lv_anim_set_repeat_count               0x08018632   Section        0  lv_demo_benchmark.o(i.lv_anim_set_repeat_count)
    lv_anim_set_repeat_count                 0x08018633   Thumb Code     6  lv_demo_benchmark.o(i.lv_anim_set_repeat_count)
    i.lv_anim_set_time                       0x08018638   Section        0  lv_obj_scroll.o(i.lv_anim_set_time)
    lv_anim_set_time                         0x08018639   Thumb Code     4  lv_obj_scroll.o(i.lv_anim_set_time)
    i.lv_anim_set_time                       0x0801863c   Section        0  lv_obj_style.o(i.lv_anim_set_time)
    lv_anim_set_time                         0x0801863d   Thumb Code     4  lv_obj_style.o(i.lv_anim_set_time)
    i.lv_anim_set_time                       0x08018640   Section        0  lv_label.o(i.lv_anim_set_time)
    lv_anim_set_time                         0x08018641   Thumb Code     4  lv_label.o(i.lv_anim_set_time)
    i.lv_anim_set_time                       0x08018644   Section        0  lv_textarea.o(i.lv_anim_set_time)
    lv_anim_set_time                         0x08018645   Thumb Code     4  lv_textarea.o(i.lv_anim_set_time)
    i.lv_anim_set_time                       0x08018648   Section        0  lv_demo_benchmark.o(i.lv_anim_set_time)
    lv_anim_set_time                         0x08018649   Thumb Code     4  lv_demo_benchmark.o(i.lv_anim_set_time)
    i.lv_anim_set_values                     0x0801864c   Section        0  lv_obj_scroll.o(i.lv_anim_set_values)
    lv_anim_set_values                       0x0801864d   Thumb Code     8  lv_obj_scroll.o(i.lv_anim_set_values)
    i.lv_anim_set_values                     0x08018654   Section        0  lv_obj_style.o(i.lv_anim_set_values)
    lv_anim_set_values                       0x08018655   Thumb Code     8  lv_obj_style.o(i.lv_anim_set_values)
    i.lv_anim_set_values                     0x0801865c   Section        0  lv_label.o(i.lv_anim_set_values)
    lv_anim_set_values                       0x0801865d   Thumb Code     8  lv_label.o(i.lv_anim_set_values)
    i.lv_anim_set_values                     0x08018664   Section        0  lv_spinner.o(i.lv_anim_set_values)
    lv_anim_set_values                       0x08018665   Thumb Code     8  lv_spinner.o(i.lv_anim_set_values)
    i.lv_anim_set_values                     0x0801866c   Section        0  lv_textarea.o(i.lv_anim_set_values)
    lv_anim_set_values                       0x0801866d   Thumb Code     8  lv_textarea.o(i.lv_anim_set_values)
    i.lv_anim_set_values                     0x08018674   Section        0  lv_demo_benchmark.o(i.lv_anim_set_values)
    lv_anim_set_values                       0x08018675   Thumb Code     8  lv_demo_benchmark.o(i.lv_anim_set_values)
    i.lv_anim_set_var                        0x0801867c   Section        0  lv_obj_style.o(i.lv_anim_set_var)
    lv_anim_set_var                          0x0801867d   Thumb Code     4  lv_obj_style.o(i.lv_anim_set_var)
    i.lv_anim_set_var                        0x08018680   Section        0  lv_label.o(i.lv_anim_set_var)
    lv_anim_set_var                          0x08018681   Thumb Code     4  lv_label.o(i.lv_anim_set_var)
    i.lv_anim_set_var                        0x08018684   Section        0  lv_textarea.o(i.lv_anim_set_var)
    lv_anim_set_var                          0x08018685   Thumb Code     4  lv_textarea.o(i.lv_anim_set_var)
    i.lv_anim_set_var                        0x08018688   Section        0  lv_demo_benchmark.o(i.lv_anim_set_var)
    lv_anim_set_var                          0x08018689   Thumb Code     4  lv_demo_benchmark.o(i.lv_anim_set_var)
    i.lv_anim_speed_to_time                  0x0801868c   Section        0  lv_anim.o(i.lv_anim_speed_to_time)
    i.lv_anim_start                          0x080186b0   Section        0  lv_anim.o(i.lv_anim_start)
    i.lv_arc_constructor                     0x08018748   Section        0  lv_arc.o(i.lv_arc_constructor)
    lv_arc_constructor                       0x08018749   Thumb Code   114  lv_arc.o(i.lv_arc_constructor)
    i.lv_arc_create                          0x080187bc   Section        0  lv_arc.o(i.lv_arc_create)
    i.lv_arc_draw                            0x080187dc   Section        0  lv_arc.o(i.lv_arc_draw)
    lv_arc_draw                              0x080187dd   Thumb Code   472  lv_arc.o(i.lv_arc_draw)
    i.lv_arc_event                           0x080189c0   Section        0  lv_arc.o(i.lv_arc_event)
    lv_arc_event                             0x080189c1   Thumb Code  1280  lv_arc.o(i.lv_arc_event)
    i.lv_arc_get_knob_offset                 0x08018ec6   Section        0  lv_arc.o(i.lv_arc_get_knob_offset)
    i.lv_arc_get_value                       0x08018ed2   Section        0  lv_arc.o(i.lv_arc_get_value)
    i.lv_arc_set_angles                      0x08018ede   Section        0  lv_arc.o(i.lv_arc_set_angles)
    i.lv_arc_set_bg_angles                   0x08018ef8   Section        0  lv_arc.o(i.lv_arc_set_bg_angles)
    i.lv_arc_set_bg_end_angle                0x08018f12   Section        0  lv_arc.o(i.lv_arc_set_bg_end_angle)
    i.lv_arc_set_bg_start_angle              0x08018f94   Section        0  lv_arc.o(i.lv_arc_set_bg_start_angle)
    i.lv_arc_set_end_angle                   0x08019016   Section        0  lv_arc.o(i.lv_arc_set_end_angle)
    i.lv_arc_set_rotation                    0x080190a2   Section        0  lv_arc.o(i.lv_arc_set_rotation)
    i.lv_arc_set_start_angle                 0x080190b8   Section        0  lv_arc.o(i.lv_arc_set_start_angle)
    i.lv_arc_set_value                       0x08019144   Section        0  lv_arc.o(i.lv_arc_set_value)
    i.lv_area_copy                           0x08019198   Section        0  lv_obj.o(i.lv_area_copy)
    lv_area_copy                             0x08019199   Thumb Code    18  lv_obj.o(i.lv_area_copy)
    i.lv_area_copy                           0x080191aa   Section        0  lv_obj_pos.o(i.lv_area_copy)
    lv_area_copy                             0x080191ab   Thumb Code    18  lv_obj_pos.o(i.lv_area_copy)
    i.lv_area_copy                           0x080191bc   Section        0  lv_refr.o(i.lv_area_copy)
    lv_area_copy                             0x080191bd   Thumb Code    18  lv_refr.o(i.lv_area_copy)
    i.lv_area_copy                           0x080191ce   Section        0  lv_draw_img.o(i.lv_area_copy)
    lv_area_copy                             0x080191cf   Thumb Code    18  lv_draw_img.o(i.lv_area_copy)
    i.lv_area_copy                           0x080191e0   Section        0  lv_draw_mask.o(i.lv_area_copy)
    lv_area_copy                             0x080191e1   Thumb Code    18  lv_draw_mask.o(i.lv_area_copy)
    i.lv_area_copy                           0x080191f2   Section        0  lv_draw_sw_img.o(i.lv_area_copy)
    lv_area_copy                             0x080191f3   Thumb Code    18  lv_draw_sw_img.o(i.lv_area_copy)
    i.lv_area_copy                           0x08019204   Section        0  lv_draw_sw_rect.o(i.lv_area_copy)
    lv_area_copy                             0x08019205   Thumb Code    18  lv_draw_sw_rect.o(i.lv_area_copy)
    i.lv_area_copy                           0x08019216   Section        0  lv_bar.o(i.lv_area_copy)
    lv_area_copy                             0x08019217   Thumb Code    18  lv_bar.o(i.lv_area_copy)
    i.lv_area_copy                           0x08019228   Section        0  lv_btnmatrix.o(i.lv_area_copy)
    lv_area_copy                             0x08019229   Thumb Code    18  lv_btnmatrix.o(i.lv_area_copy)
    i.lv_area_copy                           0x0801923a   Section        0  lv_img.o(i.lv_area_copy)
    lv_area_copy                             0x0801923b   Thumb Code    18  lv_img.o(i.lv_area_copy)
    i.lv_area_copy                           0x0801924c   Section        0  lv_slider.o(i.lv_area_copy)
    lv_area_copy                             0x0801924d   Thumb Code    18  lv_slider.o(i.lv_area_copy)
    i.lv_area_copy                           0x0801925e   Section        0  lv_textarea.o(i.lv_area_copy)
    lv_area_copy                             0x0801925f   Thumb Code    18  lv_textarea.o(i.lv_area_copy)
    i.lv_area_get_height                     0x08019270   Section        0  lv_indev_scroll.o(i.lv_area_get_height)
    lv_area_get_height                       0x08019271   Thumb Code    14  lv_indev_scroll.o(i.lv_area_get_height)
    i.lv_area_get_height                     0x0801927e   Section        0  lv_obj_pos.o(i.lv_area_get_height)
    lv_area_get_height                       0x0801927f   Thumb Code    14  lv_obj_pos.o(i.lv_area_get_height)
    i.lv_area_get_height                     0x0801928c   Section        0  lv_refr.o(i.lv_area_get_height)
    lv_area_get_height                       0x0801928d   Thumb Code    14  lv_refr.o(i.lv_area_get_height)
    i.lv_area_get_height                     0x0801929a   Section        0  lv_draw_mask.o(i.lv_area_get_height)
    lv_area_get_height                       0x0801929b   Thumb Code    14  lv_draw_mask.o(i.lv_area_get_height)
    i.lv_area_get_height                     0x080192a8   Section        0  lv_draw_sw_blend.o(i.lv_area_get_height)
    lv_area_get_height                       0x080192a9   Thumb Code    14  lv_draw_sw_blend.o(i.lv_area_get_height)
    i.lv_area_get_height                     0x080192b6   Section        0  lv_draw_sw_img.o(i.lv_area_get_height)
    lv_area_get_height                       0x080192b7   Thumb Code    14  lv_draw_sw_img.o(i.lv_area_get_height)
    i.lv_area_get_height                     0x080192c4   Section        0  lv_draw_sw_rect.o(i.lv_area_get_height)
    lv_area_get_height                       0x080192c5   Thumb Code    14  lv_draw_sw_rect.o(i.lv_area_get_height)
    i.lv_area_get_height                     0x080192d2   Section        0  lv_flex.o(i.lv_area_get_height)
    lv_area_get_height                       0x080192d3   Thumb Code    14  lv_flex.o(i.lv_area_get_height)
    i.lv_area_get_height                     0x080192e0   Section        0  lv_area.o(i.lv_area_get_height)
    lv_area_get_height                       0x080192e1   Thumb Code    14  lv_area.o(i.lv_area_get_height)
    i.lv_area_get_height                     0x080192ee   Section        0  lv_bar.o(i.lv_area_get_height)
    lv_area_get_height                       0x080192ef   Thumb Code    14  lv_bar.o(i.lv_area_get_height)
    i.lv_area_get_height                     0x080192fc   Section        0  lv_btnmatrix.o(i.lv_area_get_height)
    lv_area_get_height                       0x080192fd   Thumb Code    14  lv_btnmatrix.o(i.lv_area_get_height)
    i.lv_area_get_height                     0x0801930a   Section        0  lv_img.o(i.lv_area_get_height)
    lv_area_get_height                       0x0801930b   Thumb Code    14  lv_img.o(i.lv_area_get_height)
    i.lv_area_get_height                     0x08019318   Section        0  lv_label.o(i.lv_area_get_height)
    lv_area_get_height                       0x08019319   Thumb Code    14  lv_label.o(i.lv_area_get_height)
    i.lv_area_get_height                     0x08019326   Section        0  lv_meter.o(i.lv_area_get_height)
    lv_area_get_height                       0x08019327   Thumb Code    14  lv_meter.o(i.lv_area_get_height)
    i.lv_area_get_size                       0x08019334   Section        0  lv_area.o(i.lv_area_get_size)
    i.lv_area_get_width                      0x08019356   Section        0  lv_indev_scroll.o(i.lv_area_get_width)
    lv_area_get_width                        0x08019357   Thumb Code    14  lv_indev_scroll.o(i.lv_area_get_width)
    i.lv_area_get_width                      0x08019364   Section        0  lv_obj_pos.o(i.lv_area_get_width)
    lv_area_get_width                        0x08019365   Thumb Code    14  lv_obj_pos.o(i.lv_area_get_width)
    i.lv_area_get_width                      0x08019372   Section        0  lv_refr.o(i.lv_area_get_width)
    lv_area_get_width                        0x08019373   Thumb Code    14  lv_refr.o(i.lv_area_get_width)
    i.lv_area_get_width                      0x08019380   Section        0  lv_draw_img.o(i.lv_area_get_width)
    lv_area_get_width                        0x08019381   Thumb Code    14  lv_draw_img.o(i.lv_area_get_width)
    i.lv_area_get_width                      0x0801938e   Section        0  lv_draw_label.o(i.lv_area_get_width)
    lv_area_get_width                        0x0801938f   Thumb Code    14  lv_draw_label.o(i.lv_area_get_width)
    i.lv_area_get_width                      0x0801939c   Section        0  lv_draw_mask.o(i.lv_area_get_width)
    lv_area_get_width                        0x0801939d   Thumb Code    14  lv_draw_mask.o(i.lv_area_get_width)
    i.lv_area_get_width                      0x080193aa   Section        0  lv_draw_sw_blend.o(i.lv_area_get_width)
    lv_area_get_width                        0x080193ab   Thumb Code    14  lv_draw_sw_blend.o(i.lv_area_get_width)
    i.lv_area_get_width                      0x080193b8   Section        0  lv_draw_sw_img.o(i.lv_area_get_width)
    lv_area_get_width                        0x080193b9   Thumb Code    14  lv_draw_sw_img.o(i.lv_area_get_width)
    i.lv_area_get_width                      0x080193c6   Section        0  lv_draw_sw_layer.o(i.lv_area_get_width)
    lv_area_get_width                        0x080193c7   Thumb Code    14  lv_draw_sw_layer.o(i.lv_area_get_width)
    i.lv_area_get_width                      0x080193d4   Section        0  lv_draw_sw_line.o(i.lv_area_get_width)
    lv_area_get_width                        0x080193d5   Thumb Code    14  lv_draw_sw_line.o(i.lv_area_get_width)
    i.lv_area_get_width                      0x080193e2   Section        0  lv_draw_sw_rect.o(i.lv_area_get_width)
    lv_area_get_width                        0x080193e3   Thumb Code    14  lv_draw_sw_rect.o(i.lv_area_get_width)
    i.lv_area_get_width                      0x080193f0   Section        0  lv_flex.o(i.lv_area_get_width)
    lv_area_get_width                        0x080193f1   Thumb Code    14  lv_flex.o(i.lv_area_get_width)
    i.lv_area_get_width                      0x080193fe   Section        0  lv_area.o(i.lv_area_get_width)
    lv_area_get_width                        0x080193ff   Thumb Code    14  lv_area.o(i.lv_area_get_width)
    i.lv_area_get_width                      0x0801940c   Section        0  lv_bar.o(i.lv_area_get_width)
    lv_area_get_width                        0x0801940d   Thumb Code    14  lv_bar.o(i.lv_area_get_width)
    i.lv_area_get_width                      0x0801941a   Section        0  lv_btnmatrix.o(i.lv_area_get_width)
    lv_area_get_width                        0x0801941b   Thumb Code    14  lv_btnmatrix.o(i.lv_area_get_width)
    i.lv_area_get_width                      0x08019428   Section        0  lv_img.o(i.lv_area_get_width)
    lv_area_get_width                        0x08019429   Thumb Code    14  lv_img.o(i.lv_area_get_width)
    i.lv_area_get_width                      0x08019436   Section        0  lv_label.o(i.lv_area_get_width)
    lv_area_get_width                        0x08019437   Thumb Code    14  lv_label.o(i.lv_area_get_width)
    i.lv_area_get_width                      0x08019444   Section        0  lv_meter.o(i.lv_area_get_width)
    lv_area_get_width                        0x08019445   Thumb Code    14  lv_meter.o(i.lv_area_get_width)
    i.lv_area_increase                       0x08019452   Section        0  lv_area.o(i.lv_area_increase)
    i.lv_area_move                           0x08019474   Section        0  lv_area.o(i.lv_area_move)
    i.lv_area_set                            0x08019496   Section        0  lv_area.o(i.lv_area_set)
    i.lv_area_set_height                     0x080194a4   Section        0  lv_area.o(i.lv_area_set_height)
    i.lv_area_set_width                      0x080194b0   Section        0  lv_area.o(i.lv_area_set_width)
    i.lv_atan2                               0x080194bc   Section        0  lv_math.o(i.lv_atan2)
    i.lv_bar_anim                            0x0801957a   Section        0  lv_bar.o(i.lv_bar_anim)
    lv_bar_anim                              0x0801957b   Thumb Code    18  lv_bar.o(i.lv_bar_anim)
    i.lv_bar_anim_ready                      0x0801958c   Section        0  lv_bar.o(i.lv_bar_anim_ready)
    lv_bar_anim_ready                        0x0801958d   Thumb Code    54  lv_bar.o(i.lv_bar_anim_ready)
    i.lv_bar_constructor                     0x080195c2   Section        0  lv_bar.o(i.lv_bar_constructor)
    lv_bar_constructor                       0x080195c3   Thumb Code    84  lv_bar.o(i.lv_bar_constructor)
    i.lv_bar_destructor                      0x08019616   Section        0  lv_bar.o(i.lv_bar_destructor)
    lv_bar_destructor                        0x08019617   Thumb Code    30  lv_bar.o(i.lv_bar_destructor)
    i.lv_bar_event                           0x08019634   Section        0  lv_bar.o(i.lv_bar_event)
    lv_bar_event                             0x08019635   Thumb Code   246  lv_bar.o(i.lv_bar_event)
    i.lv_bar_get_mode                        0x08019736   Section        0  lv_bar.o(i.lv_bar_get_mode)
    i.lv_bar_get_start_value                 0x08019748   Section        0  lv_bar.o(i.lv_bar_get_start_value)
    i.lv_bar_get_value                       0x0801976e   Section        0  lv_bar.o(i.lv_bar_get_value)
    i.lv_bar_init_anim                       0x08019784   Section        0  lv_bar.o(i.lv_bar_init_anim)
    lv_bar_init_anim                         0x08019785   Thumb Code    14  lv_bar.o(i.lv_bar_init_anim)
    i.lv_bar_set_start_value                 0x08019792   Section        0  lv_bar.o(i.lv_bar_set_start_value)
    i.lv_bar_set_value                       0x080197fe   Section        0  lv_bar.o(i.lv_bar_set_value)
    i.lv_bar_set_value_with_anim             0x08019864   Section        0  lv_bar.o(i.lv_bar_set_value_with_anim)
    lv_bar_set_value_with_anim               0x08019865   Thumb Code   160  lv_bar.o(i.lv_bar_set_value_with_anim)
    i.lv_bezier3                             0x0801990c   Section        0  lv_math.o(i.lv_bezier3)
    i.lv_btn_constructor                     0x08019970   Section        0  lv_btn.o(i.lv_btn_constructor)
    lv_btn_constructor                       0x08019971   Thumb Code    26  lv_btn.o(i.lv_btn_constructor)
    i.lv_btn_create                          0x0801998c   Section        0  lv_btn.o(i.lv_btn_create)
    i.lv_btnmatrix_clear_btn_ctrl            0x080199ac   Section        0  lv_btnmatrix.o(i.lv_btnmatrix_clear_btn_ctrl)
    i.lv_btnmatrix_clear_btn_ctrl_all        0x080199ec   Section        0  lv_btnmatrix.o(i.lv_btnmatrix_clear_btn_ctrl_all)
    i.lv_btnmatrix_constructor               0x08019a18   Section        0  lv_btnmatrix.o(i.lv_btnmatrix_constructor)
    lv_btnmatrix_constructor                 0x08019a19   Thumb Code    42  lv_btnmatrix.o(i.lv_btnmatrix_constructor)
    i.lv_btnmatrix_create                    0x08019a48   Section        0  lv_btnmatrix.o(i.lv_btnmatrix_create)
    i.lv_btnmatrix_destructor                0x08019a68   Section        0  lv_btnmatrix.o(i.lv_btnmatrix_destructor)
    lv_btnmatrix_destructor                  0x08019a69   Thumb Code    28  lv_btnmatrix.o(i.lv_btnmatrix_destructor)
    i.lv_btnmatrix_event                     0x08019a84   Section        0  lv_btnmatrix.o(i.lv_btnmatrix_event)
    lv_btnmatrix_event                       0x08019a85   Thumb Code  1728  lv_btnmatrix.o(i.lv_btnmatrix_event)
    i.lv_btnmatrix_get_btn_text              0x0801a14c   Section        0  lv_btnmatrix.o(i.lv_btnmatrix_get_btn_text)
    i.lv_btnmatrix_get_selected_btn          0x0801a1ac   Section        0  lv_btnmatrix.o(i.lv_btnmatrix_get_selected_btn)
    i.lv_btnmatrix_has_btn_ctrl              0x0801a1b8   Section        0  lv_btnmatrix.o(i.lv_btnmatrix_has_btn_ctrl)
    i.lv_btnmatrix_set_btn_ctrl              0x0801a1e0   Section        0  lv_btnmatrix.o(i.lv_btnmatrix_set_btn_ctrl)
    i.lv_btnmatrix_set_btn_ctrl_all          0x0801a238   Section        0  lv_btnmatrix.o(i.lv_btnmatrix_set_btn_ctrl_all)
    i.lv_btnmatrix_set_ctrl_map              0x0801a262   Section        0  lv_btnmatrix.o(i.lv_btnmatrix_set_ctrl_map)
    i.lv_btnmatrix_set_map                   0x0801a284   Section        0  lv_btnmatrix.o(i.lv_btnmatrix_set_map)
    i.lv_btnmatrix_set_one_checked           0x0801a4da   Section        0  lv_btnmatrix.o(i.lv_btnmatrix_set_one_checked)
    i.lv_btnmatrix_set_selected_btn          0x0801a4f4   Section        0  lv_btnmatrix.o(i.lv_btnmatrix_set_selected_btn)
    i.lv_calendar_constructor                0x0801a528   Section        0  lv_calendar.o(i.lv_calendar_constructor)
    lv_calendar_constructor                  0x0801a529   Thumb Code   290  lv_calendar.o(i.lv_calendar_constructor)
    i.lv_calendar_get_showed_date            0x0801a65c   Section        0  lv_calendar.o(i.lv_calendar_get_showed_date)
    i.lv_calendar_set_showed_date            0x0801a66c   Section        0  lv_calendar.o(i.lv_calendar_set_showed_date)
    i.lv_calendar_set_today_date             0x0801a7ee   Section        0  lv_calendar.o(i.lv_calendar_set_today_date)
    i.lv_chart_constructor                   0x0801a81c   Section        0  lv_chart.o(i.lv_chart_constructor)
    lv_chart_constructor                     0x0801a81d   Thumb Code   118  lv_chart.o(i.lv_chart_constructor)
    i.lv_chart_destructor                    0x0801a892   Section        0  lv_chart.o(i.lv_chart_destructor)
    lv_chart_destructor                      0x0801a893   Thumb Code   112  lv_chart.o(i.lv_chart_destructor)
    i.lv_chart_event                         0x0801a904   Section        0  lv_chart.o(i.lv_chart_event)
    lv_chart_event                           0x0801a905   Thumb Code   460  lv_chart.o(i.lv_chart_event)
    i.lv_chart_get_point_pos_by_id           0x0801aada   Section        0  lv_chart.o(i.lv_chart_get_point_pos_by_id)
    i.lv_checkbox_constructor                0x0801ad08   Section        0  lv_checkbox.o(i.lv_checkbox_constructor)
    lv_checkbox_constructor                  0x0801ad09   Thumb Code    44  lv_checkbox.o(i.lv_checkbox_constructor)
    i.lv_checkbox_destructor                 0x0801ad40   Section        0  lv_checkbox.o(i.lv_checkbox_destructor)
    lv_checkbox_destructor                   0x0801ad41   Thumb Code    30  lv_checkbox.o(i.lv_checkbox_destructor)
    i.lv_checkbox_draw                       0x0801ad60   Section        0  lv_checkbox.o(i.lv_checkbox_draw)
    lv_checkbox_draw                         0x0801ad61   Thumb Code   600  lv_checkbox.o(i.lv_checkbox_draw)
    i.lv_checkbox_event                      0x0801afc4   Section        0  lv_checkbox.o(i.lv_checkbox_event)
    lv_checkbox_event                        0x0801afc5   Thumb Code   316  lv_checkbox.o(i.lv_checkbox_event)
    i.lv_clamp_height                        0x0801b10a   Section        0  lv_obj_pos.o(i.lv_clamp_height)
    i.lv_clamp_width                         0x0801b1b8   Section        0  lv_obj_pos.o(i.lv_clamp_width)
    i.lv_color_black                         0x0801b266   Section        0  lv_refr.o(i.lv_color_black)
    lv_color_black                           0x0801b267   Thumb Code    22  lv_refr.o(i.lv_color_black)
    i.lv_color_black                         0x0801b27c   Section        0  lv_draw_label.o(i.lv_color_black)
    lv_color_black                           0x0801b27d   Thumb Code    22  lv_draw_label.o(i.lv_color_black)
    i.lv_color_black                         0x0801b292   Section        0  lv_draw_rect.o(i.lv_color_black)
    lv_color_black                           0x0801b293   Thumb Code    22  lv_draw_rect.o(i.lv_color_black)
    i.lv_color_black                         0x0801b2a8   Section        0  lv_color.o(i.lv_color_black)
    lv_color_black                           0x0801b2a9   Thumb Code    22  lv_color.o(i.lv_color_black)
    i.lv_color_black                         0x0801b2be   Section        0  lv_led.o(i.lv_color_black)
    lv_color_black                           0x0801b2bf   Thumb Code    60  lv_led.o(i.lv_color_black)
    i.lv_color_brightness                    0x0801b2fa   Section        0  lv_led.o(i.lv_color_brightness)
    lv_color_brightness                      0x0801b2fb   Thumb Code   126  lv_led.o(i.lv_color_brightness)
    i.lv_color_darken                        0x0801b378   Section        0  lv_color.o(i.lv_color_darken)
    i.lv_color_fill                          0x0801b398   Section        0  lv_color.o(i.lv_color_fill)
    i.lv_color_filter_dsc_init               0x0801b3f4   Section        0  lv_theme_default.o(i.lv_color_filter_dsc_init)
    lv_color_filter_dsc_init                 0x0801b3f5   Thumb Code     4  lv_theme_default.o(i.lv_color_filter_dsc_init)
    i.lv_color_hex                           0x0801b3f8   Section        0  lv_theme_default.o(i.lv_color_hex)
    lv_color_hex                             0x0801b3f9   Thumb Code    34  lv_theme_default.o(i.lv_color_hex)
    i.lv_color_hex                           0x0801b41a   Section        0  lv_demo_benchmark.o(i.lv_color_hex)
    lv_color_hex                             0x0801b41b   Thumb Code    34  lv_demo_benchmark.o(i.lv_color_hex)
    i.lv_color_hsv_to_rgb                    0x0801b43c   Section        0  lv_color.o(i.lv_color_hsv_to_rgb)
    i.lv_color_make                          0x0801b53a   Section        0  lv_refr.o(i.lv_color_make)
    lv_color_make                            0x0801b53b   Thumb Code    48  lv_refr.o(i.lv_color_make)
    i.lv_color_make                          0x0801b56a   Section        0  lv_draw_img.o(i.lv_color_make)
    lv_color_make                            0x0801b56b   Thumb Code    48  lv_draw_img.o(i.lv_color_make)
    i.lv_color_make                          0x0801b59a   Section        0  lv_draw_label.o(i.lv_color_make)
    lv_color_make                            0x0801b59b   Thumb Code    48  lv_draw_label.o(i.lv_color_make)
    i.lv_color_make                          0x0801b5ca   Section        0  lv_draw_rect.o(i.lv_color_make)
    lv_color_make                            0x0801b5cb   Thumb Code    48  lv_draw_rect.o(i.lv_color_make)
    i.lv_color_make                          0x0801b5fa   Section        0  lv_img_decoder.o(i.lv_color_make)
    lv_color_make                            0x0801b5fb   Thumb Code    48  lv_img_decoder.o(i.lv_color_make)
    i.lv_color_make                          0x0801b62a   Section        0  lv_color.o(i.lv_color_make)
    lv_color_make                            0x0801b62b   Thumb Code    48  lv_color.o(i.lv_color_make)
    i.lv_color_make                          0x0801b65a   Section        0  lv_style.o(i.lv_color_make)
    lv_color_make                            0x0801b65b   Thumb Code    48  lv_style.o(i.lv_color_make)
    i.lv_color_mix                           0x0801b68c   Section        0  lv_draw_sw_blend.o(i.lv_color_mix)
    lv_color_mix                             0x0801b68d   Thumb Code    64  lv_draw_sw_blend.o(i.lv_color_mix)
    i.lv_color_mix                           0x0801b6d0   Section        0  lv_draw_sw_transform.o(i.lv_color_mix)
    lv_color_mix                             0x0801b6d1   Thumb Code    64  lv_draw_sw_transform.o(i.lv_color_mix)
    i.lv_color_mix                           0x0801b714   Section        0  lv_color.o(i.lv_color_mix)
    lv_color_mix                             0x0801b715   Thumb Code    64  lv_color.o(i.lv_color_mix)
    i.lv_color_mix                           0x0801b758   Section        0  lv_theme_default.o(i.lv_color_mix)
    lv_color_mix                             0x0801b759   Thumb Code    64  lv_theme_default.o(i.lv_color_mix)
    i.lv_color_mix                           0x0801b79c   Section        0  lv_led.o(i.lv_color_mix)
    lv_color_mix                             0x0801b79d   Thumb Code    64  lv_led.o(i.lv_color_mix)
    i.lv_color_mix_premult                   0x0801b7e0   Section        0  lv_draw_sw_blend.o(i.lv_color_mix_premult)
    lv_color_mix_premult                     0x0801b7e1   Thumb Code   120  lv_draw_sw_blend.o(i.lv_color_mix_premult)
    i.lv_color_mix_premult                   0x0801b858   Section        0  lv_draw_sw_img.o(i.lv_color_mix_premult)
    lv_color_mix_premult                     0x0801b859   Thumb Code   120  lv_draw_sw_img.o(i.lv_color_mix_premult)
    i.lv_color_mix_with_alpha                0x0801b8d0   Section        0  lv_draw_sw_blend.o(i.lv_color_mix_with_alpha)
    lv_color_mix_with_alpha                  0x0801b8d1   Thumb Code   234  lv_draw_sw_blend.o(i.lv_color_mix_with_alpha)
    i.lv_color_to32                          0x0801b9d4   Section        0  lv_draw_sw_gradient.o(i.lv_color_to32)
    lv_color_to32                            0x0801b9d5   Thumb Code    90  lv_draw_sw_gradient.o(i.lv_color_to32)
    i.lv_color_white                         0x0801ba2e   Section        0  lv_refr.o(i.lv_color_white)
    lv_color_white                           0x0801ba2f   Thumb Code    22  lv_refr.o(i.lv_color_white)
    i.lv_color_white                         0x0801ba44   Section        0  lv_draw_rect.o(i.lv_color_white)
    lv_color_white                           0x0801ba45   Thumb Code    22  lv_draw_rect.o(i.lv_color_white)
    i.lv_color_white                         0x0801ba5a   Section        0  lv_theme_basic.o(i.lv_color_white)
    lv_color_white                           0x0801ba5b   Thumb Code    60  lv_theme_basic.o(i.lv_color_white)
    i.lv_color_white                         0x0801ba96   Section        0  lv_theme_default.o(i.lv_color_white)
    lv_color_white                           0x0801ba97   Thumb Code    60  lv_theme_default.o(i.lv_color_white)
    i.lv_colorwheel_constructor              0x0801bad4   Section        0  lv_colorwheel.o(i.lv_colorwheel_constructor)
    lv_colorwheel_constructor                0x0801bad5   Thumb Code    84  lv_colorwheel.o(i.lv_colorwheel_constructor)
    i.lv_colorwheel_event                    0x0801bb2c   Section        0  lv_colorwheel.o(i.lv_colorwheel_event)
    lv_colorwheel_event                      0x0801bb2d   Thumb Code  1230  lv_colorwheel.o(i.lv_colorwheel_event)
    i.lv_colorwheel_get_rgb                  0x0801c000   Section        0  lv_colorwheel.o(i.lv_colorwheel_get_rgb)
    i.lv_colorwheel_set_hsv                  0x0801c024   Section        0  lv_colorwheel.o(i.lv_colorwheel_set_hsv)
    i.lv_demo_benchmark                      0x0801c0a4   Section        0  lv_demo_benchmark.o(i.lv_demo_benchmark)
    i.lv_disp_dpx                            0x0801c114   Section        0  lv_theme_default.o(i.lv_disp_dpx)
    lv_disp_dpx                              0x0801c115   Thumb Code    56  lv_theme_default.o(i.lv_disp_dpx)
    i.lv_disp_draw_buf_init                  0x0801c14c   Section        0  lv_hal_disp.o(i.lv_disp_draw_buf_init)
    i.lv_disp_drv_init                       0x0801c170   Section        0  lv_hal_disp.o(i.lv_disp_drv_init)
    i.lv_disp_drv_register                   0x0801c1f0   Section        0  lv_hal_disp.o(i.lv_disp_drv_register)
    i.lv_disp_enable_invalidation            0x0801c39c   Section        0  lv_disp.o(i.lv_disp_enable_invalidation)
    i.lv_disp_flush_is_last                  0x0801c3ca   Section        0  lv_hal_disp.o(i.lv_disp_flush_is_last)
    i.lv_disp_flush_ready                    0x0801c3da   Section        0  lv_hal_disp.o(i.lv_disp_flush_ready)
    i.lv_disp_get_default                    0x0801c3e8   Section        0  lv_hal_disp.o(i.lv_disp_get_default)
    i.lv_disp_get_dpi                        0x0801c3f4   Section        0  lv_hal_disp.o(i.lv_disp_get_dpi)
    i.lv_disp_get_draw_buf                   0x0801c410   Section        0  lv_hal_disp.o(i.lv_disp_get_draw_buf)
    i.lv_disp_get_hor_res                    0x0801c418   Section        0  lv_hal_disp.o(i.lv_disp_get_hor_res)
    i.lv_disp_get_layer_sys                  0x0801c44e   Section        0  lv_disp.o(i.lv_disp_get_layer_sys)
    i.lv_disp_get_layer_top                  0x0801c468   Section        0  lv_disp.o(i.lv_disp_get_layer_top)
    i.lv_disp_get_next                       0x0801c484   Section        0  lv_hal_disp.o(i.lv_disp_get_next)
    i.lv_disp_get_scr_act                    0x0801c4a0   Section        0  lv_disp.o(i.lv_disp_get_scr_act)
    i.lv_disp_get_scr_prev                   0x0801c4ba   Section        0  lv_disp.o(i.lv_disp_get_scr_prev)
    i.lv_disp_get_theme                      0x0801c4d4   Section        0  lv_disp.o(i.lv_disp_get_theme)
    i.lv_disp_get_ver_res                    0x0801c4e4   Section        0  lv_hal_disp.o(i.lv_disp_get_ver_res)
    i.lv_disp_init                           0x0801c51c   Section        0  disp.o(i.lv_disp_init)
    i.lv_disp_is_invalidation_enabled        0x0801c570   Section        0  lv_disp.o(i.lv_disp_is_invalidation_enabled)
    i.lv_disp_set_theme                      0x0801c596   Section        0  lv_disp.o(i.lv_disp_set_theme)
    i.lv_draw_arc                            0x0801c5de   Section        0  lv_draw_arc.o(i.lv_draw_arc)
    i.lv_draw_arc_dsc_init                   0x0801c620   Section        0  lv_draw_arc.o(i.lv_draw_arc_dsc_init)
    i.lv_draw_arc_get_area                   0x0801c67e   Section        0  lv_draw_arc.o(i.lv_draw_arc_get_area)
    i.lv_draw_img                            0x0801cac4   Section        0  lv_draw_img.o(i.lv_draw_img)
    i.lv_draw_img_decoded                    0x0801cb34   Section        0  lv_draw_img.o(i.lv_draw_img_decoded)
    i.lv_draw_img_dsc_init                   0x0801cb62   Section        0  lv_draw_img.o(i.lv_draw_img_dsc_init)
    i.lv_draw_init                           0x0801cb9e   Section        0  lv_draw.o(i.lv_draw_init)
    i.lv_draw_label                          0x0801cba0   Section        0  lv_draw_label.o(i.lv_draw_label)
    i.lv_draw_label_dsc_init                 0x0801d1b8   Section        0  lv_draw_label.o(i.lv_draw_label_dsc_init)
    i.lv_draw_layer_adjust                   0x0801d20c   Section        0  lv_draw_layer.o(i.lv_draw_layer_adjust)
    i.lv_draw_layer_blend                    0x0801d224   Section        0  lv_draw_layer.o(i.lv_draw_layer_blend)
    i.lv_draw_layer_create                   0x0801d23c   Section        0  lv_draw_layer.o(i.lv_draw_layer_create)
    i.lv_draw_layer_destroy                  0x0801d2b2   Section        0  lv_draw_layer.o(i.lv_draw_layer_destroy)
    i.lv_draw_letter                         0x0801d2e4   Section        0  lv_draw_label.o(i.lv_draw_letter)
    i.lv_draw_line                           0x0801d302   Section        0  lv_draw_line.o(i.lv_draw_line)
    i.lv_draw_line_dsc_init                  0x0801d330   Section        0  lv_draw_line.o(i.lv_draw_line_dsc_init)
    i.lv_draw_mask_add                       0x0801d390   Section        0  lv_draw_mask.o(i.lv_draw_mask_add)
    i.lv_draw_mask_angle                     0x0801d3d0   Section        0  lv_draw_mask.o(i.lv_draw_mask_angle)
    lv_draw_mask_angle                       0x0801d3d1   Thumb Code  1070  lv_draw_mask.o(i.lv_draw_mask_angle)
    i.lv_draw_mask_angle_init                0x0801d804   Section        0  lv_draw_mask.o(i.lv_draw_mask_angle_init)
    i.lv_draw_mask_apply                     0x0801d8f8   Section        0  lv_draw_mask.o(i.lv_draw_mask_apply)
    i.lv_draw_mask_free_param                0x0801d956   Section        0  lv_draw_mask.o(i.lv_draw_mask_free_param)
    i.lv_draw_mask_is_any                    0x0801d9a0   Section        0  lv_draw_mask.o(i.lv_draw_mask_is_any)
    i.lv_draw_mask_line                      0x0801da1c   Section        0  lv_draw_mask.o(i.lv_draw_mask_line)
    lv_draw_mask_line                        0x0801da1d   Thumb Code   300  lv_draw_mask.o(i.lv_draw_mask_line)
    i.lv_draw_mask_line_angle_init           0x0801db4e   Section        0  lv_draw_mask.o(i.lv_draw_mask_line_angle_init)
    i.lv_draw_mask_line_points_init          0x0801dba0   Section        0  lv_draw_mask.o(i.lv_draw_mask_line_points_init)
    i.lv_draw_mask_radius                    0x0801dd52   Section        0  lv_draw_mask.o(i.lv_draw_mask_radius)
    lv_draw_mask_radius                      0x0801dd53   Thumb Code   846  lv_draw_mask.o(i.lv_draw_mask_radius)
    i.lv_draw_mask_radius_init               0x0801e0a8   Section        0  lv_draw_mask.o(i.lv_draw_mask_radius_init)
    i.lv_draw_mask_remove_custom             0x0801e24c   Section        0  lv_draw_mask.o(i.lv_draw_mask_remove_custom)
    i.lv_draw_mask_remove_id                 0x0801e280   Section        0  lv_draw_mask.o(i.lv_draw_mask_remove_id)
    i.lv_draw_rect                           0x0801e2a4   Section        0  lv_draw_rect.o(i.lv_draw_rect)
    i.lv_draw_rect_dsc_init                  0x0801e2dc   Section        0  lv_draw_rect.o(i.lv_draw_rect_dsc_init)
    i.lv_draw_sw_arc                         0x0801e35c   Section        0  lv_draw_sw_arc.o(i.lv_draw_sw_arc)
    i.lv_draw_sw_bg                          0x0801e71c   Section        0  lv_draw_sw_rect.o(i.lv_draw_sw_bg)
    i.lv_draw_sw_blend                       0x0801e73a   Section        0  lv_draw_sw_blend.o(i.lv_draw_sw_blend)
    i.lv_draw_sw_blend_basic                 0x0801e76c   Section        0  lv_draw_sw_blend.o(i.lv_draw_sw_blend_basic)
    i.lv_draw_sw_buffer_convert              0x0801e93c   Section        0  lv_draw_sw.o(i.lv_draw_sw_buffer_convert)
    i.lv_draw_sw_buffer_copy                 0x0801eb08   Section        0  lv_draw_sw.o(i.lv_draw_sw_buffer_copy)
    i.lv_draw_sw_deinit_ctx                  0x0801eb8c   Section        0  lv_draw_sw.o(i.lv_draw_sw_deinit_ctx)
    i.lv_draw_sw_img_decoded                 0x0801eb9e   Section        0  lv_draw_sw_img.o(i.lv_draw_sw_img_decoded)
    i.lv_draw_sw_init_ctx                    0x0801eefc   Section        0  lv_draw_sw.o(i.lv_draw_sw_init_ctx)
    i.lv_draw_sw_layer_adjust                0x0801ef94   Section        0  lv_draw_sw_layer.o(i.lv_draw_sw_layer_adjust)
    i.lv_draw_sw_layer_blend                 0x0801efc8   Section        0  lv_draw_sw_layer.o(i.lv_draw_sw_layer_blend)
    i.lv_draw_sw_layer_create                0x0801f03c   Section        0  lv_draw_sw_layer.o(i.lv_draw_sw_layer_create)
    i.lv_draw_sw_layer_destroy               0x0801f126   Section        0  lv_draw_sw_layer.o(i.lv_draw_sw_layer_destroy)
    i.lv_draw_sw_letter                      0x0801f134   Section        0  lv_draw_sw_letter.o(i.lv_draw_sw_letter)
    i.lv_draw_sw_line                        0x0801f29c   Section        0  lv_draw_sw_line.o(i.lv_draw_sw_line)
    i.lv_draw_sw_polygon                     0x0801f4a8   Section        0  lv_draw_sw_polygon.o(i.lv_draw_sw_polygon)
    i.lv_draw_sw_rect                        0x0801f842   Section        0  lv_draw_sw_rect.o(i.lv_draw_sw_rect)
    i.lv_draw_sw_transform                   0x0801f87e   Section        0  lv_draw_sw_transform.o(i.lv_draw_sw_transform)
    i.lv_draw_sw_wait_for_finish             0x0801fa9e   Section        0  lv_draw_sw.o(i.lv_draw_sw_wait_for_finish)
    i.lv_draw_transform                      0x0801faa0   Section        0  lv_draw_transform.o(i.lv_draw_transform)
    i.lv_draw_wait_for_finish                0x0801fae8   Section        0  lv_draw.o(i.lv_draw_wait_for_finish)
    i.lv_dropdown_close                      0x0801faf8   Section        0  lv_dropdown.o(i.lv_dropdown_close)
    i.lv_dropdown_constructor                0x0801fb24   Section        0  lv_dropdown.o(i.lv_dropdown_constructor)
    lv_dropdown_constructor                  0x0801fb25   Thumb Code   114  lv_dropdown.o(i.lv_dropdown_constructor)
    i.lv_dropdown_create                     0x0801fbb8   Section        0  lv_dropdown.o(i.lv_dropdown_create)
    i.lv_dropdown_destructor                 0x0801fbd8   Section        0  lv_dropdown.o(i.lv_dropdown_destructor)
    lv_dropdown_destructor                   0x0801fbd9   Thumb Code    44  lv_dropdown.o(i.lv_dropdown_destructor)
    i.lv_dropdown_event                      0x0801fc04   Section        0  lv_dropdown.o(i.lv_dropdown_event)
    lv_dropdown_event                        0x0801fc05   Thumb Code   364  lv_dropdown.o(i.lv_dropdown_event)
    i.lv_dropdown_get_selected               0x0801fd7a   Section        0  lv_dropdown.o(i.lv_dropdown_get_selected)
    i.lv_dropdown_get_selected_str           0x0801fd86   Section        0  lv_dropdown.o(i.lv_dropdown_get_selected_str)
    i.lv_dropdown_is_open                    0x0801fe0a   Section        0  lv_dropdown.o(i.lv_dropdown_is_open)
    i.lv_dropdown_list_create                0x0801fe24   Section        0  lv_dropdown.o(i.lv_dropdown_list_create)
    lv_dropdown_list_create                  0x0801fe25   Thumb Code    28  lv_dropdown.o(i.lv_dropdown_list_create)
    i.lv_dropdown_list_event                 0x0801fe44   Section        0  lv_dropdown.o(i.lv_dropdown_list_event)
    lv_dropdown_list_event                   0x0801fe45   Thumb Code   136  lv_dropdown.o(i.lv_dropdown_list_event)
    i.lv_dropdown_open                       0x0801fed6   Section        0  lv_dropdown.o(i.lv_dropdown_open)
    i.lv_dropdown_set_options                0x0802017e   Section        0  lv_dropdown.o(i.lv_dropdown_set_options)
    i.lv_dropdown_set_options_static         0x0802022c   Section        0  lv_dropdown.o(i.lv_dropdown_set_options_static)
    i.lv_dropdown_set_selected               0x080202ac   Section        0  lv_dropdown.o(i.lv_dropdown_set_selected)
    i.lv_dropdownlist_constructor            0x080202de   Section        0  lv_dropdown.o(i.lv_dropdownlist_constructor)
    lv_dropdownlist_constructor              0x080202df   Thumb Code    50  lv_dropdown.o(i.lv_dropdownlist_constructor)
    i.lv_dropdownlist_destructor             0x08020310   Section        0  lv_dropdown.o(i.lv_dropdownlist_destructor)
    lv_dropdownlist_destructor               0x08020311   Thumb Code    16  lv_dropdown.o(i.lv_dropdownlist_destructor)
    i.lv_event_get_code                      0x08020320   Section        0  lv_event.o(i.lv_event_get_code)
    i.lv_event_get_current_target            0x0802032a   Section        0  lv_event.o(i.lv_event_get_current_target)
    i.lv_event_get_draw_ctx                  0x08020330   Section        0  lv_event.o(i.lv_event_get_draw_ctx)
    i.lv_event_get_indev                     0x08020368   Section        0  lv_event.o(i.lv_event_get_indev)
    i.lv_event_get_param                     0x080203dc   Section        0  lv_event.o(i.lv_event_get_param)
    i.lv_event_get_target                    0x080203e2   Section        0  lv_event.o(i.lv_event_get_target)
    i.lv_event_get_user_data                 0x080203e8   Section        0  lv_event.o(i.lv_event_get_user_data)
    i.lv_event_send                          0x080203f0   Section        0  lv_event.o(i.lv_event_send)
    i.lv_event_set_ext_draw_size             0x0802045c   Section        0  lv_event.o(i.lv_event_set_ext_draw_size)
    i.lv_flex_init                           0x0802048c   Section        0  lv_flex.o(i.lv_flex_init)
    i.lv_font_get_bitmap_fmt_txt             0x080204dc   Section        0  lv_font_fmt_txt.o(i.lv_font_get_bitmap_fmt_txt)
    i.lv_font_get_glyph_bitmap               0x08020520   Section        0  lv_font.o(i.lv_font_get_glyph_bitmap)
    i.lv_font_get_glyph_dsc                  0x0802053e   Section        0  lv_font.o(i.lv_font_get_glyph_dsc)
    i.lv_font_get_glyph_dsc_fmt_txt          0x08020610   Section        0  lv_font_fmt_txt.o(i.lv_font_get_glyph_dsc_fmt_txt)
    i.lv_font_get_glyph_width                0x080206dc   Section        0  lv_font.o(i.lv_font_get_glyph_width)
    i.lv_font_get_line_height                0x08020706   Section        0  lv_dropdown.o(i.lv_font_get_line_height)
    lv_font_get_line_height                  0x08020707   Thumb Code     8  lv_dropdown.o(i.lv_font_get_line_height)
    i.lv_font_get_line_height                0x0802070e   Section        0  lv_label.o(i.lv_font_get_line_height)
    lv_font_get_line_height                  0x0802070f   Thumb Code     8  lv_label.o(i.lv_font_get_line_height)
    i.lv_font_get_line_height                0x08020716   Section        0  lv_roller.o(i.lv_font_get_line_height)
    lv_font_get_line_height                  0x08020717   Thumb Code     8  lv_roller.o(i.lv_font_get_line_height)
    i.lv_font_get_line_height                0x0802071e   Section        0  lv_textarea.o(i.lv_font_get_line_height)
    lv_font_get_line_height                  0x0802071f   Thumb Code     8  lv_textarea.o(i.lv_font_get_line_height)
    i.lv_free                                0x08020728   Section        0  lv_mem.o(i.lv_free)
    i.lv_free_builtin                        0x08020748   Section        0  lv_malloc_builtin.o(i.lv_free_builtin)
    i.lv_fs_close                            0x0802077c   Section        0  lv_fs.o(i.lv_fs_close)
    i.lv_fs_get_drv                          0x080207c8   Section        0  lv_fs.o(i.lv_fs_get_drv)
    i.lv_fs_get_ext                          0x080207f8   Section        0  lv_fs.o(i.lv_fs_get_ext)
    i.lv_fs_get_real_path                    0x08020830   Section        0  lv_fs.o(i.lv_fs_get_real_path)
    lv_fs_get_real_path                      0x08020831   Thumb Code    12  lv_fs.o(i.lv_fs_get_real_path)
    i.lv_fs_open                             0x0802083c   Section        0  lv_fs.o(i.lv_fs_open)
    i.lv_fs_read                             0x080208e0   Section        0  lv_fs.o(i.lv_fs_read)
    i.lv_fs_read_cached                      0x0802093e   Section        0  lv_fs.o(i.lv_fs_read_cached)
    lv_fs_read_cached                        0x0802093f   Thumb Code   416  lv_fs.o(i.lv_fs_read_cached)
    i.lv_fs_seek                             0x08020ae4   Section        0  lv_fs.o(i.lv_fs_seek)
    i.lv_gradient_calculate                  0x08020bba   Section        0  lv_draw_sw_gradient.o(i.lv_gradient_calculate)
    i.lv_gradient_cleanup                    0x08020d12   Section        0  lv_draw_sw_gradient.o(i.lv_gradient_cleanup)
    i.lv_gradient_get                        0x08020d24   Section        0  lv_draw_sw_gradient.o(i.lv_gradient_get)
    i.lv_gradient_set_cache_size             0x08020df0   Section        0  lv_draw_sw_gradient.o(i.lv_gradient_set_cache_size)
    i.lv_grid_init                           0x08020e38   Section        0  lv_grid.o(i.lv_grid_init)
    i.lv_group_add_obj                       0x08020edc   Section        0  lv_group.o(i.lv_group_add_obj)
    i.lv_group_focus_next                    0x08020f84   Section        0  lv_group.o(i.lv_group_focus_next)
    i.lv_group_focus_obj                     0x08020fac   Section        0  lv_group.o(i.lv_group_focus_obj)
    i.lv_group_focus_prev                    0x08021064   Section        0  lv_group.o(i.lv_group_focus_prev)
    i.lv_group_get_default                   0x0802108c   Section        0  lv_group.o(i.lv_group_get_default)
    i.lv_group_get_editing                   0x08021098   Section        0  lv_group.o(i.lv_group_get_editing)
    i.lv_group_get_focused                   0x080210a8   Section        0  lv_group.o(i.lv_group_get_focused)
    i.lv_group_get_obj_count                 0x080210be   Section        0  lv_group.o(i.lv_group_get_obj_count)
    i.lv_group_refocus                       0x080210ca   Section        0  lv_group.o(i.lv_group_refocus)
    lv_group_refocus                         0x080210cb   Thumb Code    60  lv_group.o(i.lv_group_refocus)
    i.lv_group_remove_obj                    0x08021106   Section        0  lv_group.o(i.lv_group_remove_obj)
    i.lv_group_send_data                     0x080211c0   Section        0  lv_group.o(i.lv_group_send_data)
    i.lv_group_set_editing                   0x080211ec   Section        0  lv_group.o(i.lv_group_set_editing)
    i.lv_img_cache_invalidate_src            0x08021246   Section        0  lv_img_cache.o(i.lv_img_cache_invalidate_src)
    i.lv_img_cf_get_px_size                  0x08021248   Section        0  lv_draw_img.o(i.lv_img_cf_get_px_size)
    i.lv_img_cf_has_alpha                    0x08021294   Section        0  lv_draw_img.o(i.lv_img_cf_has_alpha)
    i.lv_img_cf_is_chroma_keyed              0x080212ce   Section        0  lv_draw_img.o(i.lv_img_cf_is_chroma_keyed)
    i.lv_img_constructor                     0x080212e8   Section        0  lv_img.o(i.lv_img_constructor)
    lv_img_constructor                       0x080212e9   Thumb Code   106  lv_img.o(i.lv_img_constructor)
    i.lv_img_create                          0x08021354   Section        0  lv_img.o(i.lv_img_create)
    i.lv_img_decoder_built_in_close          0x08021374   Section        0  lv_img_decoder.o(i.lv_img_decoder_built_in_close)
    i.lv_img_decoder_built_in_info           0x080213ac   Section        0  lv_img_decoder.o(i.lv_img_decoder_built_in_info)
    i.lv_img_decoder_built_in_line_alpha     0x08021498   Section        0  lv_img_decoder.o(i.lv_img_decoder_built_in_line_alpha)
    lv_img_decoder_built_in_line_alpha       0x08021499   Thumb Code   442  lv_img_decoder.o(i.lv_img_decoder_built_in_line_alpha)
    i.lv_img_decoder_built_in_line_indexed   0x08021672   Section        0  lv_img_decoder.o(i.lv_img_decoder_built_in_line_indexed)
    lv_img_decoder_built_in_line_indexed     0x08021673   Thumb Code   404  lv_img_decoder.o(i.lv_img_decoder_built_in_line_indexed)
    i.lv_img_decoder_built_in_line_true_color 0x0802180c   Section        0  lv_img_decoder.o(i.lv_img_decoder_built_in_line_true_color)
    lv_img_decoder_built_in_line_true_color  0x0802180d   Thumb Code   128  lv_img_decoder.o(i.lv_img_decoder_built_in_line_true_color)
    i.lv_img_decoder_built_in_open           0x08021894   Section        0  lv_img_decoder.o(i.lv_img_decoder_built_in_open)
    i.lv_img_decoder_built_in_read_line      0x08021aa2   Section        0  lv_img_decoder.o(i.lv_img_decoder_built_in_read_line)
    i.lv_img_decoder_close                   0x08021b74   Section        0  lv_img_decoder.o(i.lv_img_decoder_close)
    i.lv_img_decoder_create                  0x08021b9c   Section        0  lv_img_decoder.o(i.lv_img_decoder_create)
    i.lv_img_decoder_get_info                0x08021bcc   Section        0  lv_img_decoder.o(i.lv_img_decoder_get_info)
    i.lv_img_decoder_open                    0x08021c38   Section        0  lv_img_decoder.o(i.lv_img_decoder_open)
    i.lv_img_decoder_read_line               0x08021d34   Section        0  lv_img_decoder.o(i.lv_img_decoder_read_line)
    i.lv_img_decoder_set_close_cb            0x08021d6e   Section        0  lv_img_decoder.o(i.lv_img_decoder_set_close_cb)
    i.lv_img_decoder_set_info_cb             0x08021d72   Section        0  lv_img_decoder.o(i.lv_img_decoder_set_info_cb)
    i.lv_img_decoder_set_open_cb             0x08021d76   Section        0  lv_img_decoder.o(i.lv_img_decoder_set_open_cb)
    i.lv_img_decoder_set_read_line_cb        0x08021d7a   Section        0  lv_img_decoder.o(i.lv_img_decoder_set_read_line_cb)
    i.lv_img_destructor                      0x08021d7e   Section        0  lv_img.o(i.lv_img_destructor)
    lv_img_destructor                        0x08021d7f   Thumb Code    58  lv_img.o(i.lv_img_destructor)
    i.lv_img_event                           0x08021db8   Section        0  lv_img.o(i.lv_img_event)
    lv_img_event                             0x08021db9   Thumb Code   574  lv_img.o(i.lv_img_event)
    i.lv_img_get_transformed_size            0x08022002   Section        0  lv_img.o(i.lv_img_get_transformed_size)
    lv_img_get_transformed_size              0x08022003   Thumb Code    62  lv_img.o(i.lv_img_get_transformed_size)
    i.lv_img_set_angle                       0x08022040   Section        0  lv_img.o(i.lv_img_set_angle)
    i.lv_img_set_antialias                   0x0802215a   Section        0  lv_img.o(i.lv_img_set_antialias)
    i.lv_img_set_src                         0x08022184   Section        0  lv_img.o(i.lv_img_set_src)
    i.lv_img_set_zoom                        0x0802234e   Section        0  lv_img.o(i.lv_img_set_zoom)
    i.lv_img_src_get_type                    0x08022468   Section        0  lv_draw_img.o(i.lv_img_src_get_type)
    i.lv_indev_drv_init                      0x0802249a   Section        0  lv_hal_indev.o(i.lv_indev_drv_init)
    i.lv_indev_drv_register                  0x080224c4   Section        0  lv_hal_indev.o(i.lv_indev_drv_register)
    i.lv_indev_get_act                       0x08022528   Section        0  lv_indev.o(i.lv_indev_get_act)
    i.lv_indev_get_next                      0x08022534   Section        0  lv_hal_indev.o(i.lv_indev_get_next)
    i.lv_indev_get_obj_act                   0x08022550   Section        0  lv_indev.o(i.lv_indev_get_obj_act)
    i.lv_indev_get_point                     0x0802255c   Section        0  lv_indev.o(i.lv_indev_get_point)
    i.lv_indev_get_scroll_dir                0x0802258c   Section        0  lv_indev.o(i.lv_indev_get_scroll_dir)
    i.lv_indev_get_scroll_obj                0x080225b2   Section        0  lv_indev.o(i.lv_indev_get_scroll_obj)
    i.lv_indev_get_type                      0x080225d2   Section        0  lv_indev.o(i.lv_indev_get_type)
    i.lv_indev_get_vect                      0x080225e0   Section        0  lv_indev.o(i.lv_indev_get_vect)
    i.lv_indev_read_timer_cb                 0x08022608   Section        0  lv_indev.o(i.lv_indev_read_timer_cb)
    i.lv_indev_reset                         0x08022728   Section        0  lv_indev.o(i.lv_indev_reset)
    i.lv_indev_reset_long_press              0x080227e4   Section        0  lv_indev.o(i.lv_indev_reset_long_press)
    i.lv_indev_scroll_throw_predict          0x080227fe   Section        0  lv_indev_scroll.o(i.lv_indev_scroll_throw_predict)
    i.lv_indev_search_obj                    0x08022846   Section        0  lv_indev.o(i.lv_indev_search_obj)
    i.lv_indev_wait_release                  0x080228d6   Section        0  lv_indev.o(i.lv_indev_wait_release)
    i.lv_init                                0x080228e8   Section        0  lv_obj.o(i.lv_init)
    i.lv_keyboard_constructor                0x08022998   Section        0  lv_keyboard.o(i.lv_keyboard_constructor)
    lv_keyboard_constructor                  0x08022999   Thumb Code    70  lv_keyboard.o(i.lv_keyboard_constructor)
    i.lv_keyboard_def_event_cb               0x080229e4   Section        0  lv_keyboard.o(i.lv_keyboard_def_event_cb)
    i.lv_keyboard_update_ctrl_map            0x08022c4c   Section        0  lv_keyboard.o(i.lv_keyboard_update_ctrl_map)
    lv_keyboard_update_ctrl_map              0x08022c4d   Thumb Code   114  lv_keyboard.o(i.lv_keyboard_update_ctrl_map)
    i.lv_keyboard_update_map                 0x08022cc4   Section        0  lv_keyboard.o(i.lv_keyboard_update_map)
    lv_keyboard_update_map                   0x08022cc5   Thumb Code    30  lv_keyboard.o(i.lv_keyboard_update_map)
    i.lv_label_constructor                   0x08022ce8   Section        0  lv_label.o(i.lv_label_constructor)
    lv_label_constructor                     0x08022ce9   Thumb Code   116  lv_label.o(i.lv_label_constructor)
    i.lv_label_create                        0x08022d64   Section        0  lv_label.o(i.lv_label_create)
    i.lv_label_destructor                    0x08022d84   Section        0  lv_label.o(i.lv_label_destructor)
    lv_label_destructor                      0x08022d85   Thumb Code    36  lv_label.o(i.lv_label_destructor)
    i.lv_label_dot_tmp_free                  0x08022da8   Section        0  lv_label.o(i.lv_label_dot_tmp_free)
    lv_label_dot_tmp_free                    0x08022da9   Thumb Code    44  lv_label.o(i.lv_label_dot_tmp_free)
    i.lv_label_event                         0x08022dd4   Section        0  lv_label.o(i.lv_label_event)
    lv_label_event                           0x08022dd5   Thumb Code   340  lv_label.o(i.lv_label_event)
    i.lv_label_get_dot_tmp                   0x08022f32   Section        0  lv_label.o(i.lv_label_get_dot_tmp)
    lv_label_get_dot_tmp                     0x08022f33   Thumb Code    24  lv_label.o(i.lv_label_get_dot_tmp)
    i.lv_label_get_letter_on                 0x08022f4c   Section        0  lv_label.o(i.lv_label_get_letter_on)
    i.lv_label_get_letter_pos                0x08023168   Section        0  lv_label.o(i.lv_label_get_letter_pos)
    i.lv_label_get_text                      0x08023312   Section        0  lv_label.o(i.lv_label_get_text)
    i.lv_label_get_text_selection_end        0x0802331e   Section        0  lv_label.o(i.lv_label_get_text_selection_end)
    i.lv_label_get_text_selection_start      0x0802332a   Section        0  lv_label.o(i.lv_label_get_text_selection_start)
    i.lv_label_ins_text                      0x08023338   Section        0  lv_label.o(i.lv_label_ins_text)
    i.lv_label_is_char_under_pos             0x080233cc   Section        0  lv_label.o(i.lv_label_is_char_under_pos)
    i.lv_label_refr_text                     0x080235b0   Section        0  lv_label.o(i.lv_label_refr_text)
    lv_label_refr_text                       0x080235b1   Thumb Code  1532  lv_label.o(i.lv_label_refr_text)
    i.lv_label_revert_dots                   0x08023bc4   Section        0  lv_label.o(i.lv_label_revert_dots)
    lv_label_revert_dots                     0x08023bc5   Thumb Code   108  lv_label.o(i.lv_label_revert_dots)
    i.lv_label_set_dot_tmp                   0x08023c34   Section        0  lv_label.o(i.lv_label_set_dot_tmp)
    lv_label_set_dot_tmp                     0x08023c35   Thumb Code   104  lv_label.o(i.lv_label_set_dot_tmp)
    i.lv_label_set_long_mode                 0x08023c9c   Section        0  lv_label.o(i.lv_label_set_long_mode)
    i.lv_label_set_text                      0x08023d20   Section        0  lv_label.o(i.lv_label_set_text)
    i.lv_label_set_text_fmt                  0x08023dc6   Section        0  lv_label.o(i.lv_label_set_text_fmt)
    i.lv_label_set_text_selection_end        0x08023e38   Section        0  lv_label.o(i.lv_label_set_text_selection_end)
    i.lv_label_set_text_selection_start      0x08023e4e   Section        0  lv_label.o(i.lv_label_set_text_selection_start)
    i.lv_label_set_text_static               0x08023e64   Section        0  lv_label.o(i.lv_label_set_text_static)
    i.lv_layer_sys                           0x08023ea2   Section        0  lv_refr.o(i.lv_layer_sys)
    lv_layer_sys                             0x08023ea3   Thumb Code    14  lv_refr.o(i.lv_layer_sys)
    i.lv_layout_register                     0x08023eb0   Section        0  lv_obj_pos.o(i.lv_layout_register)
    i.lv_led_constructor                     0x08023f10   Section        0  lv_led.o(i.lv_led_constructor)
    lv_led_constructor                       0x08023f11   Thumb Code    30  lv_led.o(i.lv_led_constructor)
    i.lv_led_event                           0x08023f30   Section        0  lv_led.o(i.lv_led_event)
    lv_led_event                             0x08023f31   Thumb Code   608  lv_led.o(i.lv_led_event)
    i.lv_line_constructor                    0x0802419a   Section        0  lv_line.o(i.lv_line_constructor)
    lv_line_constructor                      0x0802419b   Thumb Code    28  lv_line.o(i.lv_line_constructor)
    i.lv_line_create                         0x080241b8   Section        0  lv_line.o(i.lv_line_create)
    i.lv_line_event                          0x080241d8   Section        0  lv_line.o(i.lv_line_event)
    lv_line_event                            0x080241d9   Thumb Code   466  lv_line.o(i.lv_line_event)
    i.lv_line_set_points                     0x080243b6   Section        0  lv_line.o(i.lv_line_set_points)
    i.lv_malloc                              0x080243dc   Section        0  lv_mem.o(i.lv_malloc)
    i.lv_malloc_builtin                      0x080243fc   Section        0  lv_malloc_builtin.o(i.lv_malloc_builtin)
    i.lv_map                                 0x0802443c   Section        0  lv_math.o(i.lv_map)
    i.lv_mem_init_builtin                    0x08024484   Section        0  lv_malloc_builtin.o(i.lv_mem_init_builtin)
    i.lv_mem_monitor                         0x080244a0   Section        0  lv_mem.o(i.lv_mem_monitor)
    i.lv_mem_monitor_builtin                 0x080244b8   Section        0  lv_malloc_builtin.o(i.lv_mem_monitor_builtin)
    i.lv_mem_walker                          0x08024524   Section        0  lv_malloc_builtin.o(i.lv_mem_walker)
    lv_mem_walker                            0x08024525   Thumb Code    38  lv_malloc_builtin.o(i.lv_mem_walker)
    i.lv_memcpy                              0x0802454a   Section        0  lv_mem.o(i.lv_memcpy)
    i.lv_memcpy_builtin                      0x0802455e   Section        0  lv_memcpy_builtin.o(i.lv_memcpy_builtin)
    i.lv_memset                              0x080247dc   Section        0  lv_mem.o(i.lv_memset)
    i.lv_memset_builtin                      0x080247f0   Section        0  lv_memcpy_builtin.o(i.lv_memset_builtin)
    i.lv_memzero                             0x08024858   Section        0  lv_obj.o(i.lv_memzero)
    lv_memzero                               0x08024859   Thumb Code    18  lv_obj.o(i.lv_memzero)
    i.lv_memzero                             0x0802486a   Section        0  lv_obj_style.o(i.lv_memzero)
    lv_memzero                               0x0802486b   Thumb Code    18  lv_obj_style.o(i.lv_memzero)
    i.lv_memzero                             0x0802487c   Section        0  lv_refr.o(i.lv_memzero)
    lv_memzero                               0x0802487d   Thumb Code    18  lv_refr.o(i.lv_memzero)
    i.lv_memzero                             0x0802488e   Section        0  lv_draw_mask.o(i.lv_memzero)
    lv_memzero                               0x0802488f   Thumb Code    18  lv_draw_mask.o(i.lv_memzero)
    i.lv_memzero                             0x080248a0   Section        0  lv_img_decoder.o(i.lv_memzero)
    lv_memzero                               0x080248a1   Thumb Code    18  lv_img_decoder.o(i.lv_memzero)
    i.lv_memzero                             0x080248b2   Section        0  lv_draw_sw.o(i.lv_memzero)
    lv_memzero                               0x080248b3   Thumb Code    18  lv_draw_sw.o(i.lv_memzero)
    i.lv_memzero                             0x080248c4   Section        0  lv_draw_sw_gradient.o(i.lv_memzero)
    lv_memzero                               0x080248c5   Thumb Code    18  lv_draw_sw_gradient.o(i.lv_memzero)
    i.lv_memzero                             0x080248d6   Section        0  lv_draw_sw_img.o(i.lv_memzero)
    lv_memzero                               0x080248d7   Thumb Code    18  lv_draw_sw_img.o(i.lv_memzero)
    i.lv_memzero                             0x080248e8   Section        0  lv_draw_sw_layer.o(i.lv_memzero)
    lv_memzero                               0x080248e9   Thumb Code    18  lv_draw_sw_layer.o(i.lv_memzero)
    i.lv_memzero                             0x080248fa   Section        0  lv_draw_sw_letter.o(i.lv_memzero)
    lv_memzero                               0x080248fb   Thumb Code    18  lv_draw_sw_letter.o(i.lv_memzero)
    i.lv_memzero                             0x0802490c   Section        0  lv_draw_sw_line.o(i.lv_memzero)
    lv_memzero                               0x0802490d   Thumb Code    18  lv_draw_sw_line.o(i.lv_memzero)
    i.lv_memzero                             0x0802491e   Section        0  lv_draw_sw_rect.o(i.lv_memzero)
