:020000040800F2
:20000000C88D00206D020008B9340008592E0008B5340008D1050008A347000800000000AF
:200020000000000000000000000000002941000815060008000000008D3600082B410008EC
:20004000870200088702000887020008870200088702000887020008870200088702000818
:200060008702000887020008870200088702000887020008D50500088702000887020008A7
:200080008702000887020008870200088702000887020008870200088702000887020008D8
:2000A0008702000887020008870200088702000887020008000000000000000087020008DA
:2000C000870200088702000887020008ED3A000887020008870200088702000887020008FA
:2000E0008702000887020008000000000000000000000000000000000000000000000000DE
:20010000000000008702000800000000870200080000000000000000B5410008C5410008B1
:200120008702000887020008870200088702000887020008000000000000000000000000EA
:200140008702000887020008870200080000000087020008870200088702000887020008A8
:200160008702000887020008870200080000000087020008870200080000000000000000AA
:2001800087020008870200088702000800F002F800F05CF80AA090E8000C82448344AAF128
:2001A0000107DA4501D100F051F8AFF2090EBAE80F0013F0010F18BFFB1A43F0010318470F
:2001C00098C80300D8C803000A444FF0000C10F8013B13F0070408BF10F8014B1D1108BF1E
:2001E00010F8015B641E05D010F8016B641E01F8016BF9D113F0080F1EBF10F8014BAD1C0B
:200200000C1B09D16D1E58BF01F801CBFAD505E014F8016B01F8016B6D1EF9D59142D6D310
:20022000704700000023002400250026103A28BF78C1FBD8520728BF30C148BF0B607047DE
:200240001FB537F03BFB1FBD10B510BD00F08DF91146FFF7F5FF2FF02BF900F0ABF903B4BA
:20026000FFF7F2FF03BC00F079F900000948804709480047FEE7FEE7FEE7FEE7FEE7FEE768
:20028000FEE7FEE7FEE7FEE704480549054A064B70470000A14100088D010008C8810020F0
:2002A000C88D0020C8850020C885002053EA020C00F069802DE9F04B4FF00006002B1FBF2C
:2002C000B3FA83F503FA05F424FA05F65E4012BF1643B2FA82F502FA05F4C5F120051EBF52
:2002E00022FA05FC44EA0C04203556EA044C4FEA144418BF641C4FF000084FF00009904275
:2003000071EB030C39D3002919BFB1FA81F701FA07F6B0FA80F700FA07F6C7F120071EBF76
:2003200020FA07FC46EA0C062037B6FBF4FCA7EB0507103F07F01F0BCBF120060CFA0BFB6A
:200340002CFA06F644BFB3460026202FA4BF5E464FF0000B5BEA060C08BF4FF0010B19EB4C
:200360000B09ABFB027C48EB0608C01B06FB02CC0BFB03CC71EB0C01C1E70B460246414654
:200380004846BDE8F08B13B54FF000004FF00001AFF30080BDE81C40704740EA0103024618
:2003A00030B59B0710D14FF0013400E008C208C91D1B9D4315EAC41FF8D013F0FF0102F827
:2003C000011B0DD01B0AF8E711F8013B002B02F8013B05D011F8013B002B02F8013BF3D13B
:2003E00030BD10B5431C02E010F8011B71B18107FAD14FF0013202C88C1A8C4314EAC211EF
:20040000F9D0C01A0A0603D0C01E10BDC01A10BD0A0401D0801E10BD0902FCD0401E10BDB8
:2004200010B5203AC0F00B80B1E81850203AA0E81850B1E81850A0E81850BFF4F5AF5FEA86
:20044000027C24BFB1E81850A0E8185044BF18C918C0BDE810405FEA827C24BF51F8043BE7
:2004600040F8043B08BF7047D20728BF31F8023B48BF11F8012B28BF20F8023B48BF00F8EA
:20048000012B70474FF0000200B5134694469646203922BFA0E80C50A0E80C50B1F12001AF
:2004A000BFF4F7AF090728BFA0E80C5048BF0CC05DF804EB890028BF40F8042B08BF70479C
:2004C00048BF20F8022B11F0804F18BF00F8012B704700004FF0013C50F8042B51F8043BD3
:2004E0009A4221D1A2EB0C03934313EACC1317D150F8042B51F8043B9A4215D1A2EB0C039B
:20050000934313EACC130BD150F8042B51F8043B9A4209D1A2EB0C03934313EACC13DBD09F
:200520004FF00000704700BFD01A01BAB1FA81F101F0180122FA01F0CB40C1F12001DBB2C2
:20054000C0B2C01A2CFA01F3D11A914311EAC311E6D1704770477047704700000149182092
:20056000ABBEFEE7260002007047754600F02CF8AE4605006946534620F00700854618B094
:2005800020B5FFF781FEBDE820404FF000064FF000074FF000084FF0000B21F00701AC46E5
:2005A000ACE8C009ACE8C009ACE8C009ACE8C0098D46704710B50446AFF300802046BDE801
:2005C0001040FFF74CBE0000004870476881002000BFFEE710B5024800F0DCF810BD00007F
:2005E0000002002030B590F8444004F01C050124AC40056C6C60046863608468102C04D159
:200600000468A2600468E16003E00468A1600468E26030BD704772B600BFFEE770B50346E3
:200620000C4600201F2100BF0D1EA1F1010106D001F01F060125B5402540002DF4D08AB1F2
:20064000082A0BD0102A05D0182A0CD1072900D301200AE0082900D3012006E0102900D33A
:20066000012002E001E0012000BF00BF40B91D686C611D68AD6825F0180515431E68B560ED
:2006800070BD000010B504460CB9012010BD607F20B900202077204600F036F8022060777F
:2006A000207948B91748216848612068806820F018002168886007E02046D4E90212FFF7F2
:2006C000ADFF08B10120E1E7607920B94FF0FF302168086102E021682069086120688068ED
:2006E00020F0600061690843216888602068806820F08000A1690843216888600120607746
:200700000020C3E7B71DC10408B5094A016891420DD100BF0749896C41F48051054A9164FE
:200720001146896C01F48051009100BF00BF08BD003002400010024070B50446002594F8EF
:200740002500022803D00420E063012520E02068006820F00E00216808602068006820F0EB
:2007600001002168086094F8440000F01C0101208840216C4860012084F8250000BF0020EB
:2007800084F8240000BFA06B10B12046A16B8847284670BD70B50446206C056820680668F4
:2007A00094F8440000F01C01042088402840E0B106F00400C8B12068006800F0200028B923
:2007C0002068006820F004002168086094F8440000F01C0104208840216C4860206B002873
:2007E00056D02046216B884752E094F8440000F01C0102208840284018B306F0020000B33B
:200800002068006800F0200040B92068006820F00A0021680860012084F8250094F8440052
:2008200000F01C0102208840216C486000BF002084F8240000BFE06A50B32046E16A884781
:2008400026E094F8440000F01C01082088402840F0B106F00800D8B12068006820F00E0027
:200860002168086094F8440000F01C0101208840216C48600120E06384F8250000BF0020A8
:2008800084F8240000BF606B10B12046616B884770BD000010B5014609B9012010BD3E4BFA
:2008A000086898420BD23D4B0868C01A1423B0FBF3F0800048643948083808640AE0364BB6
:2008C0000868C01A1423B0FBF3F080004864324808380864022081F825000868026847F6E0
:2008E000F0708243D1E9020318430B6918434B6918438B691843CB6918430B6A18430243E8
:20090000086802608868B0F5804F3AD0234B083B086C98421BD1D0F8A80091F8443003F04C
:200920001C040F23A34098431C4BA033186091F8443003F01C0348689840184B083BD3F8ED
:20094000A8301843154B083BC3F8A80019E01248A030006891F8443003F01C040F23A340AE
:2009600098430D4BA033186091F8443003F01C0348689840084BA0331B681843064BA0333A
:2009800018600020C863012081F82500002081F8240000BF82E70000080402400800024058
:2009A0002DE9F04104460D4616461F464FF0000800BF94F82400012802D10220BDE8F081A8
:2009C000012084F8240000BF94F8250001282CD1022084F825000020E0632068006820F09A
:2009E0000100216808603B46324629462046FFF7F9FD206B30B12068006840F00E00216828
:200A000008600BE02068006820F00400216808602068006840F00A00216808602068006883
:200A200040F001002168086006E000BF002084F8240000BF4FF002084046BFE770B504468C
:200A400000F000F906462546681C10B104480078054400BF00F0F6F8801BA842FAD370BD88
:200A60000C00001078B503460A460021C5E001268E40156805EA0604002C73D0157905F071
:200A80000305012D04D0157905F00305022D13D198684E000325B540A8434E00D568B540D8
:200AA00028439860586801258D40A8431579C5F300158D4028435860157905F00305032D2F
:200AC00009D0D8684E000325B540A8434E009568B5402843D860157905F00305022D13D126
:200AE000CE0803F1200555F826004D07EE0E0F25B540A8434E07F60E1569B5402843CE0823
:200B000003F1200545F8260018684E000325B540A843157905F003054E00B54028431860D2
:200B2000556805F44035002D66D000BF364D2D6E45F00105344E356635462D6E05F00105E1
:200B4000009500BF00BF4FEAB6358E0855F826008D072E0F0F25B540A843B3F1904F02D11A
:200B6000002515E048E0294DAB4201D101250FE0274DAB4201D102250AE0264DAB4201D173
:200B8000032505E0244DAB4201D1042500E007258E07360FB5402843204D8E0845F8260043
:200BA0001F4D2868A043556805F4801505B120431B4D28602D1D2868A043556805F400157A
:200BC00005B12043164D2D1D2860154D2D1F2868A043556805F4003505B12043104D2D1FF9
:200BE00028602D1F2868A043556805F4803505B120430B4D083D2860491C1568CD40002DE9
:200C00007FF435AF78BD0000001002400004004800080048000C0048001000480800014065
:200C20000804014010B5426921EA020302EA010443EA0443836110BD0AB1816100E0816271
:200C400070470000014800687047000004000010024692F8410020282DD100BF92F840007F
:200C6000012801D102207047012082F8400000BF242082F841001068006820F0010013689B
:200C800018601068006820F4805013681860106800680843136818601068006840F00100F6
:200CA00013681860202082F8410000BF002082F8400000BFD7E70220D5E710B502460B46F4
:200CC00092F8410020282AD100BF92F84000012801D1022010BD012082F8400000BF2420B5
:200CE00082F841001068006820F00100146820601068016821F4706141EA0321106801605D
:200D00001068006840F0010014682060202082F8410000BF002082F8400000BFDAE7022090
:200D2000D8E7000010B504460CB9012010BD94F8410028B9002084F84000204600F0B6F9A3
:200D4000242084F841002068006820F0010021680860606820F07060216808612068806896
:200D600020F4004021688860E068012805D1A06840F400402168886004E0A06840F4044016
:200D800021688860E068022802D18002216848602068406813490843216848602068C06832
:200DA00020F400402168C860D4E904010843A16940EA01202168C860D4E907010843216882
:200DC00008602068006840F001002168086000206064202084F841000020206384F8420057
:200DE00000BFA3E7008000022DE9F8430446894616461F46DDF8208094F84100202873D12F
:200E000000BF94F84000012802D10220BDE8F883012084F8400000BFFFF714FF05461923DD
:200E20000122D1032046009502F0EFF808B10120ECE7222084F84100102084F8420000202D
:200E40006064666267856063608DFF280CD9FF2020853C48009094F828204FF080734946F1
:200E6000204602F0B6F80BE0608D20853548009094F828204FF000734946204602F0A9F8D4
:200E80003FE02A464146204602F0EEF808B10120BCE72068406A616A0870606A401C606224
:200EA000208D401E2085608D401E6085608D40B3208D30BB4346002280212046009502F0A1
:200EC000A4F808B10120A1E7608DFF280DD9FF2020850020009094F828204FF08073494611
:200EE000204602F076F80CE02AE0608D20850020009094F828204FF000734946204602F087
:200F000068F8608D0028BCD12A464146204602F007F908B1012079E720202168C8612068CC
:200F200040680949084021684860202084F84100002084F8420000BF84F8400000BF65E7DD
:200F4000022063E70024008000E800FE2DE9F8430446894616461F46DDF8208094F841002E
:200F6000202871D100BF94F84000012802D10220BDE8F883012084F8400000BFFFF762FE2C
:200F8000054619230122D1032046009502F03DF808B10120ECE7212084F84100102084F85A
:200FA000420000206064666267856063608DFF280BD9FF2020853B48009094F82820C3022C
:200FC0004946204602F005F80AE0608D20853548009094F8282003034946204601F0F9FFEC
:200FE0003FE02A464146204602F0C5F808B10120BEE7606A007821688862606A401C6062AA
:20100000608D401E6085208D401E2085608D40B3208D30BB4346002280212046009501F040
:20102000F4FF08B10120A3E7608DFF280DD9FF2020850020009094F828204FF08073494656
:20104000204601F0C6FF0CE02AE0608D20850020009094F828204FF000734946204601F0D0
:20106000B8FF608D0028BCD12A464146204602F057F808B101207BE720202168C8612068C3
:2010800040680949084021684860202084F84100002084F8420000BF84F8400000BF67E77A
:2010A000022065E70020008000E800FE10B59EB00446142119A8FFF7E5F95C2102A8FFF7F8
:2010C000E1F91D492068884233D14020029000200E9002A800F02AFA08B1FFF79CFA00BF08
:2010E0001648C06C40F002001449C8640846C06C00F00200019000BF00BFC0201990122075
:201100001A9000201B9003201C9004201D9019A90B48FFF7A7FC00BF0848806D40F40010CC
:20112000064988650846806D00F40010019000BF00BF1EB010BD00000054004000100240A4
:201140000004004803480068034909780844014908607047040000100C00001010B50024F5
:20116000032000F0C5F80F2000F008F808B1012401E000F047F8204610BD000070B588B002
:2011800004460025002600222146372000F06EF8372000F057F800BF1648806D40F0200094
:2011A000144988650846806D00F02000019000BF00BF02A903A800F03BFC00F061FC054676
:2011C0000D48B5FBF0F0461E0C480D49086040F2E7310B48C160466000210161816001F0FB
:2011E0001BFC20B9064801F071FC08B070BD0120FBE700000010024040420F000014004034
:20120000B009001008B500BF0D48006E40F001000B4908660846006E00F00100009000BFD7
:2012200000BF00BF0846806D40F0805088650846806D00F08050009000BF00BF08BD00003A
:20124000001002400146084600280DDB00BF00BF00F01F0301229A4043099B0003F1E0232C
:20126000C3F8002100BF00BF00BF70472DE9F05F80460D461646002703F096FA074639464E
:201280002A46334601F00700C0F1070ABAF1040F02D94FF0040A01E0C0F1070AD14600F11A
:2012A000040ABAF1070F02D24FF0000A01E0A0F1030AD4464FF0010A0AFA09FAAAF1010AB2
:2012C0000AEA020A0AFA0CFA4FF0010B0BFA0CFBABF1010B0BEA030B4AEA0B0421464046D2
:2012E00003F06AFA00F000B830BCBDE8C09F000000BF00F00702064B19684FF6FF031940D5
:20130000044B0B4343EA0221014B196000BF70470CED00E00000FA050246B2F5007F2AD164
:201320001D48006800F4C060B0F5007F32D01A48006820F4C06040F40070174B18601748CB
:20134000006832235843164BB0FBF3F0411C00E0491E1148406900F48060B0F5806F01D166
:201360000029F5D10C48406900F48060B0F5806F10D1032070470848006800F4C060B0F5ED
:20138000806F07D00448006820F4C06040F48060014B18600020EDE70070004010000020F3
:2013A00040420F000248006800F4C0607047000000700040F8B50446FFF744FC06460CB931
:2013C0000120F8BD206A402800D000BF94F8410050B9002084F84000204600F04BF841F238
:2013E0008831204600F0A0F82068006820F47061A068401E41EA002021680860A06C33464A
:20140000002220210090204602F01EFA054635BB2179E06840EA0160E1690843216A084356
:2014200021680968114A1140084321680860208A616941EA0040A1690843216849680C4A06
:2014400011400843216848602068006840F001002168086000206064012084F8410000BF2C
:20146000002084F8400000BF2846AAE72FFFFF00FEF8E0FF10B586B00446142101A8FFF7B7
:2014800001F826492068884245D100BF2448006D40F48070224908650846006D00F4807049
:2014A000009000BF00BF00BF0846C06C40F00100C8640846C06C00F00100009000BF00BF0F
:2014C00000BF0846C06C40F00200C8640846C06C00F00200009000BF00BFC0200190022068
:2014E000029000200390032004900A20059001A94FF09040FFF7B6FA40F6034001900220A6
:20150000029000200390032004900A20059001A90448FFF7A7FA06B010BD0000001000A050
:201520000010024000040048816470472DE9F84304460025A846208800F40060B0F5006FB3
:2015400026D1606C68B1B0F5000F03D0B0F5400F0ED10CE0D548C06840F48030D349C860FC
:2015600008E00021201D02F0AFF9054602E001E0012500BF00BF55B9CC488830006820F483
:201580004000616C0843C949C1F8880000E0A846206800F40030B0F5003F75D14FF00009B4
:2015A000C248806D012121EA107078B100BFBF48806D40F08050BD4988650846806D00F08D
:2015C0008050009000BF00BF4FF00109B848006840F48070B6490860FFF734FB074606E099
:2015E000FFF730FBC01B022801D9032505E0B048006800F480700028F2D000BF7DBBAB48C6
:201600009030006800F44076CEB1A06DB04216D0A6489030006820F44076A448D0F8900070
:2016200040F48030A149C1F890000846D0F8900020F48030C1F890000846C0F8906006F0F4
:201640000100A8B1FFF7FEFA074609E0FFF7FAFAC01B41F28831884202D9032507E016E0B1
:2016600092489030006800F002000028EED000BF5DB98E489030006820F44070A16D0843A0
:201680008A49C1F8900003E00CE0A84600E0A846B9F1010F05D18548806D20F080508349AD
:2016A000886500BF207800F0010048B17F488830006820F00300216A08437C49C1F8880026
:2016C000207800F00200022809D178488830006820F00C00616A08437449C1F888002078D4
:2016E00000F00400042809D170488830006820F03000A16A08436D49C1F88800207800F003
:201700002000202809D169488830006820F44060E16A08436549C1F88800208800F4007071
:20172000B0F5007F09D161488830006820F44020E16B08435D49C1F88800208800F4806074
:20174000B0F5806F09D159488830006820F44010216C08435549C1F88800207800F0400077
:20176000402809D151488830006820F44050216B08434E49C1F88800207800F0800080286B
:2017800009D14A488830006820F44040616B08434649C1F88800208800F48070B0F5807F12
:2017A00009D142488830006820F44030A16B08433E49C1F88800206800F40020B0F5002F92
:2017C0001FD13A488830006820F04060A16C0843364988310860A06CB0F1006F06D1334861
:2017E000C06840F480103149C8600AE0A06CB0F1806F06D10121201D02F066F8054605B14E
:20180000A846206800F48020B0F5802F1FD127488830006820F04060E16C0843234988317E
:201820000860E06CB0F1006F06D12048C06840F480101E49C8600AE0E06CB0F1806F06D18D
:201840000121201D02F040F8054605B1A846208800F48040B0F5804F14D1144888300068DF
:2018600020F04050216D0843104988310860206DB0F1805F06D10221201D02F025F80546D7
:2018800005B1A846208800F40040B0F5004F09D106488830006820F08040616D0843034957
:2018A000C1F888004046BDE8F883000000100240007000402DE9F04104460D4614B901206D
:2018C000BDE8F0815548006800F00700A8420ED25248006820F00700284350490860084659
:2018E000006800F00700A84201D00120E8E7207800F00100002840D06068032806D14848C3
:20190000006800F00070D8B90120D9E76068022806D14348006800F4003088B90120CFE795
:20192000606830B93E48006800F0020040B90120C6E73B48006800F4806008B90120BFE708
:201940003748806820F003006168084334498860FFF778F9064608E0FFF774F9801B41F2C8
:201960008831884201D90320AAE72D48806800F00C006168B0EB810FEED1207800F00200C0
:20198000022807D12648806820F0F000A1680843234988602148006800F00700A8420ED9AE
:2019A0001E48006820F0070028431C4908600846006800F00700A84201D0012080E7207882
:2019C00000F00400042807D11548806820F4E060E168084312498860207800F008000828DF
:2019E00008D10F48806820F46050216940EAC1000B49886000F068F809498968C1F30311FF
:201A0000084A515C01F01F01C8400749086007480068FFF7B3FB0746384651E70020024036
:201A200000100240C878030810000020080000100F2202600D4A926802F0030242600B4AEF
:201A4000926802F0F0028260084A926802F4E062C260064A926802F46052D2080261044AA3
:201A6000126802F007020A6070470000001002400020024001480068704700001000002084
:201A800000B5FFF7F7FF05498968C1F30221044A515C01F01F01C84000BD0000001002406C
:201AA000D878030800B5FFF7E5FF05498968C1F3C221044A515C01F01F01C84000BD000095
:201AC00000100240D8780308F0B500230020DFF8D4C0DCF808C00CF00C01DFF8C8C0DCF82E
:201AE0000CC00CF0030719B10C291ED1012F1CD1DFF8B0C0DCF800C00CF0080CBCF1000F62
:201B000006D1DFF8A0C0DCF894C0CCF3032305E0DFF890C0DCF800C0CCF30313DFF888C016
:201B20005CF8233041B9184606E0042901D11F4802E0082900D11E480C2932D1DFF864C0DD
:201B4000DCF80CC00CF00304012C09D0022C02D0032C04D101E0154A04E0154A02E000BFB4
:201B60001A4600BF00BFDFF83CC0DCF80CC0CCF3021C0CF10106DFF82CC0DCF80CC0CCF311
:201B8000062C0CFB02FCBCFBF6F2DFF818C0DCF80CC0CCF3416C0CF1010C4FEA4C05B2FB73
:201BA000F5F0F0BD00100240E07803080024F40000127A002DE9F843044614B90120BDE80C
:201BC000F883F948806800F00C06F748C06800F00307207800F01000102877D11EB10C2EDD
:201BE00076D1012F74D1F048006800F0020018B1A06908B90120E2E7EB48216A006800F004
:201C0000080020B1E848006800F0F00005E0E6489430006800F47060000981421FD9206A22
:201C200001F016FF08B10120C9E700BFDE48006840F00800DC4908600846006820F0F0004C
:201C4000216A0843D849086000BF0846406820F47F40E16940EA0120D34948601FE000BF86
:201C6000D148006840F00800CF4908600846006820F0F000216A0843CB49086000BF084616
:201C8000406820F47F40E16940EA0120C64948602EB9206A01F0DCFE08B101208FE7FFF7FB
:201CA00013FFC1498968C1F30311C04A515C01F01F01C840BE490860BE480068FFF75EFA54
:201CC0008046B8F1000F4ED0404678E74BE0FFE7A06980B3B448006840F00100B24908603E
:201CE000FEF7B0FF054606E0FEF7ACFF401B022801D9032063E7AC48006800F0020000282D
:201D0000F2D000BFA848006840F00800A64908600846006820F0F000216A0843A24908607C
:201D200000BF0846406820F47F40E16940EA01209D49486017E0FFE79B48006820F00100BF
:201D400099490860FEF77EFF054606E0FEF77AFF401B022801D9032031E79348006800F05B
:201D600002000028F2D1207800F0010000285CD0082E03D00C2E0AD1032F08D18A48006836
:201D800000F4003088B3606878BB012017E700BF6068B0F5803F06D18348006840F48030F1
:201DA000814908601AE06068B0F5A02F0BD17E48006840F480207C4908600846006840F4C6
:201DC000803008600AE07848006820F48030764908600846006820F48020086000BF606895
:201DE00090B1FEF72FFF054607E01EE0FEF72AFF401B642801D90320E1E66B48006800F477
:201E000000300028F2D010E0FEF71CFF054606E0FEF718FF401B642801D90320CFE6624828
:201E2000006800F400300028F2D1207800F00200022852D1042E03D00C2E14D1022F12D11C
:201E40005948006800F4806018B1E06808B90120B5E65548406820F0F850217C40EA016052
:201E60005149486039E0E06800B34F48006840F480704D490860FEF7E5FE054606E0FEF7ED
:201E8000E1FE401B022801D9032098E64648006800F480600028F2D04348406820F0F85024
:201EA000217C40EA01604049486016E03E48006820F480703C490860FEF7C4FE054606E00C
:201EC000FEF7C0FE401B022801D9032077E63648006800F480600028F2D1207800F008003B
:201EE000082836D16069D0B12F489430006840F001002D49C1F89400FEF7A4FE054606E002
:201F0000FEF7A0FE401B022801D9032057E626489430006800F002000028F1D019E0224897
:201F20009430006820F001001F49C1F89400FEF789FE054606E0FEF785FE401B022801D92B
:201F400003203CE618489430006800F002000028F1D1207800F00400042872D14FF0000991
:201F60001148806D00F0805078B900BF0E48806D40F080500C4988650846806D00F08050EB
:201F8000009000BF00BF4FF001090B48006800F4807000BB0848006840F4807006490860FD
:201FA000FEF750FE054610E000100240C8780308100000200800001000700040FEF742FED9
:201FC000401B022801D90320F9E5D048006800F480700028F2D000BFA068012808D1CC4876
:201FE000006840F00100CA499039C1F8900021E0A06805280FD1C648006840F00400C44956
:202000009039C1F890000846D0F8900040F00100C1F890000EE0BE48006820F00100BC491C
:202020009039C1F890000846D0F8900020F00400C1F8900000BFA068A0B1FEF703FE054632
:2020400009E02EE0FEF7FEFD401B41F28831884201D90320B3E5AE48006800F0020000287B
:20206000F0D012E0FEF7EEFD054608E0FEF7EAFD401B41F28831884201D903209FE5A44841
:20208000006800F002000028F0D1B9F1010F07D19F489038806D20F080509D499039886553
:2020A00000BF207800F02000202838D1606AD8B197480830006840F0010095499039C1F805
:2020C0009800FEF7BFFD054606E0FEF7BBFD401B022801D9032072E58D480830006800F09B
:2020E00002000028F1D01AE089480830006820F0010087499039C1F89800FEF7A3FD0546AF
:2021000006E0FEF79FFD401B022801D9032056E57F480830006800F002000028F1D1A06A3E
:2021200000287DD0A06A02287BD179489038C76807F00301E06A814225D107F07001206B01
:20214000401EB1EB001F1ED107F4FE41606BB1EB002F18D107F078413820005DB1EBC06F8E
:2021600011D107F4C001A08F0122C2EB5000B1EB405F08D107F0C0614020005DC2EB50008C
:20218000B1EB406F66D00C2E62D061489038006800F0806008B1012011E55D489038006804
:2021A00020F080705A4990390860FEF74BFD054606E0FEF747FD401B022801D90320FEE440
:2021C00053489038006800F000700028F1D1D4E90B10401E41EA0011606B41EA0021A08F32
:2021E0000122C2EB500041EA40514020005DC2EB500041EA40613820005D41EAC0604449F0
:202200009039C968434A1140084341499039C8600846006840F0807008600846C06801E08B
:202220005BE03DE040F08070C860FEF70BFD054606E0FEF707FD401B022801D90320BEE4B3
:2022400033489038006800F000700028F1D05AE00120B4E42E489038006800F00070E0BBF6
:202260002B489038006840F080702949903908600846C06840F08070C860FEF7E3FC05461B
:2022800006E0FEF7DFFC401B022801D9032096E41F489038006800F000700028F1D032E09A
:2022A0000C2E2ED01A489038006820F080701849903908600846006800F0006020B9084695
:2022C000C06820F00300C86011489038C068124908400F499039C86000E014E0FEF7B2FCEF
:2022E000054606E0FEF7AEFC401B022801D9032065E407489038006800F000700028F1D17A
:2023000001E001205BE4002059E4000000700040901002408C809D01FFFFEEFE7047000042
:20232000F8B504462068466820688568C5F3801048B905F0010030B1C6F3801018B1204663
:20234000E16C8847F8BDC5F3400030B1C6F3C01018B12046216D8847F4E7C5F3401030B9F2
:20236000C5F3801018B9C5F3002000287CD0C6F3401000287DD0C5F38010F0B194F85D00A8
:2023800003280ED0206E40F00400206600BF002000902068C068009020688068009000BF7E
:2023A0000BE000BF002000902068C068009020688068009000BF00BFC4E7C5F3401088B119
:2023C000206E40F00100206600BF002000902068806800902068006820F040002168086018
:2023E00000BF00BFC5F3002058B1206E40F00800206600BF0020009020688068009000BF04
:2024000000BF206E78B32068406820F0E00021684860012084F85D0006F00200022802D005
:2024200006F0010008B32068406820F0030021684860A06D50B11048A16D8863A06DFEF715
:202440007BF918B1206E40F040002066606D50B10948616D8863606DFEF76EF918B1206E63
:2024600040F04000206603E003E02046FFF756FF68E700BF66E70000FD3A000870B50446E6
:202480000CB9012070BD606A38B96068B0F5827F00D105E00021E16102E0002121616161A0
:2024A0000021A16294F85D0028B9002084F85C00204600F05BF8022084F85D0020680068A2
:2024C00020F0400021680860E068B0F5E06F01D9002501E04FF48055E068B0F5706F05D0E6
:2024E000E068B0F5E06F01D00021A162A08800F48270218901F404410843217C01F00201DD
:202500000843217D01F001010843218B01F400710843217F01F0380108432021095D01F08A
:2025200080010843218D01F400510843216808600421A06901EA104094F8241001F0100174
:20254000084394F8341001F008010843A18901F47061084305F4805108432168486000207A
:202560002066012084F85D0000208BE710B586B00446142101A8FDF785FF284920688842EB
:202580004AD100BF2648006E40F48050244908660846006E00F48050009000BF00BF00BF59
:2025A0000846C06C40F00200C8640846C06C00F00200009000BF00BF28200190022002903C
:2025C0000390032004900520059001A91548FEF749FA154815490860012048601021134840
:2025E00081600021C16080210161002141618161C1610162FEF74EF908B1FEF70CF800BFDE
:202600000A486065846200BF002211462320FEF72DFE2320FEF716FE06B010BD00300140E2
:20262000001002400004004830000240000200202DE9F84F0446884616461D464FF0000AEB
:2026400000BF94F85C00012802D1022000F0E5B8012084F85C0000BFFEF7F4FA0746B14649
:2026600094F85D00012802D04FF0020ACBE0B8F1000F00D016B94FF0010AC4E0032084F89C
:202680005D0000202066C4F83880A687E6872064A4F84400A4F846002065E064A068B0F56D
:2026A000004F0BD12068006820F04000216808602068006840F480402168086020680068F9
:2026C00000F04000402805D02068006840F0400021680860E068B0F5E06F2FD9606810B16F
:2026E000B9F1010F09D1A06B00882168C860A06B801CA063E08F401EE0871BE020688068B9
:2027000000F0020002280AD1A06B00882168C860A06B801CA063E08F401EE0870AE0FEF7C1
:2027200091FAC01BA84201D3681C00B915B94FF0030A68E0E08F0028E0D14AE0606810B1DB
:20274000B9F1010F17D1E08F01280AD9A06B00882168C860A06B801CA063E08F801EE087FA
:2027600009E0A06B007821680873A06B401CA063E08F401EE08729E02068806800F00200E0
:20278000022818D1E08F01280AD9A06B00882168C860A06B801CA063E08F801EE08715E054
:2027A000A06B007821680873A06B401CA063E08F401EE0870AE0FEF745FAC01BA84201D33D
:2027C000681C00B915B94FF0030A1CE0E08F0028D2D13A462946204601F0F5F908B120203F
:2027E0002066A06850B900BF002000902068C068009020688068009000BF00BF206E08B1CE
:202800004FF0010A00BF012084F85D0000BF002084F85C0000BF504618E718BCBDE8E08FC2
:202820002DE9F04104460E461546002700BF94F85C00012802D10220BDE8F081012084F8B9
:202840005C0000BF94F85D00012801D0022782E006B10DB901277EE0032084F85D000020D0
:202860002066A663A587E58720642065E064A4F84400A4F84600A068B0F5004F0BD12068C2
:20288000006820F04000216808602068006840F48040216808603348616D08633248616DBE
:2028A000C8623248616D48630020616D88632068406820F4804021684860E068B0F5E06FB1
:2028C0001DD8606D8069B0F5806F18D1E08F00F0010048B92068406820F48040216848603A
:2028E000E08F4010E0870AE02068406840F4804021684860E08F012101EB6000E087E38FBD
:20290000D4F800C00CF10C02A16B606DFEF748F840B1206E40F0100020660127012084F808
:202920005D0018E02068006800F04000402805D02068006840F04000216808602068406864
:2029400040F02000216848602068406840F002002168486000BF00BF002084F85C0000BF2E
:20296000384669E73B3B0008493B0008133B0008034A0168914202D10021024A1170704728
:202980000030014000000020704770477047704730B502460B4600BF92F83C00012801D1CC
:2029A000022030BD012082F83C0000BF022082F83D001068416810688468154D1068A84250
:2029C00003D121F470015868014321F0700118680143106841600E4D1068A84207D010682E
:2029E000B0F1804F03D00B4D1068A84205D124F080049868044310688460012082F83D00F1
:202A000000BF002082F83C0000BF00BFC9E70000002C01400040014010B504460CB9012010
:202A200010BD94F83D0028B9002084F83C00204600F02AF8022084F83D00211D206801F03D
:202A4000C9FB012084F8480000BF84F83E0001213F20015540200155412001554220015558
:202A60004320015500BF00BF012084F8440045200155462001554720015500BF012084F8AE
:202A80003D000020CCE7000038B504460D492068884215D100BF0C48806D40F010000A49CE
:202AA00088650846806D00F01000009000BF00BF002211463620FEF7D9FB3620FEF7C2FB40
:202AC00038BD00000010004000100240014691F83D00012801D001207047022081F83D00A8
:202AE0000868C06840F001000B68D860124B0868984207D00868B0F1804F03D00F4B086867
:202B0000984210D1086880680D4B00EA0302062A0FD0B2F5803F0CD00868006840F0010001
:202B20000B68186005E00868006840F001000B6818600020D0E70000002C0140004001400C
:202B400007000100704710B5044620680069C0F34000D8B12068C068C0F34000B0B16FF0D7
:202B6000020021680861012020772068806900F0030018B12046FFF7E5FF05E0204600F001
:202B8000BEF8204600F0BCF80020207720680069C0F38000D8B12068C068C0F38000B0B1CD
:202BA0006FF0040021680861022020772068806900F4407018B12046FFF7C4FF05E02046BF
:202BC00000F09DF8204600F09BF80020207720680069C0F3C000D8B12068C068C0F3C000C0
:202BE000B0B16FF0080021680861042020772068C06900F0030018B12046FFF7A3FF05E010
:202C0000204600F07CF8204600F07AF80020207720680069C0F30010D8B12068C068C0F3CB
:202C20000010B0B16FF0100021680861082020772068C06900F4407018B12046FFF782FF08
:202C400005E0204600F05BF8204600F059F8002020772068006900F0010058B12068C068ED
:202C600000F0010030B16FF0010021680861204600F048F820680069C0F3C01058B1206895
:202C8000C068C0F3C01030B16FF08000216808612046FFF77BFE20680069C0F3002058B135
:202CA0002068C068C0F3C01030B16FF48070216808612046FFF769FE20680069C0F38010C4
:202CC00058B12068C068C0F3801030B16FF0400021680861204600F039F820680069C0F35B
:202CE000401058B12068C068C0F3401030B16FF02000216808612046FFF749FE10BD70474F
:202D00007047000010B504460D492068884202D1FEF718FA13E00B49206888420FD10120D1
:202D20002BF0F8FC08480068401C07490860C82190FBF1F201FB120008B933F009FC10BD9D
:202D4000001400400010004000000010704710B504460CB9012010BDA06900B100E000BFED
:202D6000A06F28B9002084F87400204600F02AF82420A0672068006820F00100216808609E
:202D8000204601F017FB012800D1E4E7606A10B1204601F059FA2068406820F49040216833
:202DA00048602068806820F02A00216888602068006840F0010021680860204601F0C0FA2D
:202DC000C9E7000010B59EB00446142119A8FDF759FB5C2102A8FDF755FB1D492068884285
:202DE00034D10120029000200A9002A8FEF79EFB08B1FDF710FC00BF1648006E40F48040F1
:202E0000144908660846006E00F48040019000BF00BF00BF0846C06C40F00100C864084684
:202E2000C06C00F00100019000BF00BF4FF4C060199002201A9000201B9003201C900720CD
:202E40001D9019A94FF09040FDF70CFE1EB010BD003801400010024000BFFEE70168896991
:202E6000C1F3400111B10021026891620168896901F0010129B90168896941F001010268F5
:202E8000916170472DE9F74F04460E4600272068D0F818800025DDF8089008F010001028AE
:202EA00050D12168C8613FE0701C00283CD0FDF7C9FEA0EB0900B04200D8AEBB20684068AE
:202EC00000F4804A94F842B020688069C0F3C03070B1BAF5804F0BD0BBF1200F08D02068ED
:202EE000406840F4804021684860FDF7ABFE814614E0FDF7A7FEA0EB090019280ED9606C8C
:202F000040F020006064202084F84100002084F8420000BF84F8400000BF012720688069EF
:202F2000C0F340100028E4D020688069C0F3401008B9002FB8D017B920202168C86145F0CF
:202F4000040501272068D0F8188008F48070B0F5807F06D145F001054FF480702168C861D1
:202F6000012708F48060B0F5806F06D145F008054FF480602168C861012708F40070B0F592
:202F8000007F06D145F002054FF400702168C8610127AFB12046FFF761FF206840680A4973
:202FA000084021684860606C28436064202084F84100002084F8420000BF84F8400000BF88
:202FC000384600F003B8000000E800FE1EBCBDE8E08FF0B5059CC1F309064FF47F0707EA31
:202FE00002473E431E43264326F00045066876684FF4806707EA545767F0FC2747F4C04714
:20300000BE432E4307687E60F0BD2DE9F04104460E4617461D46DDF8188019E0681CB8B14C
:20302000FDF710FEA0EB0800A84200D885B9606C40F020006064202084F84100002084F882
:20304000420000BF84F8400000BF0120BDE8F081206880693040B04201D1012000E00020F7
:20306000B842DBD00020F1E770B504460D4616464BE0324629462046FFF704FF08B101204A
:2030800070BD20688069C0F3401050B320688069C0F3800018B1208D08B10020F0E720683A
:2030A0008069C0F3001028B110202168C8610420606401E00020606420202168C861206882
:2030C00040681649084021684860202084F84100002084F8420000BF84F8400000BF01203A
:2030E000CEE7FDF7AFFD801BA84200D86DB9606C40F020006064202084F8410000BF00203C
:2031000084F8400000BF0120BAE720688069C0F380000028ADD00020B2E7000000E800FE8A
:2031200070B504460D4616461DE0324629462046FFF7A8FE08B1012070BDFDF783FD801B75
:20314000A84200D87DB9606C40F020006064202084F84100002084F8420000BF84F8400041
:2031600000BF0120E8E720688069C0F340100028DBD00020E0E770B504460D4616461FE055
:20318000324629462046FFF77DFE08B1012070BD681CA8B1FDF756FD801BA84200D87DB9B3
:2031A000606C40F020006064202084F84100002084F8420000BF84F8400000BF0120E6E72C
:2031C00020688069C0F340000028D9D00020DEE710B50A480A4908600020087100210848F9
:2031E0004171416181610120054908620846FDF749FA08B1FDF70FFA10BD00000030024046
:203200002C01002008B500BF0A48806C40F00100084988640846806C00F00100009000BFBF
:2032200000BF002211460D20FEF720F80D20FEF709F808BD0010024000B587B0142102A817
:20324000FDF720F900BF3B48C06C40F004003949C8640846C06C00F00400019000BF00BF94
:2032600000BF0846C06C40F08000C8640846C06C00F08000019000BF00BF00BF0846C06C07
:2032800040F00100C8640846C06C00F00100019000BF00BF00BF0846C06C40F00200C864C0
:2032A0000846C06C00F00200019000BF00BF01224FF402512048FDF7BFFC00224FF400411D
:2032C0001E48FDF7B9FC002240211B48FDF7B4FC4FF40050029001200390022004900020A6
:2032E000059002A91448FDF7BDFB4FF4004002900120039004900020059002A90F48FDF77E
:20330000B1FB402002900120039004900020059002A90948FDF7A6FB80200290012003909B
:2033200004900320059002A90348FDF79BFB07B000BD00000010024000080048000400485F
:2033400010B5124812490860124848600021104881600121C1600021016141618161C161C3
:203360000162FDF7DFFC08B1FDF755F900210848FDF76EFC08B1FDF74EF900210448FDF7FC
:203380009CFC08B1FDF747F910BD000000540040500100209129700010B50C480C490860D6
:2033A0000020486004210A4881601021C160182101614901416100218161C1610162FDF798
:2033C000F9FF08B1FDF727F910BD0000001000A0E008001010B51148114908604FF482709E
:2033E000486000210E4881604FF4E061C1600221016101214161490281610021C16101620C
:20340000416281620721C162002101634163FFF735F808B1FDF7FFF810BD000000300140AD
:203420009C0100200EB500200090019002900F480F4908604F20486000210D4881604FF471
:203440007A71C16080218161FFF7E6FA08B1FDF7E2F8102000900020029069460448FFF71D
:2034600097FA08B1FDF7D7F80EBD0000001000404802002010B50D480D4908604FF4E1308E
:20348000486000210A488160C16001610C21416100218161C16101620020054948620846F0
:2034A000FFF755FC08B1FDF7B6F810BD003801402C09001000BFFEE700BFFEE738B500F0BA
:2034C000E6F800F039F800F055F819490880084600884EF6167188420DD100F099F80023D9
:2034E000C3221946C02000F023F9302000900121684600F05DF900BF0E48806800F0200099
:203500000028F9D10B49C861EB2444F4407444F4406444F4005444F4404400BF44F4C01452
:2035200044F0407444F040640846446138BD00000A000020001000A010B50024022000F00E
:2035400039F8044604F0020038B900F061F844F002042146022000F06FF800230122194601
:20356000382000F0E5F801200149087010BD00000C00002038B50E48007830B10023EF227A
:203580001946902000F0D4F805E0002365221946902000F0CDF80221684600F079F89DF846
:2035A00001009DF8001040EA0124204638BD00000C00002038B50446002000900025012C56
:2035C00004D0022C04D0032C06D103E0052505E0352503E0152501E0052500BF00BF0B48CA
:2035E000007830B10023C3221946284600F0A0F805E0002341221946284600F099F801213A
:20360000684600F045F89DF8000038BD0C00002010B50848007830B10023032219460620DE
:2036200000F086F805E0002301221946062000F07FF810BD0C00002073B504460025012C48
:2036400004D0022C04D0032C06D103E0012505E0312503E0112501E0012500BF00BF0A485A
:20366000007830B10023C3221946284600F060F805E0002341221946284600F059F8012139
:2036800001A800F095F87CBD0C000020704770472DE9F04306460D4624484769D0F81880CD
:2036A000DFF8889009F12009681E2049086127F0406747F080670846C06840F00200C860F4
:2036C00008464761C0F818800EE04FF6FF720121062000F0DFF804462CB999F8000006F833
:2036E000010B6D1E00E001E0002DEED100BFD4B90E48006840F004000C4908604FF6FF72D5
:203700000121022000F0C6F8044664B90748C06840F002000549C8604FF6FF72002120201A
:2037200000F0B8F804462046BDE8F083001000A02DE9F043074688461546994600244FF66A
:20374000FF720021202000F0A5F868BB00BF00BF00BFA80944EA006444EA8944C5F30110A3
:2037600044EA0034C5F3810044EA802405F0030044EA00243C430D48446105F00C0010B157
:203780000A48C0F8188005F0C00068B94FF6FF720121022000F07EF806462EB90348C068AB
:2037A00040F002000149C860BDE8F083001000A02DE9F04306460D4622484769D0F818902B
:2037C000DFF8808008F12008681E1E49086127F0406700BF0846C06840F00200C860084600
:2037E00047610DE04FF6FF720121042000F052F8044604B106E016F8010B88F800006D1EF4
:20380000002DEFD100BFD4B90E48006840F004000C4908604FF6FF720121022000F03AF8A4
:20382000044664B90748C06840F002000549C8604FF6FF720021202000F02CF80446204627
:20384000BDE8F083001000A02DE9F04104460E4617469846069D12E0681C80B1FDF7F2F957
:20386000A0EB0800A84200D84DB9042084F84100606C40F0010060640120BDE8F08120688C
:203880008068304008B1012000E00020B842E3D10020F2E710B5034600240BE009488068F9
:2038A000184008B1012000E0002004468C4200D102E0521E002AF1D100BF0AB1002010BD48
:2038C0000120FCE7001000A02DE9F04104460F4600255B48C06800F0030090B15848C06862
:2038E00000F003002168884209D1206838B15448C068C0F30210401C6168884233D0012596
:2039000031E02068012804D0022809D003281AD10DE04B48006800F0020000B9012514E04B
:203920004748006800F4806000B901250DE04448006800F4003028B94148006800F4802072
:2039400000B9012501E0012500BF00BF5DB9D4E90010401E41EA00103949C96821F073014F
:2039600008433749C860002D67D13548006820F0806033490860FDF765F9064606E0FDF7BE
:2039800061F9801B022801D9032505E02C48006800F000600028F2D100BFC5BB67B9A068A3
:2039A0000002217B40EAC16025490969254A114008432349086120E0012F0FD1A068000244
:2039C000218A0122C2EB510140EA41501C4909691D4A114008431A4908610EE0A0680002C1
:2039E000217D0122C2EB510140EA416014490969164A11400843124908611148006840F0BC
:203A000080600F490860FDF71DF9064607E014E0FDF718F9801B022801D9032505E00848D4
:203A2000006800F000600028F2D000BF2DB904480069A1690843024908612846BDE8F081FD
:203A400000100240FF80FF07FF809FFFFF80FFF9F8B5044600262348806D00F0805018B1FD
:203A6000FDF7A0FC054616E000BF1E48806D40F080501C4988650846806D00F08050009086
:203A800000BF00BFFDF78EFC05461648806D20F0805014498865B5F5007F07D1802C10D9D4
:203AA000A02C01D902260CE001260AE0802C01D9032606E0802C01D1022602E0702C00D1B1
:203AC00001260948006820F007003043064908600846006800F00700B04201D00120F8BD7F
:203AE0000020FCE7001002400020024010B50248FEF716FC10BD00009C01002070B50546FF
:203B0000AC6A0020A4F84600E0872046FEF706FC70BD70B50546AC6A2068406820F00300D3
:203B200021684860206E40F010002066012084F85D002046FEF7F2FB70BD70B50446A56A13
:203B40002846FEF721FF70BDF8B50546AC6AFDF779F806462868006800F0200020282DD0A9
:203B60002068406820F02000216848602068406820F002002168486032466421204600F0EE
:203B800022F818B1206E40F020002066A06850B900BF002000902068C068009020688068AE
:203BA000009000BF00BF0020E087012084F85D00206E18B12046FEF7B1FBF8BD2046FEF708
:203BC000D7FE00BFF9E7F8B504460E461546334600224FF4C0512046009500F027F828B1F9
:203BE000206E40F0200020660320F8BD3346002280212046009500F099F828B1206E40F03A
:203C0000200020660320F0E7334600224FF4C0612046009500F00AF828B1206E40F0200061
:203C200020660320E1E70020DFE700002DE9FC5F04460D4616461F46DDF830900020009019
:203C4000FDF700F8A0EB0900A7EB0008FCF7FAFF8246206800F10C0B31480068C0EBC000BA
:203C600000EB8000000D00FB08F0019050E0B5F5C06F05D126B99BF8000000909DF80000D2
:203C8000781C002844D0FCF7DDFFA0EB0A00404502D2B8F1000F34D12068406820F0E000BA
:203CA000216848606068B0F5827F0DD1A068B0F5004F03D0A068B0F5806F05D12068006856
:203CC00020F0400021680860A06AB0F5005F0DD100BF2068006820F400502168086020682B
:203CE000006840F400502168086000BF012084F85D0000BF002084F85C0000BF032000F0A5
:203D000011B8019808B94FF000080198401E0190206880682840B042A9D10020EFE7000077
:203D2000100000203CBCBDE8C09F00002DE9F84F04460D4690461E46DDF82890FCF782FF22
:203D4000A0EB0900371AFCF77DFF82462C480068C0F3CB307843009045E0701C002842D087
:203D6000FCF770FFA0EB0A00B84200D2A7BB2068406820F0E000216848606068B0F5827F5F
:203D80000DD1A068B0F5004F03D0A068B0F5806F05D12068006820F0400021680860A06AC9
:203DA000B0F5005F0DD100BF2068006820F40050216808602068006840F4005021680860B8
:203DC00000BF012084F85D0000BF002084F85C0000BF032000F016B8FFE7009800B9002775
:203DE0000098401E0090206880682840A84201D1012000E000204045AFD10020EAE7000092
:203E00001000002018BCBDE8E08F2DE9F04106460F4614461D46DDF818807819401E83B254
:203E20003019401E82B23946304600F0A3F804FB05F1404600F044F9BDE8F0811FB519205C
:203E4000FCF7FCFD00224FF400413F48FCF7F4FE1920FCF7F3FD0122D1033B48FCF7ECFEF1
:203E60006420FCF7EBFD3A2000F0F6F8552000F049F9B22000F0F0F834A103C9CDE9020100
:203E8000052102A800F0FAF8022000F0C5F8B72000F0E2F8352000F035F9BB2000F0DCF8EE
:203EA000192000F02FF9C02000F0D6F82C2000F029F9C22000F0D0F8012000F023F9C3200B
:203EC00000F0CAF8122000F01DF9C42000F0C4F8202000F017F9C62000F0BEF80F2000F07D
:203EE00011F9D02000F0B8F8A42000F00BF9A12000F008F9E02000F0AFF816A090E80E00EB
:203F0000C0688DE80E0003900E21684600F0B6F8E12000F0A1F813A3D3E901021968DB6825
:203F200001AC0DC400910E21684600F0A7F8212000F092F8112000F08FF8132000F08CF8FC
:203F4000292000F089F81FBD000400480C0C003333000000D0040D11132B3F544C180D0BC2
:203F60001F230000D0040C11132C3F44512F1F1F20230000F8B507460C4615461E462248D6
:203F80000088874203D121480088854217D038128DF80000F8B28DF8010028128DF802009D
:203FA000E8B28DF803002A2000F056F80421684600F064F8144807801448058000BF144859
:203FC0000088844203D113480088864217D020128DF80000E0B28DF8010030128DF8020095
:203FE000F0B28DF803002B2000F036F80421684600F044F8064804800648068000BF2C207E
:2040000000F02AF8F8BD00000200002004000020060000200800002010B50446362000F0F0
:204020001BF834B1012C08D0022C0AD0032C10D10BE0C02000F066F80CE0A02000F062F85C
:2040400008E0002000F05EF804E0602000F05AF800E000BF00BF10BD01B50022802105487B
:20406000FCF7EAFD4FF0FF33012269460248FEF7DFFA08BD000800489C01002070B50646C8
:204080000C46012280210C48FCF7D6FD11E0B4F5803F02D34FF6FF7000E0204685B24FF052
:2040A000FF332A4631460548FEF7C2FA2E44641B00BF002CEBD170BD000800489C01002017
:2040C00070B504460D46012280210C48FCF7B4FD002009E034F81010091214F8102041EA8B
:2040E000022124F81010401CA842F3D36804020C21460348FEF794FB70BD00000008004828
:204100009C01002001B5012280210548FCF794FD4FF0FF33012269460248FEF789FA08BDCD
:20412000000800489C0100207047704700B597B0442106A8FCF7A6F9142101A8FCF7A2F9F7
:204140004FF40070FDF7E8F808B1FCF764FA012006900004079002201090032111910121D2
:204160001291142113910721149102211591169106A8FDF71FFD08B1FCF74DFA0F20019015
:20418000032002900020039004900590042101A8FDF790FB08B1FCF73EFA17B000BD0000D9
:2041A0000348006840F47000014908607047000088ED00E010B50248FEF7C5FC10BD000058
:2041C0004802002010B50248FEF7BDFC10BD0000B009001010B50268184B984202D0B0F143
:2041E000804F03D122F070024B681A43134B984208D0B0F1804F05D0114B984202D0114BCF
:20420000984203D122F44072CB681A4322F080034C6943EA040202608B68C3620B68836249
:20422000064B984205D0064B984202D0054B984201D10B6903630123436110BD002C0140A9
:20424000004001400044014090F8241001F0010139B10168496821F40031826A11430268B5
:20426000516090F8241001F00201022907D10168496821F48031C26A11430268516090F8D7
:20428000241001F00401042907D10168496821F48021026B11430268516090F8241001F096
:2042A0000801082907D10168496821F40041426B11430268516090F8241001F01001102969
:2042C00007D10168896821F48051826B11430268916090F8241001F02001202907D10168D2
:2042E000896821F40051C26B11430268916090F8241001F04001402913D10168496821F421
:204300008011026C114302685160016CB1F5801F07D10168496821F4C001426C1143026849
:20432000516090F8241001F08001802907D10168496821F40021826C1143026851607047B9
:2043400038B504460020C4F88000FCF77BFC05462068006800F0080008280CD16FF07E4003
:204360002B4600224FF400110090204600F09DF908B1032038BD2068006800F004000428F9
:204380000CD16FF07E402B4600224FF480010090204600F08AF908B10320EBE72020A0676E
:2043A000E0670020206600BF84F8740000BF00BFE0E700002DE9F84F044600200090B249CA
:2043C0002068884200D100E000BF2169A068084361690843E16940EA010A20680068AB49C6
:2043E000084040EA0A00216808602068406820F44050E168084321684860D4F818A0A24948
:204400002068884202D0206A40EA0A0A2068806820F4306040EA0A002168886000BF9C4953
:204420002068884216D19B48006800F0030030B1012808D0022804D0032808D105E0012516
:2044400007E0022505E0042503E0082501E0102500BF54E090492068884216D18D480068D8
:2044600000F00C0030B1042808D0082804D00C2808D105E0002507E0022505E0042503E041
:20448000082501E0102500BF39E084492068884216D18048006800F0300030B1102808D0BA
:2044A000202804D0302808D105E0002507E0022505E0042503E0082501E0102500BF1EE0A6
:2044C00071492068884219D17248006800F4406048B1B0F5806F0AD0B0F5006F05D0B0F53B
:2044E000406F08D105E0002507E0022505E0042503E0082501E0102500BF00E0102500BF55
:2045000061492068884245D135B1022D08D0042D08D0082D0DD109E0FDF7B2FA06460CE0BF
:204520005F4E0AE0FDF7D0FA064606E04FF4004603E000260120009000BF00BF002E0AD02B
:20454000606800EB4000B04203D860680003B04202D20120009090E04FF48070A6FB0030E5
:20456000D4F804C04FEA5C015F1840F10001624600233846FBF79AFE8146B9F5407F06D38C
:20458000B9F5801F03D22068C0F80C9075E00120009072E0E069B0F5004F3AD1092D17D25E
:2045A000DFE805F005090D160F1616161300FDF767FA064610E0FDF775FA06460CE0384EF8
:2045C0000AE0FDF781FA064606E04FF4004603E000260120009000BF00BF8EB37000616815
:2045E00000EB5100B0FBF1F9B9F1100F0ED3B9F5803F0BD24FF6F07009EA000BC9F3420055
:204600004BEA000B2068C0F80CB036E00120009033E0092D18D2DFE805F005090D170F1750
:2046200017171400FDF72CFA064611E0FDF73AFA06460DE01A4E0BE0FDF746FA064607E0C6
:204640001BE04FF4004603E000260120009000BF00BF96B1606806EB50006168B0FBF1F9F0
:20466000B9F1100F07D3B9F5803F04D21FFA89F02168C86001E00120009000206066A06693
:20468000009800F00FB8000000800040F369FFEF0038014088100240004400400048004062
:2046A0000024F40018BCBDE8E08F2DE9F04104460D4617469846069E67E0701C002864D008
:2046C000FCF7C0FAA0EB0800B04200D836BB00BF00BF216851E8001F21F4D070226842E877
:2046E00000010029F5D100BF00BF00BF2168083151E8001F21F001002168083141E8000274
:20470000002AF3D100BF2020A067E06700BF002084F8740000BF0320BDE8F08120680068A7
:2047200000F0040080B32068C069C0F3C02058B34FF400602168086200BF00BF216851E82D
:20474000001F21F4D070226842E800010029F5D100BF00BF00BF2168083151E8001F21F0D9
:2047600001002168083141E80002002AF3D100BF2020A067E067C4F8800000BF002084F879
:20478000740000BF0320C7E7FFE72068C0692840A84201D1012000E00020B8428DD00020C2
:2047A000BAE700BFFEE7000002480068C0F30220704700000CED00E010B5002804DB0A07C0
:2047C000130E054A135406E00A07140E034A00F00F031B1FD45410BD00E400E018ED00E0C2
:2047E00070B50446002508E02168481C20600878303805EB850100EB41052168087800F048
:2048000004F80028F0D1284670BD0146302903DB392901DC012070470020FCE710B54C214E
:20482000074801F09DF800222121064829F0DAFF0549086002F03CFD00200449087010BD6C
:20484000440A00108D7300086C0000206800002030B50346B1F90040B2F90050AC4202DDFE
:20486000B1F9004001E0B2F900401C80B1F90240B2F90250AC4202DDB1F9024001E0B2F9B8
:2048800002405C80B1F90440B2F90450AC4202DAB1F9044001E0B2F904409C80B1F9064079
:2048A000B2F90650AC4202DAB1F9064001E0B2F90640DC800120B3F90040B3F90450AC4214
:2048C00005DCB3F90240B3F90650AC4200DD002030BDF8B504460D4616460027B4F90000B5
:2048E000B5F90010884212DBB4F90200B5F9021088420CDBB4F90400B5F90410884206DC04
:20490000B4F90600B5F90610884200DC01270FB90020F8BD0EB90120FBE72088ADF800009E
:204920006088ADF8020032466946284600F0A7F808B90020EDE7A088ADF800006088ADF8B5
:20494000020032466946284600F099F808B90020DFE72088ADF80000E088ADF802003246C4
:204960006946284600F08BF808B90020D1E7A088ADF80000E088ADF802003246694628469D
:2049800000F07DF808B90020C3E70120C1E70246B2F90000B1F90430984213DCB2F9040015
:2049A000B1F9003098420DDBB2F90200B1F90630984207DCB2F90600B1F90230984201DBCE
:2049C000012070470020FCE7F8B504460D461646B4F90400B5F90010884211DBB4F906007E
:2049E000B5F9021088420BDBB4F90000B5F90410884205DCB4F90200B5F90610884201DD12
:204A00000120F8BD0EB90020FBE72088ADF800006088ADF8020032466946284600F02FF86F
:204A200008B10020EDE7A088ADF800006088ADF8020032466946284600F021F808B10020F6
:204A4000DFE72088ADF80000E088ADF8020032466946284600F013F808B10020D1E7A088EB
:204A6000ADF80000E088ADF8020032466946284600F005F808B10020C3E70120C1E72DE99E
:204A8000FC5F05460E4614464FF0000AB6F90000B5F90010884213DBB6F90000B5F90410E3
:204AA00088420DDCB6F90200B5F90210884207DBB6F90200B5F90610884201DC4FF0010AC0
:204AC000BAF1000F02D1002000F0A2B8002C01DC0120F9E7284614F092FC834600EBDB70D6
:204AE0004710284614F0FCFB834600EBDB704FEA6008474501DA384600E0404681464C45B3
:204B000000DD4C462888ADF800002888204400B2ADF804006888ADF802006888204400B2C5
:204B2000ADF80600002231466846FFF7A8FF80B1BDF80400204400B2ADF80400BDF8060082
:204B4000204400B2ADF806003146684626F0F3F8BAE7E888001B00B2ADF80200E888ADF8D4
:204B60000600002231466846FFF789FF80B1BDF80400204400B2ADF80400BDF80200001BEF
:204B800000B2ADF802003146684626F0D4F89BE7A888001B00B2ADF80000A888ADF80400B8
:204BA000002231466846FFF76AFF80B1BDF80000001B00B2ADF80000BDF80200001B00B273
:204BC000ADF802003146684626F0B5F87CE76888ADF802006888204400B2ADF80600002279
:204BE00031466846FFF74BFF80B1BDF80000001B00B2ADF80000BDF80600204400B2ADF882
:204C000006003146684626F096F85DE701205BE73CBCBDE8C09F10B5B1F90030B2F9004098
:204C2000A34202DAB1F9003001E0B2F900300380B1F90230B2F90240A34202DAB1F9023034
:204C400001E0B2F902304380B1F90430B2F90440A34202DDB1F9043001E0B2F904308380A1
:204C6000B1F90630B2F90640A34202DDB1F9063001E0B2F90630C38010BD00002DE9F04F98
:204C800089B0814629F036FD8246B9F1000F04D0D249D9F80C00086003E017F0A5FBCF4971
:204CA0000860CE490968D1F85C0129F015FD0646CA480068C0F85CA1C9484769002F3FD138
:204CC0001FF0EFF804461EF04DF8074600227F21384625F00AFD16F0C6FA002201460890D1
:204CE000384625F0E6FC16F0A2FE002201460890384625F0F7FD00220321384625F0CAFD71
:204D000000220321384625F0A1FD00220321384625F0A8FD00220321384625F0AFFD0022F7
:204D20000321384625F0D2FDAEA138461EF0F8FF00231A460621384620F09EFAA8484761B3
:204D4000A749086829F0C8FCB0F5967F0FD2A648006841F2883188424AD9A1484068304447
:204D60009F49486008468068401C886040E029F0C1FC9B49086099480068406840B1974826
:204D80000068406800684FF47A71B1FBF0F400E01E249348406810B90120914948609048F4
:204DA000806808B9254608E08D4880684FF47A7148438B494968B0FBF1F5002088494860D2
:204DC0008860A54200D92546854800692844844908610846C068401CC86029F071FDC0F1B6
:204DE000640B5B462A4681A138461EF0ECFF00BF8248D0F80480B8F1000F3BD11FF051F8A9
:204E000004461DF0AFFF804600227F21404625F06CFC16F028FA002201460890404625F03E
:204E200048FC16F004FE002201460890404625F059FD00220321404625F02CFD00220321E4
:204E4000404625F003FD00220321404625F00AFD00220321404625F011FD62A140461EF049
:204E60005FFF00231A460421404620F005FA6348C0F804806149086829F02EFCB0F5967F99
:204E80001CD929F037FC5D49086002A81FF008FB04990298451AAC0AA5EB84206621B0FB55
:204EA000F1FB9DF821009DF820105B462246CDE9001053A140461EF086FF00BF47490968EF
:204EC000086925F0C9FD45480068406920B143490968486925F0C0FD40490968C86925F057
:204EE000BBFD3E490968086A25F0B6FD3B480068006948B9002039490968A1F8500100BFB7
:204F000000BF09B000F08EB8344800680068007C00F0010040B1314800680068806B407B4A
:204F200010B100BF00BFECE725F0C0FF2CF004F82A480068B0F85001F0B3284800680068BD
:204F4000007CC0F34000E8B12448006817F0CAFA401E04B22148006817F05EFA401E05B251
:204F60002B460022114607A8009414F094FA07A81A4909680968896B48601848006806F024
:204F80007FF900BF4FF480711448006830301FF075FC20211148006800F598701FF06EFC8A
:204FA00000200E490968A1F850010C4800680068006A08B1094900E009E00968086807498C
:204FC000096809680B6A08490A683146984700F063F800F02BF800BF93E700003800002072
:204FE000FC0900103F000000340000202575204650530A2575252520435055003C00002014
:2050000025752E2575206B42207573656420282564202525290A2564252520667261672E61
:205020000000000030BCBDE8C08F000010B5002416E0C4EBC4000C4951F8200030B1C4EBF0
:20504000C401094A52F821001BF06EFBC4EBC401054A02EB81001C211FF019FC601CC4B2D5
:20506000042CE6DB10BD0000A00A00100146094A10680BE042688A4202D002688A4204D168
:20508000027E22F00102521C027640690028F1D170470000100000107047000010B504218A
:2050A000014800F05DFC10BD380A001010B52021014800F055FC10BD500A00102DE9FF471C
:2050C00004460D4616461F46DDE90C896FB9B8F5807F0AD1002020806080681E00B2A08070
:2050E000701E00B2E08000F0EFB800200090019002900390ADF80450ADF80A60ADF80C500A
:20510000ADF80E604B4642463946684625F046FD4B464246394601A825F040FD4B46424632
:20512000394602A825F03AFD4B464246394603A825F034FDBDF90000BDF90410884202DA4B
:20514000BDF9000001E0BDF90400BDF90810BDF90C20914202DABDF9081001E0BDF90C101E
:2051600088420BDABDF90000BDF90410884202DABDF900000DE0BDF904000AE0BDF9080055
:20518000BDF90C10884202DABDF9080001E0BDF90C00801E00B22080BDF90000BDF90410C6
:2051A000884202DDBDF9000001E0BDF90400BDF90810BDF90C20914202DDBDF9081001E0E4
:2051C000BDF90C1088420BDDBDF90000BDF90410884202DDBDF900000DE0BDF904000AE0DB
:2051E000BDF90800BDF90C10884202DDBDF9080001E0BDF90C00801C00B2A080BDF90210DF
:20520000BDF90600814202DABDF9020001E0BDF90600BDF90A20BDF90E108A4202DABDF9CC
:205220000A1001E0BDF90E1088420BDABDF90210BDF90600814202DABDF902000DE0BDF972
:2052400006000AE0BDF90A10BDF90E00814202DABDF90A0001E0BDF90E00801E00B2608096
:20526000BDF90210BDF90600814202DDBDF9020001E0BDF90600BDF90A20BDF90E108A4233
:2052800002DDBDF90A1001E0BDF90E1088420BDDBDF90210BDF90600814202DDBDF902001A
:2052A0000DE0BDF906000AE0BDF90A10BDF90E00814202DDBDF90A0001E0BDF90E00801C24
:2052C00000B2E08000BF0EE70FBCBDE8F08700002DE9F743054616460024154C29F00AFA88
:2052E0008146334629462046019A1CF0A5FC8046B8F1000F0DD100BF00BF2C273A46002183
:2053000020461FF06BFA00BF7807A062002000F011B80020A062E06918B9484629F0DCF9E2
:20532000E061E06908B90120E0612046EFE70000740A001006BCBDE8F883000010B514211A
:20534000114800F00DFB1CF029FC044600BF1CB900BF00BF00BFFEE700BF14B900BF00BFC1
:2053600010BD0A4920461CF004FD094920461CF002FD084920461CF000FD074920461CF055
:20538000F6FC00BFECE700005C0A0010AD13020895180208A31A02087513020870B50446CA
:2053A0000D46102128461FF0CCFA20680078012804D1208A2880608A68800CE02068007818
:2053C000022802D1E068686005E020680078042801D10A2068602068406820B120682946F3
:2053E0004268904701E000BF00BF70BD2DE9FE430446A66AEEB9A18A208A084401B2A18251
:20540000E18A608A084401B2E18220460DF00EFE06460EB900F089B8204611F08FFD00220D
:20542000092130461AF0E4FF6078C0F3400000B1F0E7208A10B9608A002874D00020029011
:20544000019094F83C0000F00F00032812D1304621F018FB0746304621F0A4FA80460320F1
:205460000090B4F910103B46424630460DF024F8029012E0304621F080FB0746304621F0DD
:205480000BFA80460C200090B4F9121043463A4630460DF011F8019000BF304621F053FA0D
:2054A000054605F0010028B9BDF90800002801DD0020029005F0020028B9BDF90800002896
:2054C00001DA0020029005F0040028B9BDF90400002801DD0020019005F0080028B9BDF960
:2054E0000400002801DA0020019001AA02A920462CF077FCBDF90420BDF90810304600F09B
:20550000F0FA6078C0F3400000B183E7A08ABDF80810084401B2A182E08ABDF80410084423
:2055200001B2E18200BF00BF74E706BCBDE8F8832DE9F84F0446D4F828B0BBF1000F01D1C2
:2055400000F03CB994F83C0000F00F0000B9F7E71CF0EAFF06463068477E4021584623F058
:205560009AF810B9002161832183584621F0F1FA8046584621F0F7FA054694F83C0000F024
:205580000F000C284CD1002121833DBBB4F91A00C7F164014843642190FBF1F001B26183F7
:2055A000584621F079F98146584621F0E6FA82460C200090B4F91A104B46524658460CF056
:2055C0007BFF6083B4F91A200021584600F089FA6078C0F3400000B1B2E777E020462CF067
:2055E00057FC0090002161836A4620462CF0F9FBBDF9003041F6FF72514258460DF0C6FE1D
:205600008146BDF80000484402B201230021584624F0DCFB6078C0F3400000B190E755E0D8
:2056200094F83C0000F00F0003284FD100216183B8F1000F27D1B4F91800C7F16401484336
:20564000642190FBF1F001B22183584621F0AAF98146584621F016FA824603200090B4F902
:20566000181053464A4658460CF026FF2083B4F918100022584600F034FA6078C0F34000F9
:2056800000B15DE722E020462CF0E7FB0090002121830022694620462CF0A3FBBDF9003083
:2056A00041F6FF72514258460DF0D2FD8146BDF80000484401B201230022584624F086FB11
:2056C0006078C0F3400000B13AE700BF208B002872D1608B00286FD165BB584621F04DFAEF
:2056E0008146584621F0D8F88246B9F1000F02DCBAF1000F1DDDB9F1000F0ADA01234A4600
:205700000021584624F062FB6078C0F3400080B116E7BAF1000F0CDA0123CAF1000002B22D
:205720000021584624F052FB6078C0F3400000B106E700BFB8F1000F2CD1584621F032F992
:205740008146584621F09EF98246B9F1000F02DCBAF1000F1DDDB9F1000F0ADA0123002246
:205760004946584624F032FB6078C0F3400080B1E6E6BAF1000F0CDA01230022CAF1000052
:2057800001B2584624F022FB6078C0F3400000B1D6E600BF32460B2158461AF029FE607845
:2057A000C0F3400000B1CBE694F83C0020F00F0184F83C100021A16200BFC1E618BCBDE8E1
:2057C000E08F2DE9FF4104460F4614B916F00CFE04460CB900F07EB8204616F0C9FE00B967
:2057E000F8E794F82800C0F3800010B100BF00BFF0E71FB90020A4F85001EBE70020ADF851
:205800000800ADF80A00204616F006FE401E00B2ADF80C00204616F065FE401E00B2ADF81C
:205820000E0002AA39466846FFF712F8064606B9D0E72068007CC0F3400060B1029820639A
:20584000039860630120A4F85001606810B1606829F0F2F8BEE72068806918B12068694672
:205860008269904700250BE004F1300000EBC50100226846FFF72DF800B1ABE7681C85B297
:20588000B4F85001A842EFDCB4F85001202809DAB4F8502104F1300101EBC200694613F08B
:2058A0008DFC0BE00020A4F85001B4F8502104F1300101EBC20002A913F080FCB4F850014F
:2058C000401CA4F85001606810B1606829F0B4F800BF7FE703BCBDE8FC8170B50546284685
:2058E00000F013F8044600260CE02146284600F024F806462146284600F086F820461AF071
:2059000013FF3446002CF0D170BD014609B9002070474868FCE770B5064600243046FFF76D
:20592000F4FF054605E0641C2946304600F005F80546002DF7D1204670BD02460B4610680E
:20594000001D03441868704702460B461068034418687047014609B9002070478868FCE76A
:20596000002242608260CA1C22F003010160704770B50446216801F108001EF02FFD0546F6
:20598000A5B10022294620462AF0D2FB2946204662682AF0BFFB606820B12A462046616828
:2059A0002AF0C6FB6560A06800B9A560284670BD70B50446216801F108001EF00FFD05468F
:2059C000A5B10022294620462AF0A4FB29462046A2682AF0ADFBA06820B12A462046A16868
:2059E0002AF098FBA560606800B96560284670BD014609B901207047486818B9886808B901
:205A00000120F8E70020F6E72DE9F04104460D460CB9BDE8F0812046FFF777FFA8420FD12E
:205A200029462046FFF789FF6060606810B90020A0602FE00022204661682AF079FB29E0AB
:205A40002046FFF787FFA8420FD129462046FFF77BFFA060A06810B9002060601AE0002288
:205A60002046A1682AF056FB14E029462046FFF76BFF064629462046FFF75FFF07463A46E1
:205A8000314620462AF046FB3246394620462AF04FFB00BF00BFBCE710B50446206880686D
:205AA00018B120682146826890472068006828B12068006820602046FFF7EEFF10BD0146D7
:205AC000886818B18868B0F9160070470020FCE70146886818B18868807E80097047002056
:205AE000FCE72DE9F04104460D4616461DB916B90120BDE8F08120461FF0F6FDA068008AAD
:205B0000284400B2A1680882A068408A304401B2A0684182012332462946204623F058FA3A
:205B200000220C2120461AF063FC0746012F01D03846DEE7204623F074F90120D9E7F7B543
:205B400082B004460E4614B9049805B0F0BD00BF61223146204622F065F90190019D00BF2D
:205B6000BDB12868A8B100BF62223146204622F059F901900198C0B207464FB13A462B684E
:205B80002846049998470190BDF80400ADF8100000BF0498D9E700002DE9F04F97B004461B
:205BA0008B4691469A46209D608C20F00400001D6084A4F820902A895946204622F032F95E
:205BC0001690A4F820A02A895946204622F02AF91590608C20F004006084DDE91510884298
:205BE0000CD1DDE91510884208D1BDF85800BDF85410884202D117B000F098B8A4F8209024
:205C00002A895946204622F00DF91690A4F820A0594620460FF079FC14902989149A1068BD
:205C2000169A26F0E7FF28890B2833D147F6FF711698884202D0159888422BD1204622F0EE
:205C4000D9FC009000EBD0704710204620F0BCFD009000EBD0704FEA600847F6FF71169877
:205C6000884208D1781C08F10101884200DA01E008F10100169047F6FF711598884208D1D0
:205C8000781C08F10101884200DA01E008F10100159000BF2148FFF76BFE064600BF1EB9E8
:205CA00000BF00BF00BFFEE700BF06B9A3E71698F0601598306134602889B080C6F808B093
:205CC00001A812F017FC314601A812F0D7FC144901A812F097FC1348039000BF124901A8C5
:205CE00012F0A2FCFF22002101A812F0B3FC298801A812F0A3FC698801A812F07EFCE86807
:205D0000089000BF01A9002081F8420000BF2869079001A812F0CCFC00BF6CE7680A0010B9
:205D2000B9650308676803089167030830BCBDE8C08F000010B514210148FFF711FE10BD68
:205D4000680A00102DE9FE4F04460F4690464FF0000900254CE1E06800EBC5004068C0F3FC
:205D6000406000B143E1E16801EBC501496821F07F4024F037FE064626EA070008B90120A4
:205D800000E00020029026EA080008B9012000E000200190DDE90101814270D0E06850F88B
:205DA00035A04FF0000B6A461021504626F0C8FA10B14FF0010B98E06A461121504626F063
:205DC000BFFA10B14FF0010B8FE06A461221504626F0B6FA10B14FF0010B86E06A461321FA
:205DE000504626F0ADFA10B14FF0010B7DE06A461521504626F0A4FA10B14FF0010B74E057
:205E00006A461421504626F09BFA10B14FF0010B6BE06A460A21504626F092FA10B14FF0F2
:205E2000010B62E06A466A21504626F089FA10B14FF0010B59E06A466B21504626F080FA03
:205E400010B14FF0010B50E06A460121504626F077FA10B14FF0010B47E06A460421504679
:205E600026F06EFA10B14FF0010B3EE06A460221504626F065FA18B14FF0010B35E0B5E0DE
:205E80006A460321504626F05BFA10B14FF0010B2BE06A460521504626F052FA10B14FF048
:205EA000010B22E06A460621504626F049FA10B14FF0010B19E06A463221504626F040FA20
:205EC00010B14FF0010B10E06A466D21504626F037FA10B14FF0010B07E06A466C215046E5
:205EE00026F02EFA08B14FF0010BBBF1000F02D0032000F085B86A466821504626F020FA84
:205F000010B14FF0020970E06A466921504626F017FA10B14FF0020967E06A466D21504609
:205F200026F00EFA10B14FF002095EE06A466C21504626F005FA10B14FF0020955E06A4622
:205F40003721504626F0FCF910B14FF002094CE06A463821504626F0F3F910B14FF0020965
:205F600043E06A463521504626F0EAF910B14FF002093AE06A464021504626F0E1F910B1EC
:205F80004FF0020931E06A464521504626F0D8F910B14FF0020928E06A464121504626F042
:205FA000CFF910B14FF002091FE06A464221504626F0C6F910B14FF0020916E06A4643217C
:205FC000504626F0BDF910B14FF002090DE06A464921504626F0B4F910B14FF0020904E005
:205FE000B9F1000F01D14FF0010900BF00BF6D1C608CC0F3C500A8423FF6ADAE484678E7FB
:206000001EBCBDE8E08F000001480068704700003800002010B503482AF08DF9024829F0BF
:206020007BFE10BDFC0900103C0000200146C1F30412072A00DD0722D0B2704701464FF69C
:20604000FF70814201D11F20704709B90020FBE7702902DA0948405CF6E7A1F1700081B20E
:206060000748006838B107480068814203D204480068405CE8E70020E6E70000B27C0308EC
:20608000840000209400002010B518210348FFF767FC012028F0E2FB10BD0000140A0010F5
:2060A0002DE9F04105460F4616460DB9BDE8F0812846FAF796F98046394628460A4A126852
:2060C00090470746E8193146074A1268904706463C4603E0A019285C2855641CA8EB0600FE
:2060E000A042F7D200BFE1E7900000102DE9F04106460C4617461D4629463046084A126878
:2061000090472060206830B1296888190021044A1268904700E000203860BDE8F08100001F
:20612000880000102DE9F04F87B004460F4692469846DDE910560DB1002028801CB900203F
:2061400007B000F085B8207808B90020F8E70FB90020F5E74FF0000906F0020010B906F040
:20616000040098B1002000E0401C215C0A2905D0215C0D2902D0215C0029F5D1215C01B1D1
:20618000401C15B14FF0FF312980D9E706F0020008B141F6FF7800200690059038E0002023
:2061A0000490059808B9012000E0002006A904AACDE90062CDE90210059960184346524658
:2061C000394628F0FBFD83460498A8EB00000FFA80F8049848440FFA80F9BBF1000F00D181
:2061E0001CE005985844059020780A2802D020780D2800D112E00598205C0A2803D00598EE
:20620000205C0D2803D10598401C059006E000BF0598205C10B1B8F1000FC0DC00BF05983C
:2062200070B905A92046094A12689047834635B10022594638461AF051FA0FFA80F900BFF9
:206240000DB1A5F8009005987AE700008800001030BCBDE8C08F00002DE9F0470646884676
:20626000174606B10FB9BDE8F0873046FAF7B9F881463846FAF7B5F8044604B9F3E704EB5B
:20628000090A414630460B4A126890478046554603E0281B305C70556D1E08EB0400A84204
:2062A000F7D906EB0800224639461EF04EF900BFD9E7000090000010024600200FA31B780D
:2062C0008B4211D113781BB90123137001200BE01378012B02D10023137005E01378022B30
:2062E00002D10023137001201378012B04D1202901D10223137001207047000023000000BA
:2063000073B582B0064603980190324600210846019B29F07BF80546002001900024681CF8
:206320001EF05CF8044600BF1CB900BF00BF00BFFEE700BF14B9002004B070BD0020605599
:206340003246691C2046039B29F060F82046F3E72DE9F04781460E4614461F46DDF820A0CF
:2063600035461BE0600800FB075529464846D047B0F1000809DD04F0010080F00100C0EB34
:206380005404E8190546064608E0B8F1000F02DA6408354602E02846BDE8F087002CE1D160
:2063A0000020F9E72DE9FF4F8BB0074600250C9800B9FA4FEAE20E98007825280AD02A46A5
:2063C0006D1C0E990878DDE90C13B8470E98401C0E90DBE20E98401C0E90002400BF0E98A3
:2063E00000782B2819D004DC20281ED023282CD123E02D2809D0302827D144F001040E982B
:20640000401C0E9001200A9022E044F002040E98401C0E9001200A901AE044F004040E9854
:20642000401C0E9001200A9012E044F008040E98401C0E9001200A900AE044F010040E9842
:20644000401C0E9001200A9002E000200A9000BF00BF0A980028C2D180460E990878FEF72E
:20646000D4F920B10EA8FEF7BBF9804612E00E9800782A280ED1189901C91891002804DAEE
:2064800044F00204C0F1000800E080460E99491C0E9100BF4FF000090E9800782E281FD14D
:2064A00044F480640E98401C0E900E990878FEF7ACF920B10EA8FEF793F9814610E00E98FA
:2064C00000782A280CD1189901C91891002801DD014600E0002189460E99491C0E9100BF6A
:2064E0000E9800786C280AD004DC682816D06A2835D128E0742820D07A2830D129E044F4AA
:2065000080740E98401C0E900E9800786C2804D144F400740E98401C0E9021E044F080045B
:206520000E98401C0E900E980078682804D144F040040E98401C0E9012E044F480740E985C
:20654000401C0E900CE044F400740E98401C0E9006E044F480740E98401C0E9000E000BFB8
:2065600000BF0E98007869281DD00EDC622821D006DC25287ED050281AD058287BD115E0BB
:20658000632879D06428F9D10CE0732875D004DC6F280ED07028F1D109E0752804D078285C
:2065A000ECD102E000BF00BF00BF00BF00BF00BF00BF00BF0E980078782803D00E98007895
:2065C000582801D1102623E00E980078702803D00E98007850280CD1102644F0100444F47E
:2065E00080740E984078562812D10E98401C0E900EE00E9800786F2801D1082608E00E9817
:206600000078622801D1022602E00A2624F010040E980078582803D00E980078502801D16B
:2066200044F020040E980078692805D00E980078642801D024F00C0404F4806008B124F03A
:2066400001040E980078692803D00E98007864287CD104F40070B8B31898C01D20F0070045
:206660001890D0E900AB189A083218920020CDE9069803E073E17CE1F2E01CE1CDE9046087
:206680000894BAEB00017BEB000001DA012000E00020002102900846B1EB0A0170EB0B0048
:2066A00002DA5046594605E000200146B0EB0A0061EB0B01CDE900012A463846DDE90C13F6
:2066C00000F04DFA0546C7E0FFE704F48070D0B1189850F804AB18904FEADA70CDE903981F
:2066E00002960594BAF1000F01DD514601E0CAF10001CDE900102A463846DDE90C1300F014
:20670000EDF90546A8E004F0400028B1189810F8041B1890C8B20DE004F0800028B11898D0
:2067200030F8041B189008B204E0189800681899091D189182464FEADA70CDE90398029600
:206740000594BAF1000F02DD514602E00BE0CAF10001CDE900102A463846DDE90C1300F05E
:20676000BDF9054678E00E980078562818D1189850F804AB1890DAF8040000680990099874
:206780000090DAF800300D98421B0C9841193846FFF708FE0544002009905DE0256C000815
:2067A00004F40070D0B11898C01D20F00700CDE90698089418900020CDE904600290189937
:2067C00003C9189A08321892CDE900012A463846DDE90C1300F0C3F905463DE004F48070D1
:2067E00098B10022CDE9039802960594189800681899091DCDE9000218912A463846DDE9A8
:206800000C1300F06BF9054626E004F0400028B1189810F8041B1890C8B20DE004F080004D
:2068200028B1189830F8041B189088B204E0189800681899091D189182460020CDE900A0EC
:20684000CDE90398029605942A463846DDE90C1300F044F9054600BF0E98401C0E9093E099
:20686000012604F0020050B905E02A466D1C2020DDE90C13B8473046761C4045F5D31899EA
:2068800011F8043BD8B22A466D1C1891DDE90C13B84704F0020050B105E02A466D1C20208B
:2068A000DDE90C13B8473046761C4045F5D30E98401C0E9068E0189850F804AB18905046D2
:2068C000B9F1000F01D0494601E04FF0FF310A46014600E0491C0B781BB1131EA2F101025D
:2068E000F8D10E1A04F4806028B14E4501D2304600E04846064604F0020050B905E02A460C
:206900006D1C2020DDE90C13B8473046761C4045F5D306E01AF8010B2A466D1CDDE90C1393
:20692000B8479AF8000040B104F480600028F1D0B9F10000A9F10109ECD104F0020050B112
:2069400005E02A466D1C2020DDE90C13B8473046761C4045F5D30E98401C0E9014E02A46DC
:206960006D1C2520DDE90C13B8470E98401C0E900AE02A466D1C0E990878DDE90C13B847D7
:206980000E98401C0E9000BF00BF00BF0E98007800287FF410AD0D98854201D2284601E016
:2069A0000D98401E02460020DDE90C13B84728460FB000F000B830BCBDE8C08F2DE9FF4F6F
:2069C00085B08346DDE9158ADDE91349DDE91775129E05F00200F8B94FB105F0010030B1B1
:2069E000B9F1000F02D105F00C0000B17F1E03E030222046641C3254544501D2202CF7D399
:206A000003E030222046641C325405F0010018B1BC4201D2202CF4D305F01000B0B305F4D1
:206A2000806050B94CB1544501D0BC4205D1641E1CB1B8F1100F00D1641EB8F1100F09D126
:206A400005F0200030B9202C04D278222046641C325415E0B8F1100F09D105F0200030B183
:206A6000202C04D258222046641C325408E0B8F1020F05D1202C03D262222046641C325485
:206A8000202C03D230222046641C3254202C16D2B9F1000F04D02D222046641C32540EE0AD
:206AA00005F0040020B12B222046641C325406E005F0080018B120222046641C3254CDE943
:206AC0000275CDE90064584606A90EC900F0ABF809B000F000B830BCBDE8C08F2DE9FF4FC9
:206AE0008FB08046DDE91FABDDE91D96219D1C9C00270CB925F0100505F4806000B1E4B1DD
:206B000000BFB4FBF6F106FB1141C8B20A2802DA00F1300107E005F0200109B1412100E02A
:206B2000612101440A39CBB239467F1C07AA5354B4FBF6F40CB1202FE3D307A8CDE904ABED
:206B40008DE8810203960695404610A90EC9FFF735FF13B000F000B830BCBDE8C08F2DE968
:206B6000FF4F8FB0DDE9217BDDF89080209EDDE91C454FF00009002184EA01006940084390
:206B800001D128F0100808F4806028B1002184EA0100694008432DD000BF32463B4620469F
:206BA0002946F9F783FB02F0FF0ABAF10A0F02DA0AF1300007E008F0200008B1412000E039
:206BC000612050440A38C2B2484609F1010907A90A5432463B4620462946F9F767FB0446E0
:206BE0000D46002184EA01006940084302D0B9F1200FD2D32398CDE9036BCDE9050807A91C
:206C00001E98CDE9001902900FA80FC8FFF7D6FE13B000F000B830BCBDE8C08F9A4200D20C
:206C20008854704770472DE9FF5F05461446DDE90EA6DDE91087A34607F0020078B907F010
:206C4000010060B9B14607E02246641C2020039B0199A84709F10109C145F5D300BF08E074
:206C60002246641C711E0E461AF80100039B0199A847002EF4D107F0020050B105E02246D5
:206C8000641C2020039B0199A847A4EB0B004045F5D3204604B000F000B830BCBDE8C09F74
:206CA0002DE9FF4F84B088469146DDF858C011990391129902910020CDE0DDF84CA00AFB9B
:206CC00000FADDF80CB00BEB2A2ACDF844A0DDF850A00AFB00FADDF808B00BEB2A2ACDF8D6
:206CE00048A0DDF844A04FEA2A21DDF848A04FEA2A22002905DB414503DA002A01DB4A452C
:206D000004DB4FF0000A0CF800A0A2E0DDF844A00AF0FF03DDF848A00AF0FF04802B06DA2B
:206D20004FF0FF35C3F17F0A4FEA4A0304E00125A3F1800A4FEA4A03802C06DA4FF0FF366F
:206D4000C4F17F0A4FEA4A0404E00126A4F1800A4FEA4A04049FDDF81CA002FB0A1A5744CD
:206D600001EB050ABAF1000F46DB01EB050BA8F1010AD34540DC02EB060ABAF1000F3BDB9C
:206D800002EB060BA9F1010AD34535DC97F800A017F805B0CDF804B0DDF81CB006FB0BFB13
:206DA00017F80BB0CDF800B0DDF804B0D3450BD0DDF804B00BFB04FBC4F5807E0AFB0EBB05
:206DC000CBF3072BCDF804B0DDF800B0D3450BD0DDF800B00BFB03FBC3F5807E0AFB0EBBC5
:206DE000CBF3072BCDF800B0DDE900EBF3444FEA6B0B0CF800B02BE009B9002D05DBA8F170
:206E0000010A8A450CD1002D0ADD97F800A0C3F1FF0B0AFB0BFACAF3072A0CF800A017E027
:206E20000AB9002E05DBA9F1010A92450CD1002E0ADD97F800A0C4F1FF0B0AFB0BFACAF35E
:206E4000072A0CF800A003E04FF0000A0CF800A000BF411C08B215998842FFF62EAF08B0B5
:206E600000F000B830BCBDE8C08F2DE9F04104460E46002774B13146204600F02DF805461C
:206E8000B5F5004F05D20C2D01D9284600E00C20074600BF3846BDE8F081024600BF481E88
:206EA000084018B100BF00BF00BFFEE700BF481E1040101A704710B502464B1E13444C1E12
:206EC00023EA040000BF4B1E0B401BB100BF00BF00BFFEE700BF10BD024600BF481E0840FF
:206EE00018B100BF00BF00BFFEE700BF481E10444B1E9843704700002DE9F04780460E46CC
:206F0000444601206086002500270DE056F8270028A1F9F7DFFA10B1681C85B202E0608E54
:206F2000401C6086781C87B256F8270020B156F8270000780028E9D1208EA84201D1BDE81E
:206F4000F087A06A20B1A06A19F0EEFB0020A062E06A20B1E06A19F0E7FB0020E062E80027
:206F60001DF03CFAA06200BFA06A18B900BF00BF00BFFEE700BF68001DF030FAE06200BFB1
:206F8000E06A18B900BF00BF00BFFEE700BFA06A08B1E06A00B900254FEA450AD4F82C90FA
:206FA0005246002148461DF019FC00BF258600BFC5E700000A0000002DE9F84F81460E4611
:206FC000924699F8090000F00700022801D1304600E050468346564501DD304600E0504632
:206FE0000746032000EB470020F0030000F110053948006839490968A0EB0108002405EB52
:20700000080037490968884206D233480468606820F0004060603AE031480068854221D85B
:2070200013E04FF0FF300090002269462D4810F0FCFC002269462C4810F0F7FC2648006813
:2070400026490968A0EB010800BF08EB0500244909688842E5D820480468606820F00040B4
:20706000606014E028461DF0B9F9044600BF1CB900BF00BF00BFFEE700BF14B9002000F093
:2070800035B8606820F0004000F10040606032465946484602F0ABFC2060606800F0404004
:2070A000401C6060606820F080406060A781A4F80EB06068C00F20B1204600F11001A16009
:2070C00008E0054800681030A060034800682844014908602046D2E75C00002080000020C7
:2070E000580000200F300108AB7A010818BCBDE8E08F0000F0B585B006460D4634460020A7
:2071000004900390029065480088A84202D0FF20634908706148058094F83C0000F0030099
:2071200020B1012838D0022866D000BF94F83C0000F003005A49097888421BD02620005DF7
:2071400000EB001000EB4000142190FBF1F0554908702720005D00EB001000EB4000142153
:2071600090FBF1F05049087094F83C0000F003004B49087002A803A9CDE9001005EB450179
:207180004FF6FF7202EA410004AB47490A78454909780BF0BFFB5FE094F83C0000F003008D
:2071A0003F49097888421AD0A08C00EB400040024FF4B471B0FBF1F03C4908802720005DD4
:2071C00000EB001000EB4000142190FBF1F03649087094F83C0000F003003149087002A89A
:2071E00003A9CDE90010E9B204AB2F4802782F4800880BF08FFB2FE094F83C0000F0030094
:207200002749097888421AD0A08C00EB400040024FF4B471B0FBF1F0244908802620005DA4
:2072200000EB001000EB4000142190FBF1F01D49087094F83C0000F003001949087002A86A
:2072400003A9EAB204ABCDE9001016480178174800880BF05FFB00BF00BF9DF810009DF8A6
:207260000C109DF80820D708BDF8003067F304038F080093BDF8003067F34A13C7080093E8
:20728000BDF8003067F3CF230093BDF800703B460193BDF80410084605B0F0BDE80000206F
:2072A000E6000020E4000020E5000020E200002010B50120074908700748FEF726FB20B9D1
:2072C0000648006827F0ACFB03E00448006827F0B3FB10BD68000020440A00106C0000209F
:2072E00010B5044694F8480000F0010070B9B4F8400000280ADDB4F840004FF6FF7188422B
:2073000004D0B4F84000401EA4F84000B4F84000D0B9A06B20B194F8480000F0010098B114
:2073200021461948FEF770FBFFF7C2FFE06810B12046E1688847206910B1204621698847DE
:20734000204619F0F1F91EE0E06B40422063A06BC8B194F8481001F0010111B9616B49420A
:20736000216394F84810C94394F8482061F3000284F84820206AA16A2162A062E06AA16BFB
:20738000E162A06300BF10BD440A00102DE9F04180464148007880F001003F4908703F48B7
:2073A000FEF7B3FA044673E0606C27F095F9064627F0A0F9606400203949087094F848006F
:2073C000C0F3400034490978884253D0324801783034207E61F34100207620688719207EE9
:2073E000303CC0F3800010BB206B00281FDC002F1DDB94F8420000F0010060B9606950B1AC
:207400002046616988470546206A28442062A06A2844A06200BFA06810B12046A16888476C
:2074200094F8480020F00400001D84F84800206B30442063206B00281BDBD4E90B108842B6
:2074400001DDE06A20632046E16988470546606AA84206D06562606818B12946D4E90002A7
:207460009047D4E90B10884202DB2046FFF738FF00BF00BF0A48007820B10848FEF745FA86
:20748000044604E021460548FEF757FA044600BF002C89D1BDE8F08169000020440A001038
:2074A0006800002070B504460D46606818B129466068FFF7F7FF206818B12946204622681E
:2074C000904770BD70B505460C4626682068006858B120688069C0F3005030B1206800681A
:2074E000206021462846FFF7EDFF266021462846FFF7D8FF70BD70B505460C46A1B228467D
:2075000011F089FD70BD70B505460C46A1B2284611F081FD70BD70B505460C46A1B2284605
:2075200011F0CAFD70BD00002DE9F04F95B00446002570E03A48006811F040F9824650467B
:2075400022F018FC14F050FF834614F065FF064600EBD670411006202AF060FA0FFA80F898
:2075600014F042FF834614F057FF074600EBD770411006202AF052FA0FFA80F942464946AE
:20758000504622F056FF4FF40032214650461DF0F5FD244900202AF041FA064613F03DFF10
:2075A0004FF4003201460090504623F066F80021504611F081FDFA2132202AF02FFA1490EE
:2075C00001A810F097FF514601A811F05DF8164901A811F01FF84FF496711E202AF01EFAFC
:2075E000064640F26712314601A811F043F801A8149911F029F801A8149911F013F84FF619
:20760000FF7101A811F015F801A811F051F850460BF022F96D1C082D8CD315B000F006B814
:2076200068080010F0FFFF000775000830BCBDE8C08F000010B50A4825F012F90D210848C3
:2076400025F051F90748007808B17F2000E0FF200146034825F033F90148FFF765FF10BD6A
:20766000600100106801001010B50A4825F0F8F80221084825F037F90748007808B17F202D
:2076800000E0FF200146034825F019F90148FFF74BFF10BD60010010680100102DE9FF4F8E
:2076A0008FB01F46DDF888801C980E901D980D9000200B902398042806D0052809D00628F9
:2076C0000CD014281AD114E000200C904FF0020917E001200C904FF0030912E001200C90FF
:2076E0004FF00209FEF790FC05462868808E0B9007E001200C904FF0020902E013B000F0B8
:2077000093B900BF002489E11E9860430E9901EB20201C901F9860430D9901EB20201D901F
:207720001C9805121D980612002D07DB1098854204DA002E02DB1198864203DB002008F8DB
:20774000040069E11C98C0B20A901D9800F0FF0A0A98802807DA4FF0FF3B0A98C0F17F00F7
:2077600040000A9005E04FF0010B0A98803840000A90BAF1800F07DA4FF0FF300990CAF1EE
:207780007F004FEA400A05E001200990AAF180004FEA400A0F98089006FB07F000FB09F07F
:2077A00005FB090108980844089005EB0B0000287EDB05EB0B011098401E814278DC099805
:2077C00030440028F4DB099831181198401E8142F4DC0898079008980BFB0900069009989D
:2077E00000FB07F1089801FB090005900C9800287FD0239B052B06D1079B9878059B997819
:20780000069B9A783BE0239B142B18D1DDF844C007FB0CFCDDF83CE00EEB4C0306FB073C54
:207820001CF8050006FB073CAC441CF80B20DDF824C0B4440CFB073C1CF805101FE0239BDB
:20784000062B19D1079B1B88BDF82CC063450BD0059B1B88BDF82CC0634505D0069B1B88FF
:20786000BDF82CC0634503D1002308F80430D3E0FF20FF21FF2202E0FF20FF21FF2281427C
:2078800007D001FB0AF3CAF5807C00FB0C33C3F30721824209D00A9B5343DDF828C0CCF5EF
:2078A000807C00FB0C33C3F307228B185B1000E059E008F8043018F8043003B9ACE0079B2A
:2078C00093F800C05B780CEB03239BB20493059B93F800C05B780CEB03239BB20393069B2A
:2078E00093F800C05B780CEB03239BB202930CE0FFE7079800880490069800880290059889
:2079000000880390FF2008F80400BDF81000BDF80C1088420CD1BDF81000BDF80810884290
:2079200006D1219800EB4400BDF81010018019E00AF0FF02DDE9030113F0CAFE03900A9874
:20794000C2B20499029813F0C3FE02907F22DDE9020113F0BDFE0190219800EB4400BDF8D0
:207960000410018057E008990A78497802EB01218AB2219921F814202399052904D0062918
:2079800005D0142919D10EE00899887817E0219931F81410BDF82C20914201D1002100E0B7
:2079A000FF2108460BE0119A07FB02F10F9A02EB410106FB0711485D01E0FF2000BF00BFBA
:2079C00015B9BBF1000F06DB1099491EA9420BD1BBF1000F08DD0A99C1F1FF014143C1F339
:2079E000072108F8041015E016B90999002906DB1199491EB1420AD10999002907DDCAF192
:207A0000FF014143C1F3072108F8041002E0002108F8041000BF00BF601C04B220988442AD
:207A2000FFF672AE00BF69E630BCBDE8C08F2DE9F84F04468C4690469946109FDDE90A5640
:207A4000AA460096002032E00C9941430AEB21250D994143DDF800B00BEB21262A1233129D
:207A6000002A05DB624503DA002B01DB434502DB0021395419E0214603FB09FB0BEB4B0BB0
:207A800002EB420EF344594491F800B091F801E00BEB0E2B1FFA8BFEDDF83CB02BF810E08D
:207AA00091F802B007F800B000BF411C08B20E998842C9DB00F000B818BCBDE8E08F000061
:207AC00030B593B004462546A88F18B9204628F03DFD1EE0684610F00DFD2946684610F036
:207AE000D1FD0D49684610F093FDA98F684610F0A9FD01220021684610F0B8FD07496846F3
:207B000010F08CFD0648039000BF684610F0D0FD00BF13B030BD0000DB050308DF850108FA
:207B2000DD050308F8B514F05FFC04464C48007850B94C4821680863206840694A49086039
:207B40004A482168486131E045480078012807D1206840694449086044482168486125E061
:207B60003F480078022821D13E4821680863404821680862206840693B4908603B482168CC
:207B80004861606838B1606800683A4908600221606826F054FF10F0A7FC0546364928681F
:207BA00008600221284626F04AFF00BF23F094FC0646304622F0DEF80022FF21304622F097
:207BC00094FD30461BF0CEF82C490860042211462A48006822F0DBFB29A1284800681CF003
:207BE0009FF830461BF0BEF826490860002003460D22009021480168224800681DF04EFBBE
:207C00001FA1204800681CF08BF830461EF098F81D4908600846006822F0ACF830461EF073
:207C2000D3FD18490968498B401A001F05B2304620F0E0FC07462A4639461348006822F02B
:207C4000F8FB00231A4605210F4800681DF014FB0E4824F079FC304622F0FEFEF8BD000095
:207C60005C0100106118030874010010F522010831FD0208780100107C0100106C0800109C
:207C80000000000070080010680800106001001070B504460D4600BF204600F03BF818B198
:207CA00000BF00BF00BFFEE700BF284600F050F9001D616808446060204600F03AF820465C
:207CC00070BD70B505460C46284600F041F904F11001884201D3012070BD0020FCE70146E1
:207CE000A1F1080070477CB505460C46204600F02FF906466A4601A927F0C7FF214628468F
:207D0000DDE900320FF0ECF97CBD0146087900F00100704710B50446204600F019F908B9A6
:207D2000012010BD0020FCE70146087900F00200704770B50446204600F097F805462C60B6
:207D4000284670BD7CB506460C4600200190009000256CB16A4601A9204627F0B3FF019814
:207D6000092805DA6A4601A930462AF0C7F9054685B100BF284600F0EBF8A04203D200BF52
:207D800000BF00BFFEE700BF29463046DDE9003229F02DFD28467CBD70B504462046FFF72F
:207DA000C8FF0546284600F0BEF8204600F0B6F870BD70B50446204600F057F8054628469F
:207DC00000F0B6F8204600F0BEF870BD70B506460D46284600F049F8044600BF1CB900BFCC
:207DE00000BF00BFFEE700BF2046FFF78EFF90B100BF2846FFF78EFF18B100BF00BF00BF81
:207E0000FEE700BF2146304600F076F821462846FFF73EFF0546284670BD70B506460D46D1
:207E20002846FFF781FFF0B1284600F057F8044600BF1CB900BF00BF00BFFEE700BF00BF92
:207E40002046FFF762FF18B900BF00BF00BFFEE700BF2146304600F04FF829462046FFF7D4
:207E600017FF054600BF284670BD2DE9F0410446204600F06DF8061F204600F0B8F8074683
:207E8000314628F02FFA054600BF2046FFF742FF18B100BF00BF00BFFEE700BF2846BDE8C6
:207EA000F0812DE9F04106460C461546002794B100BF1DB900BF00BF00BFFEE700BF2A46BF
:207EC0002146304600F097F82046FFF772FF204600F08DF807463846BDE8F08110B50446AE
:207EE00000BF2046FFF720FF18B900BF00BF00BFFEE700BF206810BD7CB505460C4620460D
:207F000000F026F806466A4601A927F0BEFE21462846DDE9003229F06AFC7CBD416841F07B
:207F2000010141607047416841F0020141607047416821F0020141607047426802F00303FB
:207F40000B4343607047416821F00101416070470146486820F0030070472DE9F04706460B
:207F60000C46304600F043F88046211F28F0BAF907463046FFF7ECFF211D451A00BF3846BF
:207F800000F035F88146384600F031F880460421FEF791FF814503D000BF00BF00BFFEE73B
:207FA00000BF00BF3046FFF7D3FF2919091D884203D000BF00BF00BFFEE700BF2946384632
:207FC000FFF7BBFF00BF3846FFF7C2FF0C2803D200BF00BF00BFFEE700BF21463046FFF740
:207FE000ACFF3846FFF7D8FE3846BDE8F087014601F1080070472DE9F04106460C461546BA
:2080000000BF2046FFF781FE18B900BF00BF00BFFEE700BF29462046FFF753FE78B1294660
:208020002046FFF79AFF07462046FFF782FE3846FFF779FF39463046FFF755FE00BFBDE894
:20804000F0812DE9F04106460C46154600BF2046FFF75BFE18B100BF00BF00BFFEE700BF51
:2080600029462046FFF72DFE88B129462046FFF774FF07463846FFF75BFF39463046FFF78D
:20808000A5FE074639463046FFF72DFE00BFBDE8F081000010B50A4824F0E2FB0321084889
:2080A00024F08EFC0748007808B17F2000E0FF200146034824F066FC014828F097FA10BD3D
:2080C000600100106801001010B50D4824F0C8FB47F6FF710A4824F04BFE0321084824F0E1
:2080E0006FFC0848007808B17F2000E0FF200146034824F047FC024828F078FA10BD00006C
:20810000600100106801001010B50E4824F0A8FB08210C4824F02CFE03210A4824F050FC12
:208120000948007808B17F2000E0FF200146054824F028FC0421034824F038FC014828F03A
:2081400055FA10BD600100106801001010B50E4824F086FB08210C4824F00AFE03210A485A
:2081600024F02EFC0948007808B17F2000E0FF200146054824F006FC0C21034824F016FC59
:20818000014828F033FA10BD600100106801001010B50C4824F064FB08210A4824F0E8FD9A
:2081A0000321084824F00CFC0748007808B17F2000E0FF200146034824F0E4FB014828F02B
:2081C00015FA10BD600100106801001010B50E4824F046FB08210C4824F0CAFD03210A489B
:2081E00024F0EEFB0948007808B17F2000E0FF200146054824F0C6FB0321034824F0D6FBA5
:20820000014828F0F3F910BD600100106801001010B50E4824F024FB08210C4824F0A8FDD6
:2082200003210A4824F0CCFB0948007808B17F2000E0FF200146054824F0A4FB0221034818
:2082400024F0B4FB014828F0D1F910BD600100106801001010B50E4824F002FB08210C48D0
:2082600024F086FD03210A4824F0AAFB0948007808B17F2000E0FF200146054824F082FBF3
:208280000621034824F092FB014828F0AFF910BD60010010680100102DE9F0412DED088B17
:2082A000044600260027002500F070F80546462D4BD9B5F5FA6F48D2C02027F047FF064612
:2082C000D02027F043FF074630462FF0FCF841EC1B0B9FED220B53EC102B2FF005FA41ECAE
:2082E0001A0B9FED200B53EC102B2FF0FFF841EC190B9FED1E0B53EC102B2EF05FFF41ECE9
:20830000180B2FF0B3F8206038462FF0DCF841EC1B0B9FED180B53EC102B2FF0E5F941ECD9
:208320001A0B9FED160B53EC102B2FF0DFF841EC190B9FED140B53EC102B2EF03FFF41ECFC
:20834000180B2FF093F8606002E00020206060602846BDEC088BBDE8F0810000000000008E
:2083600000C06C400000000000006E4000000000005CAC400000000000C067400000000034
:20838000000074400000000000E4AB4010B5E02027F0DCFE10BD70472DE9F8430646344609
:2083A0001AF0C2F8804640461AF003F978BB304617F02BFD38B3304617F09EFB208FE18EB0
:2083C000884212D0E08E2087E08E00906A461D21304618F00DF80746012F02D03846BDE8FB
:2083E000F883304620F01DFD00BF40461AF0F1F80546042D06D130461EF0DCF90746002110
:2084000018F0F4FE09E0304617F065FD05E0FFE7208FE086304620F004FD0120DFE72DE936
:20842000F0410446204617F0DCFF054628461EF01BFA0646284611F0B9FE0746012239463C
:20844000304625F0D1FABDE8F0810146C1F3C01070470146C1F3801070470146C1F3C01021
:2084600070470146C1F3002070470146C1F3C00070470146C1F3401070470146C1F34020A4
:2084800070470146C1F3003070470146C1F30010704700002DE9F04F89B004460D46002135
:2084A00020461EF09AF830B91C2128461CF052FA09B000F085B82946204600F00BFB2946AA
:2084C000204600F081F8002120461FF0A7FA0890002120461FF0F2FB0790002120461FF04E
:2084E00041F8012800D100E000208146002120461FF044FF0746002120461FF063F906461E
:2085000042F2D170874205D1608CC0F3802008B9012000E00020824620461EF0E8F8069074
:2085200000BF4FF0000824480288414620461FF079FC03900398C0B200BF8346AA68296902
:208540002868CDE90209CDE900125A465146089B06980DF071F8288342F2D170864205D166
:20856000608CC0F3402008B9012000E00020059020461EF0A7F8049000BF4FF000080F4881
:208580000288414620461FF04DFC03900398C0B200BF83460023EA6869686869CDE9021302
:2085A000CDE900025A46079BDDE904010DF044F8688300BF7CE70000460000104A00001000
:2085C00030BCBDE8C08F00002DE9F34F87B00C4607980CF035F8804607981EF088F8069089
:2085E000404601F0B1FB2061216948001BF0F6FE2060216948001BF0F1FEA060002548E06D
:208600005848029038F9150041F69A7188423FD10020019029E0019907981DF0DEFF009059
:208620005149009820F042F800B11BE000980CF025F88246BAF1010F00D013E000980CF087
:208640000DF88346AB4500D00CE000981FF0D2FF0299884201DA029802E000981FF0CAFFFC
:20866000029000BF0198401C019007981DF0D3FF01998842CFD80298002804DB0298A16856
:2086800021F8150003E00021A06820F8151000BF6D1C2069A842B3D80026B14600251BE0E0
:2086A00038F9150041F69B71884202DB411A0E4411E041F69A71884206D1A16831F81510B2
:2086C00049440FFA81F906E0A16821F8150009EB00010FFA81F96D1C2069A842E0D8002120
:2086E00007981FF09BF905902169491EDDE9050200FB112000B206900698A0EB090007B286
:20870000002F00DA00274FF0FF30049000200390002513E038F9150041F69B7188420CDB22
:20872000421A11B207FB01F2B2FBF6F212B2A36823F815200495039100BF6D1C2069A84289
:20874000E8D8049800280ADB0398301A7843B0FBF6F0381A01B2A268049822F8101009B0E1
:2087600000F004B801E0FFFF0100060030BCBDE8C08F00002DE9F84F0546002211462846F8
:2087800021F0BAFC002128461FF09DFC0746002128461FF0E1FB814628461EF045FE384412
:2087A00048440FFA80FA3D4E28461DF034FF00904FF0000860E0A868006850F828403849B1
:2087C00020461FF073FF00B154E0204620F0A0FB00283DD1002120461EF057FE8346BBF127
:2087E000000F09D0BBF1010F09D0BBF1020F05D0BBF1030F15D100E000BF00BF00BFB4F9FC
:208800001A10B5F91600081A401CB04201DA304605E0B4F91A10B5F91600081A401C06B2F3
:2088200014E0002120461FF0D9FD70B904F1140010F025FD3844B04201DA304604E004F1EC
:20884000140010F01CFD384406B200BF00BF10E0B4F91A10B5F91600081A401CB04201DA63
:20886000304605E0B4F91A10B5F91600081A401C06B200BF08F10108009880459BD30748F1
:20888000864209D006EB090006B2564502DD304600F008B85046FBE75046F9E701E0FFFF18
:2088A0000100040018BCBDE8E08F00002DE9F84F054600221146284621F002FC002128469E
:2088C0001FF0C4FB8046002128461FF082FB814628461EF0B9FD484440440FFA80FA724C9F
:2088E00028461DF098FE8346002128461EF016FE012866D100265BE0A868006850F82670D6
:208900006A4938461FF0D2FE00B150E0384620F0FFFA002839D1002138461EF0B6FD0090BD
:20892000009830B1032805D0062804D0082815D102E000BF00BF00BFB5F91800B7F91410ED
:20894000401A401CA04201DA204605E0B5F91800B7F91410401A401C04B214E000213846C0
:208960001FF030FD70B907F1140010F0FBFC4044A04201DA204604E007F1140010F0F2FC0A
:20898000404404B200BF00BF10E0B5F91800B7F91410401A401CA04201DA204605E0B5F929
:2089A0001800B7F91410401A401C04B200BF761C5E45A1D33C48844269D004EB090004B2C6
:2089C00065E000265BE0A868006850F82670374938461FF06BFE00B150E0384620F098FA24
:2089E00080BB002138461EF050FD0090009830B1012805D0042804D0072815D102E000BF85
:208A000000BF00BFB7F91800B5F91410401A401CA04201DA204605E0B7F91800B5F91410E6
:208A2000401A401C04B215E0002138461FF0D6FC78B907F1140010F095FC4844A04202DA3D
:208A4000204605E008E007F1140010F08BFC484404B200BF00BF10E0B7F91800B5F9141006
:208A6000401A401CA04201DA204605E0B7F91800B5F91410401A401C04B200BF761C5E453E
:208A8000A1D30948844202D004EB080004B20648844202D1504600F00BB8544501DD2046BF
:208AA000F9E75046F7E7000001E0FFFF0100040018BCBDE8E08F10B50446206817F034FEC6
:208AC000606817F031FEA06817F02EFEE06817F02BFE10BD2DE9F34F87B00C4607980CF09C
:208AE000ADFB8046404601F02FF96061616948001BF074FC6060616948001BF06FFCE06093
:208B0000002547E05948029038F9150041F69A7188423ED14FF0000A29E0514607981DF0E0
:208B20005CFD0190524901981FF0C0FD00B11CE001980CF047FC8346BBF1010F00D014E07D
:208B400001980CF02FFC00900098A84200D00CE001981DF039FE0299884201DA029802E0EE
:208B600001981DF031FE029000BF0AF1010A07981DF051FD5045D0D80298002804DB029857
:208B8000E16821F8150003E00020E16821F8150000BF6D1C6069A842B4D80026B14600251B
:208BA0001BE038F9150041F69B71884202DB411A0E4411E041F69A71884206D1E16831F897
:208BC000151049440FFA81F906E0E16821F8150009EB00010FFA81F96D1C6069A842E0D897
:208BE000002107981FF06AF8069007981DF06AFD01466269521E069800FB121000B2059017
:208C00000598A0EB090007B2002F00DA00274FF0FF30049000200390002513E038F9150027
:208C200041F69B7188420CDB421A11B207FB01F2B2FBF6F212B2E36823F81520049503910B
:208C400000BF6D1C6069A842E8D8049800280ADB0398301A7843B0FBF6F0381A01B2E26830
:208C6000049822F8101009B000F004B801E0FFFF0100060030BCBDE8C08F00003348006810
:208C8000002800DA70473248007870B32F48006800EBC0002F4901EB8000C06840B9012056
:208CA0002A49096801EBC1012A4A02EB8101C8602648006800EBC000264901EB8000406912
:208CC0004FF47A7148432149096801EBC101214A02EB8101C968B0FBF1F01C49096801EBF9
:208CE000C10102EB8101C8612EE0FFE71748006800EBC000174901EB8000806840B90120E6
:208D00001249096801EBC101124A02EB810188600E48006800EBC0000E4901EB8000006991
:208D20004FF47A7148430949096801EBC101094A02EB81018968B0FBF1F00449096801EB20
:208D4000C10102EB8101886100BF9BE764080010680100108001001038B5044600256D2247
:208D6000294620461FF05EF80090009800B208B1022038BD00256C22294620461FF052F82E
:208D80000090009800B2B0F5807F01D00220F0E7002120461EF076FDFF2801D00120E8E79B
:208DA00000256722294620461FF03CF800900098C0B208B10120DCE70020DAE72DE9F84F78
:208DC00004460D4616461F46DDF828A0DDF83080022D19D1CDF800805246394630460B9B82
:208DE00026F01CF981460D9810F025FB009000EBD0704010CB4609EBDB71A0EB61002188CB
:208E0000084400B2208014E0032D12D1CDF800805246394630460B9B26F000F981460D98BA
:208E200010F009FBA0EB09002188084400B2208000BF00F000B818BCBDE8E08F7CB5044689
:208E40000D46164628882189084400B2ADF8000068886189084400B2ADF80200A88821890D
:208E6000084400B2ADF80400E8886189084400B2ADF80600A06BC06B10B1A06BC16B88474B
:208E8000324669462046636998477CBDF8B505460E462C46A06B58B1284625F09DF9074629
:208EA000114909688847A16B884201D30020F8BD606B10B1606B007808B90120F7E70020EA
:208EC00000900AE06946094A606B126890470746B74201D10120EAE700BF606B0099405C31
:208EE0000028EFD100BFE2E798000010880000102DE9FF4F8FB00F46209DF87800F00100AC
:208F000008B1F94800E0F9480E90F87800F0010008B1F74800E0F7480D90F87800F0010022
:208F200008B9F34800E0F3480C9001200B90BEE000210B9100206988B5F804C0A1EB0C014C
:208F40000AB200261AE006EB860CE96801EB8C01097C01F0010141B906EB860CE96801EBB6
:208F60008C018989014408B207E006EB860CE96801EB8C010989511A0AB2761C2969B1424F
:208F8000E1D800268EE006EB860CE96801EB8C01097C01F0010100297DD100BF18B900BFF9
:208FA00000BF00BFFEE700BF92FBF0F80FFA88F306EB8609D5F80C8008EB8908B8F80C80FD
:208FC00008FB03F80FFA88F106EB8609D5F80C8008EB8908B8F9049006EB860AD5F80C8095
:208FE00008EB8A08B8F90680884501DD884607E006EB860AD5F80C8008EB8A08B8F90680BF
:20900000C14508DD06EB8609D5F80C8008EB8908B8F9048013E006EB8609D5F80C8008EB14
:209020008908B8F90680884501DD884607E006EB8609D5F80C8008EB8908B8F90680C4466A
:209040008C450BD04FF0010806EB860AD5F80C9009EB8A09C9F81080CDF82C8006EB860969
:20906000D5F80C8008EB8908A8F808C006EB8609D5F80C8008EB8908B8F80C80A0EB080877
:209080000FFA88F006EB8609D5F80C8008EB8908B8F8088000E004E0A2EB08080FFA88F2D6
:2090A00000BF761C2969B1423FF66DAF00BF0B9800287FF43DAF00210F981EF047FA012860
:2090C00000D100E000200A9000200990089008A809A9CDE9001029890BB2B5F902203878BD
:2090E0001E9927F037F9F87800F0010048B10A9838B10F981DF0FBFABDF82410084400B2FD
:20910000099011990F981DF068FA04468FE17A4920461FF0CBFA40B1F878C0F3800111AAEF
:209120000F980BF0B4FE044681E1002120461EF021FB07900798002860D000200390002617
:2091400010E006EB8601E86850F82100A04208D106EB8600E96801EB8000B0F908000390BB
:2091600003E0761C2869B042EBD800BFF87800F0010050B1608C20F4806000F5806060847A
:20918000608C20F40070608409E0608C20F4007000F500706084608C20F48060608404F120
:2091A00014000D9988470399884226D020461FF038FE00BFA08AADF80400E08AADF8060078
:2091C000208BADF80800608BADF80A0000BF04F114000E9A0399904701AA2A21204617F057
:2091E00007F920461DF040FB22462321009017F0FFF820461FF015FE00BF07E0608C20F459
:2092000080606084608C20F400706084002006907878012812D0022819D104F114000C99C3
:209220008847B5F90010491C21F00101081A039000EBD070401000B2069009E004F11400BF
:209240000C9988472988081A00B2069000E000BF00BFF87800F0010050B10A9840B104F137
:2092600014000D998847BDF82410081A00B20990002003906A22204603991EF0D3FD02905E
:2092800002980FFA80F800BF002003906B22204603991EF0C7FD029002980FFA80F900BF73
:2092A00020461FF0A7F9059020461DF08DFA049008F4C040B0F5005F01D1012000E0002083
:2092C00030B128F4C040B0F5FA6F01DC012000E00020E0B128F4C040B0F57A7F0EDD28F433
:2092E000C040C0F57A700BE0B1940108A5940108F1930108D39201080100060028F4C04036
:2093000005994843642190FBF1F00FFA80F809F4C040B0F5005F01D1012000E0002030B1DD
:2093200029F4C040B0F5FA6F01DC012000E0002090B129F4C040B0F57A7F04DD29F4C0400A
:20934000C0F57A7001E029F4C04004994843642190FBF1F00FFA80F9A18A1C98401A404418
:209360000FFA80FAE18A1D98401A48440FFA80FBF87800F0010010B1BDF9240000E0069866
:2093800050440FFA80FAF87800F0010008B1069801E0BDF9240058440FFA80FBBAF1000F69
:2093A00002D1BBF1000F1BD020461FF03AFDA08A504400B2A082208B504401B22183E08AF6
:2093C000584401B2E182608B584401B2618320461FF027FD00235A46514620461FF0F8FD60
:2093E000F87800F0010008B10A9870B904F114000D9988471F990844BDF820100844BDF820
:209400002410084400B2099008E0BDF820101F980844BDF82410081A00B20990F878C0F338
:20942000800111AA0F980BF032FD044600BF24B1DDE9111081427FF46AAE13B000F000B8A1
:2094400030BCBDE8C08F2DE9F04F8DB005468946B9F1000F02D10DB000F0ABB9A5F818909E
:20946000286810B1286817F05FF909EB4901062202EB41001AF0B2FF286000BF286818B9B5
:2094800000BF00BF00BFFEE700BF286868600221286801FB0900801CE8600421286801FB46
:2094A0000900001DA860B9F1010F0CD1B420696808700020E96808800120E9684880002077
:2094C000A9680880C7E709F10100C0000C900C981AF084FF0746002138460C9A1BF07EF9A9
:2094E00009F1010007EB80084FF0000A4FEA890002B20AA90BA800F06AF90024BDF92C0079
:209500008010069000200290CCE0002616E00AA90BA800F064F90BA800F04EF900B90FE066
:20952000BDF92C00801006A941F82600BDF82C0000F0030002A941F82600761C042EE6DB48
:2095400000BF042E00D0B3E009990698884219D1069800B227F814000FFA8AF028F8140089
:20956000DDE9020108440499084405990844696808556868005D0007000E69680855601CE9
:2095800004B28DE0DDE9060188422CD0069800B227F814000FFA8AF028F814000298696870
:2095A00008556868005D0007000E69680855601C04B20698401E00B227F814000FFA8AF048
:2095C00028F814000398001D0499084405990844696808556868005D0007000E696808552E
:2095E000601C04B25CE00899069888422CD0069800B227F814000FFA8AF028F81400DDE9F8
:2096000002010844696808556868005D0007000E69680855601C04B20698401E00B227F85E
:2096200014000FFA8AF028F814000498083005990844696808556868005D0007000E696860
:209640000855601C04B22BE0069800B227F814000FFA8AF028F81400DDE902010844049984
:209660000844696808556868005D0007000E69680855601C04B20698401E00B227F81400ED
:209680000FFA8AF028F8140005980C30696808556868005D0007000E69680855601C04B26A
:2096A0000AF1010A0BA800F087F800287FF42DAF00BF40F2D32109FB01F001900198801275
:2096C0000090601E37F910100098814205D1601E38F910100098814226D0DDE90021A1EB68
:2096E0008220B0F5007F04DC00FB00F14800001407E0C0F5806000FB00F148000014C0F107
:209700000F00009909B227F81410009909B228F814106A6810556968095D0907090E6A68A4
:209720001155611C0CB200BFA61E0EE038F8160027F8140037F8160028F814006868805D78
:2097400069680855761E601C04B2002EEEDA4FF0000B00260020E968088023E0E96821F849
:209760001B6037F81600A96821F81B0010E0A86830F81B0037F91610884203DAA86830F86C
:209780001B0001E037F91600A96821F81B00761C38F91600584501D1A642E8DB0BF1010052
:2097A0000FFA80FBA642D9DB384616F0BDFF00BF51E630BCBDE8C08F0146B1F90200B1F9D6
:2097C0000020904201DC012070470020FCE7028000234380C2F101031BB20B807047B1F907
:2097E0000020002A07DC0B8842885200D21C1A4412B20A800CE042880388D21A5200521D05
:209800000B881A4412B20A800288521E12B202804288521C12B24280704737B582B01546DB
:20982000022D04DCBDF80C10084605B030BDBDF80C00C00ABDF8081000EBD1241F2C01D202
:20984000204600E01F20BDF8081060F3CF210291BDF80C00C0F34510BDF80810C1F3451140
:2098600044183F2C01D2204600E03F20BDF8081060F34A110291BDF80C0000F01F00BDF816
:20988000081001F01F0144181F2C01D2204600E01F20BDF8081060F304010291FF2D03D1E8
:2098A000BDF808100846C0E72A46DDE9020111F0EDFE0190BDF804100846B6E717B581B07F
:2098C0001446022C04DCBDF80810084604B010BDBDF80400C00ABDF80810C90A10FB01F065
:2098E0004109BDF8040061F3CF200190BDF8040000F01F00BDF8081001F01F0110FB01F0EF
:209900004109BDF8040061F304000190BDF80400C0F34510BDF80810C1F3451110FB01F0C7
:209920008109BDF8040061F34A100190FF2C03D1BDF804100846C9E72246DDE9010111F0AE
:20994000A5FE0090BDF800100846BFE737B582B01546022D04DCBDF80C10084605B030BDD2
:20996000BDF80C00C00ABDF80810A0EBD124002C01DD204600E00020BDF8081060F3CF218F
:209980000291BDF80C00C0F34510BDF80810C1F34511441A002C01DD204600E00020BDF811
:2099A000081060F34A110291BDF80C0000F01F00BDF8081001F01F01441A002C01DD2046D2
:2099C00000E00020BDF8081060F304010291FF2D03D1BDF808100846C0E72A46DDE90201D4
:2099E00011F054FE0190BDF804100846B6E708B5034600930098484080EA620008BD2DE96F
:209A0000FC5F8246504616F0ECFC0190504616F087FC064601981CF027FF0746BB462C2E30
:209A200009D1384623F0D3FF044600222146384623F0DAFF5FE00B2E5DD118F075FD8046C6
:209A4000B8F1000F05D098F80400012801D100F054B8694601981CF081FF9BF82C0000F06B
:209A60000C00F8B101981CF042FE0546002138461DF09CFD01280AD1284605EBD071BDF963
:209A80000020C2EB610191FBF5F10CB209E0284605EBD071BDF9002002EB610191FBF5F148
:209AA0000CB20EE001981CF00DFE0546284605EBD071BDF9022002EB610191FBF5F10CB209
:209AC00000BF002C00DA00244FF00009384623F07EFFA04201D04FF0010901222146384643
:209AE00023F082FFB9F1000F04D000221D21384616F07EFC00BF00BFA9E73CBCBDE8C09FDD
:209B000010B58060C06000230361002110E0002400F1140343F82140002206E000F13803EC
:209B200003EBC11343F82200521C202AF6DB491C0929ECDB10BD2DE9FF4F87B00546DDE9A6
:209B4000178ADDF85890149F089CB9F1040F02D0B9F1060F59D128460FF0ECFB83465A461B
:209B6000FF2150461AF03AFEB5F9020078434100B5F9000001EB4000044428460FF01CFC9A
:209B80000590059840000490780000B20390CDF80880B5F902600DE02146049A02981AF00F
:209BA000D4FC039804440599029800EB41000290701C06B2B5F90600B042EDDAB9F1060F8C
:209BC00022D14FF47F414FF0000C01F47C4E4CEA5E1CC1F3C40E4CEA0E0CCDF800C0BDF8C5
:209BE00000E0F446CDF804C04246BDF80430002007E032F81010994202D100210AF800101F
:209C0000401C5845F5D300BF88E0B9F1050F41D1B5F90200784300EB4000B5F9001001EB4C
:209C200041010844044428460FF0C6FB381A00B20590059800EB400000B2049028460FF00C
:209C40003AFB039028460FF0B7FB834600261DE00020069010E0A17806980AF8001020782A
:209C6000617800EB012081B2069828F81010E41C0698401C00B2069006985845EBDB08EBB8
:209C80004B08DA4404980444701C06B203988642DEDB43E0B9F1140F40D1B5F902007843A3
:209CA0004100B5F9000001EB40000444780000B2059028460FF0FFFA049028460FF07CFBA4
:209CC000834600260BE04FEA4B02214640461AF03CFC08EB4B0805980444701C06B20498EA
:209CE0008642F0DB089C099841000A9801FB0044B5F90000B5F9021007FB0100044400268A
:209D000008E05A46214650461AF01FFCDA443C44701C06B204988642F3DB00BF0BB000F01B
:209D200000B830BCBDE8C08F70B504460D462946601CF6F732FB70BD70B504460D46294666
:209D4000606AF6F72AFB70BD0146002000E0401C31F9102041F6FF739A42F8D170477CB5C7
:209D600006460D4634465420005D00F00100A84233D00DB1012000E000205421095D60F30E
:209D800000015420015504F1480168460FF067FABDF80000616A898A084400B2ADF8000076
:209DA000BDF80210606AC08A084400B2ADF80200BDF80400616A898A084400B2ADF80400E5
:209DC000BDF80610606AC08A084400B2ADF80600694630461FF04FF800BF7CBD37B582B06A
:209DE000054614462146039811F0C6FA0190BDF80410084605B030BD2DE9FF4F8DB00646C4
:209E00000F461446F87A022803DC012011B000F01BB938893A6901460C901098FBF758FA3F
:209E200005460DB90020F1E7297D01F01F0017F04EFA10B14FF0060818E0287D00F01F005A
:209E40000E2801D1804611E0287D00F01F00142801D180460AE0297D01F01F0017F01AFA00
:209E600010B14FF0050801E04FF00408286A38B100BF00BF214630462A6A28F055FCDEE018
:209E8000A869002859D021460BA80FF0A0F9388818B97888B0F5807F32D020460FF070FAA8
:209EA000834600BFE0886188401A401C00B20890381D7988CDE90010B7F9003059460BA87B
:209EC000089AFBF7FBF8BDF82C002188084400B2ADF82C00BDF82E006188084400B2ADF833
:209EE0002E00BDF830002188084400B2ADF83000BDF832006188084400B2ADF8320000BF6F
:209F00000BAA09A8B168FAF7A3FC8146B9F1000F04D1284601F04DFC012077E7D6F808A040
:209F200009A8B060CDF80080224639463046AB6912F000FEC6F808A081E022460BA8B168AF
:209F4000FAF786FC0A900A9820B9284601F031FC01205BE70BA80FF013FA09900BA80FF080
:209F60000FFA00EB400003901AF038FA8146D6F808A00BA907A80FF02AF9012107A80FF04C
:209F800091FABDF92C00B4F90010401A0690BDF92E00B4F90210A0EB010BBDF92E000590F4
:209FA00042E007AA514602A8FAF752FC0A900A9800B936E0CDF80090099803B20FFA8BF212
:209FC000069801B2284617F0B5FE0490049801280ED0284617F0CEFD00BF00BF484616F07F
:209FE000A3FB284601F0E5FBC6F808A000200DE702A8B0604B4607AA39463046CDF80080D4
:20A0000012F098FDBDF81E00401C00B2ADF81E00BDF82200401C00B2ADF822000BF1010B51
:20A0200000BF0598401C0590BDF9321005988142B7DAC6F808A0484616F076FB00BF284652
:20A0400001F0B7FB0120E1E630BCBDE8C08F00BF00BF7047F8B505462C4618F065FA064643
:20A06000206B24F039FB3168898B88422CD2606A009094F83C0000F0030020B1012806D0B3
:20A0800002280CD107E00020ADF8000007E064208DF8020003E064208DF8030000BF00BFAE
:20A0A000304618F018FC2846009911F0BBFF50B100221D21284616F09BF90746012F01D095
:20A0C0003846F8BD00BF00BF24F014FB20630120F7E700002DE9F04F9BB007468946164612
:20A0E000BA4617A812F09CFA4FF4A02138461DF0EEF99DF8691060F382018DF8691030463B
:20A100000FF0A0F9054600EBD5704FEA60083088404400B2ADF858007088404400B2ADF8CD
:20A120005A00002138461DF0B9FB1590494603A81CF00DF817A80B904FF40030109034488C
:20A140000490002005900AF13000FBF703FC044659E02079032800D04FE0208BADF85C00A8
:20A1600060691990208A00B2ADF85E006079FD2801DD159803E060791599484300128DF8F9
:20A1800068002568B5F92000E98B08440090B5F92030D5E90512A0681AF050F98346B5F907
:20A1A0002000E98B08440090B5F92030D5E90512E0681AF043F90290608B404400B2ADF876
:20A1C0004800149416A80C9003AA1B21384616F00FF9029880B21FFA8BF1CDE90010BDF8E4
:20A1E000480083B216AA17A9484612F0F8F903AA1C21384616F0FCF800BF21460AF130002E
:20A20000FBF7A2FB0446002CA3D11BB000F002B8E483030830BCBDE8C08F70B504460D463C
:20A2200000222946204607F0CFFE01222946204607F0CAFE02222946204607F0DFFC0422BB
:20A240002946204607F0DAFC70BD2DE9F74F9EB00C46E078022802DC21B000F0EBB91CA8AA
:20A2600020990EF0CFFFB4F9200001282EDD94F82200FD282ADB208840B3BDF8700014F8B4
:20A28000231F4908C1F38001084400B2ADF87000BDF8720021784908C1F34001084400B2DF
:20A2A000ADF87200BDF8740021784908C1F3C001401A00B2ADF87400BDF8760014F8231967
:20A2C000C1F34001401A00B2ADF876001E981CA982681AA8FAF7BCFA00B9BDE7E07B00F0EC
:20A2E000070616B9A088199001E0E0881990BDF864106089814200D100261CA813F050FBE1
:20A3000018901C2111A8F6F7BDF8A0788DF85D00BDF86400ADF84C00189860B9208850B97F
:20A320004EB91CA81190E0788DF85C0011A91E9814F003FA90E7E078FD2801DBFF2000E038
:20A34000E07810901CA80FF04CF80F901CA80EF0B9FF0E90DDE90E01814201DA0F9800E04D
:20A360000E980D90B4F900100D98B1EB600F02DAB4F9000001E00D98401007461AA80FF0C0
:20A3800030F881464FF0FF300C9000200B90002F01DC189870B148461AF020F80B900023BE
:20A3A0003AB21CA905A813F07FFE002105A812F0EFFF0C90BDF86800ADF80C00BDF86C0076
:20A3C000ADF810000B98149003A811901690FF208DF85C00A01DDDE90E2116F0A3FC804672
:20A3E000B8F1000F0CD0022E0AD1BDF96810D8F8080000EB4100BDF97010A0EB41001290E8
:20A400001898A0B3BDF96A502CE028B2ADF80E0028B2ADF812004A4610990B981AF0DEF9E2
:20A42000BDF968100FFA89F32AB20B9813F064FA8DF854009DF85400012802D102208DF824
:20A440005400012E09D1BDF97210691AD8F8080000EB41000088ADF84C0011A91E9814F0F3
:20A460006CF96D1CBDF96E00A842CEDACCE0FFE700255CE0BDF8720028440FFA80FABDF87A
:20A480007600401B0FFA80FBBDF96A00504504DDBDF96E00584500DA48E04A4610990B9832
:20A4A0001AF09CF9BDF90C100FFA89F352460B9813F022FA8DF854009DF85400012802D18E
:20A4C00002208DF85400BDF96A00504514DCADF80EA0ADF812A0012E0AD1BDF97210AAEB5B
:20A4E0000101D8F8080000EB41000088ADF84C0011A91E9814F021F9BDF96E00584514DB9F
:20A50000ADF80EB0ADF812B0012E0AD1BDF97210ABEB0101D8F8080000EB41000088ADF866
:20A520004C0011A91E9814F008F900BF6D1CBD42A0DBBDF87000ADF80400BDF87400ADF8FC
:20A540000800BDF87200384400B2ADF80600BDF87600C01B00B2ADF80A0001A813F020FAC6
:20A5600000900098B0B9AEB9BDF87200384400B2ADF80E00BDF87600C01B00B2ADF812006C
:20A5800010988DF85C000020149011A91E9814F0D4F838E010988DF85C0001208DF8540093
:20A5A000BDF97600A0EB070ABDF97200C51927E0009870B14A4610990B981AF00FF9BDF969
:20A5C00068100FFA89F32AB20B9813F095F98DF8540028B2ADF80E0028B2ADF81200012E48
:20A5E00009D1BDF97210691AD8F8080000EB41000088ADF84C0011A91E9814F09EF86D1CB6
:20A600005545D5DD00BF00BF0B9810B10B9816F08BF80C98401C28B10C9813F031FE05A884
:20A6200013F099F9B8F1000F02D0404616F071FB00BF11E630BCBDE8C08F2DE9F04F91B0D7
:20A6400006460C461546206910B911B000F020B9A07E022800DCF8E729460FA8B268FAF7F1
:20A66000F7F800B9F1E7D6F808800FA8B060206917F0FAFE0746022F55D1002041F6FF714A
:20A68000CDE90001029003460EA8D4E9041224F050FC28460EF0A5FE824600EBDA70298882
:20A6A00001EB6000BDF9389009EBD971A0EB610000B2ADF83000BDF83000BDF838100844F1
:20A6C000401E00B2ADF8340028460EF0FBFD824600EBDA70698801EB6000BDF93A9009EB7F
:20A6E000D971A0EB610000B2ADF83200BDF83200BDF83A100844401E00B2ADF8360004A8D2
:20A7000012F05AFD60690490208BADF81C00A07E8DF82A00002000900CAA04A93046236935
:20A7200012F03EFAB0E00EA9206917F04FFA8146B9F1010F7DD108A812F013FAA0788DF894
:20A740002C00208BADF82800E07E8DF82A00A07E8DF82B00207FE8BB28460EF042FE8346C3
:20A7600000EBDB70298801EB60000E99C1F38A2A0AEBDA71A0EB610000B2ADF8180028468E
:20A780000EF0A0FD834600EBDB70698801EB60000E994FEA515A0AEBDA71A0EB610000B279
:20A7A000ADF81A00BDF818000E99C1F38A210844401E00B2ADF81C00BDF81A000E9900EB89
:20A7C0005150401E00B2ADF81E0006AA08A93046236900E002E012F075F951E06888ADF8AA
:20A7E0001A00BDF81A000E9900EB5150401E00B2ADF81E003DE02888ADF81800BDF8180013
:20A800000E99C1F38A210844401E00B2ADF81C0019E006AA08A93046236912F053F9BDF8B6
:20A8200018000E99C1F38A21084400B2ADF8180000E026E0BDF81C000E99C1F38A21084436
:20A8400000B2ADF81C00BDF91800B5F904108842DFDDBDF81A000E9900EB515000B2ADF816
:20A860001A00BDF81E000E9900EB515000B2ADF81E00BDF91A00B5F906108842BBDD00BF8E
:20A8800001E000BF00BF00BFC6F8088000BFDCE630BCBDE8C08F2DE9F04F87B083460C464C
:20A8A000164694F82200022802DC07B000F08EB8208C00B9F9E794F82300C0F3440000B9F5
:20A8C000F3E794F8230000F0010000B1EDE730460EF087FD814630460EF0F4FC0746B4F95C
:20A8E0000050B94501DA484600E038468246B5EB6A0F01DD4FEA6A05314605A80EF082FC3C
:20A90000BDF9141094F82300400800F0040010B1B4F9200003E0B4F92000284440420844FA
:20A9200000B2ADF81400BDF9181094F82300400800F0080010B1B4F9200003E0B4F92000A1
:20A9400028444042081A00B2ADF81800BDF9161094F82300400800F0020010B1B4F9200025
:20A9600003E0B4F9200028444042084400B2ADF81600BDF91A1094F82300C0F3400010B13D
:20A98000B4F9200003E0B4F9200028444042081A00B2ADF81A00208C281A0FFA80F8B8F1A1
:20A9A000000F01DA4FF00008A07894F82210CDE90210E08BADF804002BB205AA3146584613
:20A9C000CDF8008000F005F800BF6EE730BCBDE8C08F2DE9FF4FA3B00D4616461F463298BC
:20A9E000FF2801DBFF2000E032983290284612F0D7FF2290229868B967B9309850B932983B
:20AA0000009032462946319B239800F0B2FA27B000F0ACBA23982946826820A8F9F718FF8C
:20AA200000B9F4E720A80EF0DCFC81461C2119A819F075FF484619F0D1FC1C904FF0FF3024
:20AA40001890002F0ADD00233A46294612A813F02BFB002112A812F09BFC1890012331468C
:20AA60000CA8309A13F020FB00210CA812F090FC0B9009A819901E90BDF8C400ADF86C00AA
:20AA800032988DF87C0033988DF87D00B5F900003844B6F90010884203DDB5F90000384461
:20AAA00001E0B6F9000000B2ADF81C00B5F90400C01BB6F90410884203DAB5F90400C01B0F
:20AAC00001E0B6F9040000B2ADF82000B5F902003844B6F90210884203DDB5F902003844A8
:20AAE00001E0B6F9020000B2ADF81E00B5F90600C01BB6F90610884203DAB5F90600C01BC5
:20AB000001E0B6F9060000B2ADF8220007A80EF068FC0690B5F90200B6F90210884201DC67
:20AB2000012000E000208246B5F90600B6F90610884201DB012000E0002083462298002841
:20AB40004DD0BDF88000ADF82400BDF88400ADF82800BDF982402AE0BAF1000F04D1BDF90D
:20AB60001E00A04200DD21E0BBF1000F04D1BDF92200A04200DA1EE020B2ADF8260020B266
:20AB8000ADF82A004A46FF211C9819F027FEBDF980100FFA89F322B21C9812F0ADFE8DF8CF
:20ABA000740019A9239813F0C8FD00BF641CBDF98600A042D0DA00BF0CA812F0CCFE0B98F3
:20ABC00013F05EFB1898401C28B112A812F0C3FE189813F055FB1C9815F0A6FD17E7B5F9AC
:20ABE0000000B6F90010884201DC012000E000200590B5F90400B6F90410884201DB0120FD
:20AC000000E00020049001200390059860B1049850B1BAF1000F07D0BBF1000F04D00698E3
:20AC2000322801DA0020039001208DF87400BAF1000F15D0039898B1BDF81C00ADF82400F5
:20AC4000BDF82000ADF828006888ADF826007088401E00B2ADF82A0019A9239813F06DFDD6
:20AC6000BBF1000F15D0039898B1BDF81C00ADF82400BDF82000ADF82800F088401C00B28E
:20AC8000ADF82600E888ADF82A0019A9239813F054FD059898B12888ADF824003088401E64
:20ACA00000B2ADF82800BDF81E00ADF82600BDF82200ADF82A0019A9239813F03EFD04987A
:20ACC00098B1B088401C00B2ADF82400A888ADF82800BDF81E00ADF82600BDF82200ADF805
:20ACE0002A0019A9239813F028FD0398E0BBBDF88000ADF82400BDF88400ADF82800B6F99C
:20AD00000200B5F90210401AB84201DA384604E0B6F90200B5F90210401A00B202900024AD
:20AD200043E06888204400B20190E888001B00B20090BDF982100198814205DDBDF98610BA
:20AD40000098814200DA2FE04A46FF211C9819F045FDBDF924100FFA89F3019A1C9812F040
:20AD6000CBFD8DF8740000E023E0BDF982100198814209DC0198ADF826000198ADF82A00DA
:20AD800019A9239813F0D9FCBDF986100098814209DB0098ADF826000098ADF82A0019A947
:20ADA000239813F0CAFC00BF641C02988442B8DBCBE0BDF88000ADF82400BDF98410BDF934
:20ADC0001C00401E814202DABDF9840002E0BDF91C00401E00B2ADF8280009A80EF001FBE4
:20ADE0008046B8F1000F4ADD059810B9BAF1000F1FD0BDF9824018E020B2ADF8260020B2C0
:20AE0000ADF82A004246FF211C9819F0E7FCBDF92410434622B21C9812F06EFD8DF87400BA
:20AE200019A9239813F089FC641CBDF91E00A042E2DC059810B9BBF1000F20D0BDF9220030
:20AE4000441C18E020B2ADF8260020B2ADF82A004246FF211C9819F0C1FCBDF924104346C7
:20AE600022B21C9812F048FD8DF8740019A9239813F063FC641CBDF98600A042E2DABDF91B
:20AE80008010BDF92000401C814202DDBDF9800002E0BDF92000401C00B2ADF82400BDF8D4
:20AEA0008400ADF8280009A80EF09BFA8046B8F1000F4ADD049810B9BAF1000F1FD0BDF994
:20AEC000824018E020B2ADF8260020B2ADF82A004246FF211C9819F081FCBDF92410434625
:20AEE00022B21C9812F008FD8DF8740019A9239813F023FC641CBDF91E00A042E2DC04989B
:20AF000010B9BBF1000F20D0BDF92200441C18E020B2ADF8260020B2ADF82A004246FF21A7
:20AF20001C9819F05BFCBDF92410434622B21C9812F0E2FC8DF8740019A9239813F0FDFBB1
:20AF4000641CBDF98600A042E2DA0CA812F003FD0B9813F095F912A812F0FDFC189813F045
:20AF60008FF91C9815F0E0FB00BF50E530BCBDE8C08F2DE9FF4F89B080460C461546DDF8FC
:20AF800058901C21684619F0CAFC07A80090BDF83000ADF808008DF81890B4F90200B5F9B4
:20AFA0000210884201DC012000E000200646B4F90600B5F90610884201DB012000E000202D
:20AFC0000746B4F90000B5F90010884201DC012000E000208246B4F90400B5F904108842EC
:20AFE00001DB012000E0002083462088ADF81C00A088ADF820006088ADF81E006888401E3C
:20B0000000B2ADF822001EB16946404613F095FBE888401C00B2ADF81E00E088ADF82200B0
:20B020001FB16946404613F088FB2088ADF81C002888401E00B2ADF8200016B1B5F9020020
:20B0400001E0B4F90200ADF81E0017B1B5F9060001E0B4F90600ADF82200BAF1000F03D039
:20B060006946404613F069FBA888401C00B2ADF81C00A088ADF82000BBF1000F03D069460B
:20B08000404613F05AFB0DB000F000B830BCBDE8C08F2DE9FF4F93B00746904699464FF69F
:20B0A000FF70804502D117B000F05FB83E46746A208C1290208C484506D0A4F82090608CC4
:20B0C00020F00400001D60844FF4802120461DF05EF811904FF4802120461DF0CBF80546A8
:20B0E000119815F010FB8246384609F0BCFD8346BBF81600ADF83E00BDF93E000AEB05013B
:20B1000008FB010000B2ADF83E00284605EBD071BDF83E20A2EB610109B2ADF83E10BDF892
:20B120003E0050442844401E00B2ADF84200706A808AADF83C00706A008BADF8400001A822
:20B1400013F0CCF801AA4FF4802120461DF0ADFC0FAA01A9149813F0A5F812982084608C94
:20B1600020F00400608400BF9DE730BCBDE8C08F2DE9F04F91B007460D46904699464FF684
:20B18000FF70804502D111B000F076B81097109F7C6A208C0F90208C484506D0A4F82090E7
:20B1A000608C20F00400001D608407A812F004F807AA4FF4802120461DF092FB4FF4802168
:20B1C00020461DF057F8ADF82E00384609F04BFD064606B9D7E7079815F095FA8246F08ADD
:20B1E000ADF81600BDF91600BDF92E10514408FB010000B2ADF81600BDF92E0000EBD071BE
:20B20000BDF81620A2EB610109B2ADF81610BDF816005044BDF82E100844401E00B2ADF87B
:20B220001A00A08AADF81400208BADF8180005AA03A8A968F9F70CFB8346BBF1000F13D0E0
:20B24000A868029003A8A860304618F062F801900020009006F1140207A92846019B11F0B8
:20B260009FFC0298A86000BF0F982084608C20F00400608400BF86E730BCBDE8C08F000097
:20B280002DE9F04105465548006811F0C1F804462868866B706B10B13046716B884720684D
:20B2A000002851D0606800284ED00CE04B4800680068406A38B1494A12681068474A1268C5
:20B2C0001268516A884720690028EFD1434800680068007CC0F3801038B34048006800689C
:20B2E000C06918B3DFF8F4C0DCF800C0DCF800C0DCF80CC0DCF80C20DFF8E0C0DCF800C0FC
:20B30000DCF800C0DCF80CC0DCF80810DFF8CCC0DCF800C0DCF80000DFF8C0C0DCF800C057
:20B32000DCF800C0DCF81C3098470DE02B4A12681268D268D26802EB4201284A126812681A
:20B34000D268906819F09AFA01202061234800680068C068806900F0010050B11F4800686F
:20B360000068C0688069C0F3400010B10120606101E000206061606908B1012000E0002059
:20B3800007462868406998B12868007CC0F3011048B12868007CC0F3800020B1D6E9001036
:20B3A00000F01EF804E0D6E900212868FDF746FD206880B1606870B12868007C00F001005D
:20B3C00000B147B12168A068884202D16068A06001E02068A060BDE8F081000038000020F7
:20B3E0002DE9F34F83B00446884800680568874800680068007CC0F3400040B1287CC0F37D
:20B40000800020B100BF00BF05B000F001B9287CC0F3011002280AD121462846049A00F02E
:20B4200007F921462846049AFDF708FDEBE0287CC0F30110012804D0287CC0F301100328DD
:20B44000F4D1002002907148006810F0E1FF824620460DF08EFF064620460DF017FF83462E
:20B460004FF4A050B0FBF6F000B2584505DA4FF4A050B0FBF6F000B200E058460190B4F9A8
:20B480000280287CC0F3011001280BD168882188401A401E00B2E080E088801B401C00B249
:20B4A000608006E02088608060883044401E00B2E08000279EE0ABEB07010198814201DDF5
:20B4C000019801E0ABEB07000FFA80F90120CAF8100047BBB34526DBB146297CC1F3011183
:20B4E000032901D1012100E0002108463146049A00F015F9287CC0F30110012807D1A4F8C5
:20B50000008008EB0600401E00B2A0803FE02888401EA0EB080000B2A080A088801B401CD1
:20B5200000B2208033E0029820B94FF4205018F055FF029002980090297CC1F301110329D1
:20B5400001D1012100E0002108464A463146049B00F0B8F8287CC0F3011001280AD108EB03
:20B56000070000B2208008EB07004844401E00B2A0800CE02888401EA0EB0800C01B00B2A2
:20B58000A080A088A0EB0900401C00B2208007EB090058450DDBDAF8180000F0010040B1D5
:20B5A000DAF81800C0F3400018B10120CAF8140002E00020CAF81400029808B9049800E03F
:20B5C0000298024621462846FDF738FC04E0686A10B12846696A8847DAF810000028F6D134
:20B5E00006FB09F1049800EB4100049007EB090007B200BF5F45FFF65EAF029810B10298E6
:20B6000015F092F800BF00BFFEE600003800002030BCBDE8C08F18B5048800940C880480FC
:20B6200014880C801C881480BDF800401C8018BD2DE9FC5F05460C46164620460DF099FEE0
:20B64000824620460DF022FE83461AFB0BF001900198471E4FF0000811E006EB470000883F
:20B66000009006EB470006EB48010988018006EB4800BDF8001001807F1E08F1010847450C
:20B68000EBD8B4F9069068886188401A401E00B2E0806888A0EB0900401E00B26080B4F9E0
:20B6A000049028882188401A401E00B2A0802888A0EB0900401E00B2208000F000B83CBC7F
:20B6C000BDE8C09F2DE9F04704461D46089F01FB02F0A0F1010C481E00FB02F800231AE0C1
:20B6E00008EB03000CB1ACEB000000260FE0A946AD1C07EB400AB9F80090AAF800900CB1C7
:20B70000104400E0801A06F101090FFA89F68E42EDDB581C03B29342E2DBBDE8F0872DE94D
:20B72000F04782460C46154600263BE0002731E0601E801B0FFA80F8601EC01B0FFA80F96F
:20B74000BAF1000F12D007FB048C05EB4C0308FB049C05EB4C0209FB046C05EB4C0106FBE9
:20B76000047C05EB4C00FFF756FF11E009FB046C05EB4C0308FB049C05EB4C0207FB048CAB
:20B7800005EB4C0106FB047C05EB4C00FFF743FF781C07B2601C00EBD071B7EB610FC7DBCE
:20B7A000701C06B204EBD471B6EB610FBEDBBDE8F08710B50446204616F0DCF910BD00002E
:20B7C0002DE9F14F9EB01E9814F00BFE05462C461E9814F0ADFD1D90606A17F09AFD07467F
:20B7E0005420005D00F0010010B91FB000F090B80FA812F073FD0FAA4FF4E02128461DF016
:20B8000054F904F148010DA80DF029FDBDF83400616A898A084400B2ADF83400BDF836102C
:20B82000606AC08A084400B2ADF83600BDF83800616A898A084400B2ADF83800BDF83A1076
:20B84000606AC08A084400B2ADF83A000DAA0FA91D9812F027FD4FF4E02128461BF06EFF83
:20B8600006464FF4E02128461CF08CF930440FFA80F84FF4E02128461CF0C8FA30440FFA47
:20B8800080F900200B900C90216DC8191F49096888478246206DC11952460BA818F055FEEC
:20B8A000BDF83400404400B2ADF83400BDF83600484400B2ADF836004FF0000BD4F824A0B2
:20B8C0005522594650461CF0ADFA019001980A9002A811F071FC02AA4FF4E02128461CF0C3
:20B8E000FFFF9DF83F00022805DCBDF81400BDF82810884207D000200BAB0DAA02A900904C
:20B900001D9811F04DF900BF6FE700007C00001030BCBDE8C08F00002DE9F04FBDB005469D
:20B920000E4600BF00BFAB460BF13000FAF760F810B13DB000F020B905F114023BA8B16850
:20B94000F8F786FF00B9F4E7B0683A903BA8B06035A811F0EDFC35AA4FF4E02128461DF0A5
:20B9600025F827A812F0BAFC9DF8DC008DF89F0047F6FF70ADF89C004FF4E02128461CF0E3
:20B9800009FD074600EBD7704FEA60094FF4E02128461CF0FFFC074600EBD7704FEA600AA5
:20B9A000314604A81AF0D3FB24A80A9016A808904FF4E02011906F480590052006900BF1E9
:20B9C0003000F9F7C7FF0446CCE00A2235A924A818F0BBFD382227A916A818F0B6FDE088EA
:20B9E000ADF89000E088ADF85C0039A80D9038A80E90607B00F0010020B1B4F90070B4F946
:20BA0000028012E0B4F9040047F6FF71884200D1A2E0A08882B26B462846A1680FF05DF85F
:20BA2000BDF90070BDF9028000BFA88A384407B2E88A40440FFA80F8B9F1000F04D0BAF1D3
:20BA4000000F01D0012000E0002001900198B0B1A7EB090000B2ADF8080007EB090000B2B3
:20BA6000ADF80C00A8EB0A0000B2ADF80A0008EB0A0000B2ADF80E0002A8079001E0002073
:20BA80000790207B00F0030080B3207B00F0010010B1B5F9140000E03846ADF8E400ADF8B3
:20BAA000E680207B00F0020010B1B5F9180000E03846ADF8E000BDF8E600ADF8E20004AA59
:20BAC0001B21284614F094FC38AB39AA24A9304611F017FC019820B102AA16A9304612F0BE
:20BAE000E1FB04AA1C21284614F082FC207B00F00C0080B3ADF8E470207B00F0040010B17C
:20BB0000B5F9160000E04046ADF8E600BDF8E400ADF8E000207B00F0080010B1B5F91A0036
:20BB200000E04046ADF8E20004AA1B21284614F05FFC38AB39AA24A9304611F0E2FB0198E1
:20BB400020B102AA16A9304612F0ACFB04AA1C21284614F04DFC00BF21460BF13000F9F7A2
:20BB6000F3FE0446002C7FF430AF3A98B06000BFDFE60000047E030830BCBDE8C08F2DE923
:20BB8000F14F9AB01A9814F02CFC04461A9814F0CFFB199020461CF02DFD074620461AF071
:20BBA00013FE834607EBD771A28A02EB610109B218910BEBDB714A10E18A114409B21791D3
:20BBC00007EBD7714E1014A811F0B2FB14AA002120461CF0EBFE4FF41D7016FB00F05521E2
:20BBE00090FBF1F0642190FBF1F000B2ADF85200BDF85200801C00B2ADF852000020139030
:20BC0000002120461BF07EFC0546002347F6FF7204F114010DA812F047FA00210DA811F023
:20BC2000B7FB0C9000BFA08AADF82800E08AADF82A00208BADF82C00608BADF82E0000BFCE
:20BC4000BDF82800284400B2ADF82800BDF82C00401B00B2ADF82C00BDF82A00284400B260
:20BC6000ADF82A00BDF82E00401B00B2ADF82E00012347F6FF720AA904A812F015FA0021CF
:20BC800004A811F085FB0390BDF952804FF0000A4FE051462046FBF72DFA0090BDF8000089
:20BCA000ADF850001398C0F30F290FFA89F023F04DF806EB08014843189901EBE03000B23B
:20BCC000ADF804000FFA89F023F02FF806EB08014843179901EBE03000B2ADF806000FFA68
:20BCE00089F023F033F8711BA1EB08014843189901EBE03000B2ADF808000FFA89F023F040
:20BD000014F8711BA1EB08014843179901EBE03001B2ADF80A1002AB01AA14A9199811F086
:20BD2000F0FA0AF103001FFA80FA139800F587601390BAF5807FACDD0DA811F00CFE04A8BB
:20BD400011F009FE0C9812F09BFA039812F098FA1BB000F000B830BCBDE8C08F2DE9F04FC9
:20BD6000A5B004460F46254604F1140123A8BA68F8F76EFD2290229810B925B000F056B90A
:20BD8000B868219023A8B860002120461BF0B2FC1E90002120461BF0ADFE01461E9808447B
:20BDA00000B21D90002120461BF0DCFF01461E98084400B21C9020461AF099FC7E35E988E7
:20BDC0004843001200B21B9020461AF07BFC29894843001200B21A9017A811F0A9FA17AAB3
:20BDE000002120461CF0E2FD394605A81AF0AFF9002012908C4806900020079017A80B90B6
:20BE00004FF0FF30139000200E900F9005AA1B21204614F0EDFA0020019031222046019974
:20BE20001CF000F80090009800F0FF0B00BF002120461BF05FFC0490002001903322204630
:20BE400001991BF0EFFF0090009800F0FF0800BF20461AF0A7FD039020461AF08EFE02903C
:20BE600035F87E09002865D0E18A1C9801440298081A00B20190A08AADF88000208BADF8AF
:20BE80007C004FF00009B5F87E000FFA80FABBF1020F1ADD0498002817DD08F0020040B1D9
:20BEA000002120461BF05EFF18B909F101000FFA80F908F0010040B1002120461BF05AFD72
:20BEC00018B9AAF101000FFA80FA4E462FE01A987043B5F87E10491E90FBF1F000B2ADF805
:20BEE0008200BDF882100198084400B2ADF88200BDF88200ADF87E004B4806900120079080
:20BF000020A80E901FA80F90139605AA1B21204614F06EFA1FAB20AA17A9384611F0F1F932
:20BF200005AA1C21204614F063FA701C06B25645CDDB00BFB5F88000002865D0A18A1D989E
:20BF400001440398081A00B20190E08AADF88200608BADF87E004FF00009B5F880000FFA7F
:20BF600080FABBF1020F1ADD0498002817DD08F0040040B1002120461BF0BCFD18B909F1D8
:20BF800001000FFA80F908F0080040B1002120461BF040FE18B9AAF101000FFA80FA4E46D9
:20BFA0002FE01B987043B5F88010491E90FBF1F000B2ADF88000BDF880100198084400B249
:20BFC000ADF88000BDF88000ADF87C00164806900220079020A80E901FA80F90139605AA15
:20BFE0001B21204614F004FA1FAB20AA17A9384611F087F905AA1C21204614F0F9F9701C76
:20C0000006B25645CDDB00BF4FF0FF30139000200E900F9005AA1C21204614F0E9F9219807
:20C02000B86000BFA9E60000047E030830BCBDE8C08F00002DE9F14F98B0189814F070F972
:20C040000746189814F0CDF905462C46132F7DD1189814F0C3F906463078022802D119B0A2
:20C0600000F088BA94F8380000F00300032805D094F8380000F00300022802D10120307062
:20C08000EDE794F83800C0F38400042808D094F83800C0F38400012802D001203070DEE751
:20C0A0004FF000084622414628461BF0BBFE17901798C0B2FF2802D001203070CFE7208E32
:20C0C00010B101203070CAE7189814F087F98146E08EB0F5807F09D1002205F1140148468B
:20C0E000F8F7F7FB98BB01203070B8E728461AF06BFB804628461CF07DFA824604F1320028
:20C10000E18E00234246CDE90010514616A8F8F7D5FFBDF85800A98A084400B2ADF85800EC
:20C12000BDF85A10E88A084400B2ADF85A00BDF85C00A98A084400B2ADF85C00BDF85E100B
:20C14000E88A084400B2ADF85E0001E00BE009E0002216A94846F8F7BCFB10B90120307018
:20C160007DE700BF01E2162F01D0192FFAD128461CF040FA179028461AF026FB16900026D0
:20C180003222314628461BF04DFE0E900E9800B2804600BF1222314628461BF043FE0E9092
:20C1A0000E9840440FFA80F900BF1322314628461BF038FE0E900E98404400B2159000BFDB
:20C1C0001022314628461BF02DFE0E900E9840440FFA80FA00BF1122314628461BF022FEC5
:20C1E0000E900E98404400B21490608E484400B2ADF84C00A08E504400B2ADF84E0094F811
:20C20000390000F00300012804D111A928461AF083FA26E013A9E08ECDE90001208E03B2FB
:20C2200011A8DDE91621F8F749FFBDF84400A98A084400B2ADF84400BDF84610E88A084435
:20C2400000B2ADF84600BDF84800A98A084400B2ADF84800BDF84A10E88A084400B2ADF802
:20C260004A0005F114010FA80CF0E7FF11A905F114000CF0E2FFBE4818991AF089F9834623
:20C28000BBF1010F00D0EAE60FA905F114000CF0D4FF162F7DD1E08D08B1A08D00B9DEE64E
:20C2A000E08E00B9DBE6189814F042F8064605F114010DA80CF0C1FF284615F0A2FE0C9031
:20C2C00094F8390000F0030001283CD1B4F92C10BDF93020891A481C00EBD071BDF8342045
:20C2E000A2EB610109B2ADF83410B4F92C10BDF93020891A481C00EBD071BDF83820A2EBEF
:20C30000610109B2ADF83810B4F92E10BDF93220891A481C00EBD071BDF83620A2EB6101F3
:20C3200009B2ADF83610B4F92E10BDF93220891A481C00EBD071BDF83A20A2EB610109B278
:20C34000ADF83A1013E011A80DF06EF8BDF834100844401E00B2ADF8380011A80CF0D5FF24
:20C36000BDF836100844401E00B2ADF83A00BDF83400484400B2ADF83400BDF83600504408
:20C3800000B2ADF83600BDF838101598081A00B200E0E9E0ADF83800BDF83A101498081A3F
:20C3A00000B2ADF83A0094F8380000F00300012805D094F8380000F00300002878D106A861
:20C3C00010F0CFFB06AA002128461CF023FAE08EADF81A00208E00B2ADF81800608EADF84E
:20C3E0001C00A18EADF81E1094F83800C0098DF82C00BDF84400484400B2ADF81000BDF840
:20C400004600504400B2ADF81200BDF848101598081A00B2ADF81400BDF84A101498081AB5
:20C4200000B2ADF81600B068039004AA04A8B168F8F70EFA00B912E604A8B060BDF8361012
:20C44000608D084400B2ADF80600BDF90600BDF93610884206DDBDF80600E18D401A00B2AC
:20C46000ADF80600BDF80600E18D0844401E00B2ADF80A0049E0BDF83400218D084400B21F
:20C48000ADF80400BDF90400BDF93410884206DDBDF80400A18D401A00B2ADF80400BDF841
:20C4A0000400A18D0844401E00B2ADF8080016E034E001AA06A93046636A10F003FBBDF8E7
:20C4C0000400BDF83010084400B2ADF80400BDF80800BDF83010084400B2ADF80800BDF9A9
:20C4E0000400BDF938108842E3DBBDF80600BDF83210084400B2ADF80600BDF80A00BDF8E3
:20C500003210084400B2ADF80A00BDF90600BDF93A108842AFDB0398B06024E094F83800A9
:20C5200000F00300022811D104A810F045FE04AA002128461CF0D4F90020009005F114023B
:20C5400004A93046636A10F02BFB0CE0606A08B900BF08E000BF00BF002305F1140219469B
:20C56000304610F0AFFA00BF00BF00BF77E50000907E030830BCBDE8C08F00002DE9F14FB4
:20C58000DCB05C9813F02DFF05462C465C9813F0CFFE5B9059A928461AF0BEF80020CDE97A
:20C5A00010506822DDE910011BF03CFC0F900F9800B258900020CDE910506922DDE91001FF
:20C5C0001BF030FC0F900F9800B25790BDF864115898081A00B2ADF86401BDF8681158982F
:20C5E000084400B2ADF86801BDF866115798081A00B2ADF86601BDF86A115798084400B217
:20C60000ADF86A0159A80CF001FF834659A80CF06EFE5690D4E90A10A0EB0109B9F1000FD0
:20C6200001D14FF001095698834501DB012000E0002080460020559094F85C0000F0030086
:20C6400001280BD1A06A002808DAE06A002805DDA16A206B884201D10120559000212846A6
:20C660001BF030FA5490002128461BF0BBFA5390002128461BF05EFB5290002128461BF000
:20C6800061F9519059A904F134000CF0C4FDA18E5498084400B2A086218F5398081A01B2C8
:20C6A0002187E18E5298084401B2E186618F5198081A01B26187B8F1000F13D004F13400B9
:20C6C0000CF015FE04280DDA569800EBD0714A10E98A1144891E0AB2E286E08E001D01B2F3
:20C6E000618715E0B8F1000F12D104F134000CF08DFE04280CDA58460BEBD071AA8A02EB0A
:20C700006101891E09B2A186A08E001D01B2218704F134000CF07AFE509004F134000CF0E6
:20C72000E6FD4F90B8F1000F01D0509800E04F988246B8F1000F05D004F13406371DFE48E1
:20C740004C9004E004F13606371DFC484C90A06D401CF8B1A36A216DC91A01FB0AF191FB61
:20C76000F9F108B2A36A616DC91A01FB0AF191FBF9F10AB2131AD4F858C003FB0CF1CB1740
:20C7800001EB13631B121BB24D934D99014409B24D9108E0A16A206B401A00FB0AF090FB41
:20C7A000F9F000B24D90A06C401CE0B1A36A216CC91A01FB0AF191FBF9F108B2A36A616C8A
:20C7C000C91A01FB0AF191FBF9F10AB2131AD4F848C003FB0CF1CB1701EB136300EB2323DC
:20C7E0001BB24E9308E0D4E90901401A00FB0AF090FBF9F000B24E90002011901622284622
:20C8000011991BF00FFB10901098C0B24B90B8F1000F0ED04B9801280BD130463E460746FF
:20C820004E99494209B24E914D99494209B24D9100BFB8F1000F0AD031884E98084400B2F4
:20C84000388031884D98084400B230800AE039884E98081A401C00B2308039884D98081A9B
:20C8600000B23880559878B3A26A524202FB0AF292FBF9F211B2B8F1000F0CD032880A44C6
:20C8800010B2B7F90020824201DD30801BE03A883280388017E03A88521A521C10B2B6F989
:20C8A0000020824201DD388002E032883A803080B7F90020B6F900309A4204DAB6F90000E0
:20C8C0003A883280388000BF559800BB04F134004C99884701281ADC68465B9919F037FCEB
:20C8E0004FF400300D90964801900020029004F1340003906A461B21284613F079FD6A46C8
:20C900001C21284613F074FD5DB000F046B904F1340149A80CF07FFC3BA811F0DFFC3BAAC6
:20C920004FF4003128461CF0C0F829A85B9919F00EFC4FF40030369081482A9000202B90E2
:20C940003BA82D9004F134002C9029AA1B21284613F04EFD002011900B22284611991BF076
:20C9600061FA1090109800B228905698834501DA584600E056982790DDE92701B1EB600FFD
:20C9800002DD279840102890BDF9EC0026904F995098884201DA509800E04F982790DDE9F8
:20C9A0002601B0EB610F02DD279840102690B8F1000F08D004F134000CF028FD01462698C2
:20C9C000B1EB400F0BDCB8F1000F28D104F134000CF08DFC01462698B1EB400F1FDD9DF8A5
:20C9E000EF0011909DF8060110909DF80E010F9000208DF8EF008DF806018DF80E0104F17F
:20CA000034023BA95B9811F04DFC11988DF8EF0010988DF806010F988DF80E0100BFA98A41
:20CA20005498084400B2ADF87800298B5398081A00B2ADF87C00E98A5298084400B2ADF85B
:20CA40007A00698B5198081A00B2ADF87E0000231EA920A8289A11F027FB002120A810F008
:20CA600097FC1D909DF822011C909DF80E011B9000208DF80E018DF8220159A919A80CF0A8
:20CA8000CAFBBDF864105498084400B2ADF86400BDF866105298084400B2ADF86600BDF8E2
:20CAA00068105398081A00B2ADF86800BDF86A105198081A00B2ADF86A00B8F1000F15D09A
:20CAC00019A80CF014FC042810DA569800EBD0714A10E98A1144891E09B2ADF86610BDF805
:20CAE0006600001D00B2ADF86A0017E0B8F1000F14D119A80CF08AFC04280FDA58460BEB72
:20CB0000D071AA8A02EB6101891E09B2ADF86410BDF86400001D00B2ADF86800BDF9EC201F
:20CB2000002304F1340113A811F0BEFA002113A810F02EFC129005E00D940108EF92010873
:20CB40005C7D030819AA3BA95B9811F0ABFB1B988DF80E011C988DF8220100208DF8EF0079
:20CB60008DF806018DF8220104F134023BA95B9811F098FB13A810F0EEFE20A810F0EBFE93
:20CB8000129811F07DFB1D9811F07AFB29AA1C21284613F02DFC00BFB6E630BCBDE8C08F62
:20CBA000F0B591B00546284613F01BFC0446284613F0BEFB0746264603A811F08FFB03AAAC
:20CBC0004FF4403120461BF070FF47F6FF70ADF80C002C20805D00F0010038B120460FF0FC
:20CBE0000FFA0090BDF80000ADF81000214601A807F0E6FF01AA03A9384611F053FB11B061
:20CC0000F0BD00002DE9F04FB1B08146484613F0E8FB07463C46484613F08AFB83460021A7
:20CC200038461AF0ABFC012800D100E00020804638460AF0EFFC0546002694F85C0000F059
:20CC40000300012806D1A06A002803DAE06A002800DD0126B5B1384619F0B6FD824636B1FD
:20CC6000606A002803DAA08EADF8BC0019E0B8F1000F02D0B4F9340001E0B4F93800ADF887
:20CC8000BC000EE038461BF0B5FC824636B1606A002803DA608FADF8BE0002E0E08EADF8EB
:20CCA000BE0021A811F01AFB21AA4FF4403138461BF0FBFE2B4652462FA9384623F0A5FBC4
:20CCC0002FA904F168000CF0C1FA59460FA819F03EFA4FF440301C90384810900020119091
:20CCE0001D9004F16800129021A8139038461FF02DF8022810D00FAA1B21384613F078FB77
:20CD000004F1680221A9584611F0CCFA0FAA1C21384613F06DFB4DE0382221A901A817F0A5
:20CD200014FC0FAA1B21384613F062FB04F1680221A9584611F0B6FA0FAA1C21384613F021
:20CD400057FB55B1B8F1000F02D1B4F9340001E0B4F93800ADF8BC0002E0608FADF8BE00B4
:20CD60002B4652462FA9384623F04FFB2FA904F160000CF06BFA382201A921A817F0E5FBB5
:20CD80000120119004F16000129021A8139001201D900FAA1B21384613F02AFB04F16002AE
:20CDA00021A9584611F07EFA0FAA1C21384613F01FFB00BF31B000F003B800008C8403089B
:20CDC00030BCBDE8C08F2DE9F04790B00746384613F007FB0546284619F046FD064608A815
:20CDE00010F0EAF908AA002130461BF079FD384613F09EFA0446D4F8088006F1140206A814
:20CE0000A168F7F725FD10B910B0BDE8F08706A8A06004A9304608F0E5FAA88AADF80800CD
:20CE2000E88AADF80A00288BADF80C00BDF81200ADF80E0002AA02A8A168F7F709FD98B157
:20CE4000D4F8089002A8A060284616F062FA82460020534605F1140208A9009020460FF0C1
:20CE60009FFEC4F8089000BFA88AADF80800BDF81600ADF80A00288BADF80C00688BADF8AD
:20CE80000E0002AA02A8A168F7F7E2FC98B1D4F8089002A8A060284616F03BFA8246002071
:20CEA000534605F1140208A9009020460FF078FEC4F8089000BFC4F8088000BFA4E7000010
:20CEC0002DE9FF4FA1B0064614462498807B00F00F052298807E1F90032D00D10425012D7D
:20CEE00006D0022D0BD0042D10D0082D1DD114E0DFF868834FF0800A02201E901AE0DFF8FE
:20CF000060834FF0C00A04201E9013E0DFF854834FF0F00A10201E900CE0DFF84C834FF0CA
:20CF2000FF0A4FF480701E9004E000BF00BF25B000F0A2B900BF1F98FD2823DACB48017861
:20CF40001F98814203D1CA480068A84213D000200DE018F80010FF2901D11F9904E018F869
:20CF600000101F9A51430912C24A1154401C1E998842EED300BFDFF8FC82BC491F980870E2
:20CF8000BB4805602498B0F806B0249800891B900BFB05F01A90B4F90000B168B1F90010FA
:20CFA000884201DB002005E0B068B0F90000B4F90010401A1990B4F900005844B168B1F939
:20CFC0000410884201DC584606E0B068B0F90400B4F90010401A401C1890B4F90200B1686A
:20CFE000B1F90210884201DB002005E0B068B0F90200B4F90210401A1790B4F902101B98D5
:20D000000844B168B1F90610884201DC1B9806E0B068B0F90600B4F90210401A401C1690C9
:20D020001A9917984143199800FB051015902E99159801EBD0002E90159800F007071C21CE
:20D040000DA817F05AFC22988089ADF83C00FF208DF84C002298807FC0F3C2008DF84D002A
:20D06000F8F7D2FF01900FF0D7F90C901B980BFB00F10C98814201DD0C9802E01B990BFBC5
:20D0800001F00B900B9817F0A9F98146CDF8409000200A9021881998084400B2ADF8200085
:20D0A000218818980844401E00B2ADF8240061881798084400B2ADF82200BDF82200ADF819
:20D0C000260000BFBDF82400BDF82010401A401C00B2079000BFBDF82000ADF81400BDF8AC
:20D0E0002200ADF81600BDF82400ADF81800BDF82600ADF81A0000BFBDF81610169808448F
:20D1000000B2ADF81A0005A810F04AFC049008A80D901290C5F10800039019980BEB00012F
:20D120001898081A6843029017981C9078E00A9801902AFA07F0209019981D9028E02E9803
:20D140000078209908400399C91BC8401490149830B1149818F800100A9809F8001003E03B
:20D1600000210A9809F800100398874204D22F442098E840209005E00027CDF880A02E98E7
:20D18000401C2E900A98401C0A901D98401C1D9018991D988842D2DB0498A0B1BDF9262059
:20D1A000BDF92010019B09EB0300079B10F0A4FB8DF844009DF8440028B9019909EB0100A3
:20D1C000079917F09AFBDDE91801411A0A9801440B98814206D2BDF82600401C00B2ADF826
:20D1E000260012E002208DF844000DA9304611F0A4FABDF82600401C00B2ADF82200BDF8FC
:20D200002200ADF8260000200A90029807442E9800EBD7002E9007F007071C98401C1C907B
:20D2200016991C98884282DBBDF92200BDF9261088420ED0BDF82600401E00B2ADF8260042
:20D2400002208DF844000DA9304611F076FA00200A90484613F068FA00BF68E634790308D4
:20D26000367903084279030852790308280000102C0000101C30002030BCBDE8C08F2DE982
:20D28000FF4F8FB00C4615461E46B4F90200401E0E900E9840100D900E9800F001010D9875
:20D2A00008440C90B5F90000B6F90010884202DAB5F9000001E0B6F90000ADF82800B5F9BA
:20D2C0000000B6F90010884202DDB5F9000001E0B6F90000401E00B2ADF82C0069880C9832
:20D2E000081A00B2ADF82A0069880D98084400B2ADF82E000F980AA982680AA8F7F7A8FA9E
:20D300008246BAF1000F02D113B000F0A5B8E08818B1A08808B1012000E00020834601208B
:20D3200009900AA810F03CFB10B10020099004E0BBF1000F01D0002009901C2102A817F0DA
:20D34000E5FA0AA802902088ADF81000207A8DF82000099820B102A90F9811F0EEF979E009
:20D360000AA80CF037F80746BDF92E000190BDF82A00ADF82E0000200090BBF1000F0BD016
:20D38000B4F90600B4F904100844BDF9281091FBF0F200FB12100090384617F01FF8804662
:20D3A000CDF814800AA80790BDF92A904BE03A46FF21404617F012FABDF928103BB20FFA13
:20D3C00089F2404610F098FA8DF81800BBF1000F27D09DF8180020B3009800211BE0B4F98A
:20D3E0000420824207DBA3881B1A1AB28B1819B2831818B20BE0B4F90620B4F904301A4467
:20D40000824201DC002002E0002208F801204A1C11B2421C10B2B942E1DB02228DF8182045
:20D4200000BF02A90F9811F088F9BDF82A00401C00B2ADF82A00BDF82E00401C00B2ADF807
:20D440002E0009F1010901988145B0DD404613F06BF900BF00BF57E730BCBDE8C08F000025
:20D460002DE9FF4FC7B08B4691469A46B9F90200BAF90210884210DAB9F80200ADF81A01A9
:20D48000BAF80200ADF81601B9F80000ADF81801BAF80000ADF814010FE0BAF80200ADF8F9
:20D4A0001A01B9F80200ADF81601BAF80000ADF81801B9F80000ADF81401BDF91401BDF986
:20D4C0001811441ABDF91601BDF91A11451A002C01DD204600E06042002D01DD294600E06C
:20D4E0006942884201DD012000E000204490BBF9026000204390449870B1002D01DD284665
:20D5000000E068424101002C01DD204600E0604291FBF0F043900DE0002C01DD204600E0D1
:20D5200060424101002D01DD284600E0684291FBF0F04390E1494398085C70433F30C61163
:20D54000771006F0010000EB0708BDF91801BDF91411884202DABDF9180101E0BDF9140188
:20D56000801B00B2ADF80401BDF91801BDF91411884202DDBDF9180101E0BDF91401304472
:20D5800000B2ADF80801BDF91A01BDF91611884202DABDF91A0101E0BDF91601801B00B20B
:20D5A000ADF80601BDF91A01BDF91611884202DDBDF91A0101E0BDF91601304400B2ADF81E
:20D5C0000A01479841A9826841A8F7F741F94090409810B94BB000F073B94498F0B3002C49
:20D5E00024DD0021BDF81601C01B00B2CDE90001BDF91431BDF81A01C01B02B2BDF91811C0
:20D6000035A810F0CDFA0121BDF81601404400B2CDE90001BDF91431BDF81A01404402B288
:20D62000BDF918112AA810F0BBFA4AE00021BDF81601404400B2CDE90001BDF91431BDF8D0
:20D640001A01404402B2BDF9181135A810F0A8FA0121BDF81601C01B00B200E00DE0CDE91B
:20D660000001BDF91431BDF81A01C01B02B2BDF918112AA810F094FA23E00021BDF916011F
:20D68000CDE90001BDF81401404403B2BDF91A21BDF81801404401B235A810F081FA012160
:20D6A000BDF91601CDE90001BDF81401C01B03B2BDF91A21BDF81801C01B01B22AA810F06D
:20D6C0006FFA002135A80FF063FE139000212AA80FF05EFE12904FF0FF30119010909BF8AE
:20D6E0000900C0F3001068BB0321BDF81A01204400B2CDE90001BDF81801401B03B2BDF9E6
:20D700001A21BDF918111FA810F04AFA0221BDF81601204400B2CDE90001BDF81401401B03
:20D7200003B2BDF91621BDF9141114A810F038FA00211FA80FF02CFE1190002114A80FF0F0
:20D7400027FE109041A80BF045FE0F90F8F75CFC01900EF061FE0D9041A80BF0EBFD014659
:20D760000D98814203D241A80BF0E4FD00E00D980C900C9816F032FE0B90BDF90A010A90B6
:20D78000BDF80601ADF80A0100200990FF21DDE90B0217F023F81C2102A817F0B7F841A8C9
:20D7A0000290BBF80000ADF810009BF808008DF820000B98059041A80790BDF906010E901C
:20D7C00041E0BDF90411099B0B9AD0180F9A13B20E9A12B210F090F88DF818009DF8180080
:20D7E00028B9099A0B9988180F9917F08FF80F990998084409900F99099801440C98814208
:20D8000006D2BDF80A01401C00B2ADF80A0117E002208DF8180002A9479810F08EFFBDF830
:20D820000A01401C00B2ADF80601BDF80601ADF80A0100200990FF21DDE90B0216F0CEFF38
:20D840000E98401C0E900A990E988842B9DDBDF90601BDF90A1188420CD0BDF80A01401E2D
:20D8600000B2ADF80A0102208DF8180002A9479810F063FF0B9812F057FF35A810F06BF860
:20D880002AA810F068F81198401C10B11FA810F062F81098401C10B114A810F05CF81398EF
:20D8A00010F0EEFC129810F0EBFC119810F0E8FC109810F0E5FC00BF8CE60000527A0308CF
:20D8C00030BCBDE8C08F2DE9FF4F91B00C4615461E46B4F90200401E1090109840100F906E
:20D8E000109800F001010F9808440E9029880E98081A00B2ADF8300029880F98084400B2A7
:20D90000ADF83400B5F90200B6F90210884202DAB5F9020001E0B6F90200ADF83200B5F950
:20D920000200B6F90210884202DDB5F9020001E0B6F90200401E00B2ADF8360011980CA9F0
:20D9400082680CA8F6F784FF8146B9F1000F02D115B000F093B8E08818B1A08808B1012033
:20D9600000E00020824601200B900CA810F018F810B100200B9004E0BAF1000F01D0002054
:20D980000B901C2104A816F0C1FF0CA804902088ADF81800207A8DF828000B9820B104A928
:20D9A000119810F0CAFE67E00CA80BF013FD8346BDF936000390BDF83200ADF83600584648
:20D9C00016F00CFD0290029807900CA8099000200190BAF1000F0BD0B4F90600B4F904106E
:20D9E0000844BDF9321091FBF0F200FB12100190019FBDF9328038E05A46FF21029816F047
:20DA0000EDFEBDF930100FFA8BF30FFA88F202980FF072FF8DF82000BAF1000F13D09DF83A
:20DA2000200070B1B4F90400B84202DA00208DF82000B4F90600B4F904100844B84200DCC3
:20DA40000027781C07B204A9119810F076FEBDF83200401C00B2ADF83200BDF83600401C75
:20DA600000B2ADF8360008F1010803988045C3DD029812F059FE00BF00BF69E730BCBDE8C5
:20DA8000C08F2DE9FC5F8046404612F0AAFC0746B946D9F824603446404612F049FC05469F
:20DAA000606A00F114026846A968F6F7D1FE8246BAF1000F41D0D5F808B0C5F808D094F8E1
:20DAC0003C00C0F3401048B3608FE18E88420CD1628F212329463046FDF7DBFA628F2123EF
:20DAE00029463046FDF744FB24E0628F202329463046FDF7CEFA628F202329463046FDF728
:20DB000037FBE28E012329463046FDF7C2FAE28E012329463046FDF72BFB0BE0628F2023F8
:20DB200029463046FDF7B5FA628F202329463046FDF71EFBC5F808B000BF00F000B83CBC63
:20DB4000BDE8C09F2DE9F14FD0B0509812F049FC04462546288E10B951B000F0FFB95098F7
:20DB600012F0E6FB4F90608C20F00400001D60844DA9204618F0D0FD0026B246B4F8208047
:20DB800000202084608C20F00400001D608427A810F0A4FB1FA80FF00FFB27AA4FF4A021AD
:20DBA00020461AF082FF1FAA4FF4A02120461AF097FE608C20F004006084A4F82080002161
:20DBC00020461AF0C3F81E900021204619F0C6FE1D900021204619F081FF1C900021204628
:20DBE0001AF00CF81B9009A84F9918F0B0FA4FF4A0201690D7480A9000200B903DA80D9082
:20DC000035A80E9000BF9BE103E00AF101001FFA80FA696A51F82A00CFA1F2F75BFC0028BE
:20DC2000F3D0E96A31F81600FAF71FFC00B181E10027E96A31F81600FAF707FC08B147F0D3
:20DC40000107E96A31F81600FAF713FC10B147F0800716E0A88EB04213D108F0200008B1D8
:20DC600047F0200708F0020008B147F0020708F0040008B147F0040708F0080008B147F06C
:20DC80000807A86A00EBC6014BA80BF0CDFABDF82C01BDF83411084400B2ADF82C01BDF89B
:20DCA0002E01BDF83611084400B2ADF82E01BDF83001BDF83411084400B2ADF83001BDF8FE
:20DCC0003201BDF83611084400B2ADF8320157B9382227A93DA816F038FC20221FA935A8FF
:20DCE00016F033FC1DE02784608C20F00400001D60843DA810F0F2FA35A80FF05DFA3DAA5B
:20DD00004FF4A02120461AF0D0FE35AA4FF4A02120461AF0E5FDA4F82080608C20F0040050
:20DD20006084E96A31F81600FAF7ABFB8346BBF1000F06D09DF8F10040F001008DF8F1004F
:20DD400005E09DF8F10020F001008DF8F1004BA80C90179609AA1B21204612F049FB9DF865
:20DD60001701400800F01000F0B39DF8170120F03E001E308DF81701BDF92C11B4F91420E6
:20DD80001C98104481420AD19DF81701400820F004009DF8171160F345018DF81711BDF91B
:20DDA0003011B4F918201B98101A81420AD19DF81701400820F008009DF8171160F345015F
:20DDC0008DF81711BDF92E11B4F916201E98104481420CD19DF81701400820F002009DF878
:20DDE000171160F3450100E014E08DF81711BDF93211B4F91A201D98101A81420AD19DF8EF
:20DE00001701400820F001009DF8171160F345018DF817114BA80BF071FA814607F0200057
:20DE200060B1E86A30F8160000F4007030B1BDF82E01A0EB090000B2ADF82E014BAA3DA923
:20DE40004F9810F02FFA35980890BDF9E8000790BDF9E6000690686A50F82A0005904DA818
:20DE60000BF0DBFA03909DF8F11002460698CDE90121009004A8DDE90732059921F059F8B0
:20DE80004BA80BF0CAFABDF91010401A039000EBD070BDF82C1101EB600000B2ADF82C0120
:20DEA0004BA80BF02BFABDF91210401A039000EBD070BDF82E1101EB600000B2ADF82E0199
:20DEC000BDF82C01BDF81010084400B2ADF83001BDF82E01BDF81210084400B2ADF8320126
:20DEE00007F02000C0B1E86A30F8160000F4007090B1484609EBD071BDF82E21A2EB6101AF
:20DF000009B2ADF82E1109EBD071BDF83221A2EB610109B2ADF83211002000904BAA35A910
:20DF2000059B4F980EF03CFE09AA1C21204612F05FFA00BF701C86B20AF101001FFA80FA5F
:20DF4000288EB0423FF760AE608C20F00400608400BF01E6947D03080A00000030BCBDE894
:20DF6000C08F2DE9F14FA2B0229812F03AFA04462546229812F0DCF921900021204619F033
:20DF8000C5FB81462646002712223946304619F049FF0A900A98484400B2209000BF1322CF
:20DFA0003946304619F03EFF0A900A98484400B21F900021204619F0F9FE484400B21E908A
:20DFC00016A80FF0F9F816AA4FF4003120461AF087FCA86A10B1D5F828800AE0802016F094
:20DFE000FDF9064680223146204611F0CCFEB04600BF4FF0000A95F83C0000F00F000128A6
:20E0000000D18246002616223146204619F00AFF0A900A98C0B2012800D18246E86A002830
:20E020007DD0E86A14F020FA0A900A98022814D19DF8750041F6FF72BDF96A10CDE900122E
:20E040000290BDF96C30169A07A8E96A20F071FFBDF91C60BDF91E7011E007A9E86A13F03E
:20E06000B5FD8346BBF1010F05D10798C0F38A260798470D02E04FF0FF36374600BFBAF161
:20E08000000F0DD0A18A2098084400B2ADF82000BDF820003044401E00B2ADF824000DE0DF
:20E0A000218B1F98081A801B00B2ADF82000BDF820003044401E00B2ADF824000A980228DB
:20E0C00015D1E18A1E98084400B2ADF82200BDF822003844401E00B2ADF826000020009096
:20E0E00008AA16A9EB6A21980EF05AFD3FE0204618F06AFBA0EB070B0BEBDB704110E08AC1
:20E10000084400B2ADF82200BDF822003844401E00B2ADF8260002A80EF023FD00E027E05D
:20E1200002AA4FF4003120461AF074FB304606EBD071491009B2ADF80C10384607EBD071B2
:20E1400049100AB2ADF80E204FF4003B6D225946204619F067FE0190019800B2ADF80800CE
:20E1600008AA02A9EB6A21980EF0ACFC00BF00BF0EA80FF021F80EAA002120461AF0B0FB4E
:20E180009DF8550041F6FF72BDF94A10CDE900120290BDF94C3041460DA80E9A20F0C9FE96
:20E1A000E18A1E98084400B2ADF82E00BDF82E00BDF83610084400B2ADF83200E86AB0B9FF
:20E1C00020461AF017FABDF93410461A06EBD670A18A01EB600000B2ADF82C00BDF82C0052
:20E1E000BDF83410084400B2ADF8300022E0BAF1000F11D0218B1F98081ABDF83410401ADE
:20E2000000B2ADF82C00BDF82C00BDF83410084400B2ADF830000DE0A18A2098084400B200
:20E22000ADF82C00BDF82C00BDF83410084400B2ADF83000002043460BAA0EA90090219802
:20E240000EF0AEFCA86A10B9404612F06DFA23B000F000B830BCBDE8C08F2DE9F14F90B05B
:20E26000109812F0BEF805462C46109812F060F806460EA9284618F0FBF9002794F84C0013
:20E28000C0F3001008B147F0010794F84C00C0F3401008B147F00207002128461AF086F8D8
:20E2A00042F2D171884205D1688CC0F3802008B947F0040706A80EF07FFFB4F84800ADF83B
:20E2C0002E004A20005BADF830008DF8357006AA002128461AF004FB0DA8411E626A0378A9
:20E2E0000BB90123037000BF284615F01EF80790284615F014F808904FF6FF7107988842AF
:20E3000023D00898884220D04FF4802B55225946284619F087FD0246594601902846F7F7DD
:20E320000EFC029002980390BDF80C00ADF8260000BF20225946284619F074FD02900298D4
:20E340000390BDF80C00ADF8280094F84C0000F00700022805D094F84C0000F007000328D4
:20E360001FD19DF83400022803D09DF83400032817D141F6FF71BDF92A008DE88300BDF9D6
:20E380002C30069A03A8616A20F0D3FD0EA80BF052F8BDF90C10884202DA01208DF83400DE
:20E3A00000BF04F1300894F84C0000F00700032805D00EA80AF0B0FFB0F5806F01DA4FF095
:20E3C00000080EA904A8B268F6F742FA8146B9F1000F02D111B000F095B894F84C0000F076
:20E3E000070070B9284618F0C8FB8346CBF1000002B200210EA80BF03DF8688BADF83E009E
:20E4000000BF94F84C0000F00700022805D094F84C0000F0070003280ED1D6F808B004A864
:20E42000B060CDF800800EAA06A93046636A0EF0B7FBC6F808B007E0CDF800800EAA06A924
:20E440003046636A0EF0ACFBD6F808A004A8B06094F84C0000F0070003284FD141F6FF71E1
:20E46000BDF92A008DE88300BDF92C30069A03A8616A20F05EFD0EA80AF0DDFFBDF90C10D3
:20E4800088421BDA20221146069812F027F900EB4000B4F84810BDF80C201144084400B201
:20E4A000ADF82E004A20005BADF83000CDF800800EAA06A93046636A0EF072FB0EA80AF0E5
:20E4C0002BFFBDF90E10884217DAB4F84800ADF82E00069812F01BF94A21095BBDF80E2056
:20E4E0001144084400B2ADF83000CDF800800EAA06A93046636A0EF053FB00BFC6F808A094
:20E5000000BF67E730BCBDE8C08F2DE9F14F9AB01A9811F005FF80461A9811F062FF044693
:20E52000B8F1160F16D11A9811F002FF054618A9204606F057FF0AA80FF0D0FE0AAA4FF43E
:20E54000802120461AF0B1FA18AA0AA928460FF0A9FEC3E0B8F1190FFBD11A9811F0E8FE9D
:20E56000054612A80EF028FE12AA4FF4802120461AF0B6F910A9204606F034FF10AA0EA8FB
:20E58000A968F6F765F90D900D9800287DD0204606F075FB814620461AF02CF883464846EA
:20E5A00014F0B7FE02210390BDF95A00CDE901B10090BDF95C300CA8129A039920F0B9FCE1
:20E5C000204618F001F90646304606EBD0714A10B4F916100A44B9F91610891A0B914846BF
:20E5E00018F0F2F80B99890391FBF0F00B900021204619F0E2FD0A901299B1F908200A99C9
:20E60000B1F90810501A00EBD071491009B20991BDF832100998081A00B2ADF8320030463B
:20E6200006EBD0714A10B4F916105718BDF932000B99484307EBA03709983F1A00212046AB
:20E6400019F070F882464FF0000B12225946204619F0E8FB0390039800B2089000BF1322A6
:20E660005946204619F0DEFB0390039800B20790A18A08980844504400B2ADF8140038B23C
:20E68000ADF81600218B079800E026E0081AA0EB0A0000B2ADF81800BDF81600BDF83210A6
:20E6A000084400B2ADF81A009DF8650040F002008DF86500A86804900EA8A860484614F093
:20E6C00028FE834600205B4605AA12A9009028460EF066FA0498A86000BF00BF1BB000F0E7
:20E6E00000B830BCBDE8C08F2DE9F14FA8B0289811F077FE04462546289811F019FE27905A
:20E700000021204619F026FA26900021204619F0B1FA25900021204619F060FB24900021E3
:20E72000204619F057F9239000BFA08AADF88400E08AADF88600208BADF88800608BADF858
:20E740008A0000BFBDF884102698084400B2ADF88400BDF888102598081A00B2ADF8880037
:20E76000BDF886102498084400B2ADF88600BDF88A102398081A00B2ADF88A0013A80FF0A2
:20E78000ADFD13AA4FF4003120461AF08EF921AA13A927980FF086FD0027204618F014F83E
:20E7A000064600BF208BA18A401A401C801B0FFA80F8686A401C40B1696A01FB08F0C117E8
:20E7C00000EB116109120FB20CE0204618F04CFE00F0010BBBF1000F01D0404600E000204E
:20E7E000074600BF4FF0000B16225946204619F019FB00900098C0B2012802D1A8EB070039
:20E8000007B2A08A384400B2ADF84400BDF94410002E01DD701E00E00020084400B2ADF8B7
:20E820004800E08AADF84600608BADF84A004FF44031204619F08EF981464FF440312046D6
:20E8400019F018FA82464FF44031204619F0C6FA10904FF44031204619F0BCF80F90BDF827
:20E860004400A0EB090000B2ADF84400BDF84800504400B2ADF84800BDF846101098081A20
:20E8800000B2ADF84600BDF84A100F98084400B2ADF84A0001A80FF021FD01AA4FF4403113
:20E8A00020461AF002F911AA01A927980FF0FAFC29B000F000B830BCBDE8C08F2DE9F14F1D
:20E8C000E0B0609811F08DFD04462546609811F02FFD804604F114015EA8D8F80820F5F791
:20E8E000B7FF10B961B000F0C5BAD8F808005D905EA8C8F808004FF00009322249462046F5
:20E9000019F090FA1390139800B259900021204619F070FA58900021204619F067F85790C3
:20E920000021204619F022F956900021204619F0ADF95590208C549000202084608C20F0DB
:20E940000400001D608446A80FF0C8FC46AA4FF4A02120461AF0A9F830A80EF02DFC30AA23
:20E960004FF4A021204619F0BBFF54982084608C20F0040060840027204618F012F901460F
:20E98000E28A58981044401E411A5998084400B2ADF86E010020ADF86801ADF86C01204665
:20E9A00018F0F5F827900021204618F0F3FD012800D100E000202690414614A817F0C7FB70
:20E9C0004FF4A0202190FE4815900020169038A8189028A819904FF0000B41E2E86A30F9E9
:20E9E0001B001390BDF86E01401C00B2ADF86A01BDF86A1113980844401E00B2ADF86E01CC
:20EA0000BDF96A01BDF97E11884200DD2CE2269858B1218B5598081A401E2799411A5998EF
:20EA2000081A00B2ADF868010AE0A18A56980844401E2799411A5998084400B2ADF86C012B
:20EA4000002605E200201290A86A50F8270020B1A86A50F8270000781290269880B1BDF856
:20EA60006801401E00B2ADF86C01286B30F81600BDF86C11081A401C00B2ADF868010FE0DB
:20EA8000BDF86C01401C00B2ADF86801286B30F81600BDF868110844401E00B2ADF86C01CB
:20EAA0004FF0000900BF2CE007EB0901A86A50F821000F900F9808F092FD00B127E00F98A0
:20EAC00000780E900E9800F00100A8B106EB0901491C2A6B32F91100269931B1BDF8681130
:20EAE000091A09B2ADF8681105E0BDF86C11014409B2ADF86C1100E009E009F101001FFA04
:20EB000080F909EB0601A88C401E8142CCDB00BFBDF96E01BDF97A11884207DA09F10100BA
:20EB2000384487B206EB090086B28FE100BFBDF86801ADF84000BDF86A01ADF84200BDF800
:20EB40006C01ADF84400BDF86E01ADF8460000BF9DF83B01400800F0040090B1BDF940103D
:20EB6000B4F914205698104481420ADDBDF9380100EBD071BDF84020A2EB610109B2ADF849
:20EB800040109DF83B01400800F0020090B1BDF94210B4F916205898104481420ADDBDF94A
:20EBA000380100EBD071BDF84220A2EB610109B2ADF842109DF83B01400800F00800B8B1BE
:20EBC000BDF94410B4F918205598101A401E81420EDABDF9380100EBD07182B202F00102E2
:20EBE00002EB6101BDF84420114409B2ADF844109DF83B01C0F34000B8B1BDF94610B4F9BE
:20EC00001A205798101A401E81420EDABDF9380100EBD07182B202F0010202EB6101BDF850
:20EC20004620114409B2ADF846104FF0000AE88E584523D1A88EB04220D194F8200000F05E
:20EC4000400030B994F8200000F0200008B14AF0200A94F8200000F0020008B14AF0020A15
:20EC600094F8200000F0040008B14AF0040A94F8200000F0080008B14AF0080ABAF1000F90
:20EC80000AD1382246A938A815F05FFC202230A928A815F05AFC1EE0A4F820A0608C20F074
:20ECA0000400001D608438A80FF018FB28A80EF083FA38AA4FF4A021204619F0F6FE28AAF7
:20ECC0004FF4A021204619F00BFE54982084608C20F00400608410A81790A88C0BFB00604B
:20ECE000229014AA1B21204611F082FB10AA38A940460FF0D7FAA86A50F8270000287DD09D
:20ED00004FF4A021204618F031FF0F904FF4A021204618F0BBFF0E904FF4A021204619F075
:20ED200069F80D904FF4A021204618F05FFE0C9000200B90BDF868110F98084400B2ADF837
:20ED40002400BDF86C110E98081A00B2ADF82800BDF86A110D98084400B2ADF82600BDF8C3
:20ED60006E110C98081A00B2ADF82A001298C0F340000890089808B102200B9000BFBDF80E
:20ED80002800BDF82410401A401C00B20490BDF9B22004990B98CDE900210290A86A50F8DB
:20EDA0002700411CBDF9B4305CA8309A20F0C1F8089810BB139901EBD172BDF86A3101E027
:20EDC000FC84030803EB6202BDF9720100EBD073A2EB630212B2ADF82620139901EBD17283
:20EDE000BDF86A3103EB6202BDF9720100EBD07302EB630212B2ADF82A2000E019E05AAA38
:20EE00005EA906A8F5F724FD0590059880B106A8C8F8080000200090A86A50F82700431CC7
:20EE200009AA28A940460DF0BBFE5EA8C8F8080000BF14AA1C21204611F0DAFA09F1010054
:20EE4000384487B206EB090086B200BF701C86B2A88CB0423FF7F6AD0BF101001FFA80FBB8
:20EE6000E88C58453FF7BAAD00BF5D98C8F8080000BF37E530BCBDE8C08F00002DE9F04F58
:20EE8000A3B0074689461646229730460AF0DAFA054600EBD5704FEA60083088404400B2A0
:20EEA000ADF884007088404400B2ADF886001EA80EF03EFA1EAA4FF4A021384619F076FD0E
:20EEC00018A80DF04EFE18AA4FF4A021384619F0A1FC0021384618F0E1FC1790494605A8D8
:20EEE00017F035F97048069021A80E9022983030F6F730FD0446D1E0256816942079012800
:20EF00005CD1B5F92000E98B08440090B5F92030D5E90512E06815F091FA8246A88B00EB15
:20EF20000801608A08440FFA80FB0FFA8AF01FF00DFF10FB0BF047F6FF7190FBF1F0BDF89C
:20EF40008610084400B2ADF812000FFA8AF01FF0F4FE10FB0BF047F6FF7190FBF1F0BDF80E
:20EF60008410084400B2ADF81000A08AADF87800208A00B2ADF87A006079FD2801DD1798FD
:20EF800003E060791799484300128DF88000012013901EA80B9004A80F9005AA1B2138468A
:20EFA00011F026FA04AB21AA1EA948460EF0A9F905AA1C21384611F01BFA68E02079002838
:20EFC00065D1206900B963E0B5F92000E98B08440090B5F92030D5E90512E06815F02EFA10
:20EFE000824604A9206912F0F1FDBDF88410A08A081A00B2ADF80800BDF88610E08A081A58
:20F0000000B2ADF80A00BDF808000499C1F38A210844401E00B2ADF80C00BDF80A0004996D
:20F0200000EB5150401E00B2ADF80E006079FD2801DD179803E060791799484300128DF868
:20F040006B00A08AADF86400E18A18A8C1800AEB8A004FEA400ABAF5616F01DDAAF5616ADD
:20F060000FFA8AF0ADF8600018A80C9005AA1B21384611F0BDF902AA18A9484623690DF008
:20F0800021FD05AA1C21384611F0B2F900BF00BF214622983030F6F757FC0446002C7FF414
:20F0A0002BAF23B000F002B8E483030830BCBDE8C08F2DE9F74F8AB00C46904694F82A0033
:20F0C000022802DC0DB000F074B8E08C00B9F9E794F82A90B9F1FD0F01DD4FF0FF094146A2
:20F0E00008A80AF08FF8208D401E05B2BDF82000401B00B2ADF82000BDF82200401B00B292
:20F10000ADF82200BDF82400284400B2ADF82400BDF82600284400B2ADF8260008A906A845
:20F120000AF070F8BDF81800E18C401A00B2ADF81800BDF81C00E18C084400B2ADF81C006D
:20F14000BDF81A00E18C401A00B2ADF81A00BDF81E00E18C084400B2ADF81E0008A80AF0FD
:20F1600040F9824608A80AF0ADF80746B4F90060BA4501DA504600E038468346B6EB6B0F33
:20F1800001DD4FEA6B06E08C304400B20590A07894F82A10CDE90210A08CADF8040030B263
:20F1A000009008AA06A9059B0A98FBF712FC00BF88E730BCBDE8C08FF8B50546284611F0A7
:20F1C00010F90646284611F009F90446606BB0F5A02F54D1A06B072806D200202169C870C7
:20F1E000216981F8220014E0208F81B2202230460AF0E2FF68B100202169C870216981F883
:20F20000220012201BF0A6FC0090BDF8001060698181208F81B24FF4004230460AF0CCFF2B
:20F2200098B166202169C87030461FF00BFA0090BDF800102069818030460AF0B7FFA16BA2
:20F24000884202D1B2202169C870208F81B24FF4804230460AF0B0FF88B1FF20216981F81C
:20F26000220030461FF0EEF90090BDF800102069C1832069008C401C00B221690884F8BDF0
:20F280002DE9F04F8BB08146484611F0AAF805462C46484611F04CF88346606A14F039F88E
:20F2A00082469AF8000000283ED1A06A00283BD0A06A0078C0B303A80DF07EFF03AA4FF476
:20F2C0000021284619F00CFB94F86000C0F3C00028B19DF8290040F002008DF82900002198
:20F2E000284618F04FFC07460021284618F08EFD80460021284618F021FA064605F114010F
:20F3000001A809F0ACFF08EB060002B2B81901B201A80AF0AFF80020009001AA03A9584680
:20F32000A36A0DF03DFC00BF0BB000F000B830BCBDE8C08F7CB50446A06985686089002806
:20F3400056D1A089002853D1E088218988424FDAE18808B21FF0FAFCB4F90410B4F90E2048
:20F36000891A48432168498801EBE03000B2ADF80200E1885A3108B21FF0E8FCA18810FBDB
:20F3800001F02168098801EBE03000B2ADF80400218908B21FF0DAFCA18810FB01F0216814
:20F3A000498801EBE03000B2ADF8060021895A3108B21FF0CBFCB4F90410B4F90E20891A1F
:20F3C00048432168098801EBE03000B2ADF800002A4669466846F5F73BFA06463EB1A16902
:20F3E000C1F808D0D4E90412A0690EF05BFFC2E0608910B1A08900287BD16089D0BB206863
:20F400000088ADF8000020684088A188084400B2ADF80600E18808B21FF098FCB4F9041016
:20F42000B4F90E20891A48432168498801EBE03000B2ADF80200E1885A3108B21FF086FCD5
:20F44000A18810FB01F02168098801EBE03000B2ADF804002A4669466846F5F7F9F906461F
:20F460003EB1A169C1F808D0D4E90412A0690EF019FF00BFA08900287DD120680088A18879
:20F48000084400B2ADF8040020684088ADF80200218908B21FF05AFCA18810FB01F0216857
:20F4A000498801EBE03000B2ADF8060021895A3108B21FF04BFCB4F90410B4F90E20891A9E
:20F4C00048432168098801EBE03000B2ADF800002A4669466846F5F7BBF906463EB1A16982
:20F4E000C1F808D0D4E90412A0690EF0DBFE42E0FFE76089A189884205D1608918B12089B2
:20F50000E188884211DB6089022802D1A08901280BD06089032802D1A089022805D06089C1
:20F52000032828D1A089012825D120680088ADF8000020684088ADF8020020680088A1887A
:20F54000084400B2ADF8040020684088A188084400B2ADF806002A4669466846F5F778F9B8
:20F5600006463EB1A169C1F808D0D4E90412A0690EF098FE00BFA06985607CBD7CB50446E4
:20F58000A06985686089012856D1A089012853D1E088218988424FDAE18808B21FF0D6FBBE
:20F5A000A18810FB01F02168498801EBE03000B2ADF80600E1885A3108B21FF0C7FBB4F947
:20F5C0000410B4F90E20891A48432168098801EBE03000B2ADF80400218908B21FF0B6FB79
:20F5E000B4F90410B4F90E20891A48432168498801EBE03000B2ADF8020021895A3108B2A3
:20F600001FF0A4FBA18810FB01F02168098801EBE03000B2ADF800002A4669466846F5F7F1
:20F6200017F906463EB1A169C1F808D0D4E90412A0690EF037FEC7E06089012802D0A08921
:20F6400001287ED1608901283AD120680088A188401A00B2ADF8000020684088ADF8020034
:20F66000E18808B21FF072FBA18810FB01F02168498801EBE03000B2ADF80600E1885A311F
:20F6800008B21FF063FBB4F90410B4F90E20891A48432168098801EBE03000B2ADF8040008
:20F6A0002A4669466846F5F7D3F806463EB1A169C1F808D0D4E90412A0690EF0F3FD00BF67
:20F6C000A0890128B7D120680088401E00B2ADF8040020684088A188084400B2ADF8060065
:20F6E000218908B21FF032FBB4F90410B4F90E20891A48432168498801EBE03000B2ADF8F3
:20F70000020021895A3108B21FF020FBA18810FB01F02168098801EBE03000B2ADF800003C
:20F720002A4669466846F5F793F806463EB1A169C1F808D0D4E90412A0690EF0B3FD43E002
:20F74000FFE76089A189884206D16089012803D02089E18888420FDB608910B9A08902285F
:20F760000AD0608910B9A089032805D0608903282AD1A089022827D120680088A188401AE7
:20F7800000B2ADF8000020684088ADF8020020680088401E00B2ADF8040020684088A188D9
:20F7A000084400B2ADF806002A4669466846F5F74FF806463EB1A169C1F808D0D4E90412F7
:20F7C000A0690EF06FFD00BFA06985607CBD7CB50446A06985686089022856D1A0890228D2
:20F7E00053D1E088218988424FDAE1885A3108B21FF0ACFAA18810FB01F02168098801EB52
:20F80000E03000B2ADF80000E18808B21FF09EFAB4F90410B4F90E20891A48432168498893
:20F8200001EBE03000B2ADF80600218908B21FF08DFAA18810FB01F02168498801EBE030FA
:20F8400000B2ADF8020021895A3108B21FF07EFAB4F90410B4F90E20891A484321680988F5
:20F8600001EBE03000B2ADF804002A4669466846F4F7EEFF06463EB1A169C1F808D0D4E9F9
:20F880000412A0690EF00EFDCCE06089022802D0A08902287DD1608902283CD120680088DE
:20F8A000401E00B2ADF8040020684088A188401A00B2ADF80200E1885A3108B21FF046FA66
:20F8C000A18810FB01F02168098801EBE03000B2ADF80000E18808B21FF038FAB4F9041071
:20F8E000B4F90E20891A48432168498801EBE03000B2ADF806002A4669466846F4F7A8FFED
:20F9000006463EB1A169C1F808D0D4E90412A0690EF0C8FC00BFA0890228B5D120680088CB
:20F92000A188401A00B2ADF8000020684088401E00B2ADF8060021895A3108B21FF006FAE4
:20F94000B4F90410B4F90E20891A48432168098801EBE03000B2ADF80400218908B21FF0F9
:20F96000F5F9A18810FB01F02168498801EBE03000B2ADF802002A4669466846F4F768FFA6
:20F9800006464EB1A169C1F808D0D4E90412A06900E002E00EF086FC44E06089A189884262
:20F9A00006D16089022803D02089E18888420FDB608910B9A08903280AD06089012802D1FF
:20F9C000A089032804D0608901282BD1A08948BB20680088A188401A00B2ADF80000206853
:20F9E0004088A188401A00B2ADF8020020680088401E00B2ADF8040020684088401E00B23A
:20FA0000ADF806002A4669466846F4F721FF06463EB1A169C1F808D0D4E90412A0690EF0B3
:20FA200041FC00BFA06985607CBD7CB50446A06985686089032856D1A089032853D1E08817
:20FA4000218988424FDAE1885A3108B21FF07EF9B4F90410B4F90E20891A484321680988F1
:20FA600001EBE03000B2ADF80000E18808B21FF06DF9A18810FB01F02168498801EBE03020
:20FA800000B2ADF8020021895A3108B21FF05EF9A18810FB01F02168098801EBE03000B2CB
:20FAA000ADF80400218908B21FF050F9B4F90410B4F90E20891A48432168498801EBE030C1
:20FAC00000B2ADF806002A4669466846F4F7C0FE06463EB1A169C1F808D0D4E90412A069A1
:20FAE0000EF0E0FBC7E06089032802D0A08903287ED1608903283CD120680088A188084457
:20FB000000B2ADF8040020684088401E00B2ADF80600E1885A3108B21FF018F9B4F90410F0
:20FB2000B4F90E20891A48432168098801EBE03000B2ADF80000E18808B21FF007F9A188F4
:20FB400010FB01F02168498801EBE03000B2ADF802002A4669466846F4F77AFE06463EB18F
:20FB6000A169C1F808D0D4E90412A0690EF09AFB00BFA08903287ED120680088ADF8000064
:20FB800020684088A188401A00B2ADF8020021895A3108B21FF0DAF8A18810FB01F02168BB
:20FBA000098801EBE03000B2ADF80400218908B21FF0CCF8B4F90410B4F90E20891A48435C
:20FBC0002168498801EBE03000B2ADF806002A4669466846F4F73CFE06463EB1A169C1F882
:20FBE00008D0D4E90412A0690EF05CFB43E0FFE76089A189884206D16089032803D02089AF
:20FC0000E18888420FDB6089022801D1A08950B16089012801D1A08928B1608902282AD1C4
:20FC2000A089012827D120680088ADF8000020684088A188401A00B2ADF802002068008889
:20FC4000A188084400B2ADF8040020684088401E00B2ADF806002A4669466846F4F7F8FD1C
:20FC600006463EB1A169C1F808D0D4E90412A0690EF018FB00BFA06985607CBD70B5A4B062
:20FC800006460D4620AA22A9304616F094FF22A809F050FB28B920A809F04CFB08B924B095
:20FCA00070BD12A9304622F078F90446012C00D0F5E72946684616F04AFA1B4801900220C3
:20FCC000029012A804904FF480300D9022A809F031FB80B122A803906A461B21304610F0D5
:20FCE00087FB22AA12A928460EF0DCFA6A461C21304610F07DFB20A809F01CFB90B120A8FD
:20FD000003906A461B21304610F072FB20A8039020AA12A928460EF0C5FA6A461C21304613
:20FD200010F066FB00BFBAE7107903082DE9F04FB3B005460F4605F1140131A8BA68F4F725
:20FD400087FD10B933B000F047B9B868309031A8B8602C460021284617F0CCFE2D90002102
:20FD6000284617F0FFFF2C90284616F0C0FCB4F88410484300120FFA80FA284616F0A2FCB2
:20FD8000B4F88610484300120FFA80FB04F12400F5F7C1FD2A900021284617F057FE8234E2
:20FDA00061884843001229902188491E299801FB10A0218890FBF1F001B228914FF4A02102
:20FDC000284617F043FE6188823C4843001227902A98421EDDE9270102FB10112A98B1FBD6
:20FDE000F0F000B226900021284617F083FC2590284616F0D7FD01462D98411A2598084439
:20FE000000B22490284616F0B8FE01462C98411A2598084400B2239015A80EF05FFA15AAAB
:20FE20004FF4A021284618F040FE15A8C07B20F0070115A8C173FF208DF85700688BBDF866
:20FE40005410084400B2ADF8BE00394603A816F07EF94FF4A02010905E48049004200590A0
:20FE60004FF00008ACE02898AAEB000000FB08F0B4F88210491E90FBF1F0A98A0144249822
:20FE8000084400B20290CDF8448004F12400F5F761FD06468CE0307B00F0010000B181E080
:20FEA00094F88800C0F3C00008B9708900E0002000B201900298ADF8B800BDF8B81026988C
:20FEC0000844401E00B2ADF8BC00DDE9260101440298084400B20290BDF9BC00BDF9C4100D
:20FEE000884200DA5EE0BDF9B800BDF9C810884200DD60E03089ADF8580001984044B4F8BE
:20FF0000821090FBF1F201FB12000FFA80F9706830F91910307BC0F3001204F16C0030F92D
:20FF20001200081A00FB0BF02B90307BC0F3001104F1700030F91110307BC0F3001204F159
:20FF40006C0030F91200091A2B9890FBF1F02B902B98ABEB0001E88A01442398084400B223
:20FF6000ADF8BA00706830F9190047F6FF71884217D02EA8069015A807901496706830F93F
:20FF80001900139003AA1B21284610F031FA2EAA15A938460EF086F903AA1C21284610F03A
:20FFA00027FA00BF314604F12400F5F7CDFC0646002E7FF470AF00BF08F101001FFA80F8C6
:20FFC000B4F8820040453FF74EAF3098B86000BFB8E60000047E030830BCBDE8C08F000091
:20FFE0002DE9F34FB9B083463A980BF11401826837A8F4F72DFC10B93BB000F087BA3A9800
:020000040801F1
:200000008068369037A93A9881605D46B5F88200022800DAF0E70021584617F06BFB339003
:200020000021584617F066FD01463398084400B232900021584617F095FE0146339808440E
:2000400000B23190584616F052FBB5F884104843001200B23090584616F034FBB5F88610D6
:200060004843001200B22F90584616F09BFC0146BBF8142032981044401A00B22E90584683
:2000800016F07BFD0146BBF8162031981044401A00B22D903A980BF1140182682BA8F4F741
:2000A000D7FB2A902A9800B9A6E727A80DF040F927AA4FF4A021584618F078FC19A80EF0F9
:2000C0000DF919AA4FF40031584618F0EEFC4FF40031584618F05EF9064600EBD67047100E
:2000E0004FF40031584617F079FB064600EBD6704FEA600ABDF99E00574501DA394600E029
:20010000514600EBD072B1EB620F06DD9DF8A50020F0100010308DF8A500BDF89E000128EB
:2001200006D19DF8A50020F0100010308DF8A500B5F882103098814201DB012000E000205D
:20014000189005F12400F5F705FC0446D4E1207B00F0010000B1C9E12089ADF89C00208977
:20016000ADF8680095F88800C0F3C00008B9608900E0002006B217962E98ADF8D4002E98D6
:20018000ADF8D000179E179EB046606830F91810207BC0F3001205F16C0030F91200081A52
:2001A0002F9948431690207BC0F3001105F1700030F91110207BC0F3001205F16C0030F94C
:2001C0001200091A169890FBF1F0169016992F98411A2D98084400B2ADF8D20004A83A99A0
:2001E00015F0B5FFC8480590032006904FF4A020119027A80A9019A808901594BDF9D20051
:200200000390BDF9D20002904FF0000923E1BDF8D000ADF8D400BDF8D200ADF8D600BDF92F
:20022000D4103698B0F904003844401C814200DD16E1309800FB09F0B5F88210491E90FB03
:20024000F1F12E98084400B2ADF8D00017984844B5F8821090FBF1F201FB120006B260680D
:2002600030F91610207BC0F3001205F16C0030F91200081A2F9948431690207BC0F30011B8
:2002800005F1700030F91110207BC0F3001205F16C0030F91200091A169890FBF1F01690CE
:2002A00016992F98411A2D98084400B2ADF8D200BDF9D0103698B0F90000C01B401E81422A
:2002C00001DAB046C3E0B9F1000F58D01898E8B3606830F9180047F6FF718842F5D0606871
:2002E00030F916008842F0D0BDF9D2100298814201DA029801E0BDF9D2000290BDF9D21038
:200300000398814201DD039801E0BDF9D2000390BDF9D400BDF9D010884230D0BDF9D20098
:200320000190BDF8D000401E00B2ADF8D000BDF8D000ADF8D4000398ADF8D6000298ADF8CF
:20034000D200BDF9D600BDF9D21000E018E0884205D1BDF8D200401C00B2ADF8D20034AB44
:2003600035AA27A93A980CF0CCFFBDF8D000401C00B2ADF8D000019803900198029064E092
:20038000BDF8D400C01B00B2ADF80000BDF8D400384400B2ADF80400BDF8D600A0EB0A0022
:2003A00000B2ADF80200BDF8D600504400B2ADF80600A9F101001290606830F9180047F6E5
:2003C000FF71884201D035A800E000200D90606830F9160047F6FF71884201D034A800E08D
:2003E00000200E90CDF81CD0606830F91800149004AA1B2158460FF0FBFF606830F9180057
:2004000047F6FF7188420AD0606830F91600884205D034AB35AA27A93A980CF072FF77B1F0
:20042000BAF1000F0BD0606830F9180047F6FF71884204D06A4619A93A980DF033FF04AAB2
:200440001C2158460FF0D4FF00BFB04600BF09F101001FFA80F9B5F8820048453FF7D7AE77
:2004600000BF1898E8BBB5F8820048453DD1606830F9160047F6FF71884236D0BDF8D00097
:20048000C01B00B2ADF80000BDF8D000384400B2ADF80400BDF8D200A0EB0A0000B2ADF85B
:2004A0000200BDF8D200504400B2ADF80600A9F10100129000200D900E90CDF81CD06068B1
:2004C00030F91600149004AA1B2158460FF090FF6A4619A93A980DF0E5FE04AA1C21584676
:2004E00000E002E00FF084FF00BF00BF214605F12400F5F729FA0446002C7FF428AE3A9918
:200500003698886000BF77E5047E030830BCBDE8C08F00002DE9F34FB3B08146349809F155
:200520001401826831A8F4F793F910B935B000F02FBA34988068309031A9349881604D4657
:200540000021484617F0D6F82D900021484617F0D1FA2C900021484617F004FC2B9048461E
:2005600016F0C5F8B5F884104843001200B22A90484616F0A7F8B5F886104843001200B2A9
:200580002990484616F00EFA0146B9F814202C9802442D981044401A00B22890484616F05F
:2005A000ECFA0146B9F816202B9802442D981044401A00B2279024A80CF0BAFE24AA4FF4B1
:2005C000A021484618F0F2F916A80DF087FE16AA4FF40031484618F068FA4FF4003148466B
:2005E00017F0D8FE064600EBD67047104FF40031484617F0F3F8064600EBD6704FEA600838
:20060000BDF99200474501DA394600E0414600EBD072B1EB620F06DD9DF8990020F01000DA
:2006200010308DF89900BDF89200012806D19DF8990020F0100010308DF8990005F124004F
:20064000F5F788F9044698E1207B00F0010000B18DE12089ADF890002089ADF85C0095F8AA
:200660008800C0F3C00008B9608900E0002006B215962898ADF8BC002898ADF8B800159E81
:20068000159EB346606830F816000A2847D02A980090236833F91600237BC3F3C00C05F12A
:2006A000780333F91C20237BC3F3C00C05F1740333F91C10002313F0C1FE00B2ADF8B8007E
:2006C000BDF8B8102898084400B2ADF8B80029980090636833F91600237BC3F3001C05F1BE
:2006E000700333F91C20237BC3F3001C05F16C0333F91C10002313F0A1FE00B2ADF8BA001C
:20070000BDF8BA102998401A00B2ADF8BA00BDF8BA102798084400B2ADF8BA0005E04EF26E
:200720000100ADF8B800ADF8BA0003A8349915F00EFD4FF4A02010909448049003200590A9
:2007400024A8099016A8079014944FF0000AC8E0BDF8B800ADF8BC00BDF8BA00ADF8BE00A6
:2007600015985044B5F8821090FBF1F201FB120006B2606830F9160047F6FF71884247D030
:2007800029980090636833F91600237BC3F3001C05F1700333F91C20237BC3F3001C05F154
:2007A0006C0333F91C10002313F048FE00B2ADF8BA00BDF8BA102998401A00B2ADF8BA004A
:2007C000BDF8BA102798084400B2ADF8BA002A980090236833F91600237BC3F3C00C05F149
:2007E000780333F91C20237BC3F3C00C05F1740333F91C10002313F021FE00B2ADF8B800DD
:20080000BDF8B8102898084400B2ADF8B80001E0B34662E0BAF1000F5DD0BDF8BC00C01BF1
:2008200000B2ADF80400BDF8BC00384400B2ADF80800BDF8BE00A0EB080000B2ADF80600AE
:20084000BDF8BE00404400B2ADF80A00AAF101001190606830F91B0047F6FF71884201D0AF
:200860002FA800E000200C90606830F9160047F6FF71884201D02EA800E000200D9001A89A
:200880000690606830F91B00139003AA1B2148460FF0AEFD606830F91B0047F6FF7188426F
:2008A00013D0606830F9160088420ED02EAB2FAA24A934980CF025FD3FB1B8F1000F04D0C1
:2008C00001AA16A934980DF0EDFC03AA1C2148460FF08EFD00BFB34600BF0AF101001FFA6E
:2008E00080FAB5F8820050453FF732AFB5F8820050453BD1606830F9160047F6FF71884255
:2009000034D0BDF8B800C01B00B2ADF80400BDF8B800384400B2ADF80800BDF8BA00A0EBEE
:20092000080000B2ADF80600BDF8BA00404400B2ADF80A00AAF10100119000200C900D9068
:2009400001A80690606830F91600139003AA1B2148460FF04DFD01AA16A934980DF0A2FC1D
:2009600003AA1C2148460FF043FD00BF00BF214605F12400F4F7E8FF0446002C7FF464AEF4
:2009800034993098886000BFD0E50000047E030830BCBDE8C08F2DE9F74FA2B00F46F88D71
:2009A00010B925B000F0B0BE97F83600022800DCF7E7F88D012808D1B7F93400002804DC1F
:2009C000388E10B9788E00B9EBE724980088398E0844B98E401A00B2ADF880002498808864
:2009E000398E0844B98E084400B2ADF8840024984088798E0844B98E401A00B2ADF8820025
:200A00002498C088798E0844B98E084400B2ADF88600B7F92E0000EBD071BDF88020A2EB23
:200A20006101491E09B2ADF87810B7F92E0000EBD071BDF8842002EB6101491C09B2ADF88E
:200A40007C10B7F92E0000EBD071BDF88220A2EB6101491E09B2ADF87A10B7F92E0000EBA0
:200A6000D071BDF8862002EB6101491C09B2ADF87E1097F836001D901D98FD2801DDFF20EF
:200A80001D9022981EA982681BA8F3F7E1FE00B987E719A8249908F0B5FB4FF0FF3211469E
:200AA00019A808F0D6FCB7F9008019A808F099FC834619A808F006FC834503DA19A808F04B
:200AC00090FC02E019A808F0FDFB18901898B8EB600F02DD18984FEA6008B7F90000179006
:200AE00020A808F07EFC834620A808F0EBFB834503DA20A808F075FC02E020A808F0E2FBF8
:200B00001890DDE91701B0EB610F02DD189840101790B7F92E1017980C1804FB04F14800C1
:200B200013F05CFC8246B7F92E20179803B2514620A821F072FC1EA80CF032FF16904FF07A
:200B40000109169820B9F878FF2801DBB87808B14FF000094FF0FF300F90B9F1000F0BD1BE
:200B600001230FFA88F219A910A80DF09DFA002110A80CF00DFC0F901EA808F032FC83468E
:200B800013F02CFC0E901C2102A813F0C8FE0CA8029007900E980590B88DADF8100097F83B
:200BA00036008DF82000B8788DF821001EA808F018FC834600EBDB70BDF8781001EB60002A
:200BC00000B201901EA808F07DFB834600EBDB70BDF87A1001EB600000B20090BDF87C009F
:200BE000ADF83400BDF87C00001B401C00B2ADF83000BDF87A00ADF83200BDF87A00204454
:200C0000401E00B2ADF83600BDF930100198814202DDBDF9300000E00198ADF83000BDF9CE
:200C200036100098814202DABDF9360000E00098ADF8360022980CA982680AA8F3F708FEFD
:200C4000002866D00FFA88F219A90AA8F3F741FE00285ED10AA808F0C4FB83465646BDF93B
:200C60002A00BDF97A10401A00FB0466BDF92810BDF97C00001B401C081A0644B9F1000F8F
:200C800009D00FFA88F219A90AA8F3F79DFE10B10120099001E0CDF82490BBF1000F37DD5B
:200CA0000E980590BDF82800ADF83000BDF82C00ADF8340002208DF81800BDF92A5023E09B
:200CC000ADF83250ADF836500998A8B9224631460E9813F03AFCBDF928105B462A460E985D
:200CE0000CF00AFE8DF818009DF81800012804D102208DF8180000E0059602A922980DF00C
:200D00001CFD2644681C05B2BDF92E00A842D7DA00BFBDF87C00ADF83400BDF87C00001B81
:200D2000401C00B2ADF83000BDF87E00001B401C00B2ADF83200BDF87E00ADF83600BDF9D9
:200D400030100198814202DDBDF9300000E00198ADF83000BDF932100098401C814202DD56
:200D6000BDF9320001E00098401C00B2ADF8320022980CA982680AA8F3F76AFD002866D073
:200D80000FFA88F219A90AA8F3F7A3FDA8BB0AA808F027FB83465646BDF93600BDF92E105E
:200DA000401A00FB0466BDF92810BDF97C00001B401C081A0644B9F1000F09D00FFA88F25C
:200DC00019A90AA8F3F700FE10B10120099001E0CDF82490BBF1000F38DD0E980590BDF822
:200DE0002800ADF83000BDF82C00ADF8340002208DF81800BDF92E5024E028E0ADF8325016
:200E0000ADF836500998A8B9224631460E9813F09CFBBDF928105B462A460E980CF06CFD7C
:200E20008DF818009DF81800012804D102208DF8180000E0059602A922980DF07EFC2644EA
:200E4000681E05B2BDF92A00A842D7DD00BFBDF87800204400B2ADF83000BDF87C00001BB4
:200E600000B2ADF83400BDF87A00ADF83200BDF87A002044401E00B2ADF83600BDF9361067
:200E80000098814202DABDF9360000E00098ADF8360022980CA982680AA8F3F7D9FC0028EA
:200EA00070D00FFA88F219A90AA8F3F712FD002868D10AA808F095FA83465646BDF92A0023
:200EC000BDF93210401A00FB0466B9F1000F09D00FFA88F219A90AA8F3F776FD10B1012093
:200EE000099001E0CDF82490BBF1000F49DD099810B90E98059001E000200590BDF8280006
:200F0000ADF83000BDF82C00ADF83400BDF92A5033E0ADF83250ADF836500998C8B93178E2
:200F20005A460E9813F05AFCBDF928105B462A460E980CF0E1FC8DF818009DF81800012821
:200F400002D102208DF8180002A922980DF0F5FB10E01D98FF2801D1307805E0307897F84B
:200F6000361010FB01F000128DF8200002A922980DF0E3FB2644681C05B2BDF92E00A842C5
:200F8000C7DA00BF97F836008DF82000BDF87800204400B2ADF83000BDF87C00001B00B271
:200FA000ADF83400BDF87E00001B401C00B2ADF83200BDF87E00ADF83600BDF93210009887
:200FC000401C814202DDBDF9320001E00098401C00B2ADF8320022980CA982680AA8F3F7D8
:200FE00037FC00287DD00FFA88F219A90AA8F3F770FC00287AD10AA808F0F3F9834656468E
:20100000BDF93600BDF92E10401A00FB0466BBF1000F6ADDB9F1000F09D00FFA88F219A958
:201020000AA8F3F7D1FC10B10120099001E0CDF82490099810B90E98059001E00020059037
:20104000BDF82800ADF83000BDF82C00ADF83400BDF92E5042E0ADF83250ADF83650B9F1D2
:20106000000F09D00FFA88F219A90AA8F3F7ACFC10B10120099001E0CDF824900998C8B908
:2010800031785A460E9813F0A9FBBDF928105B462A460E980CF030FC8DF818009DF81800A3
:2010A000012802D102208DF8180002A922980DF044FB10E01D98FF2801D1307805E0307801
:2010C00097F8361010FB01F000128DF8200002A922980DF032FB2644681E05B2BDF92A0072
:2010E00001E003E001E0A842B5DD00BF97F836008DF82000BDF87C00001B401C00B2ADF8A7
:201100003000BDF87C00ADF83400BDF87A00204400B2ADF83200BDF87E00001B00B2ADF8D4
:201120003600BDF932100098401C814202DABDF9320001E00098401C00B2ADF83200BDF9F2
:2011400036100098814202DDBDF9360000E00098ADF83600BDF930100198814202DDBDF9E9
:20116000300000E00198ADF8300022980CA982680AA8F3F76DFBE0B30FFA88F219A90AA80A
:20118000F3F7A7FBA8BB0AA808F02BF983465646601E00FB0466BDF92810BDF97C00001B0F
:2011A000401C081A0644B9F1000F09D00FFA88F219A90AA8F3F708FC10B10120099001E094
:2011C000CDF82490099808B1304600E00E980590BBF1000F33DDBDF82800ADF83000BDF879
:2011E0002C00ADF8340002208DF81800BDF92A5021E025E0ADF83250ADF836500998A0B9A9
:201200005A4631460E9813F0A0F9BDF928105B462A460E980CF070FB8DF818009DF818001F
:20122000012802D102208DF8180002A922980DF084FA681C05B2BDF92E00A842DADA00BF97
:201240005646002515E030463319591E002208E0037891F800C080F800C00B70401C491E5B
:20126000521C04EBD47CB2EB6C0FF1DB2644681C05B2A542E7DBBDF87800ADF83000BDF8D8
:2012800078002044401E00B2ADF83400BDF87A00204400B2ADF83200BDF87E00001B00B26D
:2012A000ADF83600BDF932100098401C814202DABDF9320001E00098401C00B2ADF8320082
:2012C000BDF936100098814202DDBDF9360000E00098ADF83600BDF934100198401E8142E5
:2012E00002DABDF9340001E00198401E00B2ADF8340022980CA982680AA8F3F7A9FAD0B3AA
:201300000FFA88F219A90AA8F3F7E3FA98BB0AA808F067F883465646601E00FB0466BDF9B5
:201320002800BDF93010401A0644B9F1000F09D00FFA88F219A90AA8F3F746FB10B1012055
:20134000099001E0CDF82490099808B1304600E00E980590BBF1000F33DDBDF82800ADF862
:201360003000BDF82C00ADF8340002208DF81800BDF92A5021E025E0ADF83250ADF836503C
:201380000998A0B95A4631460E9813F0DEF8BDF928105B462A460E980CF0AEFA8DF81800D7
:2013A0009DF81800012802D102208DF8180002A922980DF0C2F9681C05B2BDF92E00A8429F
:2013C000DADA00BFBDF87800ADF83000BDF878002044401E00B2ADF83400BDF87A00ADF84A
:2013E0003200BDF87A002044401E00B2ADF83600BDF934100198401E814202DABDF93400C3
:2014000001E00198401E00B2ADF83400BDF936100098814202DABDF9360000E00098ADF82D
:20142000360022980CA982680AA8F3F711FAD0B30FFA88F219A90AA8F3F74BFA98BB0AA8C8
:2014400007F0CFFF83465646BDF92A00BDF93210401A00FB0466BDF92800BDF93010401A9D
:201460000644B9F1000F09D00FFA88F219A90AA8F3F7AAFA10B10120099001E0CDF8249036
:201480000E980590BBF1000F36DDBDF82800ADF83000BDF82C00ADF8340002208DF8180018
:2014A000BDF92A5024E028E0ADF83250ADF836500998A8B9224631460E9813F046F8BDF920
:2014C00028105B462A460E980CF016FA8DF818009DF81800012804D102208DF8180000E02A
:2014E000059602A922980DF028F92644681C05B2BDF92E00A842D7DA00BFBDF87800ADF819
:201500003000BDF878002044401E00B2ADF83400BDF87E00001B401C00B2ADF83200BDF839
:201520007E00ADF83600BDF932100098401C814202DDBDF9320001E00098401C00B2ADF8B0
:201540003200BDF934100198401E814202DABDF9340001E00198401E00B2ADF834002298C2
:201560000CA982680AA8F3F773F9D0B30FFA88F219A90AA8F3F7ADF998BB0AA807F031FF8E
:2015800083465646BDF93600BDF92E10401A00FB0466BDF92800BDF93010401A0644B9F125
:2015A000000F09D00FFA88F219A90AA8F3F70CFA10B10120099001E0CDF824900E9805904C
:2015C000BBF1000F36DDBDF82800ADF83000BDF82C00ADF8340002208DF81800BDF92E50DE
:2015E00024E028E0ADF83250ADF836500998A8B9224631460E9812F0A8FFBDF928105B46CE
:201600002A460E980CF078F98DF818009DF81800012804D102208DF8180000E0059602A91A
:2016200022980DF08AF82644681E05B2BDF92A00A842D7DD00BFBDF87800204400B2ADF8A5
:201640003000BDF87C00001B00B2ADF83400BDF87A00204400B2ADF83200BDF87E00001B19
:2016600000B2ADF836000E98059022980CA982680AA8F3F7EDF8A8B30FFA88F219A90AA876
:20168000F3F727F970BB0AA807F0ABFE8346BBF1000F26DDBDF82800ADF83000BDF82C00A9
:2016A000ADF83400BDF92A5017E0ADF83250ADF836505A46FF210E9813F090F8BDF92810F9
:2016C0005B462A460E980CF017F98DF8180002A922980DF032F8681C05B2BDF92E00A84215
:2016E000E3DA00BFB9F1000F05D110A80CF033F90F980CF0C5FD50460FF016F80E980FF052
:2017000013F800BFFFF74DB930BCBDE8C08F00002DE9F74FD6B0934656985590584607F000
:2017200091FE814600EBD9704FEA600A584607F0FAFD804600EBD8704010824507DA584661
:2017400007F080FE074607EBD770401006E0584607F0E9FD054605EBD570401006B2BBF8A2
:201760000000304400B2ADF85001BBF80200304400B2ADF8520151A80BF0DAFD51AA4FF471
:20178000C021569817F012F99DF84D0120F0100010308DF84D0149A80BF00EFD49AA4FF425
:2017A000C021569817F09CF825A8579914F0CFFCFE4826904FF4C02032900320279051A87F
:2017C0002B9055982430F4F7C5F804460CE236943746A088381A00B22490A089381A0FFA82
:2017E00080FABDF850112498081A00B2ADF88800BDF852112498081A00B2ADF88A00BDF810
:2018000050112498084400B2ADF88C00BDF852112498084400B2ADF88E00012347F6FF72A5
:2018200022A943A80CF040FCBDF85001A0EB0A0000B2ADF88000BDF85201A0EB0A0000B2F9
:20184000ADF88200BDF850015044401E00B2ADF88400BDF852015044401E00B2ADF88600B7
:20186000012347F6FF7220A93DA80CF01DFCBDF85001C01B00B2ADF87800BDF85201C01B40
:2018800000B2ADF87A00BDF850013844401E00B2ADF87C00BDF852013844401E00B2ADF88B
:2018A0007E00002347F6FF721EA937A80CF0FCFB002137A80BF06CFD1D904FF0FF301C9015
:2018C000608910B16089401E01E04FF6FF701B904FF0000872E11B98401C1B9000201A90B9
:2018E00061891B98814203D100201B9001201A90A06900906088421E00214046636912F0C8
:201900009DFD8146CDF8D4901A9810B12089199001E020681990199818901A9808B1E08939
:2019200000E0E08800B217901798169055983030F4F710F8054660E02879022800D056E015
:20194000A868484552DCE86848454FDB298A1698084400B21690698AA88A814202D1688A03
:20196000199043E0A87D00F0010050B1FF20009000234846D5E9021212F060FDC0B21390DE
:2019800009E0FF20009000234846D4E9051212F055FDC0B21390A98A1191698A12911398AB
:2019A00000F1040C4FEADC00BDF848C04CEA0C4CDFF8FCE10CEA0E01BDF844C04CEA0C4CC6
:2019C0000CEA0E02A2EB010C0CFB00FC01EB5C1C0CEA0E0343EA134C1FFA8CFCCDF840C007
:2019E000BDF840E0F446CDF864C000BF00BF294655983030F3F7A8FF0546002D9CD1E08BD4
:201A000000FB08F000EB800041006088401E91FBF0F0B4F9201001EB810100EB4100159059
:201A2000BDF86400ADF844011698ADF84601BDF950013844822F01DA822100E039460844AC
:201A400000B2ADF85000BDF85201ADF8520054AB4FF4807214A8159919F0A0F854A82E90E7
:201A600014A82F90CDF8CC8049A82A901A98002871D01D980CF004FCB4F91000AAEB000011
:201A80001390BDF850111398084400B2ADF84800BDF85201ADF84A0054AB4FF4807212A812
:201AA000159919F07BF8202249A90AA812F04DFD0AA82A904B463FA2102106A81AF070F99A
:201AC00006A8309025AA1B2156980EF091FC002141F6FF72BDF93601CDE901210090BDF940
:201AE000383105A8499A30991DF023FABDF9140000EBD071BDF84820A2EB610109B2ADF898
:201B00000C10BDF9160000EBD071BDF84A20A2EB610109B2ADF80E10BDF80C00BDF814108B
:201B2000084400B2ADF81000BDF80E00BDF81610084400B2ADF812000020009003AA309B77
:201B40002A9957980BF02CF8002137A80BF020FC1D9008E0FFE700202A90309025AA1B217D
:201B600056980EF045FC1A9909B13DA900E043A9084600210BF00CFC1C9054AB14AA51A944
:201B800057980BF0BEFB1C980CF07AFB25AA172156980EF02DFCBDF86000ADF844011798B3
:201BA000ADF8460108F1010006E00000E48303081FF8E007256400001FFA80F86088404562
:201BC0003FF789AE43A80BF0C6FE3DA80BF0C3FE37A80BF0C0FE1D980CF052FB2146559863
:201BE0002430F3F7B1FE0446002C7FF4F0AD59B000F000B830BCBDE8C08F00002DE9F04F8C
:201C0000B1B005468B4690462E464146284603F063FC04462089C0F30E00012802DC31B01A
:201C200000F0CEB92089C0F3C03020B9208810B9608800B9F3E70021284615F05BFF824666
:201C40000021284615F056FD504400B22E90284614F04DFDB6F884104843001200B22D908F
:201C600025A80BF0A9FA25AA4FF4C021284616F037FE284614F096FE0146AA8A2E981044C2
:201C8000401A00B22490B8F1020F0ED12089C0F3C03028B14FF4C021284615F06BFE00E0E6
:201CA00000202390B5F91A900DE02089C0F3C03028B14FF4C021284616F054F800E0002003
:201CC0002390B5F91690B8F1020F16D1DBF80800B0F90600484500DAA1E7239848442599DE
:201CE000B1F908100844B4F900100844DBF80810B1F90210884200DA91E720A80BF018FB34
:201D000020AA4FF4C021284616F050FE0020ADF88600ADF8840059460EA814F018FAA64846
:201D20000F900620109002201C904FF4C0201B9025A8139020A81490B8F1020F01D001201A
:201D400000E000200D9096F8880000F00700022822D10021284615F079FEB6F884104843E4
:201D60004FEA202A2D985044B6F8821090FBF1F000B20B900B99A1EB0A0000EBD0714A10CE
:201D80002499114409B224910B98A0EB0A012D98401A00B22D9000BFADF8C2902089C0F3E8
:201DA0000E00401E6168C1F30E4148430C900027FBE000200B906068C0F30E40B7FBF0F1AB
:201DC00000FB117008B901200B90BDF982102D98401A78430C99B0FBF1F12498084400B2FC
:201DE000ADF8C000ADF8BC000D9868B1BDF9C2100B9810B1B4F9000001E0B4F90200081A14
:201E000000B2ADF8BE000CE0BDF9C2100B9810B1B4F9000001E0B4F90200084400B2ADF8F5
:201E2000BE0030A817902FA8189096F8880000F00700032810D106F178000D9930F911007E
:201E4000009006F1740030F91130002138460C9A12F0F4FA824604E06068C0F30E40B7FBC1
:201E6000F0FACDF878A00B98002871D02089C0F3C03000286CD0534650A2102107A819F06B
:201E80008FFF25A8139007A8199010201A900EAA1B2128460EF0ACFA002141F6FF72BDF98D
:201EA000A600CDE901210090BDF9A83006A8259A19991DF03EF8BDF9180000EBD071BDF875
:201EC000BC20A2EB610109B2ADF81010BDF9180000EBD071BDF8BC2002EB610109B2ADF87D
:201EE00014100D9878B1BDF8BE102398081A00B2ADF81600BDF81600BDF81A10401A00B26D
:201F0000ADF812000EE0BDF8BE102398084400B2ADF81200BDF81200BDF81A10084400B285
:201F2000ADF81600BDF91400B5F9141088420DDBBDF91010B5F91800814207DC00200090A6
:201F400004AA25A95846199B0AF02AFE09E0FFE70020139019901A900EAA1B2128460EF04C
:201F600047FABDF9821001EBD172BDF9C03003EB6202B5F914309A4211DBBDF9820000EBD4
:201F8000D072BDF9BC30A3EB6203B5F91820934205DC2FAB30AA20A958460BF0B2F90EAA55
:201FA0001C2128460EF024FA7F1C0C9887427FF600AF00BF33E60000047E03082564000040
:201FC00030BCBDE8C08F00002DE9F74FB2B00546164631953146284603F07EFA04462089B3
:201FE000C0F30E00012802DC35B000F07FB92089C0F3C03020B9208810B9608800B9F3E7FB
:202000000EB1012000E0002083460021284615F071FB2E900021284615F0A4FE2D902846F8
:2020200014F050FB3199B1F886104843001200B22C90284614F0A1FD0146EA8A2D98024467
:202040002E981044401A00B22B904EB94FF4C021284615F04FFD0746B5F914002A9008E004
:202060004FF4C021284615F0D5FD0746B5F918002A90B4F900002990B4F902002890012E2E
:2020800007D12998404200B229902898404200B2289025A80BF04CF925AA4FF4C0212846A0
:2020A00016F084FC1DA80BF087F81DAA4FF4C021284616F015FC0BA8339914F048F8894857
:2020C0000C9006200D9019960004189025A811901DA810902089C0F30E00401E6168C1F32E
:2020E0000E4100FB01F94FF00008F6E0BDF996102C98401A00FB08F0B0FBF9F12B9808446E
:2021000000B2ADF8C200ADF8BE002A98ADF8C00036B9BDF8C000401E00B2ADF8C00005E05E
:20212000BDF8C000401C00B2ADF8C00000200A906068C0F30E40B8FBF0F100FB118008B953
:2021400001200A900A9838B1BDF8C0102998081A00B2ADF8BC0006E0BDF8C0102898081A71
:2021600000B2ADF8BC0030A814902FA815903198703030F91B00009031996C3131F91B303B
:20218000A9EB08004A46002112F058F98246CDF86CA00A98002872D02089C0F3C030002886
:2021A0006DD0534650A2102106A819F0F9FD1DA8109006A81690102017900BAA1B2128468A
:2021C0000EF016F9002141F6FF72BDF98600CDE901210090BDF9883005A81D9A16991CF0F8
:2021E000A8FEBDF9160000EBD071BDF8BE20A2EB610109B2ADF80E10BDF9160000EBD07149
:20220000BDF8BE2002EB610109B2ADF81210BBF1000F0FD1BDF8BC00BDF81410401AC01B40
:2022200000B2ADF80C00BDF8BC00C01B00B2ADF810000EE0BDF8BC00384400B2ADF80C004A
:20224000BDF8BC00BDF814100844384400B2ADF81000BDF91210B5F9160081420DDBBDF908
:202260000E10B5F91A00814207DC0020009003AA1DA9169B33980AF093FC09E0FFE70020BB
:202280001090169017900BAA1B2128460EF0B0F8BDF9961001EBD172BDF9C23003EB6203C6
:2022A000B5F91620934211DBBDF9960000EBD072BDF9BE30A3EB6203B5F91A20934205DCCB
:2022C0002FAB30AA25A933980BF01BF80BAA1C2128460EF08DF808F10108C8457FF606AF87
:2022E00000BF81E6047E03082564000030BCBDE8C08F00002DE9F04105460E4617466748D0
:202300000078002859D128460AF05FF880463A4631462846624B1B689847B8F1000F4BD027
:20232000604800681CF0D8F904465F48007808B35E48006800EBC0005D4901EB8000406918
:20234000401C5A49096801EBC101594A02EB810148615648006800EBC000114601EB800030
:20236000C06820445149096801EBC10102EB8101C86020E04D48006800EBC0004C4901EB58
:2023800080000069401C4949096801EBC101484A02EB810108614548006800EBC0001146E6
:2023A00001EB8000806820444049096801EBC10102EB8101886000BF6DE038480078012839
:2023C00062D128460AF001F880463A4631462846334B1B689847B8F1000F54D0354800689D
:2023E000E8B3344800681CF077F904462E48007808B32E48006800EBC0002D4901EB800084
:202400004069401C2949096801EBC101284A02EB810148612548006800EBC000114601EBD9
:202420008000C06820442149096801EBC10102EB8101C86022E01D48006800EBC0001C4991
:2024400001EB80000069401C1849096801EBC101174A02EB810108611448006800E00EE000
:2024600000EBC000114601EB8000806820440F49096801EBC10102EB8101886000BF1CF009
:2024800039F90C49086006E004480078022802D1284609F0A2FFBDE8F08100005C0100101B
:2024A00074010010700100106801001064080010800100106C0100102DE9FE4F06460C4612
:2024C000174698462021304616F0E5F800287DD00C98032803D1304614F03BFB02E0304607
:2024E00014F041FB814610F033F805464FF0000A002002900C98032843D10021304615F0E5
:20250000BDFA83460021304615F048FB0190B9F1010F23D0B9F1020F28D0B9F1030F2ED1B0
:2025200006F1140006F017FFA0EB0B010198081A009000EBD0700BEB6000B18A08440FFA91
:2025400080FA05F1140006F006FF009000EBD070A98A01EB600000B2029010E0B08A5844B8
:202560000FFA80FAB5F91400029008E0318B0198081A0FFA80FAB5F91800029000BF00BFCC
:2025800045E00021304615F0B1FB83460021304615F0B4F90190B9F1010F25D0B9F1020FC1
:2025A0002AD0B9F1030F30D106F1140006F060FEA0EB0B010198081A009000EBD0700BEB02
:2025C0006001F08A08440FFA80FA00E054E005F1140006F04DFE009000EBD0704110E88A74
:2025E000084400B2029010E0F08A58440FFA80FAB5F91600029008E0718B0198081A0FFAC4
:2026000080FAB5F91A00029000BF00BF00BFB8F1000F17DAB9F1000F05D00298504502DD64
:20262000204600F035B8002C01DAA01E04B2002C01DDA01C04B22146E01704EB9070801083
:2026400000B2EEE7002F16DAB9F1000F04D00298504501DA2046E4E7002C01DAA01E04B291
:20266000002C01DDA01C04B22246E01704EB9070801000B2D5E709E008EB0400002802DAAE
:20268000C8F1000004B2381B00D53C462046C8E71EBCBDE8E08F10B50446207EC0F380003E
:2026A00008B1002010BD207A242802D0252803D100E000BF0120F5E700BF00BF4FF480417D
:2026C000606815F0E8FF08B90020EBE7207A12381C2823D2DFE800F00E0F10111213141533
:2026E00016171822221922221A1D1B1C222222221E1F222000BF00BF00BF00BF00BF00BF05
:2027000000BF00BF00BF00BF00BF00BF00BF00BF00BF00BF00BF00BF0020C3E70120C1E732
:202720002DE9F04104460FF0FFFE07469FB13868806818B1217A386882689047207EC0F3D1
:20274000400010B10120BDE8F081207E00F0010008B10020F7E701260021606814F014F8DB
:2027600005464FF0000827E02868F0B1287A00F08000802819D1287A802805D0287A20F01A
:202780008000217A884210D16868E060204629688847207EC0F3400008B10120D3E7207EDA
:2027A00000F0010008B10020CDE708F101084146606813F0E9FF05460DB1012ED4D021461C
:2027C000002013F0E5FE06460EB9002003E00021606813F0D9FF05464FF0000823E02868F4
:2027E000D0B1287A00F08000B0B9287A18B1287A217A884210D16868E060204629688847B4
:20280000207EC0F3400008B101209CE7207E00F0010008B1002096E708F101084146606894
:2028200013F0B2FF05460DB1012ED8D0012E11D16068406870B12046FFF72DFF50B1606811
:20284000406860602046FFF76BFF0646012E01D0002078E7304676E72DE9F04194B00446D7
:20286000204618F0F9F82548006815F0C3FE8046204615F0BFFEA8EB0006314600201FF031
:20288000CDF805B22946204618F078F84FF47A71C8201FF0C3F8074601A805F02BFE214614
:2028A00001A805F0F1FE164901A805F0B3FE1348006813F089FF0646204613F085FF351A07
:2028C0002A46002101A805F0D5FE394601A805F0BBFE394601A805F0A5FE4FF6FF7101A802
:2028E00005F0A7FE0C9800EBD07149100D9101A805F0DEFE14B0BDE8F081000068080010A3
:202900000529010870B505460C4621B2284618F04DF870BD2DE9F0438046DDE9074521B908
:202920002A7022701A70BDE8F0834FEA282000F00209B9F1000F04D000BF99462B464D461E
:2029400000BF00F00409B9F1000F04D000BFA1462C464D4600BF00F00609B9F1000F09D132
:2029600000F00109B9F1000F0ED100BF994623464C4609E000F00109B9F1000F04D000BFFD
:20298000994623464C4600BF22706FEA010909F0FF0602FB06F74FEA272985F8009008F023
:2029A000FF0C00F00109B9F1000F0DD1BCF1000F02D14FEA012905E0CCF1000909F0FF09DD
:2029C00009FB01F94F4601E001FB0CF73E126FEA060909F0FF0602FB06F74FEA272983F8D0
:2029E000009000BF9FE72DE9FF4F85B09146DDE912A6059D069806F0D8FC8046069806F0B0
:202A000053FC8346022208A904A811F09EFD8DF812A0002E39D1BAF1FD0F1EDB002706E055
:202A2000032204A9284611F090FDED1C7F1C4745F6DBA9EB080000EB40000544012409E0A9
:202A400008EB48022846059911F07FFD09EB49000544641C5C45F3DB63E00395002411E04B
:202A6000002706E05246284608991FF09FFBED1C7F1C4745F6DB09EB490103980844039040
:202A8000039D641C5C45EBDB4BE0BAF1FD0F18DB0395002412E0002707E032782846089965
:202AA0001FF084FB761CED1C7F1C4745F5DB09EB4901039808440390039D641C5C45EADBB8
:202AC0002FE00020039002900195002426E0002717E0307890B131780398814209D0307853
:202AE000FF2801D1504603E0307800FB0AF0000A02902846029A08991FF058FBED1C761C83
:202B00007F1C4745E5DB09EB4901019808440190019D1498A0EB08000644641C5C45D6DB21
:202B200000BF09B000F000B830BCBDE8C08F00002DE9FF4F87B005468B469146DDE914A687
:202B4000584606F032FC0690584606F0ADFB05901798012804D0022804D0032806D103E0BD
:202B6000494F08E0494F06E0494F04E000BF00BF0BB000F08FB800BF8EBB2888049028886F
:202B80005246014602900A98B84703904FF0000821E0002418E0BDF8100035F8141088424C
:202BA0000CD005EB44000088049005EB440000885246014602900A98B847039005EB440054
:202BC000BDF80C100180641C06988442E3DB05EB490508F1010805988045DADB51E0FFE793
:202BE00000200290288804903078FD2801DB504603E0307800FB0AF0000A0190019A04994D
:202C00000A98B84703904FF0000836E000242BE0305D00B927E0315D0298814205D1BDF831
:202C2000100035F81410884217D0305DFD2801DB504603E0305D00FB0AF0000A019005EB6E
:202C40004400008800900146019A0A98B8470390305D029035F81400049005EB4400BDF825
:202C60000C10018000BF641C06988442D0DB05EB49051698064408F1010805988045C5DB2F
:202C800000BF00BF74E700001B9800084D990008BD98000830BCBDE8C08F2DE9FF4F87B0DA
:202CA00004469246DDE91485089806F07EFB8146089806F0F9FA8346002D7ED1B8F1FD0F3A
:202CC0000CDB002707E04A4620460A9908F064FB04EB4A047F1C5F45F5DB87E100BF00207C
:202CE000014602464FEAD20CBDF800306CF304034FEA910C0093BDF800306CF34A134FEAA0
:202D0000D00C0093BDF800306CF3CF230093BDF800C063460193BDF8041008460690424694
:202D200006990A9808F0B2FC059008F104004FEAD0084FEAC8604FEA10680A9A404603A921
:202D40000192BDF80420D20A12FB00F20A80BDF80420C2F3451212FB00F24A80BDF804201B
:202D600002F01F0212FB00F28A8000BFC8F1FF000290002720E0002619E0BDF8180034F8EF
:202D8000161088420DD004EB46000088069004EB460000880190014603A8029A08F020FD22
:202DA000059004EB4600BDF814100180761C4E45E3DB04EB4A047F1C00E002E05F45DADB19
:202DC00014E1BDF8280000EB00400690B8F1FD0F6FDBA9F1040005900027B4E0002614E059
:202DE0002878FF2803D1BDF8280020800AE02A782088014603900A9808F048FC0490BDF886
:202E0000100020806D1CA41C761C4E4503DA05F003000028E4D172E0286804900498401C74
:202E2000A8B904F0030048B1BDF828102180A01C06990160BDF82810E18005E020460699BF
:202E400001600699416000BF08342D1D56E00498002851D02878FF2803D1BDF82800208059
:202E60000AE02A782088014602900A9808F00EFC0390BDF80C0020806D1CA41C2878FF289D
:202E800003D1BDF8280020800AE02A782088014602900A9808F0FAFB0390BDF80C00208051
:202EA0006D1CA41C2878FF2804D1BDF8280020800BE04CE02A782088014602900A9808F0DC
:202EC000E5FB0390BDF80C0020806D1CA41C2878FF2803D1BDF8280020800AE02A78208889
:202EE000014602900A9808F0D1FB0390BDF80C0020806D1CA41C01E02D1D0834361D0598FF
:202F0000864289DD14E02878FF2803D1BDF8280020800AE02A782088014603900A9808F0CF
:202F2000B5FB0490BDF8100020806D1CA41C761C4E45E8DBAAEB090004EB40041698A0EBAD
:202F4000090005447F1C5F45FFF648AF4DE0002003902088059020880490002002900027C2
:202F600040E0002635E0287888B329780398814209D02878FF2801D1404603E0287800FBA6
:202F800008F0000A029029780398814205D1BDF8140034F81610884214D00298FF2802D16B
:202FA0000A98049009E004EB4600008801900146029A0A9808F06AFB04902878039034F8CF
:202FC0001600059004EB4600BDF8101001806D1C761C4E45C7DB04EB4A041698A0EB0900EC
:202FE00005447F1C5F45BCDB00BF00BF0BB000F000B830BCBDE8C08F10B502460B4610681B
:203000001C68A04201D1012010BD0020FCE710B502460B46506820F040401C68A04203D2A6
:20302000506820F040401860002010BD2DE9F04F89B004460020089007900FF075FA0690B8
:2030400006980068057ED4F820800027B946B4F91400002802DDB4F9140002E0B4F9140029
:203060004042B4F91610002902DDB4F9161002E0B4F916104942884201DD012701E04FF0F0
:203080000109CAE01021404615F005FBB0B94FF48071404615F0FFFA08B907B1C1E04FF442
:2030A0000071404615F0F7FA18B9B9F1000F00D0B7E0404613F0D8FB8046AEE0CA46CDF8AD
:2030C00014900497BB46404613F03DFC064606F0010008B90020049006F0020008B94FF03E
:2030E000000B06F0040008B94FF0000A06F0080008B900200590404613F03FFD039040466F
:2031000013F0CAFB0290404613F04CFC0190404613F0B8FC00900398002802DC02980028C3
:2031200011DDBAF1000F03D0B4F91600A84206DA059840B1B4F916006942884203DCCDF81D
:2031400020800C2007900198002802DC0098002811DD049818B1B4F91400A84207DABBF122
:20316000000F08D0B4F914006942884203DCCDF82080032007900398002801DC4FF0000A4B
:203180000298002801DC002005900198002801DC002004900098002801DC4FF0000B049806
:2031A00018B1B4F91400A84215DABBF1000F04D0B4F91400694288420DDDBAF1000F03D070
:2031C000B4F91600A84206DA059878B1B4F91600694288420ADC0FB1032000E00C2094F803
:2031E0003C1060F3030184F83C101AE04FF48071404615F050FA08B907B112E04FF4007142
:20320000404615F048FA18B9B9F1000F00D008E0404613F029FB804600BFB8F1000F7FF442
:2032200031AF00BF089858B194F83C10079860F3030184F83C100898A0620021A182E18267
:20324000089809B000F000B830BCBDE8C08F00002DE9FF4F83B00446204613F07AFC02903B
:20326000029818B9002007B000F08CB841F6FF750021204614F002FC07460021204614F0CC
:203280008DFC8246204613F0C6F983464FF000086AE0A068006850F828603949304615F01E
:2032A00005FA00B15EE04FF48051304615F0F3F9002856D04FF0000900200190029801289B
:2032C00004D0022809D003282CD10EE0B6F91490A08A384400B2019025E0B6F91890208BBE
:2032E000A0EB0A0000B201901DE006F1140006F032F8009000EBD070B18A01EB60000FFA83
:2033000080F904F1140006F026F8C01BA0EB0A00009000EBD070A18A394401EB600000B246
:20332000019000E01EE000BF069848440FFA80F90498814514DB0598814511DC0199A9EBE4
:20334000010108B2002801DD014600E04142002D01DD2A4600E06A42914200DA054600BF43
:2033600000BF00BF08F10108D84592D341F6FF70854201D1002000E0684200B273E7000056
:203380000100040030BCBDE8C08F00002DE9FF4F83B00446204613F0E6FB0290029818B920
:2033A000002007B000F08CB841F6FF750021204614F09CFC07460021204614F09FFA8246FB
:2033C000204613F028F983464FF000086AE0A068006850F828603949304615F067F900B1BB
:2033E0005EE04FF48051304615F055F9002856D04FF00009002001900298012804D00228AA
:2034000009D003282CD10EE0B6F91690E08A384400B2019025E0B6F91A90608BA0EB0A0061
:2034200000B201901DE006F1140005F021FF009000EBD0704110F08A08440FFA80F904F1E3
:20344000140005F015FFC01BA0EB0A00009000EBD0704110E08A3844084400B2019000E07E
:203460001EE000BF069848440FFA80F90498814514DB0598814511DC0199A9EB010108B258
:20348000002801DD014600E04142002D01DD2A4600E06A42914200DA054600BF00BF00BF40
:2034A00008F10108D84592D341F6FF70854201D1002000E0684200B273E70000010004008E
:2034C00030BCBDE8C08F00002DE9FF4F87B00E469046DDE914940021079814F043FF06903D
:2034E0000021079814F062F90590F078C0F34000A8B1F07800F0010020B142F2D171069826
:20350000884208D0F07800F0010040B942F2D1710598884203D1F07820F00200F070F078C4
:2035200000F0010008B18E4800E08E480490F07800F0010008B98A4800E08A48824600203B
:203540006080A08020612080A060E060CDF80C800399079813F041F80546CFE00398404528
:2035600006D04FF40001284615F095F800B1C8E07D49284615F09AF800287DD10021284608
:2035800014F0F8F80290029800287DD02069401C2061A088484400B2A080207D00F001001C
:2035A00000286BD0226902EB82029100E06817F007FC074600BF1FB900BF00BF00BFFEE7C3
:2035C00000BF1FB903980BB000F0D0B82069401E00EB800047F82050F07800F0010050B12B
:2035E0004FF0000B02225946284614F01BFC0190019800B20AE04FF0000B052259462846F1
:2036000014F010FC0190019800B200BF2169491E01EB810107EB81018880F07800F00100CB
:2036200050B14FF0000B03225946284614F0FAFB0190019800B20AE04FF0000B062259463D
:20364000284614F0EFFB0190019800B200BF2169491E01EB810107EB8101C8800298216934
:20366000491E01EB810107EB8101C86000212069401E00EB800002E02CE005E01AE007EBA7
:2036800080000161E76015E02846049988470746F078C0F3400030B1B4F90400C1190A987C
:2036A000814200DD2DE0A08807EB0901084400B2A08000BF2846D047B4F90010884202DD71
:2036C0002846D04701E0B4F900002080A068401CA06000BFF078C0F3800010B14FF0FF304A
:2036E00000E001200399084403900398002800DA07E00399079812F070FF0546002D7FF433
:203700002DAF00BFB4F90400002804DDA088A0EB090000B2A080206908B10A9801E0B4F954
:2037200004006080CDB10398404516D1079880680068039950F82150F078C0F3800103AA93
:20374000079801F0A4FB45B12846D047208028460499884760800120A060039833E700008F
:20376000F5850208C96702080100060030BCBDE8C08F00002DE9F04F97B0044600BF00BF40
:203780004FF0000BEE4802885946204614F04AFB0B900B98C6B200BFF0439DF85B1060F3D6
:2037A00000018DF85B10B0089DF85B1060F341018DF85B10F0089DF85B1060F382018DF888
:2037C0005B1000BFDF4802885946204614F02AFB0B900B98C0B28DF8580000BFDA480288E8
:2037E0005946204614F01EFB0B900B98C0B28DF8590000BFD54802885946204614F012FB9D
:203800000B900B98C0B28DF85A000021204613F09DFE012800D100E0002015909DF85B0065
:2038200000F0010020B90021204614F0EBF803E00021204614F036FA14909DF85B0000F02E
:20384000010020B10021204614F0DCF803E00021204614F027FA13909DF85B0000F0010024
:2038600018B1204612F043FF02E0204612F02AFF1290A34600200B905C460B98079010220E
:203880002046079914F0CEFA0690069800B20A9058460B9913F016FF099058460B9913F09E
:2038A000E1FE0890089800F0020018B1DDE90910084400E00A98E18A00EB010B204613F0BE
:2038C00070F9ABEB000000B21190A34600200B905C460B98079012222046079914F0A2FA3C
:2038E0000690069800B20A9058460B9913F0EAFE099058460B9913F0B5FE0890089800F062
:20390000040018B1DDE90910084400E00A98A18A00EB010B204613F03AF9ABEB000000B227
:2039200010909DF85A709DF85B0000F0010008B111A800E010A805460021204614F012FDB8
:203940000F900021204613F031FF0E909DF85B0000F0010040B142F2D1710E98884203D1E4
:20396000608CC0F3402068B19DF85B0000F0010048B942F2D1710F98884204D1608CC0F3F2
:20398000802000B90027159850B19DF85B0000F0010028B90FB9012702E0012F00D100273D
:2039A0004FF0000800200D900C90D7B39DF85B00C0F3800018B1A0684068401E00E00020E3
:2039C000814617E000200B9006A91398CDE900014A4616A92046129BFFF776FD8246BDF815
:2039E00018101498084440440FFA80F80C98401C0C90D146A0684068484502DDB9F1000F1A
:203A0000E0DA0C9820B11498A8EB00000FFA80F89DF85B0000F0010020B1204612F052FE4D
:203A200003E00EE0204612F062FE83460DA8CDE900500C9803B24246594638461CF08AFCD9
:203A400000BF9DF85B00C0F3800018B1A0684068401E00E000208146159840B19DF85B0058
:203A600000F0010018B92888404400B228804DE001200B9006A91398CDE900014A4616A9AD
:203A80002046129BFFF720FD8246159850B19DF85B0000F0010028B92888BDF81810401AE1
:203AA00000B2288006AABDF94430DDE91201CDE90130CDE90312BDF9400053464A4616A969
:203AC00000902046F5F714FAD14609980CF02CFE00200990159868B19DF85B0000F00100B8
:203AE00040B92988BDF8342014981044081A00B228800AE02988BDF81800BDF834200244E0
:203B000014981044084400B2288000BFA0684068484502DDB9F1000FAADA42F2D1710F98CA
:203B2000884202D00E98884202D1204615F0C1FD00222C2120460CF05BFC17B000F008B8DE
:203B4000380000103A0000103C0000103E00001030BCBDE8C08F00002DE9F84306460C466A
:203B6000154601201049087000BFE0886188401A401C87B2A0882188401A401C1FFA80F8E1
:203B80000095628891B2228890B23B464246F0F73CF900BF044800780028FBD1304608F06D
:203BA0001CFCBDE8F8830000000000202DE9FE4F04468946924600200290207F00F0010017
:203BC00010B1029800F087B8E56800264FF0010B0120019000BF95B9207FC0F3C00000B913
:203BE0005EB9019808B90298ECE72046C84705464FF0000B0020019001E00298E2E71EB911
:203C00002E460EB90298DDE7BBF1000F07D029462046D0470546B54201D10298D2E74FF0E7
:203C2000010B05B9D7E7286813F01EFC00F0800000B1D0E72F6809E00121384614F02BFD2B
:203C400000B105E0384612F00FFE0746002FF3D100BF2FB10121384614F01DFD00B1BAE752
:203C600000BF00BFE068A84201D10298AAE7E06898B1204600F04BFE0090E16808681021ED
:203C8000009A0CF0B5FB0746012F01D0029899E7E168086815F0C5F800BFE560204600F0A1
:203CA00036FE0746E1683A4608680F210CF0A0FB8046B8F1010F01D0029883E7E168086876
:203CC00015F0AFF8206910B120462169884701200290029876E71EBCBDE8E08F2DE9F04150
:203CE0000446204600F0CBFB054611480068001B461B0F480068401B0D490860B6B127462A
:203D000061193246204610F020FC06E0A068401BA060204600F0B3FB04440548006884421F
:203D2000F4D1B819294610F0CDFD00BFBDE8F0815C0000202DE9F04FC7B0F34800780228BA
:203D400008D108F051FB8346F0480068DBF80010486100BF00BF0027B84600BFB946BA46F0
:203D6000002439E004EBC401E94A02EB8101896904EBC402E64B03EB820292F8202001FBA0
:203D8000029904EBC4011A4602EB810191F8201039440F4604EBC40394460CEB830393F8E2
:203DA000202002EBD2735B10012B09DD04EBC4030CEB830393F8201001EBD1735B1000E0AB
:203DC0000123184604EBC401D14A02EB8101C96901FB00AA8044641C04EBC400CC4901EB53
:203DE000800040680028BDD109EB0A00459007EB0801469146994598B0FBF1F04490B9FB70
:203E0000F7F04390BAFBF8F042906421429841434398B1FBF0F0419017F05EFB834611F034
:203E20009EFE0020BB49086017F056FB8346012116F0CCF917F050FB83460EF093FFB649A2
:203E40000860B6A1B448449A00680FF0BCFF17F043FB83460EF086FFB5490860B5A1B4485E
:203E6000419A00680FF0AFFF17F036FB834612F03EFC064617F030FB834619F0D3F9409029
:203E80000221409819F081FB06EB460B4FEAEB700BEB90708010C01E02B20021409819F0B2
:203EA000FCFBF01706EB90708010C21E0121409819F0F3FB6420002804DAC0F57A7141F453
:203EC000005101E040F400510FFA81FB5946409816F03CFD0025012300222946409819F035
:203EE00031F999A300222946409819F0ECFA00BF00BF00BF00BF00BF00BF681C85B20024AB
:203F000072E004EBC400824901EB80008069142824D204EBC40001EB800090F820000A2851
:203F20001CDB04EBC40051F8203000222946409819F0C9FA04EBC400754901EB800088A202
:203F40004FF480718369684617F02AFF6B4601222946409819F0B7FA681C85B204EBC4021E
:203F60006B4B03EB8202D269142A3CD204EBC40203EB820292F8201001EBD1725210012AF5
:203F800009DD04EBC40203EB820292F8200000EBD072521000E001220A2A24DB04EBC400F2
:203FA0005B4951F820306FA24FF48071684617F0F7FE6B4600222946409819F084FA04EB45
:203FC000C400534901EB800065A24FF48071C369684617F0E5FE6B4601222946409819F0F2
:203FE00072FA681C85B2641C04EBC400484901EB80004068002884D1012D0DD101230022F3
:204000002946409819F09EF859A300222946409819F059FA681C85B20123002229464098B1
:2040200019F090F855A300222946409819F04BFA681C85B200245BE004EBC400344951F8AD
:20404000203000222946409819F03DFA04EBC4002F4901EB800042A24FF48071836968461E
:2040600017F09EFE6B4601222946409819F02BFA04EBC400264901EB800080690A2800D3D8
:2040800000BF00BF00BF681C85B204EBC400204951F8203033A24FF48071684617F080FE37
:2040A0006B4600222946409819F00DFA00BF00BF04EBC400164901EB800029A24FF48071DB
:2040C000C369684617F06CFE6B4601222946409819F0F9F904EBC4000D4901EB8000C069E1
:2040E0000A2800D300BF00BF00BF681C85B2641C04EBC400064901EB8000406800289BD199
:2041000047B000F041B800005C0100107401001080010010680800106C08001057656967AC
:2041200068746564204650533A20257500000000700800104F70612E2073706565643A207C
:204140002575252500000000536C6F772062757420636F6D6D6F6E20636173657300000093
:20416000257500002573202B206F706100000000416C6C20676F6F6400000000416C6C2047
:20418000636173657300000030BCBDE8C08FF0B5034619468A8C91F83400C0F3410018B94B
:2041A000088D104482B238E091F83400C0F34100022803D1C88C104482B22EE091F8340074
:2041C000C0F34100012828D18E8D35B28E8D4F8DBE4203DA8E8D06F5B47635B20E8D34B24B
:2041E0000E8DCF8CBE4203DA0E8D06F5B47634B24F8D7E1906EBD6777810CE8C864203DA0E
:20420000CE8C1644B2B207E0844203DD0E8D1644B2B201E01618B2B200BF10B2F0BD10B53A
:204220000246114691F83C3003F0030323B1012B04D0022B0DD000BF888C15E026235B5C4B
:204240004FF4B47413FB04F3642493FBF4F398B20AE027235B5C4FF4B47413FB04F36424C4
:2042600093FBF4F398B200BF00BF10BD2DE9F34F87B083465F4605A9584612F04DFA584604
:2042800014F0B8F90290584612F09EFA01900021584613F023FC00900021584613F0AEFC31
:2042A00080460021584613F051FD81460021584613F054FB82460021584613F00BFD054673
:2042C0000021584613F0B6FB0646284605EBD0714910491C05F0010211440DB2304606EB4F
:2042E000D0714910491C06F0010211440EB20D2D01DA284600E00D2005460D2E01DA30464A
:2043000000E00D200646B8F10D0F01DA404600E00D208046B9F10D0F01DA484600E00D200F
:204320008146BAF10D0F01DA504600E00D20824600248BE0B86A00EBC40103A804F074FF36
:20434000BDF90C10009881420FDCBDF9141000980D2801DA009800E00D20081ABDF80C102B
:20436000084400B2ADF80C0008E0BDF80C00BDF81410891B084400B2ADF80C00BDF90E00F5
:2043800048450FDCBDF91600B9F10D0F01DA494600E00D21401ABDF80E10084400B2ADF8CB
:2043A0000E0008E0BDF80E00BDF81610491B084400B2ADF80E00BDF910100298A0EB080051
:2043C000801E81420FDBBDF91400B8F10D0F01DA414600E00D210844BDF81010084400B274
:2043E000ADF8100008E0BDF81000BDF814103144084400B2ADF81000BDF912100198A0EB5E
:204400000A00801E81420FDBBDF91600BAF10D0F01DA514600E00D210844BDF812100844C5
:2044200000B2ADF8120008E0BDF81200BDF816102944084400B2ADF81200002203A80899F9
:20444000F0F71DFB00B105E0601C84B2388EA0423FF770AF00BF388EA04201D14FF6FF7427
:20446000204609B000F000B830BCBDE8C08F014601F007020AB1104670470120FCE7014641
:20448000B1F90C20032303EB420222F0030202F1100070472DE9F84F8246884616461C466C
:2044A000554600202080814608E0286B30F819002188084400B2208009F10109B145F4D316
:2044C0000021504613F066F8012800D100E0002000900098E0B1504612F059FB2188084430
:2044E00000B22080504614F085F883460021504613F0CCFB2188ABEB0101081A00B2A080D4
:20450000286B30F81600A188081A00B2208016E0504612F03CFB2188081A00B2208000212A
:20452000504613F023FB2188084400B22080286B30F8160021880844401E00B2A080002067
:204540006080002707E0E86A30F817006188084400B260807F1C4745F5D30021504613F06C
:2045600049FC6188084400B26080504612F019FB6188081A00B26080E86A30F8180061886B
:204580000844401E00B2E08000F000B818BCBDE8E08F70B5044600252046EBF722FF851C31
:2045A000284670BD2DE9FC5F05460E4617460021284613F07BFA80460021284613F006FB93
:2045C00082460021284613F0A9FB81460021284613F0ACF90190284614F00CF8A0EB080045
:2045E000A0EB0A0B284612F0EFF8A0EB09010198081A834507DA284613F0FCFFA0EB0800CC
:20460000A0EB0A0006E0284612F0DEF8A0EB09010198081A009000EBD070401004B2A88A96
:204620002044404400B23080E88A2044484400B2708007B13C8000F000B83CBCBDE8C09F14
:2046400038B504460025044802882946204613F0E9FB0090009838BD4400001038B50446C4
:204660000025054802882946204613F0DBFB00900098C0B238BD00004C00001038B504466E
:204680000025054802882946204613F0CBFB00900098C0B238BD00004E000010F0B50446A4
:2046A0000B46032B01D2012000E000200546611B981E0C2707FB0500C0EB4010B0FBF7F043
:2046C0001044084400EB91006427B1FBF7F7C01B4FF4C877B1FBF7F738440727B0FBF7FC5A
:2046E00007FB1C06F0B2F0BD2DE9FC4781460E4616B9002000F0D0B8D9F81040606930B1A1
:2047000060690068B04202D160694068F2E70025B1E005EB8501A06850F82100371A05EB7B
:204720008501A06800EB81008088B84200D2A0E04FF0000805EB8501A06800EB8100807CFE
:20474000022808D105EB8501A06800EB8100C08800EB070884E005EB8501A06800EB8100DC
:20476000807C78B905EB8502A16801EB8201C86805EB8502A16801EB8201C988C25D01EBA2
:2047800002086DE005EB8501A06800EB8100807C03282AD1B8B201903E48009005EB85032D
:2047A000A06800EB8300028A05EB8503A06800EB83000223816801A8F1F7CAFD8246BAF130
:2047C000000F11D005EB8502A16801EB82018968AAEB0101481005EB8502A16801EB82012B
:2047E000C98801EB000800BF3AE005EB8501A06800EB8100807C012832D1B8B20190254821
:20480000009005EB8503A06800EB8300028A05EB8503A06800EB83000223816801A8F1F701
:2048200097FD8246BAF1000F19D005EB8503A26802EB83029268AAEB0202501005EB85031A
:20484000A26802EB8302D16805EB8503A26802EB8302D28831F8103002EB030800BF00BF76
:20486000606920B1606906606069C0F80480404640E7681C85B2608AC0F30800A8423FF73D
:2048800048AF606920B16069066000206169486000202FE7696C03080CBCBDE8F0872DE9B6
:2048A000F84F80460D46C146404600F0DCF9064616B9002000F028B8F08A281A05B20021A7
:2048C000304613F064FC009000980BF01CFF82460021304613F0CEFC0446204604EBD071B5
